:100000000C94A7000C9445280C94C4000C94C400D4
:100010000C94C4000C94C4000C94C4000C9480286C
:100020000C94C4000C94C4000C94C4000C94C40040
:100030000C94C4000C94C4000C94C4000C94C40030
:100040000C94C4000C94C4000C94C4000C94C40020
:100050000C94C40000407A10F35A00A0724E1809A4
:100060000010A5D4E80000E87648170000E40B541F
:10007000020000CA9A3B000000E1F50500008096EE
:100080009800000040420F000000A0860100000020
:10009000102700000000E8030000000064000000DA
:1000A00000000A00000000000100000000002C76A3
:1000B000D888DC674F0823DFC1DFAE59E1B1B796BE
:1000C000E5E3E453C63AE651997696E8E6C284261B
:1000D000EB898C9B62ED407C6FFCEFBC9C9F40F2F7
:1000E000BAA56FA5F490055A2AF75C936B6CF96773
:1000F0006DC11BFCE0E40D47FEF520E6B500D0ED38
:10010000902E0300943577050080841E080000209F
:100110004E0A000000C80C333333330F986E12833D
:100120001141EF8D2114893BE65516CFFEE6DB1811
:10013000D1844B381BF77C1D901DA4BBE4242032D6
:1001400084725E228100C9F124ECA1E53D271124CF
:100150001FBECFE5D8E0DEBFCDBF12E0A0E6B0E025
:10016000E6E7F9E602C005900D92A83BB107D9F782
:1001700012E0A8EBB2E001C01D92AF3FB107E1F77A
:100180000E94AB280C94B9340C940000EF92FF92BB
:100190000F931F937B018C0120E030E040E05FE48F
:1001A0000E94D20488238CF0C801B70120E030E01F
:1001B00040E05FE40E943E020E9490059B01AC017A
:1001C000205030404040504806C0C801B7010E944E
:1001D00090059B01AC01B901CA011F910F91FF90DD
:1001E000EF900895A0E0B0E0E8EFF0E00C94D92E95
:1001F000DC012B01FA019C91923008F439C1EB012A
:100200008881823008F433C1943069F4843009F075
:100210002FC111969C9111978981981709F428C1D3
:10022000A0EBB1E025C1843009F421C18230A9F4EA
:10023000923009F01DC19A01AD0188E0EA010990F0
:10024000AE01E90109929E018150C1F7E201898165
:1002500011969C918923818308C1923009F407C1CA
:1002600012962D903C901397EB018A819B811496F6
:10027000AD90BD90CD90DC901797EC80FD800E8105
:100280001F819101281B390BB90137FF04C0662774
:100290007727621B730B603271050CF061C0121678
:1002A00013066CF537014801062E04C09694879416
:1002B000779467940A94D2F721E030E040E050E070
:1002C00004C0220F331F441F551F6A95D2F72150D7
:1002D0003040404050402E213F21402351232115E2
:1002E00031054105510521F021E030E040E050E0CA
:1002F00079018A01E628F728082919293CC0232B0F
:10030000D1F1260E371E35014601062E04C0969403
:100310008794779467940A94D2F721E030E040E024
:1003200050E004C0220F331F441F551F6A95D2F7B7
:1003300021503040404050402A213B214C215D213A
:10034000211531054105510521F021E030E040E063
:1003500050E059016A01A628B728C828D9280BC03F
:10036000821593052CF01C01AA24BB24650103C04F
:10037000EE24FF24870111969C91D20111968C9155
:10038000981709F445C0992339F0A80197012A1953
:100390003B094C095D0906C0A60195012E193F09CC
:1003A000400B510B57FD08C01182338222822483F7
:1003B0003583468357831DC081E081833382228247
:1003C00088279927DC01821B930BA40BB50B848330
:1003D0009583A683B7830DC0220F331F441F551F7B
:1003E0002483358346835783828193810197938346
:1003F00082832481358146815781DA01C9010197C1
:10040000A109B1098F5F9F4FAF4FBF4328F30BC0C6
:10041000918333822282EA0CFB1C0C1D1D1DE48299
:10042000F5820683178383E08083248135814681AA
:10043000578157FF1AC0C901AA2797FDA095BA2F67
:1004400081709070A070B07056954795379527953C
:10045000822B932BA42BB52B84839583A683B78300
:1004600082819381019693838283DF0101C0D2014F
:10047000CD01CDB7DEB7E2E10C94F52EA0E2B0E0FD
:10048000E4E4F2E00C94E52E69837A838B839C8309
:100490002D833E834F835887E9E0EE2EF12CEC0E3E
:1004A000FD1ECE010196B7010E9481078E010F5EED
:1004B0001F4FCE010596B8010E9481078A8991E0FD
:1004C00089278A8BC701B801AE01475E5F4F0E9442
:1004D000F2000E94AC06A096E6E00C94012FA0E288
:1004E000B0E0E5E7F2E00C94E52E69837A838B8334
:1004F0009C832D833E834F835887F9E0EF2EF12CA8
:10050000EC0EFD1ECE010196B7010E9481078E01FF
:100510000F5E1F4FCE010596B8010E948107C701EB
:10052000B801AE01475E5F4F0E94F2000E94AC0628
:10053000A096E6E00C94012FA0E2B0E0E2EAF2E03F
:100540000C94D92E69837A838B839C832D833E837D
:100550004F835887CE010196BE01675F7F4F0E948F
:100560008107CE010596BE016F5E7F4F0E94810715
:100570009985923088F089898230C8F0943019F4D6
:10058000823051F404C0843029F4923081F480EB3D
:1005900091E0C6C0923049F420E09A858A89981388
:1005A00021E02A87CE010996BBC0823049F420E0C1
:1005B0009A858A89981321E02A8BCE014196B0C092
:1005C0002D843E844F8458886D887E888F88988CCF
:1005D000EE24FF248701AA24BB24650140E050E0FB
:1005E00060E070E0E0E0F0E0C10181709070892B84
:1005F000E9F0E60CF71C081D191D9A01AB012A0D44
:100600003B1D4C1D5D1D80E090E0A0E0B0E0E614D5
:10061000F7040805190520F481E090E0A0E0B0E0BF
:10062000BA01A901480F591F6A1F7B1FAA0CBB1CE6
:10063000CC1CDD1C97FE08C081E090E0A0E0B0E09B
:10064000A82AB92ACA2ADB2A3196E032F10549F0F4
:10065000660C771C881C991C5694479437942794F1
:10066000C3CFFA85EA892B893C898B859C85280F25
:10067000391F2E5F3F4F17C0CA0181709070892BC0
:1006800061F016950795F794E79480E090E0A0E07C
:10069000B0E8E82AF92A0A2B1B2B7695679557951F
:1006A00047952F5F3F4F77FDE7CF0CC0440F551F95
:1006B000661F771F17FD4160EE0CFF1C001F111F06
:1006C00021503040403090E0590790E0690790E4B5
:1006D000790760F32B8F3C8FDB01CA018F77907015
:1006E000A070B07080349105A105B10561F447FD9B
:1006F0000AC0E114F1040105110529F0405C5F4FC7
:100700006F4F7F4F40781A8EFE1711F081E08A8F6D
:100710004D8F5E8F6F8F78A383E0898FCE014996CE
:100720000E94AC06A096E2E10C94F52EA8E1B0E0A0
:10073000ECE9F3E00C94E12E69837A838B839C834C
:100740002D833E834F835887B9E0EB2EF12CEC0EBE
:10075000FD1ECE010196B7010E9481078E010F5E3A
:100760001F4FCE010596B8010E94810729852230CE
:1007700008F47EC03989323010F4B8017CC08A8513
:100780009A8989278A87243011F0223031F423177F
:1007900009F06EC060EB71E06EC0343039F41D8634
:1007A0001E861F86188A1C861B8604C0323021F4E0
:1007B00084E08987B7015FC02B853C858B899C8944
:1007C000281B390B3C872B87ED84FE840F85188905
:1007D000AD88BE88CF88D88CEA14FB040C051D05B3
:1007E00040F4EE0CFF1C001F111F215030403C87CD
:1007F0002B8720E030E040E050E080E090E0A0E097
:10080000B0E460E070E0EA14FB040C051D0540F064
:10081000282B392B4A2B5B2BEA18FB080C091D09E6
:10082000B695A79597958795EE0CFF1C001F111F95
:100830006F5F7F4F6F31710531F7DA01C9018F7733
:100840009070A070B07080349105A105B10561F47D
:1008500027FD0AC0E114F1040105110529F0205C0F
:100860003F4F4F4F5F4F20782D873E874F87588BE4
:10087000BE01675F7F4FCB010E94AC066896EAE03D
:100880000C94FD2EA8E1B0E0E8E4F4E00C94E52E31
:1008900069837A838B839C832D833E834F83588720
:1008A00089E0E82EF12CEC0EFD1ECE010196B70179
:1008B0000E9481078E010F5E1F4FCE010596B80181
:1008C0000E9481078985823040F08989823028F032
:1008D000C701B8010E94F90701C081E06896E6E00F
:1008E0000C94012FA8E1B0E0E8E7F4E00C94E52EC9
:1008F00069837A838B839C832D833E834F835887C0
:1009000089E0E82EF12CEC0EFD1ECE010196B70118
:100910000E9481078E010F5E1F4FCE010596B80120
:100920000E9481078985823040F08989823028F0D1
:10093000C701B8010E94F90701C081E06896E6E0AE
:100940000C94012FA8E1B0E0E8EAF4E00C94E52E65
:1009500069837A838B839C832D833E834F8358875F
:1009600089E0E82EF12CEC0EFD1ECE010196B701B8
:100970000E9481078E010F5E1F4FCE010596B801C0
:100980000E9481078985823040F08989823028F071
:10099000C701B8010E94F90701C08FEF6896E6E031
:1009A0000C94012FA8E1B0E0E8EDF4E00C94E52E02
:1009B00069837A838B839C832D833E834F835887FF
:1009C00089E0E82EF12CEC0EFD1ECE010196B70158
:1009D0000E9481078E010F5E1F4FCE010596B80160
:1009E0000E9481078985823040F08989823028F011
:1009F000C701B8010E94F90701C08FEF6896E6E0D1
:100A00000C94012FA8E1B0E0E8E0F5E00C94E52EAD
:100A100069837A838B839C832D833E834F8358879E
:100A200089E0E82EF12CEC0EFD1ECE010196B701F7
:100A30000E9481078E010F5E1F4FCE010596B801FF
:100A40000E9481078985823040F08989823028F0B0
:100A5000C701B8010E94F90701C081E06896E6E08D
:100A60000C94012FA8E0B0E0E8E3F5E00C94E22E4E
:100A70009B01AC0183E08983DA01C9018827B7FDB6
:100A800083959927AA27BB27B82E21153105410543
:100A9000510519F482E089833AC08823A9F02030F7
:100AA00080E0380780E0480780E8580729F460E0D4
:100AB00070E080E09FEC30C0EE24FF248701E21A52
:100AC000F30A040B150B02C079018A018EE1C82ECE
:100AD000D12CDC82CB82ED82FE820F831887C80185
:100AE000B7010E945D0601971816190684F4082EB6
:100AF00004C0EE0CFF1C001F111F0A94D2F7ED82F8
:100B0000FE820F831887C81AD90ADC82CB82BA8288
:100B1000CE0101960E94AC062896E9E00C94FE2EC8
:100B2000ACE0B0E0E6E9F5E00C94E92E69837A8365
:100B30008B839C83CE010196BE016B5F7F4F0E9429
:100B400081078D81823061F1823050F1843021F44F
:100B50008E81882351F12EC02F81388537FD20C02A
:100B60006E812F3131051CF06623F9F023C08EE130
:100B700090E0821B930B29853A854B855C8504C0E8
:100B800056954795379527958A95D2F76623B1F004
:100B900050954095309521953F4F4F4F5F4F0EC078
:100BA00020E030E040E050E009C02FEF3FEF4FEF92
:100BB0005FE704C020E030E040E050E8B901CA013E
:100BC0002C96E2E00C94052FA8E0B0E0EAEEF5E008
:100BD0000C94E12E7B018C01611571058105910555
:100BE00019F482E0898360C083E089838EE1C82E96
:100BF000D12CDC82CB82ED82FE820F831887C80164
:100C0000B7010E945D06FC013197F7FF3BC0222728
:100C100033272E1B3F0B57016801022E04C0D694C8
:100C2000C794B794A7940A94D2F740E050E060E0EC
:100C300070E081E090E0A0E0B0E004C0880F991F70
:100C4000AA1FBB1F2A95D2F70197A109B1098E21CE
:100C50009F21A023B1230097A105B10521F041E018
:100C600050E060E070E04A295B296C297D294D83C2
:100C70005E836F8378878EE190E08E1B9F0B9C8351
:100C80008B8312C0309781F00E2E04C0EE0CFF1C37
:100C9000001F111F0A94D2F7ED82FE820F8318877E
:100CA000CE1ADF0ADC82CB821A82CE0101960E9424
:100CB000AC062896EAE00C94FD2EEF92FF920F937B
:100CC0001F937B018C0180E0E81680E0F80681E04C
:100CD000080780E0180788F48FEFE816F104010593
:100CE000110531F028F088E090E0A0E0B0E017C0F6
:100CF00080E090E0A0E0B0E012C080E0E81680E084
:100D0000F80680E0080781E0180728F088E190E005
:100D1000A0E0B0E004C080E190E0A0E0B0E020E21C
:100D200030E040E050E0281B390B4A0B5B0B04C05D
:100D300016950795F794E7948A95D2F7F701E8544A
:100D4000FE4F8081281B310941095109C9011F91BA
:100D50000F91FF90EF900895DF92EF92FF920F9323
:100D60001F93FC01E480F58006811781D18080818A
:100D7000823048F480E090E0A0E1B0E0E82AF92A6F
:100D80000A2B1B2BA5C0843009F49FC0823021F4AC
:100D9000EE24FF24870105C0E114F10401051105CB
:100DA00019F4E0E0F0E096C0628173819FEF623851
:100DB00079070CF05BC022E83FEF261B370B2A3186
:100DC00031052CF020E030E040E050E02AC0B801CE
:100DD000A701022E04C076956795579547950A940A
:100DE000D2F781E090E0A0E0B0E004C0880F991F46
:100DF000AA1FBB1F2A95D2F70197A109B1098E211D
:100E00009F21A023B1230097A105B10521F081E026
:100E100090E0A0E0B0E09A01AB01282B392B4A2BDF
:100E20005B2BDA01C9018F779070A070B0708034AD
:100E30009105A105B10539F427FF09C0205C3F4F9A
:100E40004F4F5F4F04C0215C3F4F4F4F5F4FE0E07B
:100E5000F0E02030A0E03A07A0E04A07A0E45A07FB
:100E600010F0E1E0F0E079018A0127C060387105F7
:100E700064F5FB01E158FF4FD801C7018F779070EF
:100E8000A070B07080349105A105B10539F4E7FE7A
:100E90000DC080E490E0A0E0B0E004C08FE390E0FB
:100EA000A0E0B0E0E80EF91E0A1F1B1F17FF05C0E7
:100EB00016950795F794E794319687E01695079570
:100EC000F794E7948A95D1F705C0EE24FF248701B3
:100ED000EFEFF0E06E2F679566276795902F9F776D
:100EE000D794DD24D7948E2F8695492F462B582FE3
:100EF0005D29B701CA011F910F91FF90EF90DF901C
:100F00000895FC01DB01408151812281622F6F77BE
:100F100070E0221F2227221F9381892F880F822BA6
:100F2000282F30E0991F9927991F11969C931197AC
:100F300021153105A9F5411551056105710511F41A
:100F400082E037C082E89FEF13969C938E931297AE
:100F50009A01AB0167E0220F331F441F551F6A95AA
:100F6000D1F783E08C930DC0220F331F441F551F10
:100F700012968D919C911397019713969C938E9343
:100F80001297203080E0380780E0480780E4580757
:100F900058F314962D933D934D935C9317970895B2
:100FA0002F3F310579F4411551056105710519F49B
:100FB00084E08C93089564FF03C081E08C9312C099
:100FC0001C9210C02F57304013963C932E931297CB
:100FD00083E08C9387E0440F551F661F771F8A9527
:100FE000D1F7706414964D935D936D937C9317972E
:100FF00008951F93DC01FB019C91923008F447C0D7
:101000008081823008F443C0943051F411961C91D1
:10101000843099F58181682F70E0611B71093FC0B0
:10102000843021F0923031F48230B9F1818188230B
:1010300089F12DC011961C9111978230F1F08181B8
:101040001817D9F412962D913C91139782819381B0
:101050008217930794F028173907BCF014968D91E6
:101060009D910D90BC91A02D2481358146815781A1
:10107000281739074A075B0718F4112341F00AC003
:1010800082179307A407B50740F4112319F061E014
:1010900070E005C06FEF7FEF02C060E070E0CB0151
:1010A0001F910895DF93CF9300D000D000D0CDB72B
:1010B000DEB76B837C838D839E838B819C81AD8126
:1010C000BE81880F991FAA1FBB1F880F991FAA1FD7
:1010D000BB1F880F991FAA1FBB1F880F991FAA1F2C
:1010E000BB1F9C01AD0180E094E2A4EFB0E0BC0125
:1010F000CD010E94B72EDA01C90101979A83898335
:10110000E0E4F0E089819A81892F99278083E9E2E0
:10111000F0E089818083EAE2F0E088E18083E0E426
:10112000F0E086E8808326960FB6F894DEBF0FBE07
:10113000CDBFCF91DF910895DF93CF93CDB7DEB7C9
:10114000EBE2F0E080818823DCF7ECE2F0E08081E4
:10115000CF91DF910895DF93CF930F92CDB7DEB794
:101160008983EBE2F0E08081882F90E080729070BC
:101170000097B9F3ECE2F0E0898180830F90CF9182
:10118000DF910895DF93CF9300D0CDB7DEB79A8378
:1011900089830BC0E981FA81208189819A81019636
:1011A0009A838983822F0E94AB08E981FA8180812A
:1011B000882381F70F900F90CF91DF9108950F93BF
:1011C0001F93DF93CF93CDB7DEB768970FB6F89430
:1011D000DEBF0FBECDBF6D8B7E8B8F8B988F8D89C1
:1011E0009E89AF89B88DBC01CD0146E022E0FE01A9
:1011F00031968F010E94102FCE0101960E94C208E5
:1012000068960FB6F894DEBF0FBECDBFCF91DF91C9
:101210001F910F910895AF92BF92CF92DF92EF92FC
:10122000FF920F931F93DF93CF93CDB7DEB76097F5
:101230000FB6F894DEBF0FBECDBF69837A838B8370
:101240009C832D833E834F835887E986FA860B87DC
:101250001C87AD86BE86CF86D88A80E690E00E9445
:10126000C20889819A81AB81BC81BC01CD010E94F9
:10127000DF0886E690E00E94C2088D819E81AF81E2
:10128000B885BC01CD010E94DF0886E690E00E948F
:10129000C20889859A85AB85BC85BC01CD010E94B9
:1012A000DF0888E690E00E94C2088D859E85AF85A4
:1012B000B889BC01CD010E94DF0886E690E00E945B
:1012C000C2088D8D9E8DAF8DB8A1BC01CD010E944D
:1012D000DF0886E690E00E94C20889A19AA1ABA12E
:1012E000BCA1BC01CD010E94DF0881E790E00E9413
:1012F000C20860960FB6F894DEBF0FBECDBFCF9187
:10130000DF911F910F91FF90EF90DF90CF90BF90F2
:10131000AF900895DF93CF93CDB7DEB760970FB648
:10132000F894DEBF0FBECDBF6D877E878F87988B09
:101330008DB79EB708970FB6F8949EBF0FBE8DBFAE
:10134000EDB7FEB73196CE0101969183808384E795
:1013500090E0938382838D859E85AF85B889848351
:101360009583A683B7830E94522F8DB79EB70896A8
:101370000FB6F8949EBF0FBE8DBFCE0101960E949E
:10138000C20881E790E00E94C20860960FB6F89408
:10139000DEBF0FBECDBFCF91DF910895DF93CF9316
:1013A000CDB7DEB72F970FB6F894DEBF0FBECDBF17
:1013B0006C877D878E879F878C859D859E012F5F9B
:1013C0003F4FB9014AE050E00E94312FCE01019613
:1013D0000E94C2082F960FB6F894DEBF0FBECDBF95
:1013E000CF91DF910895DF93CF93CDB7DEB72F97DD
:1013F0000FB6F894DEBF0FBECDBF6B877C878D879D
:101400009E874F876B857C858D859E8520E030E0AB
:1014100040E050E00E94020588236CF488E790E0E9
:101420000E94C2088B859C85AD85BE85B0588B8790
:101430009C87AD87BE876B857C858D859E850E9448
:10144000C600DC01CB018F839887A987BA878F817B
:101450009885A985BA85BC01CD010E94CE098AE78D
:1014600090E00E94C2086F81788589859A850E94E4
:10147000E4059B01AC016B857C858D859E850E9472
:101480003E02DC01CB018B839C83AD83BE831A8239
:101490003EC06B817C818D819E8120E030E040E206
:1014A00051E40E949C02DC01CB018B839C83AD83C1
:1014B000BE836B817C818D819E810E94C600DC0190
:1014C000CB0189838981882F90E0A0E0B0E0BC0146
:1014D000CD010E94CE098981882F90E0AA2797FD2F
:1014E000A095BA2FBC01CD010E9432059B01AC0131
:1014F0006B817C818D819E810E943E02DC01CB014B
:101500008B839C83AD83BE838A818F5F8A839A811C
:101510008F85981708F4BDCF2F960FB6F894DEBFCD
:101520000FBECDBFCF91DF910895DF93CF93CDB79D
:10153000DEB72B970FB6F894DEBF0FBECDBF698321
:101540007A838B839C834D83AFE5B0E0EFE5F0E0D9
:10155000808180688C9389819A81AB81BC818093E2
:10156000E6029093E702A093E802B093E902898132
:101570009A81AB81BC8188879987AA87BB87888538
:101580009985AA85BB8580349105A105B10509F42B
:1015900063C088859985AA85BB8581349105A1059D
:1015A000B10598F488859985AA85BB858130910518
:1015B000A105B10529F188859985AA85BB85883063
:1015C0009105A105B10591F188C088859985AA8505
:1015D000BB85803021E0920720E0A20720E0B2071F
:1015E00009F450C088859985AA85BB85803024E0A0
:1015F000920720E0A20720E0B20709F459C06DC0AD
:10160000AEE4B0E0EEE4F0E080818B7F8C93AEE45A
:10161000B0E0EEE4F0E080818D7F8C93AEE4B0E04A
:10162000EEE4F0E0808181608C9357C0AEE4B0E0DE
:10163000EEE4F0E080818B7F8C93AEE4B0E0EEE4EA
:10164000F0E0808182608C93AEE4B0E0EEE4F0E004
:1016500080818E7F8C9341C0AEE4B0E0EEE4F0E098
:1016600080818B7F8C93AEE4B0E0EEE4F0E080818B
:1016700082608C93AEE4B0E0EEE4F0E080818160C3
:101680008C932BC0AEE4B0E0EEE4F0E080818460A7
:101690008C93AEE4B0E0EEE4F0E080818D7F8C933B
:1016A000AEE4B0E0EEE4F0E080818E7F8C9315C074
:1016B000AEE4B0E0EEE4F0E0808184608C93AEE4D0
:1016C000B0E0EEE4F0E080818D7F8C93AEE4B0E09A
:1016D000EEE4F0E0808181608C938D81A82FB0E0F2
:1016E000BF83AE832E813F812830310509F4FEC1CE
:1016F0008E819F818930910554F5AE81BF81A430E0
:10170000B10509F400C12E813F812530310594F4E3
:101710008E819F818230910509F46FC0AE81BF81B7
:10172000A330B1050CF0ACC02E813F8121303105D2
:10173000C9F1DBC38E819F818630910509F450C1C8
:10174000AE81BF81A730B1050CF08DC11EC12E81C5
:101750003F812C30310509F4D5C28E819F818D30B7
:1017600091056CF4AE81BF81AA30B10509F444C281
:101770002E813F812B3031050CF081C2FAC18E8160
:101780009F818E30910509F42BC3AE81BF81AE30AD
:10179000B1050CF4FAC22E813F812F30310509F4D6
:1017A00062C3A3C3AEE4B0E0EEE4F0E080818F7EDC
:1017B0008C93AEE4B0E0EEE4F0E08081877F8C9320
:1017C000AFE4B0E0EFE4F0E080818D7F8C93AFE494
:1017D000B0E0EFE4F0E080818E7F8C93A9E5B0E08B
:1017E000E9E5F0E0808184608C93AEE4B0E0EEE463
:1017F000F0E0808180688C9378C3AEE4B0E0EEE4E2
:10180000F0E080818F7E8C93AEE4B0E0EEE4F0E017
:101810008081877F8C93AFE4B0E0EFE4F0E08081DB
:101820008D7F8C93AFE4B0E0EFE4F0E080818160E5
:101830008C93AFE4B0E0EFE4F0E0808180688C93BB
:10184000AFE4B0E0EFE4F0E080818F7B8C93AFE415
:10185000B0E0EFE4F0E0808180628C93AFE4B0E030
:10186000EFE4F0E080818F7E8C9384E064E041E0DF
:101870000E94F01284E065E041E00E94F01235C35E
:10188000AEE4B0E0EEE4F0E080818F7E8C93AEE4D5
:10189000B0E0EEE4F0E08081877F8C93AFE4B0E0CD
:1018A000EFE4F0E0808182608C93AFE4B0E0EFE49D
:1018B000F0E080818E7F8C93AFE4B0E0EFE4F0E065
:1018C000808180688C93AFE4B0E0EFE4F0E0808149
:1018D0008F7B8C93AFE4B0E0EFE4F0E08081806236
:1018E0008C93AFE4B0E0EFE4F0E080818F7E8C93E6
:1018F00084E064E041E00E94F01284E065E041E0B1
:101900000E94F012F2C2AEE4B0E0EEE4F0E08081BA
:101910008F7E8C93AEE4B0E0EEE4F0E08081877FD0
:101920008C93AFE4B0E0EFE4F0E0808182608C93D0
:10193000AFE4B0E0EFE4F0E0808181608C93AFE44D
:10194000B0E0EFE4F0E0808180688C93AFE4B0E039
:10195000EFE4F0E080818F7B8C93AFE4B0E0EFE4C4
:10196000F0E0808180628C93AFE4B0E0EFE4F0E0DF
:1019700080818F7E8C9384E064E041E00E94F012CD
:1019800084E065E041E00E94F012AEE4B0E0EEE4F5
:10199000F0E080818F7E8C93AEE4B0E0EEE4F0E086
:1019A000808188608C93AFE4B0E0EFE4F0E0808168
:1019B0008D7F8C93AFE4B0E0EFE4F0E080818E7F28
:1019C0008C93A9E5B0E0E9E5F0E0808180618C933B
:1019D000A9E5B0E0E9E5F0E08081877F8C9385C2DE
:1019E000AEE4B0E0EEE4F0E080818F7E8C93AEE474
:1019F000B0E0EEE4F0E0808188608C93AFE4B0E08A
:101A0000EFE4F0E080818D7F8C93AFE4B0E0EFE411
:101A1000F0E0808181608C93AFE4B0E0EFE4F0E02F
:101A2000808180688C93AFE4B0E0EFE4F0E08081E7
:101A30008F7B8C93AFE4B0E0EFE4F0E080818062D4
:101A40008C93AFE4B0E0EFE4F0E080818F7E8C9384
:101A500084E064E041E00E94F01284E065E041E04F
:101A60000E94F01242C2AEE4B0E0EEE4F0E0808109
:101A70008F7E8C93AEE4B0E0EEE4F0E0808188608D
:101A80008C93AFE4B0E0EFE4F0E0808182608C936F
:101A9000AFE4B0E0EFE4F0E080818E7F8C93AFE4C0
:101AA000B0E0EFE4F0E0808180688C93AFE4B0E0D8
:101AB000EFE4F0E080818F7B8C93AFE4B0E0EFE463
:101AC000F0E0808180628C93AFE4B0E0EFE4F0E07E
:101AD00080818F7E8C9384E064E041E00E94F0126C
:101AE00084E065E041E00E94F012FFC1AEE4B0E0A6
:101AF000EEE4F0E080818F7E8C93AEE4B0E0EEE423
:101B0000F0E0808188608C93AFE4B0E0EFE4F0E037
:101B1000808182608C93AFE4B0E0EFE4F0E08081FC
:101B200081608C93AFE4B0E0EFE4F0E08081806806
:101B30008C93AFE4B0E0EFE4F0E080818F7B8C9396
:101B4000AFE4B0E0EFE4F0E0808180628C93AFE43A
:101B5000B0E0EFE4F0E080818F7E8C9384E064E07D
:101B600041E00E94F01284E065E041E00E94F01242
:101B7000BCC1AEE4B0E0EEE4F0E0808180618C9323
:101B8000AEE4B0E0EEE4F0E08081877F8C93AFE4D8
:101B9000B0E0EFE4F0E080818D7F8C93AFE4B0E0C3
:101BA000EFE4F0E080818E7F8C93AFE4B0E0EFE46F
:101BB000F0E0808180688C93AFE4B0E0EFE4F0E087
:101BC00080818F7B8C93AFE4B0E0EFE4F0E0808124
:101BD00080628C93AFE4B0E0EFE4F0E080818F7E30
:101BE0008C9384E064E041E00E94F01284E065E0C0
:101BF00041E00E94F01279C1AEE4B0E0EEE4F0E022
:101C0000808180618C93AEE4B0E0EEE4F0E080810E
:101C1000877F8C93AFE4B0E0EFE4F0E080818D7FCC
:101C20008C93AFE4B0E0EFE4F0E0808181608C93CE
:101C3000AFE4B0E0EFE4F0E0808180688C93AFE443
:101C4000B0E0EFE4F0E080818F7B8C93AFE4B0E014
:101C5000EFE4F0E0808180628C93AFE4B0E0EFE4E9
:101C6000F0E080818F7E8C9384E064E041E00E940C
:101C7000F01284E065E041E00E94F01236C1AEE46B
:101C8000B0E0EEE4F0E0808180618C93AEE4B0E0FF
:101C9000EEE4F0E08081877F8C93AFE4B0E0EFE486
:101CA000F0E0808182608C93AFE4B0E0EFE4F0E09C
:101CB00080818E7F8C93AFE4B0E0EFE4F0E0808130
:101CC00080688C93AFE4B0E0EFE4F0E080818F7B3C
:101CD0008C93AFE4B0E0EFE4F0E0808180628C931D
:101CE000AFE4B0E0EFE4F0E080818F7E8C9384E09D
:101CF00064E041E00E94F01284E065E041E00E946F
:101D0000F012F3C0AEE4B0E0EEE4F0E08081806178
:101D10008C93AEE4B0E0EEE4F0E08081877F8C93BA
:101D2000AFE4B0E0EFE4F0E0808182608C93AFE458
:101D3000B0E0EFE4F0E0808181608C93AFE4B0E04C
:101D4000EFE4F0E0808180688C93AFE4B0E0EFE4F2
:101D5000F0E080818F7B8C93AFE4B0E0EFE4F0E0C3
:101D6000808180628C93AFE4B0E0EFE4F0E08081AA
:101D70008F7E8C9384E064E041E00E94F01284E066
:101D800065E041E00E94F012B0C0AEE4B0E0EEE4E5
:101D9000F0E0808180618C93AEE4B0E0EEE4F0E0AE
:101DA000808188608C93AFE4B0E0EFE4F0E0808164
:101DB0008D7F8C93AFE4B0E0EFE4F0E080818E7F24
:101DC0008C93A9E5B0E0E9E5F0E0808180618C9337
:101DD000A9E5B0E0E9E5F0E0808188608C9385C0FA
:101DE000AEE4B0E0EEE4F0E0808180618C93AEE49C
:101DF000B0E0EEE4F0E0808188608C93AFE4B0E086
:101E0000EFE4F0E0808182608C93AFE4B0E0EFE437
:101E1000F0E080818E7F8C93AFE4B0E0EFE4F0E0FF
:101E2000808180688C93AFE4B0E0EFE4F0E08081E3
:101E30008F7B8C93AFE4B0E0EFE4F0E080818062D0
:101E40008C93AFE4B0E0EFE4F0E080818F7E8C9380
:101E500084E064E041E00E94F01284E065E041E04B
:101E60000E94F01242C0AEE4B0E0EEE4F0E0808107
:101E700080618C93AEE4B0E0EEE4F0E080818860B5
:101E80008C93AFE4B0E0EFE4F0E0808182608C936B
:101E9000AFE4B0E0EFE4F0E0808181608C93AFE4E8
:101EA000B0E0EFE4F0E0808180688C93AFE4B0E0D4
:101EB000EFE4F0E080818F7B8C93AFE4B0E0EFE45F
:101EC000F0E0808180628C93AFE4B0E0EFE4F0E07A
:101ED00080818F7E8C9384E064E041E00E94F01268
:101EE00084E065E041E00E94F0122B960FB6F89472
:101EF000DEBF0FBECDBFCF91DF910895DF93CF93AB
:101F000000D0CDB7DEB79A838983EAE4F0E0898117
:101F10009A81918380830F900F90CF91DF910895E4
:101F2000DF93CF9300D0CDB7DEB79A838983E8E4FF
:101F3000F0E089819A81918380830F900F90CF91F7
:101F4000DF910895EF92FF920F931F93DF93CF934A
:101F5000CDB7DEB762970FB6F894DEBF0FBECDBF28
:101F60006D877E878F87988B5A8B498B8091E6028D
:101F70009091E702A091E802B091E902072E7DE07E
:101F8000880F991FAA1FBB1F7A95D1F7702D8987DB
:101F90009A87AB87BC876D857E858F8598890E94DF
:101FA000E4057B018C0169857A858B859C850E947F
:101FB000E4059B01AC01C801B7010E949603DC0156
:101FC000CB018D839E83AF83B88789899A8990934B
:101FD000EF028093EE026D817E818F81988520E0F3
:101FE00030E040E85FE30E94020588239CF581E031
:101FF00090E0A0E0B0E08093EA029093EB02A0931F
:10200000EC02B093ED026D817E818F81988520E096
:1020100030E040E857EC0E949C02DC01CB01BC019F
:10202000CD0120E030E040E857E40E946F02DC017F
:10203000CB01BC01CD010E94C600DC01CB0189832C
:102040009A83AB83BC83ECE4F0E089819A8191832D
:102050008083A4C06D817E818F81988520E030E0EF
:1020600040E85FE30E944204882369F481E090E045
:10207000A0E0B0E08093EA029093EB02A093EC0220
:10208000B093ED028BC06D817E818F81988520E0B9
:1020900030E040E85FE30E94A20418160CF07EC016
:1020A0006D817E818F8198850E94C600DC01CB0105
:1020B0008093EA029093EB02A093EC02B093ED02BE
:1020C0006D817E818F8198850E94C600DC01CB01E5
:1020D000BC01CD010E94E4059B01AC016D817E81B4
:1020E0008F8198850E943E02DC01CB01BC01CD01AD
:1020F00020E030E040E050E00E947204882309F4C0
:102100004DC06D817E818F8198850E94C600DC0163
:10211000CB01BC01CD010E94E4059B01AC016D81A6
:102120007E818F8198850E943E02DC01CB01BC013B
:10213000CD0120E030E040E857EC0E949C02DC0139
:10214000CB01BC01CD0120E030E040E857E40E9423
:102150006F02DC01CB01BC01CD010E94C600DC0195
:10216000CB0189839A83AB83BC838091EA029091EF
:10217000EB02A091EC02B091ED020196A11DB11D00
:102180008093EA029093EB02A093EC02B093ED02ED
:10219000ECE4F0E089819A819183808362960FB6A6
:1021A000F894DEBF0FBECDBFCF91DF911F910F918D
:1021B000FF90EF900895EF92FF920F931F93DF939C
:1021C000CF93CDB7DEB760970FB6F894DEBF0FBEE2
:1021D000CDBF1D861E861F86188A19861A861B8605
:1021E0001C86A8E5B0E0E8E5F0E0808180628C9391
:1021F000AEE4B0E0EEE4F0E0808180648C93E8E54A
:10220000F0E08081882F90E080729070959587959E
:1022100095958795959587959595879595958795A6
:10222000009769F3E6E4F0E080819181CC01A0E0C1
:10223000B0E08D879E87AF87B88BA8E5B0E0E8E572
:10224000F0E0808180628C93AEE4B0E0EEE4F0E0F8
:1022500080818F7B8C93E8E5F0E08081882F90E08F
:1022600080729070959587959595879595958795AA
:102270009595879595958795009769F3E6E4F0E045
:1022800080819181CC01A0E0B0E089879A87AB87FB
:10229000BC8729853A854B855C858D859E85AF8574
:1022A000B88979018A01E81AF90A0A0B1B0BD801CF
:1022B000C7018D839E83AF83B8878091E60290919A
:1022C000E702A091E802B091E9022D813E814F81A1
:1022D0005885BC01CD010E94782E9B01AC0180E0A5
:1022E00092E1AAE7B0E0BC01CD010E94B72EDA016D
:1022F000C90189839A83AB83BC8389819A81AB812D
:10230000BC81BC01CD0160960FB6F894DEBF0FBE54
:10231000CDBFCF91DF911F910F91FF90EF90089566
:10232000DF93CF93CDB7DEB7E1E2F0E08081887F25
:10233000CF91DF9108950F931F93DF93CF9300D038
:1023400000D0CDB7DEB769837A838B839C8300E2AC
:1023500010E080E094E2A4EFB0E029813A814B8163
:102360005C81BC01CD010E94B72EDA01C901409702
:10237000A109B109689412F8B695A7959795879524
:102380001694D1F7F8018083E1E2F0E081E08083E8
:10239000E6E5F0E084E080830F900F900F900F90BF
:1023A000CF91DF911F910F910895DF93CF93CDB718
:1023B000DEB7E6E5F0E084EA8083E6E5F0E08081E0
:1023C000881F8827881F882F90E090700097A9F3B6
:1023D0000E949011883021F00E9490118031C1F745
:1023E000CF91DF910895DF93CF9300D0CDB7DEB7C3
:1023F0008A83E3E2F0E08A818083E6E5F0E084E826
:102400008083E6E5F0E08081881F8827881F882F79
:1024100090E090700097A9F30E94901189830F902B
:102420000F90CF91DF910895DF93CF930F92CDB7A7
:10243000DEB78983E3E2F0E089818083E6E5F0E0BE
:1024400084E88083E6E5F0E08081881F8827881F84
:10245000882F90E090700097A9F30F90CF91DF91B3
:102460000895DF93CF93CDB7DEB7E6E5F0E084E9DA
:102470008083CF91DF910895DF93CF930F92CDB7F3
:10248000DEB78983E2E2F0E08981880F80830F90D4
:10249000CF91DF910895DF93CF930F92CDB7DEB741
:1024A000E6E5F0E084EC8083E6E5F0E08081881FDB
:1024B0008827881F882F90E090700097A9F3E1E2A9
:1024C000F0E08081882F90E0887F907080369105C1
:1024D000B1F7E6E5F0E084EC8083E6E5F0E08081AA
:1024E000881F8827881F882F90E090700097A9F395
:1024F000E1E2F0E08081FCCFDF93CF93CDB7DEB790
:10250000E6E5F0E084EC8083E6E5F0E08081881F7A
:102510008827881F882F90E090700097A9F30E9469
:1025200090118035E1F7E3E2F0E08081CF91DF9117
:102530000895DF93CF93CDB7DEB7E6E5F0E084EC06
:102540008083E6E5F0E08081881F8827881F882F38
:1025500090E090700097A9F30E9490118035E1F708
:10256000E3E2F0E08081CF91DF910895DF93CF9394
:10257000CDB7DEB7E6E5F0E084E88083E6E5F0E09D
:102580008081881F8827881F882F90E0907000978F
:10259000A9F30E9490118835E1F7E3E2F0E0808131
:1025A000CF91DF910895DF93CF93CDB7DEB7E6E506
:1025B000F0E084E88083E6E5F0E08081881F8827EA
:1025C000881F882F90E090700097A9F30E949011C7
:1025D0008835E1F7E3E2F0E08081CF91DF91089563
:1025E000DF93CF9300D000D00F92CDB7DEB78983B1
:1025F0006A834B838981882309F4E9C08981853006
:1026000008F0E5C08A81883008F0E1C08981282F70
:1026100030E03D832C838C819D818230910509F4CB
:1026200048C02C813D812330310534F48C819D815B
:102630008130910571F0CBC02C813D812330310573
:1026400009F467C08C819D818430910509F491C0A3
:10265000BEC08B818823A9F4AAE3B0E0EAE3F0E0EE
:102660008081482F8A81282F30E081E090E0022E7F
:1026700002C0880F991F0A94E2F7809584238C93F7
:10268000A6C08B81813009F0A2C0AAE3B0E0EAE3E2
:10269000F0E08081482F8A81282F30E081E090E0AF
:1026A000022E02C0880F991F0A94E2F7842B8C93A4
:1026B0008EC08B818823A9F4A7E3B0E0E7E3F0E0C4
:1026C0008081482F8A81282F30E081E090E0022E1F
:1026D00002C0880F991F0A94E2F7809584238C9397
:1026E00076C08B81813009F072C0A7E3B0E0E7E3E8
:1026F000F0E08081482F8A81282F30E081E090E04F
:10270000022E02C0880F991F0A94E2F7842B8C9343
:102710005EC08B818823A9F4A4E3B0E0E4E3F0E099
:102720008081482F8A81282F30E081E090E0022EBE
:1027300002C0880F991F0A94E2F7809584238C9336
:1027400046C08B81813009F042C0A4E3B0E0E4E3ED
:10275000F0E08081482F8A81282F30E081E090E0EE
:10276000022E02C0880F991F0A94E2F7842B8C93E3
:102770002EC08B818823A9F4A1E3B0E0E1E3F0E06F
:102780008081482F8A81282F30E081E090E0022E5E
:1027900002C0880F991F0A94E2F7809584238C93D6
:1027A00016C08B81813099F4A1E3B0E0E1E3F0E061
:1027B0008081482F8A81282F30E081E090E0022E2E
:1027C00002C0880F991F0A94E2F7842B8C930F9014
:1027D0000F900F900F900F90CF91DF910895DF939E
:1027E000CF9300D000D00F92CDB7DEB789836A8334
:1027F0004B838981882309F4E9C08981853008F0F9
:10280000E5C08A81883008F0E1C08981282F30E056
:102810003D832C838C819D818230910509F448C0D1
:102820002C813D812330310534F48C819D818130B0
:10283000910571F0CBC02C813D812330310509F425
:1028400067C08C819D818430910509F491C0BEC020
:102850008B818823A9F4ABE3B0E0EBE3F0E0808167
:10286000482F8A81282F30E081E090E0022E02C0BC
:10287000880F991F0A94E2F7809584238C93A6C051
:102880008B81813009F0A2C0ABE3B0E0EBE3F0E074
:102890008081482F8A81282F30E081E090E0022E4D
:1028A00002C0880F991F0A94E2F7842B8C938EC084
:1028B0008B818823A9F4A8E3B0E0E8E3F0E080810D
:1028C000482F8A81282F30E081E090E0022E02C05C
:1028D000880F991F0A94E2F7809584238C9376C021
:1028E0008B81813009F072C0A8E3B0E0E8E3F0E04A
:1028F0008081482F8A81282F30E081E090E0022EED
:1029000002C0880F991F0A94E2F7842B8C935EC053
:102910008B818823A9F4A5E3B0E0E5E3F0E08081B2
:10292000482F8A81282F30E081E090E0022E02C0FB
:10293000880F991F0A94E2F7809584238C9346C0F0
:102940008B81813009F042C0A5E3B0E0E5E3F0E01F
:102950008081482F8A81282F30E081E090E0022E8C
:1029600002C0880F991F0A94E2F7842B8C932EC023
:102970008B818823A9F4A2E3B0E0E2E3F0E0808158
:10298000482F8A81282F30E081E090E0022E02C09B
:10299000880F991F0A94E2F7809584238C9316C0C0
:1029A0008B81813099F4A2E3B0E0E2E3F0E0808132
:1029B000482F8A81282F30E081E090E0022E02C06B
:1029C000880F991F0A94E2F7842B8C930F900F9035
:1029D0000F900F900F90CF91DF910895DF93CF93D9
:1029E00000D000D00F92CDB7DEB78A836B838A8187
:1029F000882309F4A1C08A81853008F09DC08B81AD
:102A0000883008F099C08A81282F30E03D832C83DC
:102A10004C815D8142305105B1F18C819D818330C3
:102A2000910534F42C813D812130310571F084C051
:102A30004C815D814330510509F443C08C819D81F7
:102A40008430910509F45BC077C0E9E3F0E0808150
:102A5000482F50E08B81282F30E081E090E002C0C9
:102A6000880F991F2A95E2F79A01282339238B8131
:102A7000882F90E0A90102C0559547958A95E2F705
:102A8000CA01898359C0E6E3F0E08081482F50E015
:102A90008B81282F30E081E090E002C0880F991FE1
:102AA0002A95E2F79A01282339238B81882F90E019
:102AB000A90102C0559547958A95E2F7CA01898315
:102AC0003BC0E3E3F0E08081482F50E08B81282F6A
:102AD00030E081E090E002C0880F991F2A95E2F76C
:102AE0009A01282339238B81882F90E0A90102C005
:102AF000559547958A95E2F7CA0189831DC0E0E3A1
:102B0000F0E08081482F50E08B81282F30E081E079
:102B100090E002C0880F991F2A95E2F79A012823B6
:102B200039238B81882F90E0A90102C055954795E4
:102B30008A95E2F7CA01898389810F900F900F90DF
:102B40000F900F90CF91DF910895DF93CF9300D036
:102B500000D0CDB7DEB789836A838981882309F4E1
:102B600077C08981853008F073C08A81883008F089
:102B70006FC08981282F30E03C832B838B819C811F
:102B80008230910551F12B813C812330310534F4A1
:102B90008B819C818130910561F05AC02B813C81F1
:102BA0002330310571F18B819C8184309105E9F1ED
:102BB0004FC0ABE3B0E0EBE3F0E08081482F8A81C7
:102BC000282F30E081E090E0022E02C0880F991F8C
:102BD0000A94E2F784278C933BC0A8E3B0E0E8E3D3
:102BE000F0E08081482F8A81282F30E081E090E05A
:102BF000022E02C0880F991F0A94E2F784278C9353
:102C000027C0A5E3B0E0E5E3F0E08081482F8A81AA
:102C1000282F30E081E090E0022E02C0880F991F3B
:102C20000A94E2F784278C9313C0A2E3B0E0E2E3B6
:102C3000F0E08081482F8A81282F30E081E090E009
:102C4000022E02C0880F991F0A94E2F784278C9302
:102C50000F900F900F900F90CF91DF910895DF9319
:102C6000CF9300D000D0CDB7DEB789836A83898146
:102C70008823B1F18981853098F58981282F30E04A
:102C80003C832B838B819C8182309105D9F02B81F1
:102C90003C812330310534F48B819C818130910556
:102CA00061F01EC02B813C812330310581F08B8186
:102CB0009C818430910581F013C0EAE3F0E08A81C1
:102CC00080830EC0E7E3F0E08A81808309C0E4E3FB
:102CD000F0E08A81808304C0E1E3F0E08A818083B0
:102CE0000F900F900F900F90CF91DF910895DF9389
:102CF000CF9300D000D0CDB7DEB789836A838981B6
:102D00008823B1F18981853098F58981282F30E0B9
:102D10003C832B838B819C8182309105D9F02B8160
:102D20003C812330310534F48B819C8181309105C5
:102D300061F01EC02B813C812330310581F08B81F5
:102D40009C818430910581F013C0EBE3F0E08A812F
:102D500080830EC0E8E3F0E08A81808309C0E5E368
:102D6000F0E08A81808304C0E2E3F0E08A8180831E
:102D70000F900F900F900F90CF91DF910895DF93F8
:102D8000CF9300D00F92CDB7DEB789838981882396
:102D900009F443C08981853008F03FC08981282F1C
:102DA00030E03B832A838A819B8182309105F1F058
:102DB0002A813B812330310534F48A819B81813023
:102DC000910561F02AC02A813B8123303105B1F0A1
:102DD0008A819B8184309105C9F01FC0ABE3B0E0CC
:102DE000EBE3F0E0808180958C9317C0A8E3B0E01E
:102DF000E8E3F0E0808180958C930FC0A5E3B0E01C
:102E0000E5E3F0E0808180958C9307C0A2E3B0E019
:102E1000E2E3F0E0808180958C930F900F900F900B
:102E2000CF91DF910895DF93CF9300D000D0CDB73D
:102E3000DEB78A838A818823B1F18A81853098F54B
:102E40008A81282F30E03C832B838B819C818230C8
:102E50009105D9F02B813C812330310534F48B81ED
:102E60009C818130910561F01EC02B813C81233013
:102E7000310581F08B819C818430910581F013C0F4
:102E8000E9E3F0E0808189830EC0E6E3F0E0808131
:102E9000898309C0E3E3F0E08081898304C0E0E333
:102EA000F0E08081898389810F900F900F900F90BF
:102EB000CF91DF910895DF93CF93CDB7DEB70E9416
:102EC000D51180ED0E94F3118BE60E94141280E070
:102ED0000E9414120E943112CF91DF9108950F9336
:102EE0001F93DF93CF93CDB7DEB70E94D51180ED4E
:102EF0000E94F3118BE30E9414120E94D51181ED00
:102F00000E94F3110E947C12182F00270E947C124D
:102F1000802B912B9093BD028093BC020E947C1267
:102F2000182F00270E947C12802B912B9093BF02B8
:102F30008093BE020E947C12182F00270E947C12F0
:102F4000802B912B9093C1028093C0020E947C122F
:102F5000182F00270E947C12802B912B9093C30284
:102F60008093C2020E947C12182F00270E947C12BC
:102F7000802B912B9093C5028093C4020E947C12F7
:102F8000182F00270E947C12802B912B9093C70250
:102F90008093C6020E947C12182F00270E94B6124E
:102FA000802B912B9093C9028093C8020E9431120A
:102FB000CF91DF911F910F910895DF93CF9300D0B0
:102FC00000D000D0CDB7DEB79A8389837C836B8332
:102FD0005E834D830E946F178091BC029091BD0269
:102FE000AA2797FDA095BA2FBC01CD010E943205FA
:102FF000DC01CB01BC01CD0120E030E040E856E42B
:103000000E949603DC01CB01E981FA8180839183E0
:10301000A283B3838091BE029091BF02AA2797FD3D
:10302000A095BA2FBC01CD010E943205DC01CB0175
:10303000BC01CD0120E030E040E856E40E94960358
:10304000DC01CB01EB81FC8180839183A283B3837C
:103050008091C0029091C102AA2797FDA095BA2F36
:10306000BC01CD010E943205DC01CB01BC01CD01C8
:1030700020E030E040E856E40E949603DC01CB01FA
:10308000ED81FE8180839183A283B38326960FB660
:10309000F894DEBF0FBECDBFCF91DF910895DF93CF
:1030A000CF9300D000D000D0CDB7DEB79A8389830C
:1030B0007C836B835E834D830E946F178091C40273
:1030C0009091C502AA2797FDA095BA2FBC01CD010A
:1030D0000E943205DC01CB01BC01CD0120E030E0D3
:1030E00043E053E40E949603DC01CB01E981FA81BD
:1030F00080839183A283B3838091C6029091C7029B
:10310000AA2797FDA095BA2FBC01CD010E943205D8
:10311000DC01CB01BC01CD0120E030E043E053E411
:103120000E949603DC01CB01EB81FC8180839183BB
:10313000A283B3838091C8029091C902AA2797FD08
:10314000A095BA2FBC01CD010E943205DC01CB0154
:10315000BC01CD0120E030E043E053E40E9496033F
:10316000DC01CB01ED81FE8180839183A283B38357
:1031700026960FB6F894DEBF0FBECDBFCF91DF917C
:103180000895DF93CF9300D0CDB7DEB79A838983BC
:103190000E946F178091C2029091C302AA2797FDE7
:1031A000A095BA2FBC01CD010E943205DC01CB01F4
:1031B000BC01CD0120E030E04AEA53E40E949603CE
:1031C000DC01CB01BC01CD0128EB3EE142E152E440
:1031D0000E946F02DC01CB01E981FA818083918337
:1031E000A283B3830F900F90CF91DF9108950F9337
:1031F0001F93DF93CF9300D000D000D0CDB7DEB7C0
:103200009A8389837C836B835E834D830E94D5116F
:103210008CE790E00E94C20880ED0E94F31184E8E0
:1032200090E00E94C2088BE30E94141285E990E0AE
:103230000E94C2080E94D51181EA90E00E94C20853
:1032400081ED0E94F3118EEA90E00E94C2080E9474
:103250007C12182F00270E947C12802B912B9093B8
:10326000BD028093BC020E947C12182F00270E948E
:103270007C12802B912B9093BF028093BE020E9400
:103280007C12182F00270E94B612802B912B90934E
:10329000C1028093C0020E9431128EEB90E00E9426
:1032A000C2088091BC029091BD02AA2797FDA0950B
:1032B000BA2FBC01CD010E943205DC01CB01BC015B
:1032C000CD0120E030E040E856E40E949603DC01A6
:1032D000CB01E981FA8180839183A283B3838091BA
:1032E000BE029091BF02AA2797FDA095BA2FBC01FC
:1032F000CD010E943205DC01CB01BC01CD0120E0F3
:1033000030E040E856E40E949603DC01CB01EB81FB
:10331000FC8180839183A283B3838091C0029091CA
:10332000C102AA2797FDA095BA2FBC01CD010E942A
:103330003205DC01CB01BC01CD0120E030E040E8EA
:1033400056E40E949603DC01CB01ED81FE8180836F
:103350009183A283B38326960FB6F894DEBF0FBE87
:10336000CDBFCF91DF911F910F910895DF93CF9340
:10337000CDB7DEB72E970FB6F894DEBF0FBECDBF28
:103380000E94D5118EEA0E94F31189E00E94141266
:1033900080E40E9414120E94311280E090E0A8ECB8
:1033A000B2E48B879C87AD87BE876B857C858D85D6
:1033B0009E8520E030E04AE755E40E949C02DC0153
:1033C000CB018F839887A987BA876F817885898594
:1033D0009A8520E030E040E85FE30E940205882300
:1033E0002CF481E090E09E838D833FC06F817885CF
:1033F00089859A8520E03FEF4FE757E40E94A204B9
:1034000018164CF56B857C858D859E8520E030E017
:1034100040E251E40E949C02DC01CB01BC01CD01E1
:103420000E94C600DC01CB019E838D830FC080E922
:1034300091E09C838B838B819C810197F1F79C8326
:103440008B838D819E8101979E838D838D819E814B
:10345000009769F714C06F81788589859A850E94E5
:10346000C600DC01CB019E838D838D819E819A8372
:10347000898389819A810197F1F79A8389830E94D0
:10348000D5118EEA0E94F31189E00E94141282E0A5
:103490000E9414120E9431120E94D5118EEA0E94DD
:1034A000F3118CE00E94141280E10E9414120E9419
:1034B00031120E94D5118EEA0E94F3118DE00E9414
:1034C00014128FE10E9414120E9431122E960FB630
:1034D000F894DEBF0FBECDBFCF91DF910895DF938B
:1034E000CF93CDB7DEB765970FB6F894DEBF0FBEAA
:1034F000CDBF1A8A1B8A1C8A1D8A0E94D5118EEAAA
:103500000E94F31187E00E9414120E94D5118FEAE5
:103510000E94F3110E949912898B0E949912888B44
:103520000E94D3128F870E94311280E090E0A0E2C7
:10353000B1E48B879C87AD87BE876B857C858D8545
:103540009E8520E030E04AE755E40E949C02DC01C1
:10355000CB018F839887A987BA876F817885898502
:103560009A8520E030E040E85FE30E94020588236E
:103570002CF481E090E09E838D833FC06F8178853D
:1035800089859A8520E03FEF4FE757E40E94A20427
:1035900018164CF56B857C858D859E8520E030E086
:1035A00040E251E40E949C02DC01CB01BC01CD0150
:1035B0000E94C600DC01CB019E838D830FC080E991
:1035C00091E09C838B838B819C810197F1F79C8395
:1035D0008B838D819E8101979E838D838D819E81BA
:1035E000009769F714C06F81788589859A850E9454
:1035F000C600DC01CB019E838D838D819E819A83E1
:10360000898389819A810197F1F79A8389838989CE
:10361000882F90E0A0E0B0E0AC0133272227888912
:10362000882F90E0A0E0B0E0BA2FA92F982F88272C
:10363000282B392B4A2B5B2B8F85882F90E0A0E01D
:10364000B0E0822B932BA42BB52B8A8B9B8BAC8B5E
:10365000BD8B8A899B89AC89BD89A370B0708A8B28
:103660009B8BAC8BBD8B8A899B89AC89BD89BC0146
:10367000CD0165960FB6F894DEBF0FBECDBFCF91DA
:10368000DF910895EF92FF920F931F93DF93CF93F3
:10369000CDB7DEB72A970FB6F894DEBF0FBECDBF09
:1036A0006D837E838F8398878091CF029091D00223
:1036B000A091D102B091D202BC01CD0120E030E056
:1036C00040E050E00E944204882311F56D817E8124
:1036D0008F8198850E94E405DC01CB018093CF02A5
:1036E0009093D002A093D102B093D2026D817E81DB
:1036F0008F8198850E94E405DC01CB018093CB0289
:103700009093CC02A093CD02B093CE021A86B3C0A0
:103710006D817E818F8198850E94E405DC01CB015B
:10372000BC01CD012DEC3CEC4CE45EE30E949C021C
:10373000DC01CB017C018D018091CF029091D00200
:10374000A091D102B091D202BC01CD012DEC3CEC94
:103750004CE45FE30E949C02DC01CB019C01AD01C3
:10376000C801B7010E946F02DC01CB018093CF0238
:103770009093D002A093D102B093D2028091CB0259
:103780009091CC02A091CD02B091CE02BC01CD01AE
:1037900028E431EE4AE75FE30E949C02DC01CB01A2
:1037A0007C018D018091CF029091D002A091D10235
:1037B000B091D202BC01CD012AE037ED43EA5CE3CF
:1037C0000E949C02DC01CB019C01AD01C801B70144
:1037D0000E946F02DC01CB018093CB029093CC025C
:1037E000A093CD02B093CE028091CF029091D002EF
:1037F000A091D102B091D2022091CB023091CC02A3
:103800004091CD025091CE02BC01CD010E943E02FA
:10381000DC01CB0189839A83AB83BC8319866981E0
:103820007A818B819C8120E030E040E451E40E9469
:10383000A204181614F481E0898781E0998589270C
:10384000882351F48091CA02882331F481E0809367
:10385000CA0281E08A870FC069817A818B819C814D
:1038600020E030E040E050EC0E940205882314F490
:103870001092CA021A868A852A960FB6F894DEBF7D
:103880000FBECDBFCF91DF911F910F91FF90EF90B1
:103890000895AF92BF92CF92DF92EF92FF920F9373
:1038A0001F93DF93CF93CDB7DEB728970FB6F89469
:1038B000DEBF0FBECDBF6D837E838F83988783E38A
:1038C00093E3A3E7BFE389839A83AB83BC838091AF
:1038D000D3029091D402A091D502B091D602BC013E
:1038E000CD0129813A814B815C810E949C02DC01DF
:1038F000CB015C016D0160E070E080E89FE329810D
:103900003A814B815C810E943E02DC01CB017C014B
:103910008D016D817E818F8198850E94E4059B01D8
:10392000AC01C801B7010E949C02DC01CB019C01E3
:10393000AD01C601B5010E946F02DC01CB0180938D
:10394000D3029093D402A093D502B093D6026D8196
:103950007E818F8198850E94E405DC01CB01209156
:10396000D3023091D4024091D5025091D602BC01CD
:10397000CD010E943E02DC01CB01BC01CD012896A5
:103980000FB6F894DEBF0FBECDBFCF91DF911F9170
:103990000F91FF90EF90DF90CF90BF90AF90089580
:1039A000DF93CF93CDB7DEB72A970FB6F894DEBF7B
:1039B0000FBECDBF8E834F83588769877A8780E09B
:1039C00060E00E94472785EC90E00E940E268E81E1
:1039D000882F90E09E012F5F3F4FB9014AE050E0F1
:1039E0000E94312FCE0101960E940E268BEC90E0B2
:1039F0000E940E2680E061E00E9447278FEC90E055
:103A00000E94C2088F819885A985BA85BC01CD0125
:103A10000E948A0988ED90E00E94C2088F819885F3
:103A2000A985BA85803523EC920720E0A20720E023
:103A3000B20748F483EE90E00E940E2684EF90E0F7
:103A40000E94C2086BC08E81882349F489E091E00E
:103A50000E940E268AE191E00E94C2085FC08E811A
:103A60008C33F0F48FE291E00E940E2680E491E026
:103A70000E94C208A8E3B0E0E8E3F0E080818B7F19
:103A80008C93A2E3B0E0E2E3F0E080818F778C9347
:103A9000A8E3B0E0E8E3F0E0808182608C933EC070
:103AA0008E818A36F0F481E591E00E940E2682E64E
:103AB00091E00E94C208A8E3B0E0E8E3F0E0808172
:103AC0008D7F8C93A2E3B0E0E2E3F0E080818B7F16
:103AD0008C93A2E3B0E0E2E3F0E0808180688C9315
:103AE0001DC086E791E00E940E2687E891E00E94C3
:103AF000C208A8E3B0E0E8E3F0E080818D7F8C931A
:103B0000A2E3B0E0E2E3F0E080818F778C93A8E35A
:103B1000B0E0E8E3F0E0808184608C9389E991E093
:103B20000E94C2082A960FB6F894DEBF0FBECDBF22
:103B3000CF91DF910895DF93CF9300D0CDB7DEB75B
:103B400089836A8389816A8141E00E94F0120F9023
:103B50000F90CF91DF910895DF93CF9300D0CDB731
:103B6000DEB789836A8389816A8141E00E94EF130D
:103B70000F900F90CF91DF910895DF93CF9300D0F6
:103B8000CDB7DEB789836A8389816A8140E00E946C
:103B9000EF130F900F90CF91DF910895DF93CF93A4
:103BA00000D0CDB7DEB789836A8389816A810E949C
:103BB000A5150F900F90CF91DF910895DF93CF93CC
:103BC000CDB7DEB7EB970FB6F894DEBF0FBECDBF13
:103BD0008BAF8BAD8F708AAF8BAD82958F7089AFB5
:103BE00089AD982F917081E063E0492F0E94EF1317
:103BF00089AD882F90E08270907095958795982F69
:103C000081E064E0492F0E94EF1389AD882F90E096
:103C1000847090709595879595958795982F81E0FC
:103C200065E0492F0E94EF1389AD882F90E08870DE
:103C30009070959587959595879595958795982FEB
:103C400081E066E0492F0E94EF1381E067E040E0E9
:103C50000E94EF1381E061E041E00E94EF1381E0F8
:103C600062E041E00E94EF1380E090E0A0E8BFE353
:103C70008DAB9EABAFABB8AF6DA97EA98FA998AD48
:103C800020E030E04AE755E40E949C02DC01CB01D1
:103C900089AB9AABABABBCAB69A97AA98BA99CA940
:103CA00020E030E040E85FE30E94020588232CF426
:103CB00081E090E098AB8FA73FC069A97AA98BA952
:103CC0009CA920E03FEF4FE757E40E94A20418169A
:103CD0004CF56DA97EA98FA998AD20E030E040E2B7
:103CE00051E40E949C02DC01CB01BC01CD010E9489
:103CF000C600DC01CB0198AB8FA70FC080E991E033
:103D00009EA78DA78DA59EA50197F1F79EA78DA7CC
:103D10008FA598A9019798AB8FA78FA598A9009711
:103D200069F714C069A97AA98BA99CA90E94C60049
:103D3000DC01CB0198AB8FA78FA598A99CA78BA777
:103D40008BA59CA50197F1F79CA78BA781E062E06A
:103D500040E00E94EF1380E090E0A0E8BFE38FA373
:103D600098A7A9A7BAA76FA178A589A59AA520E0C9
:103D700030E04AE755E40E949C02DC01CB018BA3B2
:103D80009CA3ADA3BEA36BA17CA18DA19EA120E0AD
:103D900030E040E85FE30E94020588232CF481E0D4
:103DA00090E09AA389A33FC06BA17CA18DA19EA1A5
:103DB00020E03FEF4FE757E40E94A20418164CF5AD
:103DC0006FA178A589A59AA520E030E040E251E4F2
:103DD0000E949C02DC01CB01BC01CD010E94C60007
:103DE000DC01CB019AA389A30FC080E991E098A3DD
:103DF0008F8F8F8D98A10197F1F798A38F8F89A14D
:103E00009AA101979AA389A389A19AA1009769F71A
:103E100014C06BA17CA18DA19EA10E94C600DC01F3
:103E2000CB019AA389A389A19AA19E8F8D8F8D8D95
:103E30009E8D0197F1F79E8F8D8F8AAD982F91708F
:103E400081E063E0492F0E94EF138AAD882F90E054
:103E50008270907095958795982F81E064E0492F46
:103E60000E94EF138AAD882F90E084709070959532
:103E7000879595958795982F81E065E0492F0E9459
:103E8000EF138AAD882F90E0887090709595879594
:103E90009595879595958795982F81E066E0492FB0
:103EA0000E94EF1381E067E040E00E94EF1381E0A1
:103EB00061E041E00E94EF1381E062E041E00E9496
:103EC000EF1380E090E0A0E8BFE3898F9A8FAB8F7B
:103ED000BC8F698D7A8D8B8D9C8D20E030E04AE718
:103EE00055E40E949C02DC01CB018D8B9E8BAF8B35
:103EF000B88F6D897E898F89988D20E030E040E809
:103F00005FE30E94020588232CF481E090E09C8B03
:103F10008B8B3FC06D897E898F89988D20E03FEF24
:103F20004FE757E40E94A20418164CF5698D7A8D6C
:103F30008B8D9C8D20E030E040E251E40E949C0299
:103F4000DC01CB01BC01CD010E94C600DC01CB012C
:103F50009C8B8B8B0FC080E991E09A8B898B898930
:103F60009A890197F1F79A8B898B8B899C890197A4
:103F70009C8B8B8B8B899C89009769F714C06D890A
:103F80007E898F89988D0E94C600DC01CB019C8BB5
:103F90008B8B8B899C89988B8F878F8598890197CC
:103FA000F1F7988B8F8781E062E040E00E94EF1389
:103FB00080E090E0A0E8BFE38B879C87AD87BE8759
:103FC0006B857C858D859E8520E030E04AE755E451
:103FD0000E949C02DC01CB018F839887A987BA8756
:103FE0006F81788589859A8520E030E040E85FE33D
:103FF0000E94020588232CF481E090E09E838D834B
:104000003FC06F81788589859A8520E03FEF4FE733
:1040100057E40E94A20418164CF56B857C858D85AB
:104020009E8520E030E040E251E40E949C02DC01E9
:10403000CB01BC01CD010E94C600DC01CB019E83F7
:104040008D830FC080E991E09C838B838B819C8161
:104050000197F1F79C838B838D819E8101979E83CD
:104060008D838D819E81009769F714C06F8178855B
:1040700089859A850E94C600DC01CB019E838D83D1
:104080008D819E819A83898389819A810197F1F735
:104090009A838983EB960FB6F894DEBF0FBECDBF2F
:1040A000CF91DF910895DF93CF93CDB7DEB7EB9734
:1040B0000FB6F894DEBF0FBECDBF8BAF8BAD8F7048
:1040C0008AAF8BAD82958F7089AF89AD982F917033
:1040D00081E063E0492F0E94EF1389AD882F90E0C3
:1040E0008270907095958795982F81E064E0492FB4
:1040F0000E94EF1389AD882F90E0847090709595A1
:10410000879595958795982F81E065E0492F0E94C6
:10411000EF1389AD882F90E0887090709595879502
:104120009595879595958795982F81E066E0492F1D
:104130000E94EF1381E061E040E00E94EF1381E014
:1041400062E041E00E94EF1380E090E0A0E8BFE36E
:104150008DAB9EABAFABB8AF6DA97EA98FA998AD63
:1041600020E030E04AE755E40E949C02DC01CB01EC
:1041700089AB9AABABABBCAB69A97AA98BA99CA95B
:1041800020E030E040E85FE30E94020588232CF441
:1041900081E090E098AB8FA73FC069A97AA98BA96D
:1041A0009CA920E03FEF4FE757E40E94A2041816B5
:1041B0004CF56DA97EA98FA998AD20E030E040E2D2
:1041C00051E40E949C02DC01CB01BC01CD010E94A4
:1041D000C600DC01CB0198AB8FA70FC080E991E04E
:1041E0009EA78DA78DA59EA50197F1F79EA78DA7E8
:1041F0008FA598A9019798AB8FA78FA598A900972D
:1042000069F714C069A97AA98BA99CA90E94C60064
:10421000DC01CB0198AB8FA78FA598A99CA78BA792
:104220008BA59CA50197F1F79CA78BA781E062E085
:1042300040E00E94EF1380E090E0A0E8BFE38FA38E
:1042400098A7A9A7BAA76FA178A589A59AA520E0E4
:1042500030E04AE755E40E949C02DC01CB018BA3CD
:104260009CA3ADA3BEA36BA17CA18DA19EA120E0C8
:1042700030E040E85FE30E94020588232CF481E0EF
:1042800090E09AA389A33FC06BA17CA18DA19EA1C0
:1042900020E03FEF4FE757E40E94A20418164CF5C8
:1042A0006FA178A589A59AA520E030E040E251E40D
:1042B0000E949C02DC01CB01BC01CD010E94C60022
:1042C000DC01CB019AA389A30FC080E991E098A3F8
:1042D0008F8F8F8D98A10197F1F798A38F8F89A168
:1042E0009AA101979AA389A389A19AA1009769F736
:1042F00014C06BA17CA18DA19EA10E94C600DC010F
:10430000CB019AA389A389A19AA19E8F8D8F8D8DB0
:104310009E8D0197F1F79E8F8D8F8AAD982F9170AA
:1043200081E063E0492F0E94EF138AAD882F90E06F
:104330008270907095958795982F81E064E0492F61
:104340000E94EF138AAD882F90E08470907095954D
:10435000879595958795982F81E065E0492F0E9474
:10436000EF138AAD882F90E08870907095958795AF
:104370009595879595958795982F81E066E0492FCB
:104380000E94EF1381E067E040E00E94EF1381E0BC
:1043900061E040E00E94EF1381E062E041E00E94B2
:1043A000EF1380E090E0A0E8BFE3898F9A8FAB8F96
:1043B000BC8F698D7A8D8B8D9C8D20E030E04AE733
:1043C00055E40E949C02DC01CB018D8B9E8BAF8B50
:1043D000B88F6D897E898F89988D20E030E040E824
:1043E0005FE30E94020588232CF481E090E09C8B1F
:1043F0008B8B3FC06D897E898F89988D20E03FEF40
:104400004FE757E40E94A20418164CF5698D7A8D87
:104410008B8D9C8D20E030E040E251E40E949C02B4
:10442000DC01CB01BC01CD010E94C600DC01CB0147
:104430009C8B8B8B0FC080E991E09A8B898B89894B
:104440009A890197F1F79A8B898B8B899C890197BF
:104450009C8B8B8B8B899C89009769F714C06D8925
:104460007E898F89988D0E94C600DC01CB019C8BD0
:104470008B8B8B899C89988B8F878F8598890197E7
:10448000F1F7988B8F8781E062E040E00E94EF13A4
:1044900080E090E0A0E8BFE38B879C87AD87BE8774
:1044A0006B857C858D859E8520E030E04AE755E46C
:1044B0000E949C02DC01CB018F839887A987BA8771
:1044C0006F81788589859A8520E030E040E85FE358
:1044D0000E94020588232CF481E090E09E838D8366
:1044E0003FC06F81788589859A8520E03FEF4FE74F
:1044F00057E40E94A20418164CF56B857C858D85C7
:104500009E8520E030E040E251E40E949C02DC0104
:10451000CB01BC01CD010E94C600DC01CB019E8312
:104520008D830FC080E991E09C838B838B819C817C
:104530000197F1F79C838B838D819E8101979E83E8
:104540008D838D819E81009769F714C06F81788576
:1045500089859A850E94C600DC01CB019E838D83EC
:104560008D819E819A83898389819A810197F1F750
:104570009A838983EB960FB6F894DEBF0FBECDBF4A
:10458000CF91DF9108950F931F93DF93CF93CDB712
:10459000DEB7C455D0400FB6F894DEBF0FBECDBF16
:1045A000FE01EF5AFF4F80E090E0A8E4B2E4808380
:1045B0009183A283B3838E01035B1F4FFE01EF5AE9
:1045C000FF4F608171818281938120E030E04AE772
:1045D00055E40E949C02DC01CB01F80180839183A9
:1045E000A283B383FE01E35BFF4F6081718182810F
:1045F000938120E030E040E85FE30E9402058823D9
:1046000044F4FE01E55BFF4F81E090E091838083FD
:1046100064C0FE01E35BFF4F608171818281938101
:1046200020E03FEF4FE757E40E94A20418160CF079
:1046300043C0FE01EF5AFF4F6081718182819381F7
:1046400020E030E040E251E40E949C02DC01CB011A
:104650008E01055B1F4FBC01CD010E94C600DC012D
:10466000CB01F801918380831FC0FE01E75BFF4F00
:1046700080E991E091838083FE01E75BFF4F8081B9
:1046800091810197F1F7FE01E75BFF4F91838083F2
:10469000DE01A55BBF4FFE01E55BFF4F808191818D
:1046A000019711969C938E93FE01E55BFF4F8081ED
:1046B00091810097D1F627C08E01055B1F4FFE0147
:1046C000E35BFF4F60817181828193810E94C6000C
:1046D000DC01CB01F80191838083DE01A95BBF4F30
:1046E000FE01E55BFF4F808191818D939C93FE01DC
:1046F000E95BFF4F808191810197F1F7FE01E95B52
:10470000FF4F9183808381E063E041E00E94F012DB
:1047100081E064E041E00E94F01281E065E041E068
:104720000E94F01281E066E041E00E94F01281E018
:1047300067E041E00E94F01281E061E041E00E9408
:10474000F01281E062E041E00E94F01282E00E94FB
:104750005320FE01ED5BFF4F80E090E0A0E8BFE357
:1047600080839183A283B3838E01015C1F4FFE017E
:10477000ED5BFF4F608171818281938120E030E0A9
:104780004AE755E40E949C02DC01CB01F8018083DA
:104790009183A283B383FE01FF9660817181828140
:1047A000938120E030E040E85FE30E940205882327
:1047B0002CF481E090E09EAF8DAF46C0FE01FF96E5
:1047C000608171818281938120E03FEF4FE757E460
:1047D0000E94A204181664F5FE01ED5BFF4F608194
:1047E00071818281938120E030E040E251E40E94B7
:1047F0009C02DC01CB01BC01CD010E94C600DC01A2
:10480000CB019EAF8DAF0FC080E991E09CAF8BAF25
:104810008BAD9CAD0197F1F79CAF8BAF8DAD9EAD8D
:1048200001979EAF8DAF8DAD9EAD009769F716C015
:10483000FE01FF9660817181828193810E94C60092
:10484000DC01CB019EAF8DAF8DAD9EAD9AAF89AF30
:1048500089AD9AAD0197F1F79AAF89AF88E20E94CE
:10486000532080E090E0A0E8BFE38DAB9EABAFAB00
:10487000B8AF6DA97EA98FA998AD20E030E04AE7D6
:1048800055E40E949C02DC01CB0189AB9AABABAB37
:10489000BCAB69A97AA98BA99CA920E030E040E8CB
:1048A0005FE30E94020588232CF481E090E098AB3E
:1048B0008FA73FC069A97AA98BA99CA920E03FEFE7
:1048C0004FE757E40E94A20418164CF56DA97EA983
:1048D0008FA998AD20E030E040E251E40E949C02B4
:1048E000DC01CB01BC01CD010E94C600DC01CB0183
:1048F00098AB8FA70FC080E991E09EA78DA78DA5EB
:104900009EA50197F1F79EA78DA78FA598A901975E
:1049100098AB8FA78FA598A9009769F714C069A9CC
:104920007AA98BA99CA90E94C600DC01CB0198AB97
:104930008FA78FA598A99CA78BA78BA59CA501974E
:10494000F1F79CA78BA78EE00E94532080E090E0B7
:10495000A0E8BFE38FA398A7A9A7BAA76FA178A5DE
:1049600089A59AA520E030E04AE755E40E949C0220
:10497000DC01CB018BA39CA3ADA3BEA36BA17CA147
:104980008DA19EA120E030E040E85FE30E94020597
:1049900088232CF481E090E09AA389A33FC06BA107
:1049A0007CA18DA19EA120E03FEF4FE757E40E943C
:1049B000A20418164CF56FA178A589A59AA520E048
:1049C00030E040E251E40E949C02DC01CB01BC01DA
:1049D000CD010E94C600DC01CB019AA389A30FC0C0
:1049E00080E991E098A38F8F8F8D98A10197F1F7BF
:1049F00098A38F8F89A19AA101979AA389A389A1CE
:104A00009AA1009769F714C06BA17CA18DA19EA10A
:104A10000E94C600DC01CB019AA389A389A19AA1B7
:104A20009E8F8D8F8D8D9E8D0197F1F79E8F8D8F2F
:104A300081E00E94532080E090E0A0EAB0E4898FFA
:104A40009A8FAB8FBC8F698D7A8D8B8D9C8D20E07A
:104A500030E04AE755E40E949C02DC01CB018D8BDB
:104A60009E8BAF8BB88F6D897E898F89988D20E062
:104A700030E040E85FE30E94020588232CF481E0E7
:104A800090E09C8B8B8B3FC06D897E898F89988D40
:104A900020E03FEF4FE757E40E94A20418164CF5C0
:104AA000698D7A8D8B8D9C8D20E030E040E251E461
:104AB0000E949C02DC01CB01BC01CD010E94C6001A
:104AC000DC01CB019C8B8B8B0FC080E991E09A8B32
:104AD000898B89899A890197F1F79A8B898B8B89C0
:104AE0009C8901979C8B8B8B8B899C89009769F79C
:104AF00014C06D897E898F89988D0E94C600DC0163
:104B0000CB019C8B8B8B8B899C89988B8F878F8516
:104B100098890197F1F7988B8F8786E00E94532040
:104B200080E090E0A0E8BFE38B879C87AD87BE87DD
:104B30006B857C858D859E8520E030E04AE755E4D5
:104B40000E949C02DC01CB018F839887A987BA87DA
:104B50006F81788589859A8520E030E040E85FE3C1
:104B60000E94020588232CF481E090E09E838D83CF
:104B70003FC06F81788589859A8520E03FEF4FE7B8
:104B800057E40E94A20418164CF56B857C858D8530
:104B90009E8520E030E040E251E40E949C02DC016E
:104BA000CB01BC01CD010E94C600DC01CB019E837C
:104BB0008D830FC080E991E09C838B838B819C81E6
:104BC0000197F1F79C838B838D819E8101979E8352
:104BD0008D838D819E81009769F714C06F817885E0
:104BE00089859A850E94C600DC01CB019E838D8356
:104BF0008D819E819A83898389819A810197F1F7BA
:104C00009A838983CC5ADF4F0FB6F894DEBF0FBE6C
:104C1000CDBFCF91DF911F910F910895DF93CF9377
:104C200000D00F92CDB7DEB79B838A8319820EC066
:104C30008981282F30E08A819B81FC01E20FF31FDC
:104C400080810E94DE1D89818F5F89838981282F61
:104C500030E08A819B81FC01E20FF31F8081882371
:104C600039F70F900F900F90CF91DF910895DF9358
:104C7000CF93CDB7DEB72E970FB6F894DEBF0FBE39
:104C8000CDBF81E00E94532080E090E0A0EAB0E434
:104C90008B879C87AD87BE876B857C858D859E8540
:104CA00020E030E04AE755E40E949C02DC01CB01A1
:104CB0008F839887A987BA876F81788589859A8538
:104CC00020E030E040E85FE30E94020588232CF4F6
:104CD00081E090E09E838D833FC06F8178858985D8
:104CE0009A8520E03FEF4FE757E40E94A204181690
:104CF0004CF56B857C858D859E8520E030E040E21B
:104D000051E40E949C02DC01CB01BC01CD010E9458
:104D1000C600DC01CB019E838D830FC080E991E04A
:104D20009C838B838B819C810197F1F79C838B8380
:104D30008D819E8101979E838D838D819E810097B9
:104D400069F714C06F81788589859A850E94C600AD
:104D5000DC01CB019E838D838D819E819A83898323
:104D600089819A810197F1F79A8389832E960FB6EC
:104D7000F894DEBF0FBECDBFCF91DF910895DF93D2
:104D8000CF93CDB7DEB72E970FB6F894DEBF0FBE28
:104D9000CDBF8CE10E94532080E090E0A0E8BFE30B
:104DA0008B879C87AD87BE876B857C858D859E852F
:104DB00020E030E04AE755E40E949C02DC01CB0190
:104DC0008F839887A987BA876F81788589859A8527
:104DD00020E030E040E85FE30E94020588232CF4E5
:104DE00081E090E09E838D833FC06F8178858985C7
:104DF0009A8520E03FEF4FE757E40E94A20418167F
:104E00004CF56B857C858D859E8520E030E040E209
:104E100051E40E949C02DC01CB01BC01CD010E9447
:104E2000C600DC01CB019E838D830FC080E991E039
:104E30009C838B838B819C810197F1F79C838B836F
:104E40008D819E8101979E838D838D819E810097A8
:104E500069F714C06F81788589859A850E94C6009C
:104E6000DC01CB019E838D838D819E819A83898312
:104E700089819A810197F1F79A8389832E960FB6DB
:104E8000F894DEBF0FBECDBFCF91DF910895DF93C1
:104E9000CF9300D00F92CDB7DEB78A836B838A8120
:104EA000823080F48B81803168F48A81882319F400
:104EB0008B81898303C08B81805C89838981805841
:104EC0000E9453200F900F900F90CF91DF91089583
:104ED000DF93CF9300D000D000D0CDB7DEB79B8357
:104EE0008A836C834D832E838C81882F90E0089673
:104EF000880F991F880F991F880F991F0E945320B0
:104F000019820EC08981282F30E08A819B81FC01A3
:104F1000E20FF31F80810E94DE1D89818F5F8983EC
:104F20008981883078F38D816E810E9447278C813A
:104F30000E94DE1D26960FB6F894DEBF0FBECDBFD1
:104F4000CF91DF910895DF93CF930F92CDB7DEB766
:104F5000898381E061E041E00E94EF1381E0698193
:104F60000E9477160F90CF91DF910895DF93CF9332
:104F70000F92CDB7DEB7898389810E94A3270F9056
:104F8000CF91DF910895DF93CF9300D000D0CDB7BC
:104F9000DEB79C838B838B819C8124E630E0B90152
:104FA0000E94A32ECB019A8389838981805D0E9410
:104FB000DE1D8B819C8124E630E0B9010E94A32E86
:104FC0009C838B838B819C812AE030E0B9010E9415
:104FD000A32ECB019A8389838981805D0E94DE1D87
:104FE0008B819C812AE030E0B9010E94A32E9C8332
:104FF0008B838981805D0E94DE1D0F900F900F9042
:105000000F90CF91DF910895DF93CF93CDB7DEB7A7
:10501000A1E3B0E0E1E3F0E080818B7F8C93A2E339
:10502000B0E0E2E3F0E0808184608C93A5E5B0E03D
:10503000E5E5F0E080818C7F8C93ABE5B0E0EBE5BB
:10504000F0E0808180648C937894CF91DF91089513
:10505000DF93CF93CDB7DEB7A5E5B0E0E5E5F0E0AF
:105060008081806E8C93A5E5B0E0E5E5F0E080817D
:105070008F7E8C938895A5E5B0E0E5E5F0E0808132
:105080008F778C93CF91DF9108951F920F920FB677
:105090000F921124DF93CF93CDB7DEB7CF91DF917D
:1050A0000F900FBE0F901F901895DF93CF93CDB741
:1050B000DEB78091DD029091DE02A091DF02B09117
:1050C000E0020196A11DB11D8093DD029093DE02E6
:1050D000A093DF02B093E002CF91DF910895DF93B8
:1050E000CF93CDB7DEB78091DD029091DE02A09123
:1050F000DF02B091E002BC01CD01CF91DF910895B4
:105100001F920F920FB60F9211248F939F93AF931C
:10511000BF93DF93CF93CDB7DEB78091DD0290913F
:10512000DE02A091DF02B091E0020196A11DB11D47
:105130008093DD029093DE02A093DF02B093E00241
:10514000CF91DF91BF91AF919F918F910F900FBE43
:105150000F901F901895EF92FF920F931F93DF937C
:10516000CF93CDB7DEB7C157D0400FB6F894DEBFAE
:105170000FBECDBF83E065E041E00E94F01283E006
:1051800064E00E949B1D60E87AE186E090E00E9466
:105190009B110E945B17AFE5B0E0EFE5F0E0808186
:1051A00080688C9383E065E040E00E94EF1360E448
:1051B00070E080E090E045E00E94950AEAE4F0E0CB
:1051C00089EF90E091838083A9E5B0E0E9E5F0E024
:1051D000808180618C93AFE5B0E0EFE5F0E0808105
:1051E00080688C93FE01EC5AFF4F11821082FE0101
:1051F000E05BFF4F1082118212821382AAE3B0E0BB
:10520000EAE3F0E0808181608C93A7E3B0E0E7E31C
:10521000F0E0808181608C93A7E3B0E0E7E3F0E009
:10522000808182608C93A7E3B0E0E7E3F0E08081C7
:1052300084608C93A1E3B0E0E1E3F0E080818062E0
:105240008C93A1E3B0E0E1E3F0E0808180648C9393
:10525000A1E3B0E0E1E3F0E0808180688C93ABE310
:10526000B0E0EBE3F0E080818E7F8C93A8E3B0E0C8
:10527000E8E3F0E080818E7F8C93A8E3B0E0E8E380
:10528000F0E080818D7F8C93A8E3B0E0E8E3F0E06C
:1052900080818B7F8C93A2E3B0E0E2E3F0E0808139
:1052A0008F7D8C93A2E3B0E0E2E3F0E080818F7B1E
:1052B0008C93A2E3B0E0E2E3F0E080818F778C93FF
:1052C000A7E3B0E0E7E3F0E0808181608C93A8E39E
:1052D000B0E0E8E3F0E0808181608C9380E090E0D2
:1052E000A8E4B2E48DAB9EABAFABB8AF6DA97EA91D
:1052F0008FA998AD20E030E04AE755E40E949C0277
:10530000DC01CB0189AB9AABABABBCAB69A97AA989
:105310008BA99CA920E030E040E85FE30E940205F1
:1053200088232CF481E090E098AB8FA73FC069A957
:105330007AA98BA99CA920E03FEF4FE757E40E9490
:10534000A20418164CF56DA97EA98FA998AD20E08E
:1053500030E040E251E40E949C02DC01CB01BC0140
:10536000CD010E94C600DC01CB0198AB8FA70FC016
:1053700080E991E09EA78DA78DA59EA50197F1F7E5
:105380009EA78DA78FA598A9019798AB8FA78FA5EA
:1053900098A9009769F714C069A97AA98BA99CA953
:1053A0000E94C600DC01CB0198AB8FA78FA598A9FE
:1053B0009CA78BA78BA59CA50197F1F79CA78BA712
:1053C000FE01E15BFF4F10824FC2CE018A5A9F4F10
:1053D0009E01265A3F4FAE01425A5F4FB9010E94CB
:1053E000DD17CE018E599F4F9E012A593F4FAE01C6
:1053F00046595F4FB9010E944F1880E090E0A0EA43
:10540000B1E48FA398A7A9A7BAA76FA178A589A58A
:105410009AA520E030E04AE755E40E949C02DC01B6
:10542000CB018BA39CA3ADA3BEA36BA17CA18DA13B
:105430009EA120E030E040E85FE30E94020588235F
:105440002CF481E090E09AA389A33FC06BA17CA1DA
:105450008DA19EA120E03FEF4FE757E40E94A204F8
:1054600018164CF56FA178A589A59AA520E030E023
:1054700040E251E40E949C02DC01CB01BC01CD0161
:105480000E94C600DC01CB019AA389A30FC080E96A
:1054900091E098A38F8F8F8D98A10197F1F798A332
:1054A0008F8F89A19AA101979AA389A389A19AA113
:1054B000009769F714C06BA17CA18DA19EA10E94E9
:1054C000C600DC01CB019AA389A389A19AA19E8F72
:1054D0008D8F8D8D9E8D0197F1F79E8F8D8FFE01A3
:1054E000EA5AFF4F80819181A281B381FE01EA5A7D
:1054F000FF4F2081318142815381BC01CD010E9447
:105500009C02DC01CB017C018D01FE01E65AFF4FBC
:1055100080819181A281B381FE01E65AFF4F2081F3
:10552000318142815381BC01CD010E949C02DC018A
:10553000CB019C01AD01C801B7010E946F02DC01E3
:10554000CB017C018D01FE01E25AFF4F80819181E8
:10555000A281B381FE01E25AFF4F20813181428155
:105560005381BC01CD010E949C02DC01CB019C0156
:10557000AD01C801B7010E946F02DC01CB01BC0183
:10558000CD010E947A2FDC01CB01FE01EA5BFF4FC7
:1055900080839183A283B3838091E502E82EFF2468
:1055A000E296FFAEEEAEE297E2960EAD1FADE29749
:1055B0000130110539F1E2962EAD3FADE297223070
:1055C000310509F449C0E2968EAD9FADE297009790
:1055D00009F04AC1FE01EA5BFF4F6081718182815F
:1055E000938123E333E343EB5EE30E9402058823C8
:1055F0000CF03AC181E08093E5021092E202109231
:10560000E10232C18091E1029091E2020196909311
:10561000E2028093E102FE01EA5BFF4F608171814B
:105620008281938120E030E040E250E40E94A204B5
:1056300018163CF482E08093E5021092E402109286
:10564000E3028091E1029091E2028A31910508F42F
:105650000BC11092E50208C1E0961FAEE097FE0173
:10566000EA5BFF4F60817181828193812DEC3CEC7C
:105670004CE45FE30E94A204181624F491E0E09643
:105680009FAFE09781E0E096EFACE0978E2588230E
:1056900009F0D0C0AF961FAEAF97FE01EA5BFF4F97
:1056A00060817181828193812AE939E949E95FE367
:1056B0000E940205882324F401E0AF960FAFAF9754
:1056C00081E0AF961FADAF978127882309F0B2C064
:1056D0008091E3029091E40201969093E40280931A
:1056E000E3028091E3029091E4028F30910508F487
:1056F000A5C0FE01E15BFF4F81E08083A1E3B0E044
:10570000E1E3F0E0808180648C93A2E3B0E0E2E327
:10571000F0E0808180648C93A1E3B0E0E1E3F0E00D
:10572000808180628C93A2E3B0E0E2E3F0E08081CC
:1057300080628C9380E090E0AAEFB3E4898F9A8F27
:10574000AB8FBC8F698D7A8D8B8D9C8D20E030E086
:105750004AE755E40E949C02DC01CB018D8B9E8BB5
:10576000AF8BB88F6D897E898F89988D20E030E06E
:1057700040E85FE30E94020588232CF481E090E07A
:105780009C8B8B8B3FC06D897E898F89988D20E0A3
:105790003FEF4FE757E40E94A20418164CF5698DBD
:1057A0007A8D8B8D9C8D20E030E040E251E40E94A8
:1057B0009C02DC01CB01BC01CD010E94C600DC01D2
:1057C000CB019C8B8B8B0FC080E991E09A8B898BEE
:1057D00089899A890197F1F79A8B898B8B899C89A2
:1057E00001979C8B8B8B8B899C89009769F714C0E0
:1057F0006D897E898F89988D0E94C600DC01CB015E
:105800009C8B8B8B8B899C89988B8F878F859889B4
:105810000197F1F7988B8F87A2E3B0E0E2E3F0E025
:1058200080818F7D8C931092E5021092E402109299
:10583000E30204C01092E4021092E3028091E102BC
:105840009091E20201969093E2028093E1028091AE
:10585000E1029091E2028739910530F01092E50261
:105860001092E4021092E302FE01E15BFF4F80819F
:10587000882309F4AACD0E94B619AAE3B0E0EAE3AE
:10588000F0E0808181608C93ABE3B0E0EBE3F0E08B
:10589000808181608C930E946F28DC01CB01FE0126
:1058A000E55BFF4F80839183A283B383FE01E65BB8
:1058B000FF4F108215C20E946F1ADC01CB01FE015E
:1058C000E05BFF4F80839183A283B3830E946F28A4
:1058D000DC01CB01FE01EE5BFF4F80839183A2834D
:1058E000B383FE01EE5BFF4FDE01A55BBF4F20815E
:1058F0003181428153818D919D910D90BC91A02D5C
:1059000079018A01E81AF90A0A0B1B0BD801C701B1
:1059100080390FE5900701E0A00700E0B00730F004
:10592000FE01E65BFF4F81E0808399CC2091D90294
:105930003091DA024091DB025091DC02FE01EE5B15
:10594000FF4F80819181A281B381821B930BA40BB5
:10595000B50B893B1BE0910710E0A10710E0B107F0
:10596000B0F18091D9029091DA02A091DB02B0915E
:10597000DC020097A105B10551F11092FE021092D0
:10598000D9021092DA021092DB021092DC0210921D
:10599000D802FE01EF5BFF4F108213C0FE01EF5BE8
:1059A000FF4F8081882F90E0FC01EC50FD4F10826A
:1059B000DE01AF5BBF4FFE01EF5BFF4F80818F5F6A
:1059C0008C93FE01EF5BFF4F80818A3038F3FE013C
:1059D000E05BFF4F80819181A281B381BC01CD0149
:1059E0000E94421B882309F4E3C08091D902909160
:1059F000DA02A091DB02B091DC020097A105B105AB
:105A000081F4FE01EE5BFF4F80819181A281B38121
:105A10008093D9029093DA02A093DB02B093DC0268
:105A2000C7C02091D9023091DA024091DB02509137
:105A3000DC02FE01EE5BFF4F80819181A281B38188
:105A4000821B930BA40BB50BFE01FD968083918303
:105A5000A283B383FE01EE5BFF4F80819181A2811F
:105A6000B3818093D9029093DA02A093DB02B093C2
:105A7000DC02FE01FD9680819181A281B381813992
:105A800021E0920720E0A20720E0B20708F490C0CE
:105A9000FE01FD9680819181A281B3818C3D35E02C
:105AA000930730E0A30730E0B30708F081C0FE01A0
:105AB000FD9660817181828193810E94E4059B0142
:105AC000AC0160E070E68AE697E40E949603DC0190
:105AD000CB018093F0029093F102A093F202B09375
