:100000000C94A7000C94C3280C94C4000C94C40056
:100010000C94C4000C94C4000C94C4000C94FE28EE
:100020000C94C4000C94C4000C94C4000C94C40040
:100030000C94C4000C94C4000C94C4000C94C40030
:100040000C9416190C94C4000C94C4000C94C400B5
:100050000C94C40000407A10F35A00A0724E1809A4
:100060000010A5D4E80000E87648170000E40B541F
:10007000020000CA9A3B000000E1F50500008096EE
:100080009800000040420F000000A0860100000020
:10009000102700000000E8030000000064000000DA
:1000A00000000A00000000000100000000002C76A3
:1000B000D888DC674F0823DFC1DFAE59E1B1B796BE
:1000C000E5E3E453C63AE651997696E8E6C284261B
:1000D000EB898C9B62ED407C6FFCEFBC9C9F40F2F7
:1000E000BAA56FA5F490055A2AF75C936B6CF96773
:1000F0006DC11BFCE0E40D47FEF520E6B500D0ED38
:10010000902E0300943577050080841E080000209F
:100110004E0A000000C80C333333330F986E12833D
:100120001141EF8D2114893BE65516CFFEE6DB1811
:10013000D1844B381BF77C1D901DA4BBE4242032D6
:1001400084725E228100C9F124ECA1E53D271124CF
:100150001FBECFE5D8E0DEBFCDBF12E0A0E6B0E025
:10016000E8E1FFE602C005900D92AA39B107D9F780
:1001700012E0AAE9B2E001C01D92AE3DB107E1F77D
:100180000E9429290C948A370C940000EF92FF9268
:100190000F931F937B018C0120E030E040E05FE48F
:1001A0000E94D20488238CF0C801B70120E030E01F
:1001B00040E05FE40E943E020E9490059B01AC017A
:1001C000205030404040504806C0C801B7010E944E
:1001D00090059B01AC01B901CA011F910F91FF90DD
:1001E000EF900895A0E0B0E0E8EFF0E00C94AA31C1
:1001F000DC012B01FA019C91923008F439C1EB012A
:100200008881823008F433C1943069F4843009F075
:100210002FC111969C9111978981981709F428C1D3
:10022000A1E9B1E025C1843009F421C18230A9F4EB
:10023000923009F01DC19A01AD0188E0EA010990F0
:10024000AE01E90109929E018150C1F7E201898165
:1002500011969C918923818308C1923009F407C1CA
:1002600012962D903C901397EB018A819B811496F6
:10027000AD90BD90CD90DC901797EC80FD800E8105
:100280001F819101281B390BB90137FF04C0662774
:100290007727621B730B603271050CF061C0121678
:1002A00013066CF537014801062E04C09694879416
:1002B000779467940A94D2F721E030E040E050E070
:1002C00004C0220F331F441F551F6A95D2F72150D7
:1002D0003040404050402E213F21402351232115E2
:1002E00031054105510521F021E030E040E050E0CA
:1002F00079018A01E628F728082919293CC0232B0F
:10030000D1F1260E371E35014601062E04C0969403
:100310008794779467940A94D2F721E030E040E024
:1003200050E004C0220F331F441F551F6A95D2F7B7
:1003300021503040404050402A213B214C215D213A
:10034000211531054105510521F021E030E040E063
:1003500050E059016A01A628B728C828D9280BC03F
:10036000821593052CF01C01AA24BB24650103C04F
:10037000EE24FF24870111969C91D20111968C9155
:10038000981709F445C0992339F0A80197012A1953
:100390003B094C095D0906C0A60195012E193F09CC
:1003A000400B510B57FD08C01182338222822483F7
:1003B0003583468357831DC081E081833382228247
:1003C00088279927DC01821B930BA40BB50B848330
:1003D0009583A683B7830DC0220F331F441F551F7B
:1003E0002483358346835783828193810197938346
:1003F00082832481358146815781DA01C9010197C1
:10040000A109B1098F5F9F4FAF4FBF4328F30BC0C6
:10041000918333822282EA0CFB1C0C1D1D1DE48299
:10042000F5820683178383E08083248135814681AA
:10043000578157FF1AC0C901AA2797FDA095BA2F67
:1004400081709070A070B07056954795379527953C
:10045000822B932BA42BB52B84839583A683B78300
:1004600082819381019693838283DF0101C0D2014F
:10047000CD01CDB7DEB7E2E10C94C631A0E2B0E029
:10048000E4E4F2E00C94B63169837A838B839C8335
:100490002D833E834F835887E9E0EE2EF12CEC0E3E
:1004A000FD1ECE010196B7010E9481078E010F5EED
:1004B0001F4FCE010596B8010E9481078A8991E0FD
:1004C00089278A8BC701B801AE01475E5F4F0E9442
:1004D000F2000E94AC06A096E6E00C94D231A0E2B5
:1004E000B0E0E5E7F2E00C94B63169837A838B8360
:1004F0009C832D833E834F835887F9E0EF2EF12CA8
:10050000EC0EFD1ECE010196B7010E9481078E01FF
:100510000F5E1F4FCE010596B8010E948107C701EB
:10052000B801AE01475E5F4F0E94F2000E94AC0628
:10053000A096E6E00C94D231A0E2B0E0E2EAF2E06C
:100540000C94AA3169837A838B839C832D833E83A9
:100550004F835887CE010196BE01675F7F4F0E948F
:100560008107CE010596BE016F5E7F4F0E94810715
:100570009985923088F089898230C8F0943019F4D6
:10058000823051F404C0843029F4923081F481E93E
:1005900091E0C6C0923049F420E09A858A89981388
:1005A00021E02A87CE010996BBC0823049F420E0C1
:1005B0009A858A89981321E02A8BCE014196B0C092
:1005C0002D843E844F8458886D887E888F88988CCF
:1005D000EE24FF248701AA24BB24650140E050E0FB
:1005E00060E070E0E0E0F0E0C10181709070892B84
:1005F000E9F0E60CF71C081D191D9A01AB012A0D44
:100600003B1D4C1D5D1D80E090E0A0E0B0E0E614D5
:10061000F7040805190520F481E090E0A0E0B0E0BF
:10062000BA01A901480F591F6A1F7B1FAA0CBB1CE6
:10063000CC1CDD1C97FE08C081E090E0A0E0B0E09B
:10064000A82AB92ACA2ADB2A3196E032F10549F0F4
:10065000660C771C881C991C5694479437942794F1
:10066000C3CFFA85EA892B893C898B859C85280F25
:10067000391F2E5F3F4F17C0CA0181709070892BC0
:1006800061F016950795F794E79480E090E0A0E07C
:10069000B0E8E82AF92A0A2B1B2B7695679557951F
:1006A00047952F5F3F4F77FDE7CF0CC0440F551F95
:1006B000661F771F17FD4160EE0CFF1C001F111F06
:1006C00021503040403090E0590790E0690790E4B5
:1006D000790760F32B8F3C8FDB01CA018F77907015
:1006E000A070B07080349105A105B10561F447FD9B
:1006F0000AC0E114F1040105110529F0405C5F4FC7
:100700006F4F7F4F40781A8EFE1711F081E08A8F6D
:100710004D8F5E8F6F8F78A383E0898FCE014996CE
:100720000E94AC06A096E2E10C94C631A8E1B0E0CC
:10073000ECE9F3E00C94B23169837A838B839C8378
:100740002D833E834F835887B9E0EB2EF12CEC0EBE
:10075000FD1ECE010196B7010E9481078E010F5E3A
:100760001F4FCE010596B8010E94810729852230CE
:1007700008F47EC03989323010F4B8017CC08A8513
:100780009A8989278A87243011F0223031F423177F
:1007900009F06EC061E971E06EC0343039F41D8635
:1007A0001E861F86188A1C861B8604C0323021F4E0
:1007B00084E08987B7015FC02B853C858B899C8944
:1007C000281B390B3C872B87ED84FE840F85188905
:1007D000AD88BE88CF88D88CEA14FB040C051D05B3
:1007E00040F4EE0CFF1C001F111F215030403C87CD
:1007F0002B8720E030E040E050E080E090E0A0E097
:10080000B0E460E070E0EA14FB040C051D0540F064
:10081000282B392B4A2B5B2BEA18FB080C091D09E6
:10082000B695A79597958795EE0CFF1C001F111F95
:100830006F5F7F4F6F31710531F7DA01C9018F7733
:100840009070A070B07080349105A105B10561F47D
:1008500027FD0AC0E114F1040105110529F0205C0F
:100860003F4F4F4F5F4F20782D873E874F87588BE4
:10087000BE01675F7F4FCB010E94AC066896EAE03D
:100880000C94CE31A8E1B0E0E8E4F4E00C94B63189
:1008900069837A838B839C832D833E834F83588720
:1008A00089E0E82EF12CEC0EFD1ECE010196B70179
:1008B0000E9481078E010F5E1F4FCE010596B80181
:1008C0000E9481078985823040F08989823028F032
:1008D000C701B8010E94F90701C081E06896E6E00F
:1008E0000C94D231A8E1B0E0E8E7F4E00C94B63122
:1008F00069837A838B839C832D833E834F835887C0
:1009000089E0E82EF12CEC0EFD1ECE010196B70118
:100910000E9481078E010F5E1F4FCE010596B80120
:100920000E9481078985823040F08989823028F0D1
:10093000C701B8010E94F90701C081E06896E6E0AE
:100940000C94D231A8E1B0E0E8EAF4E00C94B631BE
:1009500069837A838B839C832D833E834F8358875F
:1009600089E0E82EF12CEC0EFD1ECE010196B701B8
:100970000E9481078E010F5E1F4FCE010596B801C0
:100980000E9481078985823040F08989823028F071
:10099000C701B8010E94F90701C08FEF6896E6E031
:1009A0000C94D231A8E1B0E0E8EDF4E00C94B6315B
:1009B00069837A838B839C832D833E834F835887FF
:1009C00089E0E82EF12CEC0EFD1ECE010196B70158
:1009D0000E9481078E010F5E1F4FCE010596B80160
:1009E0000E9481078985823040F08989823028F011
:1009F000C701B8010E94F90701C08FEF6896E6E0D1
:100A00000C94D231A8E1B0E0E8E0F5E00C94B63106
:100A100069837A838B839C832D833E834F8358879E
:100A200089E0E82EF12CEC0EFD1ECE010196B701F7
:100A30000E9481078E010F5E1F4FCE010596B801FF
:100A40000E9481078985823040F08989823028F0B0
:100A5000C701B8010E94F90701C081E06896E6E08D
:100A60000C94D231A8E0B0E0E8E3F5E00C94B331A7
:100A70009B01AC0183E08983DA01C9018827B7FDB6
:100A800083959927AA27BB27B82E21153105410543
:100A9000510519F482E089833AC08823A9F02030F7
:100AA00080E0380780E0480780E8580729F460E0D4
:100AB00070E080E09FEC30C0EE24FF248701E21A52
:100AC000F30A040B150B02C079018A018EE1C82ECE
:100AD000D12CDC82CB82ED82FE820F831887C80185
:100AE000B7010E945D0601971816190684F4082EB6
:100AF00004C0EE0CFF1C001F111F0A94D2F7ED82F8
:100B0000FE820F831887C81AD90ADC82CB82BA8288
:100B1000CE0101960E94AC062896E9E00C94CF31F4
:100B2000ACE0B0E0E6E9F5E00C94BA3169837A8391
:100B30008B839C83CE010196BE016B5F7F4F0E9429
:100B400081078D81823061F1823050F1843021F44F
:100B50008E81882351F12EC02F81388537FD20C02A
:100B60006E812F3131051CF06623F9F023C08EE130
:100B700090E0821B930B29853A854B855C8504C0E8
:100B800056954795379527958A95D2F76623B1F004
:100B900050954095309521953F4F4F4F5F4F0EC078
:100BA00020E030E040E050E009C02FEF3FEF4FEF92
:100BB0005FE704C020E030E040E050E8B901CA013E
:100BC0002C96E2E00C94D631A8E0B0E0EAEEF5E035
:100BD0000C94B2317B018C01611571058105910581
:100BE00019F482E0898360C083E089838EE1C82E96
:100BF000D12CDC82CB82ED82FE820F831887C80164
:100C0000B7010E945D06FC013197F7FF3BC0222728
:100C100033272E1B3F0B57016801022E04C0D694C8
:100C2000C794B794A7940A94D2F740E050E060E0EC
:100C300070E081E090E0A0E0B0E004C0880F991F70
:100C4000AA1FBB1F2A95D2F70197A109B1098E21CE
:100C50009F21A023B1230097A105B10521F041E018
:100C600050E060E070E04A295B296C297D294D83C2
:100C70005E836F8378878EE190E08E1B9F0B9C8351
:100C80008B8312C0309781F00E2E04C0EE0CFF1C37
:100C9000001F111F0A94D2F7ED82FE820F8318877E
:100CA000CE1ADF0ADC82CB821A82CE0101960E9424
:100CB000AC062896EAE00C94CE31EF92FF920F93A7
:100CC0001F937B018C0180E0E81680E0F80681E04C
:100CD000080780E0180788F48FEFE816F104010593
:100CE000110531F028F088E090E0A0E0B0E017C0F6
:100CF00080E090E0A0E0B0E012C080E0E81680E084
:100D0000F80680E0080781E0180728F088E190E005
:100D1000A0E0B0E004C080E190E0A0E0B0E020E21C
:100D200030E040E050E0281B390B4A0B5B0B04C05D
:100D300016950795F794E7948A95D2F7F701E75649
:100D4000FE4F8081281B310941095109C9011F91BA
:100D50000F91FF90EF900895DF92EF92FF920F9323
:100D60001F93FC01E480F58006811781D18080818A
:100D7000823048F480E090E0A0E1B0E0E82AF92A6F
:100D80000A2B1B2BA5C0843009F49FC0823021F4AC
:100D9000EE24FF24870105C0E114F10401051105CB
:100DA00019F4E0E0F0E096C0628173819FEF623851
:100DB00079070CF05BC022E83FEF261B370B2A3186
:100DC00031052CF020E030E040E050E02AC0B801CE
:100DD000A701022E04C076956795579547950A940A
:100DE000D2F781E090E0A0E0B0E004C0880F991F46
:100DF000AA1FBB1F2A95D2F70197A109B1098E211D
:100E00009F21A023B1230097A105B10521F081E026
:100E100090E0A0E0B0E09A01AB01282B392B4A2BDF
:100E20005B2BDA01C9018F779070A070B0708034AD
:100E30009105A105B10539F427FF09C0205C3F4F9A
:100E40004F4F5F4F04C0215C3F4F4F4F5F4FE0E07B
:100E5000F0E02030A0E03A07A0E04A07A0E45A07FB
:100E600010F0E1E0F0E079018A0127C060387105F7
:100E700064F5FB01E158FF4FD801C7018F779070EF
:100E8000A070B07080349105A105B10539F4E7FE7A
:100E90000DC080E490E0A0E0B0E004C08FE390E0FB
:100EA000A0E0B0E0E80EF91E0A1F1B1F17FF05C0E7
:100EB00016950795F794E794319687E01695079570
:100EC000F794E7948A95D1F705C0EE24FF248701B3
:100ED000EFEFF0E06E2F679566276795902F9F776D
:100EE000D794DD24D7948E2F8695492F462B582FE3
:100EF0005D29B701CA011F910F91FF90EF90DF901C
:100F00000895FC01DB01408151812281622F6F77BE
:100F100070E0221F2227221F9381892F880F822BA6
:100F2000282F30E0991F9927991F11969C931197AC
:100F300021153105A9F5411551056105710511F41A
:100F400082E037C082E89FEF13969C938E931297AE
:100F50009A01AB0167E0220F331F441F551F6A95AA
:100F6000D1F783E08C930DC0220F331F441F551F10
:100F700012968D919C911397019713969C938E9343
:100F80001297203080E0380780E0480780E4580757
:100F900058F314962D933D934D935C9317970895B2
:100FA0002F3F310579F4411551056105710519F49B
:100FB00084E08C93089564FF03C081E08C9312C099
:100FC0001C9210C02F57304013963C932E931297CB
:100FD00083E08C9387E0440F551F661F771F8A9527
:100FE000D1F7706414964D935D936D937C9317972E
:100FF00008951F93DC01FB019C91923008F447C0D7
:101000008081823008F443C0943051F411961C91D1
:10101000843099F58181682F70E0611B71093FC0B0
:10102000843021F0923031F48230B9F1818188230B
:1010300089F12DC011961C9111978230F1F08181B8
:101040001817D9F412962D913C91139782819381B0
:101050008217930794F028173907BCF014968D91E6
:101060009D910D90BC91A02D2481358146815781A1
:10107000281739074A075B0718F4112341F00AC003
:1010800082179307A407B50740F4112319F061E014
:1010900070E005C06FEF7FEF02C060E070E0CB0151
:1010A0001F910895DF93CF9300D000D000D0CDB72B
:1010B000DEB76B837C838D839E838B819C81AD8126
:1010C000BE81880F991FAA1FBB1F880F991FAA1FD7
:1010D000BB1F880F991FAA1FBB1F880F991FAA1F2C
:1010E000BB1F9C01AD0180E094E2A4EFB0E0BC0125
:1010F000CD010E948831DA01C90101979A83898361
:10110000E0E4F0E089819A81892F99278083E9E2E0
:10111000F0E089818083EAE2F0E088E18083E0E426
:10112000F0E086E8808326960FB6F894DEBF0FBE07
:10113000CDBFCF91DF910895DF93CF93CDB7DEB7C9
:10114000EBE2F0E080818823DCF7ECE2F0E08081E4
:10115000CF91DF910895DF93CF930F92CDB7DEB794
:101160008983EBE2F0E08081882F90E080729070BC
:101170000097B9F3ECE2F0E0898180830F90CF9182
:10118000DF910895DF93CF9300D0CDB7DEB79A8378
:1011900089830BC0E981FA81208189819A81019636
:1011A0009A838983822F0E94AB08E981FA8180812A
:1011B000882381F70F900F90CF91DF9108950F93BF
:1011C0001F93DF93CF93CDB7DEB768970FB6F89430
:1011D000DEBF0FBECDBF6D8B7E8B8F8B988F8D89C1
:1011E0009E89AF89B88DBC01CD0146E022E0FE01A9
:1011F00031968F010E94E131CE0101960E94C20812
:1012000068960FB6F894DEBF0FBECDBFCF91DF91C9
:101210001F910F910895AF92BF92CF92DF92EF92FC
:10122000FF920F931F93DF93CF93CDB7DEB76097F5
:101230000FB6F894DEBF0FBECDBF69837A838B8370
:101240009C832D833E834F835887E986FA860B87DC
:101250001C87AD86BE86CF86D88A80E690E00E9445
:10126000C20889819A81AB81BC81BC01CD010E94F9
:10127000DF0886E690E00E94C2088D819E81AF81E2
:10128000B885BC01CD010E94DF0886E690E00E948F
:10129000C20889859A85AB85BC85BC01CD010E94B9
:1012A000DF0888E690E00E94C2088D859E85AF85A4
:1012B000B889BC01CD010E94DF0886E690E00E945B
:1012C000C2088D8D9E8DAF8DB8A1BC01CD010E944D
:1012D000DF0886E690E00E94C20889A19AA1ABA12E
:1012E000BCA1BC01CD010E94DF0881E790E00E9413
:1012F000C20860960FB6F894DEBF0FBECDBFCF9187
:10130000DF911F910F91FF90EF90DF90CF90BF90F2
:10131000AF900895DF93CF93CDB7DEB760970FB648
:10132000F894DEBF0FBECDBF6D877E878F87988B09
:101330008DB79EB708970FB6F8949EBF0FBE8DBFAE
:10134000EDB7FEB73196CE0101969183808384E795
:1013500090E0938382838D859E85AF85B889848351
:101360009583A683B7830E9423328DB79EB70896D4
:101370000FB6F8949EBF0FBE8DBFCE0101960E949E
:10138000C20881E790E00E94C20860960FB6F89408
:10139000DEBF0FBECDBFCF91DF910895DF93CF9316
:1013A000CDB7DEB72F970FB6F894DEBF0FBECDBF17
:1013B0006C877D878E879F878C859D859E012F5F9B
:1013C0003F4FB9014AE050E00E940232CE0101963F
:1013D0000E94C2082F960FB6F894DEBF0FBECDBF95
:1013E000CF91DF910895DF93CF93CDB7DEB72F97DD
:1013F0000FB6F894DEBF0FBECDBF6B877C878D879D
:101400009E874F876B857C858D859E8520E030E0AB
:1014100040E050E00E94020588236CF488E790E0E9
:101420000E94C2088B859C85AD85BE85B0588B8790
:101430009C87AD87BE876B857C858D859E850E9448
:10144000C600DC01CB018F839887A987BA878F817B
:101450009885A985BA85BC01CD010E94CE098AE78D
:1014600090E00E94C2086F81788589859A850E94E4
:10147000E4059B01AC016B857C858D859E850E9472
:101480003E02DC01CB018B839C83AD83BE831A8239
:101490003EC06B817C818D819E8120E030E040E206
:1014A00051E40E949C02DC01CB018B839C83AD83C1
:1014B000BE836B817C818D819E810E94C600DC0190
:1014C000CB0189838981882F90E0A0E0B0E0BC0146
:1014D000CD010E94CE098981882F90E0AA2797FD2F
:1014E000A095BA2FBC01CD010E9432059B01AC0131
:1014F0006B817C818D819E810E943E02DC01CB014B
:101500008B839C83AD83BE838A818F5F8A839A811C
:101510008F85981708F4BDCF2F960FB6F894DEBFCD
:101520000FBECDBFCF91DF910895DF93CF93CDB79D
:10153000DEB72B970FB6F894DEBF0FBECDBF698321
:101540007A838B839C834D83AFE5B0E0EFE5F0E0D9
:10155000808180688C9389819A81AB81BC818093E2
:10156000C3029093C402A093C502B093C6028981BE
:101570009A81AB81BC8188879987AA87BB87888538
:101580009985AA85BB8580349105A105B10509F42B
:1015900063C088859985AA85BB8581349105A1059D
:1015A000B10598F488859985AA85BB858130910518
:1015B000A105B10529F188859985AA85BB85883063
:1015C0009105A105B10591F188C088859985AA8505
:1015D000BB85803021E0920720E0A20720E0B2071F
:1015E00009F450C088859985AA85BB85803024E0A0
:1015F000920720E0A20720E0B20709F459C06DC0AD
:10160000AEE4B0E0EEE4F0E080818B7F8C93AEE45A
:10161000B0E0EEE4F0E080818D7F8C93AEE4B0E04A
:10162000EEE4F0E0808181608C9357C0AEE4B0E0DE
:10163000EEE4F0E080818B7F8C93AEE4B0E0EEE4EA
:10164000F0E0808182608C93AEE4B0E0EEE4F0E004
:1016500080818E7F8C9341C0AEE4B0E0EEE4F0E098
:1016600080818B7F8C93AEE4B0E0EEE4F0E080818B
:1016700082608C93AEE4B0E0EEE4F0E080818160C3
:101680008C932BC0AEE4B0E0EEE4F0E080818460A7
:101690008C93AEE4B0E0EEE4F0E080818D7F8C933B
:1016A000AEE4B0E0EEE4F0E080818E7F8C9315C074
:1016B000AEE4B0E0EEE4F0E0808184608C93AEE4D0
:1016C000B0E0EEE4F0E080818D7F8C93AEE4B0E09A
:1016D000EEE4F0E0808181608C938D81A82FB0E0F2
:1016E000BF83AE832E813F812830310509F4FEC1CE
:1016F0008E819F818930910554F5AE81BF81A430E0
:10170000B10509F400C12E813F812530310594F4E3
:101710008E819F818230910509F46FC0AE81BF81B7
:10172000A330B1050CF0ACC02E813F8121303105D2
:10173000C9F1DBC38E819F818630910509F450C1C8
:10174000AE81BF81A730B1050CF08DC11EC12E81C5
:101750003F812C30310509F4D5C28E819F818D30B7
:1017600091056CF4AE81BF81AA30B10509F444C281
:101770002E813F812B3031050CF081C2FAC18E8160
:101780009F818E30910509F42BC3AE81BF81AE30AD
:10179000B1050CF4FAC22E813F812F30310509F4D6
:1017A00062C3A3C3AEE4B0E0EEE4F0E080818F7EDC
:1017B0008C93AEE4B0E0EEE4F0E08081877F8C9320
:1017C000AFE4B0E0EFE4F0E080818D7F8C93AFE494
:1017D000B0E0EFE4F0E080818E7F8C93A9E5B0E08B
:1017E000E9E5F0E0808184608C93AEE4B0E0EEE463
:1017F000F0E0808180688C9378C3AEE4B0E0EEE4E2
:10180000F0E080818F7E8C93AEE4B0E0EEE4F0E017
:101810008081877F8C93AFE4B0E0EFE4F0E08081DB
:101820008D7F8C93AFE4B0E0EFE4F0E080818160E5
:101830008C93AFE4B0E0EFE4F0E0808180688C93BB
:10184000AFE4B0E0EFE4F0E080818F7B8C93AFE415
:10185000B0E0EFE4F0E0808180628C93AFE4B0E030
:10186000EFE4F0E080818F7E8C9384E064E041E0DF
:101870000E94F11284E065E041E00E94F11235C35C
:10188000AEE4B0E0EEE4F0E080818F7E8C93AEE4D5
:10189000B0E0EEE4F0E08081877F8C93AFE4B0E0CD
:1018A000EFE4F0E0808182608C93AFE4B0E0EFE49D
:1018B000F0E080818E7F8C93AFE4B0E0EFE4F0E065
:1018C000808180688C93AFE4B0E0EFE4F0E0808149
:1018D0008F7B8C93AFE4B0E0EFE4F0E08081806236
:1018E0008C93AFE4B0E0EFE4F0E080818F7E8C93E6
:1018F00084E064E041E00E94F11284E065E041E0B0
:101900000E94F112F2C2AEE4B0E0EEE4F0E08081B9
:101910008F7E8C93AEE4B0E0EEE4F0E08081877FD0
:101920008C93AFE4B0E0EFE4F0E0808182608C93D0
:10193000AFE4B0E0EFE4F0E0808181608C93AFE44D
:10194000B0E0EFE4F0E0808180688C93AFE4B0E039
:10195000EFE4F0E080818F7B8C93AFE4B0E0EFE4C4
:10196000F0E0808180628C93AFE4B0E0EFE4F0E0DF
:1019700080818F7E8C9384E064E041E00E94F112CC
:1019800084E065E041E00E94F112AEE4B0E0EEE4F4
:10199000F0E080818F7E8C93AEE4B0E0EEE4F0E086
:1019A000808188608C93AFE4B0E0EFE4F0E0808168
:1019B0008D7F8C93AFE4B0E0EFE4F0E080818E7F28
:1019C0008C93A9E5B0E0E9E5F0E0808180618C933B
:1019D000A9E5B0E0E9E5F0E08081877F8C9385C2DE
:1019E000AEE4B0E0EEE4F0E080818F7E8C93AEE474
:1019F000B0E0EEE4F0E0808188608C93AFE4B0E08A
:101A0000EFE4F0E080818D7F8C93AFE4B0E0EFE411
:101A1000F0E0808181608C93AFE4B0E0EFE4F0E02F
:101A2000808180688C93AFE4B0E0EFE4F0E08081E7
:101A30008F7B8C93AFE4B0E0EFE4F0E080818062D4
:101A40008C93AFE4B0E0EFE4F0E080818F7E8C9384
:101A500084E064E041E00E94F11284E065E041E04E
:101A60000E94F11242C2AEE4B0E0EEE4F0E0808108
:101A70008F7E8C93AEE4B0E0EEE4F0E0808188608D
:101A80008C93AFE4B0E0EFE4F0E0808182608C936F
:101A9000AFE4B0E0EFE4F0E080818E7F8C93AFE4C0
:101AA000B0E0EFE4F0E0808180688C93AFE4B0E0D8
:101AB000EFE4F0E080818F7B8C93AFE4B0E0EFE463
:101AC000F0E0808180628C93AFE4B0E0EFE4F0E07E
:101AD00080818F7E8C9384E064E041E00E94F1126B
:101AE00084E065E041E00E94F112FFC1AEE4B0E0A5
:101AF000EEE4F0E080818F7E8C93AEE4B0E0EEE423
:101B0000F0E0808188608C93AFE4B0E0EFE4F0E037
:101B1000808182608C93AFE4B0E0EFE4F0E08081FC
:101B200081608C93AFE4B0E0EFE4F0E08081806806
:101B30008C93AFE4B0E0EFE4F0E080818F7B8C9396
:101B4000AFE4B0E0EFE4F0E0808180628C93AFE43A
:101B5000B0E0EFE4F0E080818F7E8C9384E064E07D
:101B600041E00E94F11284E065E041E00E94F11240
:101B7000BCC1AEE4B0E0EEE4F0E0808180618C9323
:101B8000AEE4B0E0EEE4F0E08081877F8C93AFE4D8
:101B9000B0E0EFE4F0E080818D7F8C93AFE4B0E0C3
:101BA000EFE4F0E080818E7F8C93AFE4B0E0EFE46F
:101BB000F0E0808180688C93AFE4B0E0EFE4F0E087
:101BC00080818F7B8C93AFE4B0E0EFE4F0E0808124
:101BD00080628C93AFE4B0E0EFE4F0E080818F7E30
:101BE0008C9384E064E041E00E94F11284E065E0BF
:101BF00041E00E94F11279C1AEE4B0E0EEE4F0E021
:101C0000808180618C93AEE4B0E0EEE4F0E080810E
:101C1000877F8C93AFE4B0E0EFE4F0E080818D7FCC
:101C20008C93AFE4B0E0EFE4F0E0808181608C93CE
:101C3000AFE4B0E0EFE4F0E0808180688C93AFE443
:101C4000B0E0EFE4F0E080818F7B8C93AFE4B0E014
:101C5000EFE4F0E0808180628C93AFE4B0E0EFE4E9
:101C6000F0E080818F7E8C9384E064E041E00E940C
:101C7000F11284E065E041E00E94F11236C1AEE469
:101C8000B0E0EEE4F0E0808180618C93AEE4B0E0FF
:101C9000EEE4F0E08081877F8C93AFE4B0E0EFE486
:101CA000F0E0808182608C93AFE4B0E0EFE4F0E09C
:101CB00080818E7F8C93AFE4B0E0EFE4F0E0808130
:101CC00080688C93AFE4B0E0EFE4F0E080818F7B3C
:101CD0008C93AFE4B0E0EFE4F0E0808180628C931D
:101CE000AFE4B0E0EFE4F0E080818F7E8C9384E09D
:101CF00064E041E00E94F11284E065E041E00E946E
:101D0000F112F3C0AEE4B0E0EEE4F0E08081806177
:101D10008C93AEE4B0E0EEE4F0E08081877F8C93BA
:101D2000AFE4B0E0EFE4F0E0808182608C93AFE458
:101D3000B0E0EFE4F0E0808181608C93AFE4B0E04C
:101D4000EFE4F0E0808180688C93AFE4B0E0EFE4F2
:101D5000F0E080818F7B8C93AFE4B0E0EFE4F0E0C3
:101D6000808180628C93AFE4B0E0EFE4F0E08081AA
:101D70008F7E8C9384E064E041E00E94F11284E065
:101D800065E041E00E94F112B0C0AEE4B0E0EEE4E4
:101D9000F0E0808180618C93AEE4B0E0EEE4F0E0AE
:101DA000808188608C93AFE4B0E0EFE4F0E0808164
:101DB0008D7F8C93AFE4B0E0EFE4F0E080818E7F24
:101DC0008C93A9E5B0E0E9E5F0E0808180618C9337
:101DD000A9E5B0E0E9E5F0E0808188608C9385C0FA
:101DE000AEE4B0E0EEE4F0E0808180618C93AEE49C
:101DF000B0E0EEE4F0E0808188608C93AFE4B0E086
:101E0000EFE4F0E0808182608C93AFE4B0E0EFE437
:101E1000F0E080818E7F8C93AFE4B0E0EFE4F0E0FF
:101E2000808180688C93AFE4B0E0EFE4F0E08081E3
:101E30008F7B8C93AFE4B0E0EFE4F0E080818062D0
:101E40008C93AFE4B0E0EFE4F0E080818F7E8C9380
:101E500084E064E041E00E94F11284E065E041E04A
:101E60000E94F11242C0AEE4B0E0EEE4F0E0808106
:101E700080618C93AEE4B0E0EEE4F0E080818860B5
:101E80008C93AFE4B0E0EFE4F0E0808182608C936B
:101E9000AFE4B0E0EFE4F0E0808181608C93AFE4E8
:101EA000B0E0EFE4F0E0808180688C93AFE4B0E0D4
:101EB000EFE4F0E080818F7B8C93AFE4B0E0EFE45F
:101EC000F0E0808180628C93AFE4B0E0EFE4F0E07A
:101ED00080818F7E8C9384E064E041E00E94F11267
:101EE00084E065E041E00E94F1122B960FB6F89471
:101EF000DEBF0FBECDBFCF91DF910895DF93CF93AB
:101F000000D0CDB7DEB79A838983EAE4F0E0898117
:101F10009A81918380830F900F90CF91DF910895E4
:101F2000DF93CF9300D0CDB7DEB79A838983E8E4FF
:101F3000F0E089819A81918380830F900F90CF91F7
:101F4000DF910895EF92FF920F931F93DF93CF934A
:101F5000CDB7DEB762970FB6F894DEBF0FBECDBF28
:101F60006D877E878F87988B5A8B498B8091C302B0
:101F70009091C402A091C502B091C602072E7DE0E7
:101F8000880F991FAA1FBB1F7A95D1F7702D8987DB
:101F90009A87AB87BC876D857E858F8598890E94DF
:101FA000E4057B018C0169857A858B859C850E947F
:101FB000E4059B01AC01C801B7010E949603DC0156
:101FC000CB018D839E83AF83B88789899A8990934B
:101FD000CC028093CB026D817E818F81988520E039
:101FE00030E040E85FE30E94020588239CF581E031
:101FF00090E0A0E0B0E08093C7029093C802A09365
:10200000C902B093CA026D817E818F81988520E0DC
:1020100030E040E857EC0E949C02DC01CB01BC019F
:10202000CD0120E030E040E857E40E946F02DC017F
:10203000CB01BC01CD010E94C600DC01CB0189832C
:102040009A83AB83BC83ECE4F0E089819A8191832D
:102050008083A4C06D817E818F81988520E030E0EF
:1020600040E85FE30E944204882369F481E090E045
:10207000A0E0B0E08093C7029093C802A093C90289
:10208000B093CA028BC06D817E818F81988520E0DC
:1020900030E040E85FE30E94A20418160CF07EC016
:1020A0006D817E818F8198850E94C600DC01CB0105
:1020B0008093C7029093C802A093C902B093CA024A
:1020C0006D817E818F8198850E94C600DC01CB01E5
:1020D000BC01CD010E94E4059B01AC016D817E81B4
:1020E0008F8198850E943E02DC01CB01BC01CD01AD
:1020F00020E030E040E050E00E947204882309F4C0
:102100004DC06D817E818F8198850E94C600DC0163
:10211000CB01BC01CD010E94E4059B01AC016D81A6
:102120007E818F8198850E943E02DC01CB01BC013B
:10213000CD0120E030E040E857EC0E949C02DC0139
:10214000CB01BC01CD0120E030E040E857E40E9423
:102150006F02DC01CB01BC01CD010E94C600DC0195
:10216000CB0189839A83AB83BC838091C702909112
:10217000C802A091C902B091CA020196A11DB11D69
:102180008093C7029093C802A093C902B093CA0279
:10219000ECE4F0E089819A819183808362960FB6A6
:1021A000F894DEBF0FBECDBFCF91DF911F910F918D
:1021B000FF90EF900895EF92FF920F931F93DF939C
:1021C000CF93CDB7DEB760970FB6F894DEBF0FBEE2
:1021D000CDBF1D861E861F86188A19861A861B8605
:1021E0001C86A8E5B0E0E8E5F0E0808180628C9391
:1021F000AEE4B0E0EEE4F0E0808180648C93E8E54A
:10220000F0E08081882F90E080729070959587959E
:1022100095958795959587959595879595958795A6
:10222000009769F3E6E4F0E080819181CC01A0E0C1
:10223000B0E08D879E87AF87B88BA8E5B0E0E8E572
:10224000F0E0808180628C93AEE4B0E0EEE4F0E0F8
:1022500080818F7B8C93E8E5F0E08081882F90E08F
:1022600080729070959587959595879595958795AA
:102270009595879595958795009769F3E6E4F0E045
:1022800080819181CC01A0E0B0E089879A87AB87FB
:10229000BC8729853A854B855C858D859E85AF8574
:1022A000B88979018A01E81AF90A0A0B1B0BD801CF
:1022B000C7018D839E83AF83B8878091C3029091BD
:1022C000C402A091C502B091C6022D813E814F810A
:1022D0005885BC01CD010E9449319B01AC0180E0D1
:1022E00092E1AAE7B0E0BC01CD010E948831DA0199
:1022F000C90189839A83AB83BC8389819A81AB812D
:10230000BC81BC01CD0160960FB6F894DEBF0FBE54
:10231000CDBFCF91DF911F910F91FF90EF90089566
:10232000DF93CF93CDB7DEB7E1E2F0E08081887F25
:10233000CF91DF9108950F931F93DF93CF9300D038
:1023400000D0CDB7DEB769837A838B839C8300E2AC
:1023500010E080E094E2A4EFB0E029813A814B8163
:102360005C81BC01CD010E948831DA01C90140972E
:10237000A109B109689412F8B695A7959795879524
:102380001694D1F7F8018083E1E2F0E081E08083E8
:10239000E6E5F0E084E080830F900F900F900F90BF
:1023A000CF91DF911F910F910895DF93CF93CDB718
:1023B000DEB7E6E5F0E084EA8083E6E5F0E08081E0
:1023C000881F8827881F882F90E090700097A9F3B6
:1023D0000E949011883021F00E9490118031C1F745
:1023E000CF91DF910895DF93CF9300D0CDB7DEB7C3
:1023F0008A83E3E2F0E08A818083E6E5F0E084E826
:102400008083E6E5F0E08081881F8827881F882F79
:1024100090E090700097A9F30E94901189830F902B
:102420000F90CF91DF910895DF93CF930F92CDB7A7
:10243000DEB78983E3E2F0E089818083E6E5F0E0BE
:1024400084E88083E6E5F0E08081881F8827881F84
:10245000882F90E090700097A9F30F90CF91DF91B3
:102460000895DF93CF93CDB7DEB7E6E5F0E084E9DA
:102470008083E6E5F0E08081882F90E080719070A5
:102480000097B9F7CF91DF910895DF93CF930F9223
:10249000CDB7DEB78983E2E2F0E08981880F8083DF
:1024A0000F90CF91DF910895DF93CF930F92CDB727
:1024B000DEB7E6E5F0E084EC8083E6E5F0E08081DD
:1024C000881F8827881F882F90E090700097A9F3B5
:1024D000E1E2F0E08081882F90E0887F9070803684
:1024E0009105B1F7E6E5F0E084EC8083E6E5F0E005
:1024F0008081881F8827881F882F90E09070009720
:10250000A9F3E1E2F0E08081FCCFDF93CF93CDB778
:10251000DEB7E6E5F0E084EC8083E6E5F0E080817C
:10252000881F8827881F882F90E090700097A9F354
:10253000E3E2F0E08081CF91DF910895DF93CF93C4
:10254000CDB7DEB7E6E5F0E084EC8083E6E5F0E0C9
:102550008081881F8827881F882F90E090700097BF
:10256000A9F30E9490118035E1F7E3E2F0E0808169
:10257000CF91DF910895DF93CF93CDB7DEB7E6E536
:10258000F0E084E88083E6E5F0E08081881F88271A
:10259000881F882F90E090700097A9F3E3E2F0E0A5
:1025A0008081CF91DF910895DF93CF93CDB7DEB7D0
:1025B000E6E5F0E084E88083E6E5F0E08081881FCE
:1025C0008827881F882F90E090700097A9F30E94B9
:1025D00090118835E1F7E3E2F0E08081CF91DF915F
:1025E0000895DF93CF9300D000D00F92CDB7DEB720
:1025F00089836A834B838981882309F4E9C08981AF
:10260000853008F0E5C08A81883008F0E1C0898112
:10261000282F30E03D832C838C819D818230910571
:1026200009F448C02C813D812330310534F48C817C
:102630009D818130910571F0CBC02C813D8123308B
:10264000310509F467C08C819D818430910509F4BE
:1026500091C0BEC08B818823A9F4AAE3B0E0EAE36D
:10266000F0E08081482F8A81282F30E081E090E0DF
:10267000022E02C0880F991F0A94E2F780958423E6
:102680008C93A6C08B81813009F0A2C0AAE3B0E090
:10269000EAE3F0E08081482F8A81282F30E081E052
:1026A00090E0022E02C0880F991F0A94E2F7842B53
:1026B0008C938EC08B818823A9F4A7E3B0E0E7E375
:1026C000F0E08081482F8A81282F30E081E090E07F
:1026D000022E02C0880F991F0A94E2F78095842386
:1026E0008C9376C08B81813009F072C0A7E3B0E093
:1026F000E7E3F0E08081482F8A81282F30E081E0F5
:1027000090E0022E02C0880F991F0A94E2F7842BF2
:102710008C935EC08B818823A9F4A4E3B0E0E4E34A
:10272000F0E08081482F8A81282F30E081E090E01E
:10273000022E02C0880F991F0A94E2F78095842325
:102740008C9346C08B81813009F042C0A4E3B0E095
:10275000E4E3F0E08081482F8A81282F30E081E097
:1027600090E0022E02C0880F991F0A94E2F7842B92
:102770008C932EC08B818823A9F4A1E3B0E0E1E320
:10278000F0E08081482F8A81282F30E081E090E0BE
:10279000022E02C0880F991F0A94E2F780958423C5
:1027A0008C9316C08B81813099F4A1E3B0E0E1E312
:1027B000F0E08081482F8A81282F30E081E090E08E
:1027C000022E02C0880F991F0A94E2F7842B8C9383
:1027D0000F900F900F900F900F90CF91DF91089571
:1027E000DF93CF9300D000D00F92CDB7DEB78983AF
:1027F0006A834B838981882309F4E9C08981853004
:1028000008F0E5C08A81883008F0E1C08981282F6E
:1028100030E03D832C838C819D818230910509F4C9
:1028200048C02C813D812330310534F48C819D8159
:102830008130910571F0CBC02C813D812330310571
:1028400009F467C08C819D818430910509F491C0A1
:10285000BEC08B818823A9F4ABE3B0E0EBE3F0E0EA
:102860008081482F8A81282F30E081E090E0022E7D
:1028700002C0880F991F0A94E2F7809584238C93F5
:10288000A6C08B81813009F0A2C0ABE3B0E0EBE3DE
:10289000F0E08081482F8A81282F30E081E090E0AD
:1028A000022E02C0880F991F0A94E2F7842B8C93A2
:1028B0008EC08B818823A9F4A8E3B0E0E8E3F0E0C0
:1028C0008081482F8A81282F30E081E090E0022E1D
:1028D00002C0880F991F0A94E2F7809584238C9395
:1028E00076C08B81813009F072C0A8E3B0E0E8E3E4
:1028F000F0E08081482F8A81282F30E081E090E04D
:10290000022E02C0880F991F0A94E2F7842B8C9341
:102910005EC08B818823A9F4A5E3B0E0E5E3F0E095
:102920008081482F8A81282F30E081E090E0022EBC
:1029300002C0880F991F0A94E2F7809584238C9334
:1029400046C08B81813009F042C0A5E3B0E0E5E3E9
:10295000F0E08081482F8A81282F30E081E090E0EC
:10296000022E02C0880F991F0A94E2F7842B8C93E1
:102970002EC08B818823A9F4A2E3B0E0E2E3F0E06B
:102980008081482F8A81282F30E081E090E0022E5C
:1029900002C0880F991F0A94E2F7809584238C93D4
:1029A00016C08B81813099F4A2E3B0E0E2E3F0E05D
:1029B0008081482F8A81282F30E081E090E0022E2C
:1029C00002C0880F991F0A94E2F7842B8C930F9012
:1029D0000F900F900F900F90CF91DF910895DF939C
:1029E000CF9300D000D00F92CDB7DEB78A836B8330
:1029F0008A81882309F4A1C08A81853008F09DC0AE
:102A00008B81883008F099C08A81282F30E03D837F
:102A10002C834C815D8142305105B1F18C819D81C7
:102A20008330910534F42C813D812130310571F0E2
:102A300084C04C815D814330510509F443C08C81D1
:102A40009D818430910509F45BC077C0E9E3F0E033
:102A50008081482F50E08B81282F30E081E090E08A
:102A600002C0880F991F2A95E2F79A01282339237B
:102A70008B81882F90E0A90102C0559547958A95D2
:102A8000E2F7CA01898359C0E6E3F0E08081482F6C
:102A900050E08B81282F30E081E090E002C0880F69
:102AA000991F2A95E2F79A01282339238B81882FD1
:102AB00090E0A90102C0559547958A95E2F7CA01B1
:102AC00089833BC0E3E3F0E08081482F50E08B81B5
:102AD000282F30E081E090E002C0880F991F2A95EE
:102AE000E2F79A01282339238B81882F90E0A901EE
:102AF00002C0559547958A95E2F7CA0189831DC0A2
:102B0000E0E3F0E08081482F50E08B81282F30E017
:102B100081E090E002C0880F991F2A95E2F79A01A0
:102B2000282339238B81882F90E0A90102C0559575
:102B300047958A95E2F7CA01898389810F900F90A2
:102B40000F900F900F90CF91DF910895DF93CF9367
:102B500000D000D0CDB7DEB789836A83898188230E
:102B600009F477C08981853008F073C08A81883084
:102B700008F06FC08981282F30E03C832B838B8144
:102B80009C818230910551F12B813C8123303105AC
:102B900034F48B819C818130910561F05AC02B8186
:102BA0003C812330310571F18B819C81843091050A
:102BB000E9F14FC0ABE3B0E0EBE3F0E08081482FF8
:102BC0008A81282F30E081E090E0022E02C0880F39
:102BD000991F0A94E2F784278C933BC0A8E3B0E0E6
:102BE000E8E3F0E08081482F8A81282F30E081E0FF
:102BF00090E0022E02C0880F991F0A94E2F7842702
:102C00008C9327C0A5E3B0E0E5E3F0E08081482F96
:102C10008A81282F30E081E090E0022E02C0880FE8
:102C2000991F0A94E2F784278C9313C0A2E3B0E0C3
:102C3000E2E3F0E08081482F8A81282F30E081E0B4
:102C400090E0022E02C0880F991F0A94E2F78427B1
:102C50008C930F900F900F900F90CF91DF9108956C
:102C6000DF93CF9300D000D0CDB7DEB789836A83DE
:102C700089818823B1F18981853098F58981282F50
:102C800030E03C832B838B819C8182309105D9F08D
:102C90002B813C812330310534F48B819C81813040
:102CA000910561F01EC02B813C812330310581F0FC
:102CB0008B819C818430910581F013C0EAE3F0E0C0
:102CC0008A8180830EC0E7E3F0E08A81808309C0B7
:102CD000E4E3F0E08A81808304C0E1E3F0E08A81EC
:102CE00080830F900F900F900F90CF91DF910895F8
:102CF000DF93CF9300D000D0CDB7DEB789836A834E
:102D000089818823B1F18981853098F58981282FBF
:102D100030E03C832B838B819C8182309105D9F0FC
:102D20002B813C812330310534F48B819C818130AF
:102D3000910561F01EC02B813C812330310581F06B
:102D40008B819C818430910581F013C0EBE3F0E02E
:102D50008A8180830EC0E8E3F0E08A81808309C025
:102D6000E5E3F0E08A81808304C0E2E3F0E08A8159
:102D700080830F900F900F900F90CF91DF91089567
:102D8000DF93CF9300D00F92CDB7DEB789838981CF
:102D9000882309F443C08981853008F03FC08981C8
:102DA000282F30E03B832A838A819B8182309105E2
:102DB000F1F02A813B812330310534F48A819B81F3
:102DC0008130910561F02AC02A813B812330310591
:102DD000B1F08A819B8184309105C9F01FC0ABE3BB
:102DE000B0E0EBE3F0E0808180958C9317C0A8E31E
:102DF000B0E0E8E3F0E0808180958C930FC0A5E31C
:102E0000B0E0E5E3F0E0808180958C9307C0A2E319
:102E1000B0E0E2E3F0E0808180958C930F900F901A
:102E20000F90CF91DF910895DF93CF9300D000D022
:102E3000CDB7DEB78A838A818823B1F18A81853054
:102E400098F58A81282F30E03C832B838B819C81ED
:102E500082309105D9F02B813C812330310534F447
:102E60008B819C818130910561F01EC02B813C815A
:102E70002330310581F08B819C818430910581F074
:102E800013C0E9E3F0E0808189830EC0E6E3F0E05F
:102E90008081898309C0E3E3F0E08081898304C0F5
:102EA000E0E3F0E08081898389810F900F900F909B
:102EB0000F90CF91DF910895DF93CF9300D00F92C1
:102EC000CDB7DEB789838981282F30E03B832A8301
:102ED0008A819B8182309105C9F02A813B81233010
:102EE000310519F18A819B818130910561F5A7E255
:102EF000B0E0E7E2F0E080818F778C93A7E2B0E06A
:102F0000E7E2F0E080818F7B8C931DC0A7E2B0E008
:102F1000E7E2F0E080818F778C93A7E2B0E0E7E210
:102F2000F0E0808180648C930EC0A7E2B0E0E7E21D
:102F3000F0E0808180688C93A7E2B0E0E7E2F0E007
:102F4000808180648C93A7E2B0E0E7E2F0E08081CA
:102F50008F7D8C93A6E2B0E0E6E2F0E080818068AD
:102F60008C93A6E2B0E0E6E2F0E0808188608C938A
:102F7000A6E2B0E0E6E2F0E0808184608C93A6E215
:102F8000B0E0E6E2F0E0808182608C93A6E2B0E0FF
:102F9000E6E2F0E0808181608C93A6E2B0E0E6E2B8
:102FA000F0E080818F7D8C930F900F900F90CF91E8
:102FB000DF910895DF93CF9300D00F92CDB7DEB7A6
:102FC00089838981282F30E03B832A838A819B81F2
:102FD0008330910509F470C02A813B81243031058A
:102FE00084F48A819B8181309105D1F12A813B81D2
:102FF000223031050CF04AC08A819B810097D1F0C4
:10300000C8C02A813B812530310509F481C08A81FD
:103010009B81853091050CF465C02A813B81263067
:10302000310509F48BC08A819B818730910509F4B1
:103030009BC0AFC0A7E2B0E0E7E2F0E080818B7F09
:103040008C93A7E2B0E0E7E2F0E080818D7F8C9383
:10305000A7E2B0E0E7E2F0E080818E7F8C9399C038
:10306000A7E2B0E0E7E2F0E080818B7F8C93A7E2FB
:10307000B0E0E7E2F0E080818D7F8C93A7E2B0E0E2
:10308000E7E2F0E0808181608C9383C0A7E2B0E04A
:10309000E7E2F0E080818B7F8C93A7E2B0E0E7E28B
:1030A000F0E0808182608C93A7E2B0E0E7E2F0E09C
:1030B00080818E7F8C936DC0A7E2B0E0E7E2F0E004
:1030C00080818B7F8C93A7E2B0E0E7E2F0E0808123
:1030D00082608C93A7E2B0E0E7E2F0E0808181605B
:1030E0008C9357C0A7E2B0E0E7E2F0E08081846013
:1030F0008C93A7E2B0E0E7E2F0E080818D7F8C93D3
:10310000A7E2B0E0E7E2F0E080818E7F8C9341C0DF
:10311000A7E2B0E0E7E2F0E0808184608C93A7E270
:10312000B0E0E7E2F0E080818D7F8C93A7E2B0E031
:10313000E7E2F0E0808181608C932BC0A7E2B0E0F1
:10314000E7E2F0E0808184608C93A7E2B0E0E7E200
:10315000F0E0808182608C93A7E2B0E0E7E2F0E0EB
:1031600080818E7F8C9315C0A7E2B0E0E7E2F0E0AB
:10317000808184608C93A7E2B0E0E7E2F0E0808198
:1031800082608C93A7E2B0E0E7E2F0E080818160AA
:103190008C93A6E2B0E0E6E2F0E0808180648C935C
:1031A0000F900F900F90CF91DF910895DF93CF9301
:1031B000CDB7DEB7E6E2F0E08081882F90E0807145
:1031C0009070959587959595879595958795959503
:1031D0008795009779F3A6E2B0E0E6E2F0E080811F
:1031E00080618C93E4E2F0E080819181CF91DF9166
:1031F0000895DF93CF93CDB7DEB7E4E2F0E08081AE
:103200009181CF91DF910895DF93CF9300D0CDB717
:10321000DEB79A83898389819A819093CE028093C5
:10322000CD020F900F90CF91DF9108951F920F92D2
:103230000FB60F9211242F933F934F935F936F9389
:103240007F938F939F93AF93BF93EF93FF93DF93FE
:10325000CF93CDB7DEB78091CD029091CE0200978B
:1032600029F0E091CD02F091CE020995CF91DF9146
:10327000FF91EF91BF91AF919F918F917F916F914E
:103280005F914F913F912F910F900FBE0F901F9024
:103290001895DF93CF93CDB7DEB70E94D51180ED9F
:1032A0000E94F3118BE60E94141280E00E94141217
:1032B0000E943112CF91DF9108950F931F93DF93F6
:1032C000CF93CDB7DEB70E94D51180ED0E94F311E8
:1032D0008BE30E9414120E94D51181ED0E94F3111C
:1032E0000E948512182F00270E948512802B912B97
:1032F00090939F0280939E020E948512182F0027B0
:103300000E948512802B912B9093A1028093A002A2
:103310000E948512182F00270E948512802B912B66
:103320009093A3028093A2020E948512182F002777
:103330000E948512802B912B9093A5028093A4026A
:103340000E948512182F00270E948512802B912B36
:103350009093A7028093A6020E948512182F00273F
:103360000E948512802B912B9093A9028093A80232
:103370000E948512182F00270E94BB12802B912BD0
:103380009093AB028093AA020E943112CF91DF91F9
:103390001F910F910895DF93CF9300D000D000D0FC
:1033A000CDB7DEB79A8389837C836B835E834D833D
:1033B0000E945D1980919E0290919F02AA2797FD1D
:1033C000A095BA2FBC01CD010E943205DC01CB01D2
:1033D000BC01CD0120E030E040E856E40E949603B5
:1033E000DC01CB01E981FA8180839183A283B383DD
:1033F0008091A0029091A102AA2797FDA095BA2FD3
:10340000BC01CD010E943205DC01CB01BC01CD0124
:1034100020E030E040E856E40E949603DC01CB0156
:10342000EB81FC8180839183A283B3838091A2028C
:103430009091A302AA2797FDA095BA2FBC01CD01B8
:103440000E943205DC01CB01BC01CD0120E030E05F
:1034500040E856E40E949603DC01CB01ED81FE8139
:1034600080839183A283B38326960FB6F894DEBF40
:103470000FBECDBFCF91DF910895DF93CF9300D0E2
:1034800000D000D0CDB7DEB79A8389837C836B836D
:103490005E834D830E945D198091A6029091A702E0
:1034A000AA2797FDA095BA2FBC01CD010E94320535
:1034B000DC01CB01BC01CD0120E030E043E053E46E
:1034C0000E949603DC01CB01E981FA81808391831C
:1034D000A283B3838091A8029091A902AA2797FDA5
:1034E000A095BA2FBC01CD010E943205DC01CB01B1
:1034F000BC01CD0120E030E043E053E40E9496039C
:10350000DC01CB01EB81FC8180839183A283B383B7
:103510008091AA029091AB02AA2797FDA095BA2F9D
:10352000BC01CD010E943205DC01CB01BC01CD0103
:1035300020E030E043E053E40E949603DC01CB013D
:10354000ED81FE8180839183A283B38326960FB69B
:10355000F894DEBF0FBECDBFCF91DF910895DF930A
:10356000CF9300D0CDB7DEB79A8389830E945D19CF
:103570008091A4029091A502AA2797FDA095BA2F49
:10358000BC01CD010E943205DC01CB01BC01CD01A3
:1035900020E030E04AEA53E40E949603DC01CB01CC
:1035A000BC01CD0128EB3EE142E152E40E946F02F2
:1035B000DC01CB01E981FA8180839183A283B3830B
:1035C0000F900F90CF91DF910895DF93CF93CDB7F8
:1035D000DEB72E970FB6F894DEBF0FBECDBF0E94A8
:1035E000D5118EEA0E94F31189E00E94141280E442
:1035F0000E9414120E94311280E090E0A8ECB2E424
:103600008B879C87AD87BE876B857C858D859E85E6
:1036100020E030E04AE755E40E949C02DC01CB0147
:103620008F839887A987BA876F81788589859A85DE
:1036300020E030E040E85FE30E94020588232CF49C
:1036400081E090E09E838D833FC06F81788589857E
:103650009A8520E03FEF4FE757E40E94A204181636
:103660004CF56B857C858D859E8520E030E040E2C1
:1036700051E40E949C02DC01CB01BC01CD010E94FF
:10368000C600DC01CB019E838D830FC080E991E0F1
:103690009C838B838B819C810197F1F79C838B8327
:1036A0008D819E8101979E838D838D819E81009760
:1036B00069F714C06F81788589859A850E94C60054
:1036C000DC01CB019E838D838D819E819A838983CA
:1036D00089819A810197F1F79A8389830E94D51194
:1036E0008EEA0E94F31189E00E94141282E00E9487
:1036F00014120E9431120E94D5118EEA0E94F31119
:103700008CE00E94141280E10E9414120E94311277
:103710000E94D5118EEA0E94F3118DE00E941412CE
:103720008FE10E9414120E9431122E960FB6F89467
:10373000DEBF0FBECDBFCF91DF910895DF93CF9352
:10374000CDB7DEB727970FB6F894DEBF0FBECDBF5B
:103750001C821D821E821F820E94D5118EEA0E9449
:10376000F31187E00E9414120E94D5118FEA0E9483
:10377000F3110E949E128B830E949E128A830E94E4
:10378000D41289830E9431128B81882F90E0A0E0AF
:10379000B0E0AC01332722278A81882F90E0A0E097
:1037A000B0E0BA2FA92F982F8827282B392B4A2B26
:1037B0005B2B8981882F90E0A0E0B0E0822B932BD7
:1037C000A42BB52B8C839D83AE83BF838C819D817D
:1037D000AE81BF81A370B0708C839D83AE83BF83A5
:1037E0008C819D81AE81BF81BC01CD0127960FB632
:1037F000F894DEBF0FBECDBFCF91DF910895EF9259
:10380000FF920F931F93DF93CF93CDB7DEB72A9725
:103810000FB6F894DEBF0FBECDBF6D837E838F835E
:1038200098878091B1029091B202A091B302B091B9
:10383000B402BC01CD0120E030E040E050E00E9445
:103840004204882311F56D817E818F8198850E94C5
:10385000E405DC01CB018093B1029093B202A09306
:10386000B302B093B4026D817E818F8198850E94EE
:10387000E405DC01CB018093AD029093AE02A093EE
:10388000AF02B093B0021A86B3C06D817E818F8182
:1038900098850E94E405DC01CB01BC01CD012DEC33
:1038A0003CEC4CE45EE30E949C02DC01CB017C0119
:1038B0008D018091B1029091B202A091B302B091BA
:1038C000B402BC01CD012DEC3CEC4CE45FE30E9462
:1038D0009C02DC01CB019C01AD01C801B7010E9433
:1038E0006F02DC01CB018093B1029093B202A093EE
:1038F000B302B093B4028091AD029091AE02A09158
:10390000AF02B091B002BC01CD0128E431EE4AE72C
:103910005FE30E949C02DC01CB017C018D01809160
:10392000B1029091B202A091B302B091B402BC0175
:10393000CD012AE037ED43EA5CE30E949C02DC0102
:10394000CB019C01AD01C801B7010E946F02DC01EF
:10395000CB018093AD029093AE02A093AF02B093DF
:10396000B0028091B1029091B202A091B302B091E5
:10397000B4022091AD023091AE024091AF0250915D
:10398000B002BC01CD010E943E02DC01CB01898363
:103990009A83AB83BC83198669817A818B819C81F0
:1039A00020E030E040E451E40E94A204181614F430
:1039B00081E0898781E099858927882351F4809166
:1039C000AC02882331F481E08093AC0281E08A87E5
:1039D0000FC069817A818B819C8120E030E040E0DA
:1039E00050EC0E940205882314F41092AC021A864F
:1039F0008A852A960FB6F894DEBF0FBECDBFCF9151
:103A0000DF911F910F91FF90EF900895AF92BF92B9
:103A1000CF92DF92EF92FF920F931F93DF93CF939A
:103A2000CDB7DEB728970FB6F894DEBF0FBECDBF77
:103A30006D837E838F83988783E393E3A3E7BFE35C
:103A400089839A83AB83BC838091B5029091B6023F
:103A5000A091B702B091B802BC01CD0129813A8191
:103A60004B815C810E949C02DC01CB015C016D01F9
:103A700060E070E080E89FE329813A814B815C81BE
:103A80000E943E02DC01CB017C018D016D817E81B3
:103A90008F8198850E94E4059B01AC01C801B701A4
:103AA0000E949C02DC01CB019C01AD01C601B50165
:103AB0000E946F02DC01CB018093B5029093B602A5
:103AC000A093B702B093B8026D817E818F819885F3
:103AD0000E94E405DC01CB012091B5023091B602D1
:103AE0004091B7025091B802BC01CD010E943E0244
:103AF000DC01CB01BC01CD0128960FB6F894DEBFE6
:103B00000FBECDBFCF91DF911F910F91FF90EF902E
:103B1000DF90CF90BF90AF900895DF93CF93CDB754
:103B2000DEB72A970FB6F894DEBF0FBECDBF8E83E7
:103B30004F83588769877A8780E060E00E94C527B5
:103B40008CE790E00E948C268E81882F90E09E0169
:103B50002F5F3F4FB9014AE050E00E940232CE0190
:103B600001960E948C2682E890E00E948C2680E0DC
:103B700061E00E94C52786E890E00E94C2088F811C
:103B80009885A985BA85BC01CD010E948A098FE874
:103B900090E00E94C2088F819885A985BA858035FA
:103BA00023EC920720E0A20720E0B20748F48AE95C
:103BB00090E00E948C268BEA90E00E94C2082CC004
:103BC0008E81882349F480EC90E00E948C2681ED60
:103BD00090E00E94C20820C08E818C3348F486EEAB
:103BE00090E00E948C2687EF90E00E94C20814C0EB
:103BF0008E818A3648F488E091E00E948C2689E123
:103C000091E00E94C20808C08DE291E00E948C26DB
:103C10008EE391E00E94C20880E591E00E94C20814
:103C20002A960FB6F894DEBF0FBECDBFCF91DF91BD
:103C30000895DF93CF9300D0CDB7DEB789836A8331
:103C400089816A8141E00E94F1120F900F90CF911B
:103C5000DF910895DF93CF9300D0CDB7DEB789838E
:103C60006A8389816A8141E00E94F0130F900F906E
:103C7000CF91DF910895DF93CF9300D0CDB7DEB71A
:103C800089836A8389816A8140E00E94F0130F90E2
:103C90000F90CF91DF910895DF93CF9300D0CDB7F0
:103CA000DEB789836A8389816A810E94A6150F9095
:103CB0000F90CF91DF910895DF93CF93CDB7DEB70B
:103CC000EB970FB6F894DEBF0FBECDBF8BAF8BADB9
:103CD0008F708AAF8BAD82958F7089AF89AD982F29
:103CE000917081E063E0492F0E94F01389AD882F25
:103CF00090E08270907095958795982F81E064E0B0
:103D0000492F0E94F01389AD882F90E08470907045
:103D10009595879595958795982F81E065E0492F32
:103D20000E94F01389AD882F90E08870907095956F
:103D300087959595879595958795982F81E066E06D
:103D4000492F0E94F01381E067E040E00E94F013E9
:103D500081E061E041E00E94F01381E062E041E037
:103D60000E94F01380E090E0A0E8BFE38DAB9EAB33
:103D7000AFABB8AF6DA97EA98FA998AD20E030E0B8
:103D80004AE755E40E949C02DC01CB0189AB9AAB67
:103D9000ABABBCAB69A97AA98BA99CA920E030E0A8
:103DA00040E85FE30E94020588232CF481E090E064
:103DB00098AB8FA73FC069A97AA98BA99CA920E0DD
:103DC0003FEF4FE757E40E94A20418164CF56DA987
:103DD0007EA98FA998AD20E030E040E251E40E9436
:103DE0009C02DC01CB01BC01CD010E94C600DC01BC
:103DF000CB0198AB8FA70FC080E991E09EA78DA75C
:103E00008DA59EA50197F1F79EA78DA78FA598A9CF
:103E1000019798AB8FA78FA598A9009769F714C051
:103E200069A97AA98BA99CA90E94C600DC01CB01D3
:103E300098AB8FA78FA598A99CA78BA78BA59CA5AE
:103E40000197F1F79CA78BA781E062E040E00E9418
:103E5000F01380E090E0A0E8BFE38FA398A7A9A7A4
:103E6000BAA76FA178A589A59AA520E030E04AE716
:103E700055E40E949C02DC01CB018BA39CA3ADA363
:103E8000BEA36BA17CA18DA19EA120E030E040E803
:103E90005FE30E94020588232CF481E090E09AA35E
:103EA00089A33FC06BA17CA18DA19EA120E03FEF23
:103EB0004FE757E40E94A20418164CF56FA178A5AD
:103EC00089A59AA520E030E040E251E40E949C02DE
:103ED000DC01CB01BC01CD010E94C600DC01CB019D
:103EE0009AA389A30FC080E991E098A38F8F8F8D4B
:103EF00098A10197F1F798A38F8F89A19AA10197B3
:103F00009AA389A389A19AA1009769F714C06BA10C
:103F10007CA18DA19EA10E94C600DC01CB019AA3C9
:103F200089A389A19AA19E8F8D8F8D8D9E8D0197DA
:103F3000F1F79E8F8D8F8AAD982F917081E063E0AD
:103F4000492F0E94F0138AAD882F90E08270907004
:103F500095958795982F81E064E0492F0E94F01392
:103F60008AAD882F90E0847090709595879595958F
:103F70008795982F81E065E0492F0E94F0138AAD64
:103F8000882F90E088709070959587959595879586
:103F900095958795982F81E066E0492F0E94F01350
:103FA00081E067E040E00E94F01381E061E041E0E1
:103FB0000E94F01381E062E041E00E94F01380E093
:103FC00090E0A0E8BFE3898F9A8FAB8FBC8F698D9B
:103FD0007A8D8B8D9C8D20E030E04AE755E40E947D
:103FE0009C02DC01CB018D8B9E8BAF8BB88F6D89D2
:103FF0007E898F89988D20E030E040E85FE30E9461
:10400000020588232CF481E090E09C8B8B8B3FC0D1
:104010006D897E898F89988D20E03FEF4FE757E4C7
:104020000E94A20418164CF5698D7A8D8B8D9C8D9B
:1040300020E030E040E251E40E949C02DC01CB0130
:10404000BC01CD010E94C600DC01CB019C8B8B8B97
:104050000FC080E991E09A8B898B89899A890197B1
:10406000F1F79A8B898B8B899C8901979C8B8B8B21
:104070008B899C89009769F714C06D897E898F8927
:10408000988D0E94C600DC01CB019C8B8B8B8B89A9
:104090009C89988B8F878F8598890197F1F7988BEA
:1040A0008F8781E062E040E00E94F01380E090E0C2
:1040B000A0E8BFE38B879C87AD87BE876B857C8537
:1040C0008D859E8520E030E04AE755E40E949C0201
:1040D000DC01CB018F839887A987BA876F817885A8
:1040E00089859A8520E030E040E85FE30E94020580
:1040F00088232CF481E090E09E838D833FC06F8104
:10410000788589859A8520E03FEF4FE757E40E9444
:10411000A20418164CF56B857C858D859E8520E064
:1041200030E040E251E40E949C02DC01CB01BC0182
:10413000CD010E94C600DC01CB019E838D830FC0A0
:1041400080E991E09C838B838B819C810197F1F7BF
:104150009C838B838D819E8101979E838D838D812E
:104160009E81009769F714C06F81788589859A854B
:104170000E94C600DC01CB019E838D838D819E81D0
:104180009A83898389819A810197F1F79A83898338
:10419000EB960FB6F894DEBF0FBECDBFCF91DF9187
:1041A0000895DF93CF93CDB7DEB7EB970FB6F894B2
:1041B000DEBF0FBECDBF8BAF8BAD8F708AAF8BAD27
:1041C00082958F7089AF89AD982F917081E063E0FF
:1041D000492F0E94F01389AD882F90E08270907073
:1041E00095958795982F81E064E0492F0E94F01300
:1041F00089AD882F90E084709070959587959595FE
:104200008795982F81E065E0492F0E94F01389ADD2
:10421000882F90E0887090709595879595958795F3
:1042200095958795982F81E066E0492F0E94F013BD
:1042300081E061E040E00E94F01381E062E041E053
:104240000E94F01380E090E0A0E8BFE38DAB9EAB4E
:10425000AFABB8AF6DA97EA98FA998AD20E030E0D3
:104260004AE755E40E949C02DC01CB0189AB9AAB82
:10427000ABABBCAB69A97AA98BA99CA920E030E0C3
:1042800040E85FE30E94020588232CF481E090E07F
:1042900098AB8FA73FC069A97AA98BA99CA920E0F8
:1042A0003FEF4FE757E40E94A20418164CF56DA9A2
:1042B0007EA98FA998AD20E030E040E251E40E9451
:1042C0009C02DC01CB01BC01CD010E94C600DC01D7
:1042D000CB0198AB8FA70FC080E991E09EA78DA777
:1042E0008DA59EA50197F1F79EA78DA78FA598A9EB
:1042F000019798AB8FA78FA598A9009769F714C06D
:1043000069A97AA98BA99CA90E94C600DC01CB01EE
:1043100098AB8FA78FA598A99CA78BA78BA59CA5C9
:104320000197F1F79CA78BA781E062E040E00E9433
:10433000F01380E090E0A0E8BFE38FA398A7A9A7BF
:10434000BAA76FA178A589A59AA520E030E04AE731
:1043500055E40E949C02DC01CB018BA39CA3ADA37E
:10436000BEA36BA17CA18DA19EA120E030E040E81E
:104370005FE30E94020588232CF481E090E09AA379
:1043800089A33FC06BA17CA18DA19EA120E03FEF3E
:104390004FE757E40E94A20418164CF56FA178A5C8
:1043A00089A59AA520E030E040E251E40E949C02F9
:1043B000DC01CB01BC01CD010E94C600DC01CB01B8
:1043C0009AA389A30FC080E991E098A38F8F8F8D66
:1043D00098A10197F1F798A38F8F89A19AA10197CE
:1043E0009AA389A389A19AA1009769F714C06BA128
:1043F0007CA18DA19EA10E94C600DC01CB019AA3E5
:1044000089A389A19AA19E8F8D8F8D8D9E8D0197F5
:10441000F1F79E8F8D8F8AAD982F917081E063E0C8
:10442000492F0E94F0138AAD882F90E0827090701F
:1044300095958795982F81E064E0492F0E94F013AD
:104440008AAD882F90E084709070959587959595AA
:104450008795982F81E065E0492F0E94F0138AAD7F
:10446000882F90E0887090709595879595958795A1
:1044700095958795982F81E066E0492F0E94F0136B
:1044800081E067E040E00E94F01381E061E040E0FD
:104490000E94F01381E062E041E00E94F01380E0AE
:1044A00090E0A0E8BFE3898F9A8FAB8FBC8F698DB6
:1044B0007A8D8B8D9C8D20E030E04AE755E40E9498
:1044C0009C02DC01CB018D8B9E8BAF8BB88F6D89ED
:1044D0007E898F89988D20E030E040E85FE30E947C
:1044E000020588232CF481E090E09C8B8B8B3FC0ED
:1044F0006D897E898F89988D20E03FEF4FE757E4E3
:104500000E94A20418164CF5698D7A8D8B8D9C8DB6
:1045100020E030E040E251E40E949C02DC01CB014B
:10452000BC01CD010E94C600DC01CB019C8B8B8BB2
:104530000FC080E991E09A8B898B89899A890197CC
:10454000F1F79A8B898B8B899C8901979C8B8B8B3C
:104550008B899C89009769F714C06D897E898F8942
:10456000988D0E94C600DC01CB019C8B8B8B8B89C4
:104570009C89988B8F878F8598890197F1F7988B05
:104580008F8781E062E040E00E94F01380E090E0DD
:10459000A0E8BFE38B879C87AD87BE876B857C8552
:1045A0008D859E8520E030E04AE755E40E949C021C
:1045B000DC01CB018F839887A987BA876F817885C3
:1045C00089859A8520E030E040E85FE30E9402059B
:1045D00088232CF481E090E09E838D833FC06F811F
:1045E000788589859A8520E03FEF4FE757E40E9460
:1045F000A20418164CF56B857C858D859E8520E080
:1046000030E040E251E40E949C02DC01CB01BC019D
:10461000CD010E94C600DC01CB019E838D830FC0BB
:1046200080E991E09C838B838B819C810197F1F7DA
:104630009C838B838D819E8101979E838D838D8149
:104640009E81009769F714C06F81788589859A8566
:104650000E94C600DC01CB019E838D838D819E81EB
:104660009A83898389819A810197F1F79A83898353
:10467000EB960FB6F894DEBF0FBECDBFCF91DF91A2
:1046800008950F931F93DF93CF93CDB7DEB7C45533
:10469000D0400FB6F894DEBF0FBECDBFFE01EF5A7B
:1046A000FF4F80E090E0A8E4B2E480839183A2838E
:1046B000B3838E01035B1F4FFE01EF5AFF4F6081F2
:1046C00071818281938120E030E04AE755E40E94C5
:1046D0009C02DC01CB01F80180839183A283B38328
:1046E000FE01E35BFF4F608171818281938120E055
:1046F00030E040E85FE30E940205882344F4FE01B5
:10470000E55BFF4F81E090E09183808364C0FE0110
:10471000E35BFF4F608171818281938120E03FEFF5
:104720004FE757E40E94A20418160CF043C0FE01A4
:10473000EF5AFF4F608171818281938120E030E0E8
:1047400040E251E40E949C02DC01CB018E01055B3A
:104750001F4FBC01CD010E94C600DC01CB01F80156
:10476000918380831FC0FE01E75BFF4F80E991E0EA
:1047700091838083FE01E75BFF4F808191810197E8
:10478000F1F7FE01E75BFF4F91838083DE01A55BBC
:10479000BF4FFE01E55BFF4F80819181019711962C
:1047A0009C938E93FE01E55BFF4F80819181009782
:1047B000D1F627C08E01055B1F4FFE01E35BFF4F63
:1047C00060817181828193810E94C600DC01CB01EE
:1047D000F80191838083DE01A95BBF4FFE01E55B99
:1047E000FF4F808191818D939C93FE01E95BFF4F88
:1047F000808191810197F1F7FE01E95BFF4F918381
:10480000808381E063E041E00E94F11281E064E096
:1048100041E00E94F11281E065E041E00E94F11266
:1048200081E066E041E00E94F11281E067E041E052
:104830000E94F11281E061E041E00E94F11281E00A
:1048400062E041E00E94F11282E00E94D120FE016C
:10485000ED5BFF4F80E090E0A0E8BFE380839183B1
:10486000A283B3838E01015C1F4FFE01ED5BFF4FFE
:10487000608171818281938120E030E04AE755E4D4
:104880000E949C02DC01CB01F80180839183A2830A
:10489000B383FE01FF96608171818281938120E064
:1048A00030E040E85FE30E94020588232CF481E0B9
:1048B00090E09EAF8DAF46C0FE01FF966081718192
:1048C0008281938120E03FEF4FE757E40E94A204EA
:1048D000181664F5FE01ED5BFF4F608171818281E6
:1048E000938120E030E040E251E40E949C02DC0130
:1048F000CB01BC01CD010E94C600DC01CB019EAF03
:104900008DAF0FC080E991E09CAF8BAF8BAD9CADBC
:104910000197F1F79CAF8BAF8DAD9EAD01979EAF28
:104920008DAF8DAD9EAD009769F716C0FE01FF9665
:1049300060817181828193810E94C600DC01CB017C
:104940009EAF8DAF8DAD9EAD9AAF89AF89AD9AAD5B
:104950000197F1F79AAF89AF88E20E94D12080E0F9
:1049600090E0A0E8BFE38DAB9EABAFABB8AF6DA955
:104970007EA98FA998AD20E030E04AE755E40E9477
:104980009C02DC01CB0189AB9AABABABBCAB69A998
:104990007AA98BA99CA920E030E040E85FE30E945F
:1049A000020588232CF481E090E098AB8FA73FC0EC
:1049B00069A97AA98BA99CA920E03FEF4FE757E4AA
:1049C0000E94A20418164CF56DA97EA98FA998AD76
:1049D00020E030E040E251E40E949C02DC01CB0187
:1049E000BC01CD010E94C600DC01CB0198AB8FA7B2
:1049F0000FC080E991E09EA78DA78DA59EA5019788
:104A0000F1F79EA78DA78FA598A9019798AB8FA7BF
:104A10008FA598A9009769F714C069A97AA98BA9ED
:104A20009CA90E94C600DC01CB0198AB8FA78FA583
:104A300098A99CA78BA78BA59CA50197F1F79CA78C
:104A40008BA78EE00E94D12080E090E0A0E8BFE339
:104A50008FA398A7A9A7BAA76FA178A589A59AA59A
:104A600020E030E04AE755E40E949C02DC01CB01E3
:104A70008BA39CA3ADA3BEA36BA17CA18DA19EA182
:104A800020E030E040E85FE30E94020588232CF438
:104A900081E090E09AA389A33FC06BA17CA18DA186
:104AA0009EA120E03FEF4FE757E40E94A2041816B2
:104AB0004CF56FA178A589A59AA520E030E040E2E9
:104AC00051E40E949C02DC01CB01BC01CD010E949B
:104AD000C600DC01CB019AA389A30FC080E991E055
:104AE00098A38F8F8F8D98A10197F1F798A38F8F3F
:104AF00089A19AA101979AA389A389A19AA1009754
:104B000069F714C06BA17CA18DA19EA10E94C60073
:104B1000DC01CB019AA389A389A19AA19E8F8D8FD5
:104B20008D8D9E8D0197F1F79E8F8D8F81E00E9474
:104B3000D12080E090E0A0EAB0E4898F9A8FAB8F1B
:104B4000BC8F698D7A8D8B8D9C8D20E030E04AE79B
:104B500055E40E949C02DC01CB018D8B9E8BAF8BB8
:104B6000B88F6D897E898F89988D20E030E040E88C
:104B70005FE30E94020588232CF481E090E09C8B87
:104B80008B8B3FC06D897E898F89988D20E03FEFA8
:104B90004FE757E40E94A20418164CF5698D7A8DF0
:104BA0008B8D9C8D20E030E040E251E40E949C021D
:104BB000DC01CB01BC01CD010E94C600DC01CB01B0
:104BC0009C8B8B8B0FC080E991E09A8B898B8989B4
:104BD0009A890197F1F79A8B898B8B899C89019728
:104BE0009C8B8B8B8B899C89009769F714C06D898E
:104BF0007E898F89988D0E94C600DC01CB019C8B39
:104C00008B8B8B899C89988B8F878F85988901974F
:104C1000F1F7988B8F8786E00E94D12080E090E0AA
:104C2000A0E8BFE38B879C87AD87BE876B857C85BB
:104C30008D859E8520E030E04AE755E40E949C0285
:104C4000DC01CB018F839887A987BA876F8178852C
:104C500089859A8520E030E040E85FE30E94020504
:104C600088232CF481E090E09E838D833FC06F8188
:104C7000788589859A8520E03FEF4FE757E40E94C9
:104C8000A20418164CF56B857C858D859E8520E0E9
:104C900030E040E251E40E949C02DC01CB01BC0107
:104CA000CD010E94C600DC01CB019E838D830FC025
:104CB00080E991E09C838B838B819C810197F1F744
:104CC0009C838B838D819E8101979E838D838D81B3
:104CD0009E81009769F714C06F81788589859A85D0
:104CE0000E94C600DC01CB019E838D838D819E8155
:104CF0009A83898389819A810197F1F79A838983BD
:104D0000CC5ADF4F0FB6F894DEBF0FBECDBFCF91A8
:104D1000DF911F910F910895DF93CF9300D00F92F1
:104D2000CDB7DEB79B838A8319820EC08981282F75
:104D300030E08A819B81FC01E20FF31F80810E9499
:104D40005C1E89818F5F89838981282F30E08A8169
:104D50009B81FC01E20FF31F8081882339F70F90BC
:104D60000F900F90CF91DF910895DF93CF93CDB740
:104D7000DEB72E970FB6F894DEBF0FBECDBF81E031
:104D80000E94D12080E090E0A0EAB0E48B879C876D
:104D9000AD87BE876B857C858D859E8520E030E064
:104DA0004AE755E40E949C02DC01CB018F8398877F
:104DB000A987BA876F81788589859A8520E030E058
:104DC00040E85FE30E94020588232CF481E090E034
:104DD0009E838D833FC06F81788589859A8520E089
:104DE0003FEF4FE757E40E94A20418164CF56B857D
:104DF0007C858D859E8520E030E040E251E40E9474
:104E00009C02DC01CB01BC01CD010E94C600DC018B
:104E1000CB019E838D830FC080E991E09C838B83BF
:104E20008B819C810197F1F79C838B838D819E817F
:104E300001979E838D838D819E81009769F714C0B1
:104E40006F81788589859A850E94C600DC01CB0137
:104E50009E838D838D819E819A83898389819A81A6
:104E60000197F1F79A8389832E960FB6F894DEBFE7
:104E70000FBECDBFCF91DF910895DF93CF93CDB714
:104E8000DEB72E970FB6F894DEBF0FBECDBF8CE114
:104E90000E94D12080E090E0A0E8BFE38B879C8750
:104EA000AD87BE876B857C858D859E8520E030E053
:104EB0004AE755E40E949C02DC01CB018F8398876E
:104EC000A987BA876F81788589859A8520E030E047
:104ED00040E85FE30E94020588232CF481E090E023
:104EE0009E838D833FC06F81788589859A8520E078
:104EF0003FEF4FE757E40E94A20418164CF56B856C
:104F00007C858D859E8520E030E040E251E40E9462
:104F10009C02DC01CB01BC01CD010E94C600DC017A
:104F2000CB019E838D830FC080E991E09C838B83AE
:104F30008B819C810197F1F79C838B838D819E816E
:104F400001979E838D838D819E81009769F714C0A0
:104F50006F81788589859A850E94C600DC01CB0126
:104F60009E838D838D819E819A83898389819A8195
:104F70000197F1F79A8389832E960FB6F894DEBFD6
:104F80000FBECDBFCF91DF910895DF93CF9300D0B7
:104F90000F92CDB7DEB78A836B838A81823080F42B
:104FA0008B81803168F48A81882319F48B8189830D
:104FB00003C08B81805C8983898180580E94D120C5
:104FC0000F900F900F90CF91DF910895DF93CF93C3
:104FD00000D000D000D0CDB7DEB79B838A836C832E
:104FE0004D832E838C81882F90E00896880F991F1F
:104FF000880F991F880F991F0E94D12019820EC017
:105000008981282F30E08A819B81FC01E20FF31F08
:1050100080810E945C1E89818F5F898389818830AD
:1050200078F38D816E810E94C5278C810E945C1E61
:1050300026960FB6F894DEBF0FBECDBFCF91DF919D
:105040000895DF93CF930F92CDB7DEB7898381E0C8
:1050500061E041E00E94F01381E069810E947816CE
:105060000F90CF91DF910895DF93CF930F92CDB73B
:10507000DEB7898389810E9421280F90CF91DF912B
:105080000895DF93CF9300D000D0CDB7DEB79C83D7
:105090008B838B819C8124E630E0B9010E947431BE
:1050A000CB019A8389838981805D0E945C1E8B81FC
:1050B0009C8124E630E0B9010E9474319C838B838B
:1050C0008B819C812AE030E0B9010E947431CB01D0
:1050D0009A8389838981805D0E945C1E8B819C817B
:1050E0002AE030E0B9010E9474319C838B8389816E
:1050F000805D0E945C1E0F900F900F900F90CF91DB
:10510000DF910895DF93CF93CDB7DEB7A1E3B0E091
:10511000E1E3F0E080818B7F8C93A2E3B0E0E2E3F7
:10512000F0E0808184608C93A5E5B0E0E5E5F0E0F7
:1051300080818C7F8C93ABE5B0E0EBE5F0E0808183
:1051400080648C937894CF91DF910895DF93CF930F
:10515000CDB7DEB7A5E5B0E0E5E5F0E08081806E93
:105160008C93A5E5B0E0E5E5F0E080818F7E8C933F
:105170008895A5E5B0E0E5E5F0E080818F778C9338
:10518000CF91DF9108951F920F920FB60F921124C5
:10519000DF93CF93CDB7DEB7CF91DF910F900FBEE6
:1051A0000F901F901895DF93CF93CDB7DEB7809106
:1051B000BF029091C002A091C102B091C2020196BB
:1051C000A11DB11D8093BF029093C002A093C102A4
:1051D000B093C202CF91DF910895DF93CF93CDB703
:1051E000DEB78091BF029091C002A091C102B09140
:1051F000C202BC01CD01CF91DF9108951F920F92A1
:105200000FB60F9211248F939F93AF93BF93DF93A9
:10521000CF93CDB7DEB78091BF029091C002A0912D
:10522000C102B091C2020196A11DB11D8093BF02BF
:105230009093C002A093C102B093C202CF91DF91BC
:10524000BF91AF919F918F910F900FBE0F901F90C4
:105250001895EF92FF920F931F93DF93CF93CDB7E3
:10526000DEB7C35AD0400FB6F894DEBF0FBECDBF35
:10527000A4E3B0E0E4E3F0E080818C7F8C93A5E3CD
:10528000B0E0E5E3F0E080818C7F8C93FE01E55790
:10529000FF4F1082FE01E757FF4F1182108283E01B
:1052A00065E041E00E94F11283E064E00E94191E73
:1052B0000E94412360EA76E881E090E00E949B1121
:1052C0000E9449190E94E51AAFE5B0E0EFE5F0E071
:1052D000808180688C9383E065E040E00E94F01359
:1052E00060E470E080E090E045E00E94950AEAE426
:1052F000F0E089EF90E091838083A9E5B0E0E9E5F3
:10530000F0E0808180618C93AFE5B0E0EFE5F0E004
:10531000808180688C93FE01E957FF4F11821082D3
:10532000FE01ED57FF4F1082118212821382A7E314
:10533000B0E0E7E3F0E0808181608C93A8E3B0E027
:10534000E8E3F0E0808181608C93FE01E359FF4F38
:1053500080E090E0A8E4B2E480839183A283B383E9
:105360008E0107591F4FFE01E359FF4F6081718184
:105370008281938120E030E04AE755E40E949C025C
:10538000DC01CB01F80180839183A283B383FE010A
:10539000E759FF4F608171818281938120E030E085
:1053A00040E85FE30E940205882344F4FE01E959C6
:1053B000FF4F81E090E09183808364C0FE01E75954
:1053C000FF4F608171818281938120E03FEF4FE741
:1053D00057E40E94A20418160CF043C0FE01E359E2
:1053E000FF4F608171818281938120E030E040E253
:1053F00051E40E949C02DC01CB018E0109591F4F30
:10540000BC01CD010E94C600DC01CB01F8019183F3
:1054100080831FC0FE01EB59FF4F80E991E091832B
:105420008083FE01EB59FF4F808191810197F1F755
:10543000FE01EB59FF4F91838083DE01A959BF4FD5
:10544000FE01E959FF4F80819181019711969C934C
:105450008E93FE01E959FF4F808191810097D1F62B
:1054600027C08E0109591F4FFE01E759FF4F608188
:105470007181828193810E94C600DC01CB01F80119
:1054800091838083DE01AD59BF4FFE01E959FF4F83
:10549000808191818D939C93FE01ED59FF4F808116
:1054A00091810197F1F7FE01ED59FF4F91838083C0
:1054B000A8E3B0E0E8E3F0E080818E7F8C93FE010A
:1054C000E15AFF4F80E090E0A8E4B2E4808391834A
:1054D000A283B3838E01055A1F4FFE01E15AFF4F8D
:1054E000608171818281938120E030E04AE755E458
:1054F0000E949C02DC01CB01F80180839183A2838E
:10550000B383FE01E55AFF4F6081718182819381EF
:1055100020E030E040E85FE30E940205882344F485
:10552000FE01E75AFF4F81E090E09183808364C0E1
:10553000FE01E55AFF4F608171818281938120E0F5
:105540003FEF4FE757E40E94A20418160CF043C047
:10555000FE01E15AFF4F608171818281938120E0D9
:1055600030E040E251E40E949C02DC01CB018E015C
:10557000075A1F4FBC01CD010E94C600DC01CB01C0
:10558000F801918380831FC0FE01E95AFF4F80E933
:1055900091E091838083FE01E95AFF4F80819181E0
:1055A0000197F1F7FE01E95AFF4F91838083DE01F5
:1055B000A75ABF4FFE01E75AFF4F808191810197A3
:1055C00011969C938E93FE01E75AFF4F8081918143
:1055D0000097D1F628C08E01075A1F4FFE01E55AE9
:1055E000FF4F60817181828193810E94C600DC013E
:1055F000CB01F80191838083DE01AB5ABF4FFE01DE
:10560000E75AFF4F8081918111969C938E93FE0102
:10561000EB5AFF4F808191810197F1F7FE01EB5A20
:10562000FF4F91838083FE01EE57FF4F108218C316
:10563000CE0184579F4F9E0120573F4FAE014C56DD
:105640005F4FB9010E94CB19CE0188569F4F9E0132
:1056500024563F4FAE0140565F4FB9010E943D1A9C
:1056600080E061E00E94C527FE01E457FF4F808182
:105670009181A281B381BC01CD0120E030E048ECF2
:1056800052E40E949C02DC01CB01BC01CD010E94CE
:10569000C600DC01CB010E94412880E065E00E9449
:1056A000C527FE01E057FF4F80819181A281B38120
:1056B000BC01CD0120E030E048EC52E40E949C02A5
:1056C000DC01CB01BC01CD010E94C600DC01CB0195
:1056D0000E94412880E069E00E94C527FE01EC5647
:1056E000FF4F80819181A281B381BC01CD0120E077
:1056F00030E048EC52E40E949C02DC01CB01BC018A
:10570000CD010E94C600DC01CB010E94412881E04E
:1057100061E00E94C527FE01E856FF4F808191811C
:10572000A281B381BC01CD0120E030E048EC52E41D
:105730000E949C02DC01CB01BC01CD010E94C6008D
:10574000DC01CB010E94412881E065E00E94C52771
:10575000FE01E456FF4F80819181A281B381BC019B
:10576000CD0120E030E048EC52E40E949C02DC01D4
:10577000CB01BC01CD010E94C600DC01CB010E941F
:10578000412881E069E00E94C527FE01E056FF4FF5
:1057900080819181A281B381BC01CD0120E030E004
:1057A00048EC52E40E949C02DC01CB01BC01CD011B
:1057B0000E94C600DC01CB010E944128FE01E45793
:1057C000FF4F80819181A281B381FE01E457FF4F99
:1057D0002081318142815381BC01CD010E949C0214
:1057E000DC01CB017C018D01FE01E057FF4F808180
:1057F0009181A281B381FE01E057FF4F2081318169
:1058000042815381BC01CD010E949C02DC01CB018D
:105810009C01AD01C801B7010E946F02DC01CB0100
:105820007C018D01FE01EC56FF4F80819181A281A8
:10583000B381FE01EC56FF4F2081318142815381BB
:10584000BC01CD010E949C02DC01CB019C01AD0199
:10585000C801B7010E946F02DC01CB01BC01CD0180
:105860000E944B32DC01CB01FE01E258FF4F8083E6
:105870009183A283B383A1E3B0E0E1E3F0E0808110
:1058800080648C93A2E3B0E0E2E3F0E08081806486
:105890008C93FE01EF5AFF4F80E090E0A8ECB2E459
:1058A00080839183A283B3838E01035B1F4FFE012C
:1058B000EF5AFF4F608171818281938120E030E057
:1058C0004AE755E40E949C02DC01CB01F801808389
:1058D0009183A283B383FE01E35BFF4F60817181FB
:1058E0008281938120E030E040E85FE30E9402057E
:1058F000882344F4FE01E55BFF4F81E090E0918353
:10590000808364C0FE01E35BFF4F6081718182810F
:10591000938120E03FEF4FE757E40E94A20418165E
:105920000CF043C0FE01EF5AFF4F6081718182810C
:10593000938120E030E040E251E40E949C02DC01CF
:10594000CB018E01055B1F4FBC01CD010E94C6003B
:10595000DC01CB01F801918380831FC0FE01E75B6E
:10596000FF4F80E991E091838083FE01E75BFF4F69
:10597000808191810197F1F7FE01E75BFF4F9183F1
:105980008083DE01A55BBF4FFE01E55BFF4F808199
:105990009181019711969C938E93FE01E55BFF4FD9
:1059A000808191810097D1F627C08E01055B1F4F42
:1059B000FE01E35BFF4F60817181828193810E94D0
:1059C000C600DC01CB01F80191838083DE01A95B75
:1059D000BF4FFE01E55BFF4F808191818D939C93CA
:1059E000FE01E95BFF4F808191810197F1F7FE0194
:1059F000E95BFF4F91838083A2E3B0E0E2E3F0E054
:105A000080818F7B8C93FE01ED5BFF4F80E090E007
:105A1000A8ECB2E480839183A283B3838E01015CFE
:105A20001F4FFE01ED5BFF4F608171818281938189
:105A300020E030E04AE755E40E949C02DC01CB0103
:105A4000F80180839183A283B383FE01FF96608176
:105A500071818281938120E030E040E85FE30E9421
:105A6000020588232CF481E090E09EAF8DAF46C004
:105A7000FE01FF96608171818281938120E03FEF7A
:105A80004FE757E40E94A204181664F5FE01ED5B8F
:105A9000FF4F608171818281938120E030E040E29C
:105AA00051E40E949C02DC01CB01BC01CD010E94AB
:105AB000C600DC01CB019EAF8DAF0FC080E991E045
:105AC0009CAF8BAF8BAD9CAD0197F1F79CAF8BAFCB
:105AD0008DAD9EAD01979EAF8DAF8DAD9EAD009704
