:100000000C94A7000C94C4000C94C4000C94C4007D
:100010000C94C4000C94C4000C94C4000C948E285E
:100020000C94C4000C94C4000C94C4000C94C40040
:100030000C94C4000C94C4000C94C4000C94C40030
:100040000C941D180C94C4000C94C4000C94C400AF
:100050000C94C40000407A10F35A00A0724E1809A4
:100060000010A5D4E80000E87648170000E40B541F
:10007000020000CA9A3B000000E1F50500008096EE
:100080009800000040420F000000A0860100000020
:10009000102700000000E8030000000064000000DA
:1000A00000000A00000000000100000000002C76A3
:1000B000D888DC674F0823DFC1DFAE59E1B1B796BE
:1000C000E5E3E453C63AE651997696E8E6C284261B
:1000D000EB898C9B62ED407C6FFCEFBC9C9F40F2F7
:1000E000BAA56FA5F490055A2AF75C936B6CF96773
:1000F0006DC11BFCE0E40D47FEF520E6B500D0ED38
:10010000902E0300943577050080841E080000209F
:100110004E0A000000C80C333333330F986E12833D
:100120001141EF8D2114893BE65516CFFEE6DB1811
:10013000D1844B381BF77C1D901DA4BBE4242032D6
:1001400084725E228100C9F124ECA1E53D271124CF
:100150001FBECFE5D8E0DEBFCDBF13E0A0E6B0E024
:10016000EEE3F1E602C005900D92A230B107D9F797
:1001700013E0A2E0B3E001C01D92A335B107E1F79F
:100180000E94B9280C949D300C940000EF92FF92CD
:100190000F931F937B018C0120E030E040E05FE48F
:1001A0000E94D20488238CF0C801B70120E030E01F
:1001B00040E05FE40E943E020E9490059B01AC017A
:1001C000205030404040504806C0C801B7010E944E
:1001D00090059B01AC01B901CA011F910F91FF90DD
:1001E000EF900895A0E0B0E0E8EFF0E00C94392B38
:1001F000DC012B01FA019C91923008F439C1EB012A
:100200008881823008F433C1943069F4843009F075
:100210002FC111969C9111978981981709F428C1D3
:10022000A9EFB1E025C1843009F421C18230A9F4DD
:10023000923009F01DC19A01AD0188E0EA010990F0
:10024000AE01E90109929E018150C1F7E201898165
:1002500011969C918923818308C1923009F407C1CA
:1002600012962D903C901397EB018A819B811496F6
:10027000AD90BD90CD90DC901797EC80FD800E8105
:100280001F819101281B390BB90137FF04C0662774
:100290007727621B730B603271050CF061C0121678
:1002A00013066CF537014801062E04C09694879416
:1002B000779467940A94D2F721E030E040E050E070
:1002C00004C0220F331F441F551F6A95D2F72150D7
:1002D0003040404050402E213F21402351232115E2
:1002E00031054105510521F021E030E040E050E0CA
:1002F00079018A01E628F728082919293CC0232B0F
:10030000D1F1260E371E35014601062E04C0969403
:100310008794779467940A94D2F721E030E040E024
:1003200050E004C0220F331F441F551F6A95D2F7B7
:1003300021503040404050402A213B214C215D213A
:10034000211531054105510521F021E030E040E063
:1003500050E059016A01A628B728C828D9280BC03F
:10036000821593052CF01C01AA24BB24650103C04F
:10037000EE24FF24870111969C91D20111968C9155
:10038000981709F445C0992339F0A80197012A1953
:100390003B094C095D0906C0A60195012E193F09CC
:1003A000400B510B57FD08C01182338222822483F7
:1003B0003583468357831DC081E081833382228247
:1003C00088279927DC01821B930BA40BB50B848330
:1003D0009583A683B7830DC0220F331F441F551F7B
:1003E0002483358346835783828193810197938346
:1003F00082832481358146815781DA01C9010197C1
:10040000A109B1098F5F9F4FAF4FBF4328F30BC0C6
:10041000918333822282EA0CFB1C0C1D1D1DE48299
:10042000F5820683178383E08083248135814681AA
:10043000578157FF1AC0C901AA2797FDA095BA2F67
:1004400081709070A070B07056954795379527953C
:10045000822B932BA42BB52B84839583A683B78300
:1004600082819381019693838283DF0101C0D2014F
:10047000CD01CDB7DEB7E2E10C94552BA0E2B0E0A0
:10048000E4E4F2E00C94452B69837A838B839C83AC
:100490002D833E834F835887E9E0EE2EF12CEC0E3E
:1004A000FD1ECE010196B7010E9481078E010F5EED
:1004B0001F4FCE010596B8010E9481078A8991E0FD
:1004C00089278A8BC701B801AE01475E5F4F0E9442
:1004D000F2000E94AC06A096E6E00C94612BA0E22C
:1004E000B0E0E5E7F2E00C94452B69837A838B83D7
:1004F0009C832D833E834F835887F9E0EF2EF12CA8
:10050000EC0EFD1ECE010196B7010E9481078E01FF
:100510000F5E1F4FCE010596B8010E948107C701EB
:10052000B801AE01475E5F4F0E94F2000E94AC0628
:10053000A096E6E00C94612BA0E2B0E0E2EAF2E0E3
:100540000C94392B69837A838B839C832D833E8320
:100550004F835887CE010196BE01675F7F4F0E948F
:100560008107CE010596BE016F5E7F4F0E94810715
:100570009985923088F089898230C8F0943019F4D6
:10058000823051F404C0843029F4923081F489EF30
:1005900091E0C6C0923049F420E09A858A89981388
:1005A00021E02A87CE010996BBC0823049F420E0C1
:1005B0009A858A89981321E02A8BCE014196B0C092
:1005C0002D843E844F8458886D887E888F88988CCF
:1005D000EE24FF248701AA24BB24650140E050E0FB
:1005E00060E070E0E0E0F0E0C10181709070892B84
:1005F000E9F0E60CF71C081D191D9A01AB012A0D44
:100600003B1D4C1D5D1D80E090E0A0E0B0E0E614D5
:10061000F7040805190520F481E090E0A0E0B0E0BF
:10062000BA01A901480F591F6A1F7B1FAA0CBB1CE6
:10063000CC1CDD1C97FE08C081E090E0A0E0B0E09B
:10064000A82AB92ACA2ADB2A3196E032F10549F0F4
:10065000660C771C881C991C5694479437942794F1
:10066000C3CFFA85EA892B893C898B859C85280F25
:10067000391F2E5F3F4F17C0CA0181709070892BC0
:1006800061F016950795F794E79480E090E0A0E07C
:10069000B0E8E82AF92A0A2B1B2B7695679557951F
:1006A00047952F5F3F4F77FDE7CF0CC0440F551F95
:1006B000661F771F17FD4160EE0CFF1C001F111F06
:1006C00021503040403090E0590790E0690790E4B5
:1006D000790760F32B8F3C8FDB01CA018F77907015
:1006E000A070B07080349105A105B10561F447FD9B
:1006F0000AC0E114F1040105110529F0405C5F4FC7
:100700006F4F7F4F40781A8EFE1711F081E08A8F6D
:100710004D8F5E8F6F8F78A383E0898FCE014996CE
:100720000E94AC06A096E2E10C94552BA8E1B0E043
:10073000ECE9F3E00C94412B69837A838B839C83EF
:100740002D833E834F835887B9E0EB2EF12CEC0EBE
:10075000FD1ECE010196B7010E9481078E010F5E3A
:100760001F4FCE010596B8010E94810729852230CE
:1007700008F47EC03989323010F4B8017CC08A8513
:100780009A8989278A87243011F0223031F423177F
:1007900009F06EC069EF71E06EC0343039F41D8627
:1007A0001E861F86188A1C861B8604C0323021F4E0
:1007B00084E08987B7015FC02B853C858B899C8944
:1007C000281B390B3C872B87ED84FE840F85188905
:1007D000AD88BE88CF88D88CEA14FB040C051D05B3
:1007E00040F4EE0CFF1C001F111F215030403C87CD
:1007F0002B8720E030E040E050E080E090E0A0E097
:10080000B0E460E070E0EA14FB040C051D0540F064
:10081000282B392B4A2B5B2BEA18FB080C091D09E6
:10082000B695A79597958795EE0CFF1C001F111F95
:100830006F5F7F4F6F31710531F7DA01C9018F7733
:100840009070A070B07080349105A105B10561F47D
:1008500027FD0AC0E114F1040105110529F0205C0F
:100860003F4F4F4F5F4F20782D873E874F87588BE4
:10087000BE01675F7F4FCB010E94AC066896EAE03D
:100880000C945D2BA8E1B0E0E8E4F4E00C94452B77
:1008900069837A838B839C832D833E834F83588720
:1008A00089E0E82EF12CEC0EFD1ECE010196B70179
:1008B0000E9481078E010F5E1F4FCE010596B80181
:1008C0000E9481078985823040F08989823028F032
:1008D000C701B8010E94F90701C081E06896E6E00F
:1008E0000C94612BA8E1B0E0E8E7F4E00C94452B10
:1008F00069837A838B839C832D833E834F835887C0
:1009000089E0E82EF12CEC0EFD1ECE010196B70118
:100910000E9481078E010F5E1F4FCE010596B80120
:100920000E9481078985823040F08989823028F0D1
:10093000C701B8010E94F90701C081E06896E6E0AE
:100940000C94612BA8E1B0E0E8EAF4E00C94452BAC
:1009500069837A838B839C832D833E834F8358875F
:1009600089E0E82EF12CEC0EFD1ECE010196B701B8
:100970000E9481078E010F5E1F4FCE010596B801C0
:100980000E9481078985823040F08989823028F071
:10099000C701B8010E94F90701C08FEF6896E6E031
:1009A0000C94612BA8E1B0E0E8EDF4E00C94452B49
:1009B00069837A838B839C832D833E834F835887FF
:1009C00089E0E82EF12CEC0EFD1ECE010196B70158
:1009D0000E9481078E010F5E1F4FCE010596B80160
:1009E0000E9481078985823040F08989823028F011
:1009F000C701B8010E94F90701C08FEF6896E6E0D1
:100A00000C94612BA8E1B0E0E8E0F5E00C94452BF4
:100A100069837A838B839C832D833E834F8358879E
:100A200089E0E82EF12CEC0EFD1ECE010196B701F7
:100A30000E9481078E010F5E1F4FCE010596B801FF
:100A40000E9481078985823040F08989823028F0B0
:100A5000C701B8010E94F90701C081E06896E6E08D
:100A60000C94612BA8E0B0E0E8E3F5E00C94422B95
:100A70009B01AC0183E08983DA01C9018827B7FDB6
:100A800083959927AA27BB27B82E21153105410543
:100A9000510519F482E089833AC08823A9F02030F7
:100AA00080E0380780E0480780E8580729F460E0D4
:100AB00070E080E09FEC30C0EE24FF248701E21A52
:100AC000F30A040B150B02C079018A018EE1C82ECE
:100AD000D12CDC82CB82ED82FE820F831887C80185
:100AE000B7010E945D0601971816190684F4082EB6
:100AF00004C0EE0CFF1C001F111F0A94D2F7ED82F8
:100B0000FE820F831887C81AD90ADC82CB82BA8288
:100B1000CE0101960E94AC062896E9E00C945E2B6B
:100B2000ACE0B0E0E6E9F5E00C94492B69837A8308
:100B30008B839C83CE010196BE016B5F7F4F0E9429
:100B400081078D81823061F1823050F1843021F44F
:100B50008E81882351F12EC02F81388537FD20C02A
:100B60006E812F3131051CF06623F9F023C08EE130
:100B700090E0821B930B29853A854B855C8504C0E8
:100B800056954795379527958A95D2F76623B1F004
:100B900050954095309521953F4F4F4F5F4F0EC078
:100BA00020E030E040E050E009C02FEF3FEF4FEF92
:100BB0005FE704C020E030E040E050E8B901CA013E
:100BC0002C96E2E00C94652BA8E0B0E0EAEEF5E0AC
:100BD0000C94412B7B018C016115710581059105F8
:100BE00019F482E0898360C083E089838EE1C82E96
:100BF000D12CDC82CB82ED82FE820F831887C80164
:100C0000B7010E945D06FC013197F7FF3BC0222728
:100C100033272E1B3F0B57016801022E04C0D694C8
:100C2000C794B794A7940A94D2F740E050E060E0EC
:100C300070E081E090E0A0E0B0E004C0880F991F70
:100C4000AA1FBB1F2A95D2F70197A109B1098E21CE
:100C50009F21A023B1230097A105B10521F041E018
:100C600050E060E070E04A295B296C297D294D83C2
:100C70005E836F8378878EE190E08E1B9F0B9C8351
:100C80008B8312C0309781F00E2E04C0EE0CFF1C37
:100C9000001F111F0A94D2F7ED82FE820F8318877E
:100CA000CE1ADF0ADC82CB821A82CE0101960E9424
:100CB000AC062896EAE00C945D2BEF92FF920F931E
:100CC0001F937B018C0180E0E81680E0F80681E04C
:100CD000080780E0180788F48FEFE816F104010593
:100CE000110531F028F088E090E0A0E0B0E017C0F6
:100CF00080E090E0A0E0B0E012C080E0E81680E084
:100D0000F80680E0080781E0180728F088E190E005
:100D1000A0E0B0E004C080E190E0A0E0B0E020E21C
:100D200030E040E050E0281B390B4A0B5B0B04C05D
:100D300016950795F794E7948A95D2F7F701EF5F38
:100D4000FD4F8081281B310941095109C9011F91BB
:100D50000F91FF90EF900895DF92EF92FF920F9323
:100D60001F93FC01E480F58006811781D18080818A
:100D7000823048F480E090E0A0E1B0E0E82AF92A6F
:100D80000A2B1B2BA5C0843009F49FC0823021F4AC
:100D9000EE24FF24870105C0E114F10401051105CB
:100DA00019F4E0E0F0E096C0628173819FEF623851
:100DB00079070CF05BC022E83FEF261B370B2A3186
:100DC00031052CF020E030E040E050E02AC0B801CE
:100DD000A701022E04C076956795579547950A940A
:100DE000D2F781E090E0A0E0B0E004C0880F991F46
:100DF000AA1FBB1F2A95D2F70197A109B1098E211D
:100E00009F21A023B1230097A105B10521F081E026
:100E100090E0A0E0B0E09A01AB01282B392B4A2BDF
:100E20005B2BDA01C9018F779070A070B0708034AD
:100E30009105A105B10539F427FF09C0205C3F4F9A
:100E40004F4F5F4F04C0215C3F4F4F4F5F4FE0E07B
:100E5000F0E02030A0E03A07A0E04A07A0E45A07FB
:100E600010F0E1E0F0E079018A0127C060387105F7
:100E700064F5FB01E158FF4FD801C7018F779070EF
:100E8000A070B07080349105A105B10539F4E7FE7A
:100E90000DC080E490E0A0E0B0E004C08FE390E0FB
:100EA000A0E0B0E0E80EF91E0A1F1B1F17FF05C0E7
:100EB00016950795F794E794319687E01695079570
:100EC000F794E7948A95D1F705C0EE24FF248701B3
:100ED000EFEFF0E06E2F679566276795902F9F776D
:100EE000D794DD24D7948E2F8695492F462B582FE3
:100EF0005D29B701CA011F910F91FF90EF90DF901C
:100F00000895FC01DB01408151812281622F6F77BE
:100F100070E0221F2227221F9381892F880F822BA6
:100F2000282F30E0991F9927991F11969C931197AC
:100F300021153105A9F5411551056105710511F41A
:100F400082E037C082E89FEF13969C938E931297AE
:100F50009A01AB0167E0220F331F441F551F6A95AA
:100F6000D1F783E08C930DC0220F331F441F551F10
:100F700012968D919C911397019713969C938E9343
:100F80001297203080E0380780E0480780E4580757
:100F900058F314962D933D934D935C9317970895B2
:100FA0002F3F310579F4411551056105710519F49B
:100FB00084E08C93089564FF03C081E08C9312C099
:100FC0001C9210C02F57304013963C932E931297CB
:100FD00083E08C9387E0440F551F661F771F8A9527
:100FE000D1F7706414964D935D936D937C9317972E
:100FF00008951F93DC01FB019C91923008F447C0D7
:101000008081823008F443C0943051F411961C91D1
:10101000843099F58181682F70E0611B71093FC0B0
:10102000843021F0923031F48230B9F1818188230B
:1010300089F12DC011961C9111978230F1F08181B8
:101040001817D9F412962D913C91139782819381B0
:101050008217930794F028173907BCF014968D91E6
:101060009D910D90BC91A02D2481358146815781A1
:10107000281739074A075B0718F4112341F00AC003
:1010800082179307A407B50740F4112319F061E014
:1010900070E005C06FEF7FEF02C060E070E0CB0151
:1010A0001F910895DF93CF9300D000D000D0CDB72B
:1010B000DEB76B837C838D839E838B819C81AD8126
:1010C000BE81880F991FAA1FBB1F880F991FAA1FD7
:1010D000BB1F880F991FAA1FBB1F880F991FAA1F2C
:1010E000BB1F9C01AD0180E094E2A4EFB0E0BC0125
:1010F000CD010E94172BDA01C90101979A838983D8
:10110000E0E4F0E089819A81892F99278083E9E2E0
:10111000F0E089818083EAE2F0E088E18083E0E426
:10112000F0E086E8808326960FB6F894DEBF0FBE07
:10113000CDBFCF91DF910895DF93CF93CDB7DEB7C9
:10114000EBE2F0E080818823DCF7ECE2F0E08081E4
:10115000CF91DF910895DF93CF930F92CDB7DEB794
:101160008983EBE2F0E08081882F90E080729070BC
:101170000097B9F3ECE2F0E0898180830F90CF9182
:10118000DF910895DF93CF9300D0CDB7DEB79A8378
:1011900089830BC0E981FA81208189819A81019636
:1011A0009A838983822F0E94AB08E981FA8180812A
:1011B000882381F70F900F90CF91DF9108950F93BF
:1011C0001F93DF93CF93CDB7DEB768970FB6F89430
:1011D000DEBF0FBECDBF6D8B7E8B8F8B988F8D89C1
:1011E0009E89AF89B88DBC01CD0146E022E0FE01A9
:1011F00031968F010E94702BCE0101960E94C20889
:1012000068960FB6F894DEBF0FBECDBFCF91DF91C9
:101210001F910F910895AF92BF92CF92DF92EF92FC
:10122000FF920F931F93DF93CF93CDB7DEB76097F5
:101230000FB6F894DEBF0FBECDBF69837A838B8370
:101240009C832D833E834F835887E986FA860B87DC
:101250001C87AD86BE86CF86D88A80E690E00E9445
:10126000C20889819A81AB81BC81BC01CD010E94F9
:10127000DF0886E690E00E94C2088D819E81AF81E2
:10128000B885BC01CD010E94DF0886E690E00E948F
:10129000C20889859A85AB85BC85BC01CD010E94B9
:1012A000DF0888E690E00E94C2088D859E85AF85A4
:1012B000B889BC01CD010E94DF0886E690E00E945B
:1012C000C2088D8D9E8DAF8DB8A1BC01CD010E944D
:1012D000DF0886E690E00E94C20889A19AA1ABA12E
:1012E000BCA1BC01CD010E94DF0881E790E00E9413
:1012F000C20860960FB6F894DEBF0FBECDBFCF9187
:10130000DF911F910F91FF90EF90DF90CF90BF90F2
:10131000AF900895DF93CF93CDB7DEB760970FB648
:10132000F894DEBF0FBECDBF6D877E878F87988B09
:101330008DB79EB708970FB6F8949EBF0FBE8DBFAE
:10134000EDB7FEB73196CE0101969183808384E795
:1013500090E0938382838D859E85AF85B889848351
:101360009583A683B7830E94B22B8DB79EB708964C
:101370000FB6F8949EBF0FBE8DBFCE0101960E949E
:10138000C20881E790E00E94C20860960FB6F89408
:10139000DEBF0FBECDBFCF91DF910895DF93CF9316
:1013A000CDB7DEB72B970FB6F894DEBF0FBECDBF1B
:1013B00069837A838B839C834D83AFE5B0E0EFE54F
:1013C000F0E0808180688C9389819A81AB81BC81B7
:1013D00080931C0390931D03A0931E03B0931F03DF
:1013E00089819A81AB81BC8188879987AA87BB87CD
:1013F00088859985AA85BB8580349105A105B105AD
:1014000009F463C088859985AA85BB8581349105D7
:10141000A105B10598F488859985AA85BB85813099
:101420009105A105B10529F188859985AA85BB8516
:1014300088309105A105B10591F188C0888599850D
:10144000AA85BB85803021E0920720E0A20720E03A
:10145000B20709F450C088859985AA85BB8580307C
:1014600024E0920720E0A20720E0B20709F459C067
:101470006DC0AEE4B0E0EEE4F0E080818B7F8C9351
:10148000AEE4B0E0EEE4F0E080818D7F8C93AEE4DA
:10149000B0E0EEE4F0E0808181608C9357C0AEE470
:1014A000B0E0EEE4F0E080818B7F8C93AEE4B0E0BE
:1014B000EEE4F0E0808182608C93AEE4B0E0EEE494
:1014C000F0E080818E7F8C9341C0AEE4B0E0EEE42A
:1014D000F0E080818B7F8C93AEE4B0E0EEE4F0E04E
:1014E000808182608C93AEE4B0E0EEE4F0E0808135
:1014F00081608C932BC0AEE4B0E0EEE4F0E080813C
:1015000084608C93AEE4B0E0EEE4F0E080818D7F07
:101510008C93AEE4B0E0EEE4F0E080818E7F8C93BB
:1015200015C0AEE4B0E0EEE4F0E0808184608C931E
:10153000AEE4B0E0EEE4F0E080818D7F8C93AEE429
:10154000B0E0EEE4F0E0808181608C938D81A82F83
:10155000B0E0BF83AE832E813F812830310509F48E
:10156000FEC18E819F818930910554F5AE81BF8186
:10157000A430B10509F400C12E813F812530310529
:1015800094F48E819F818230910509F46FC0AE8101
:10159000BF81A330B1050CF0ACC02E813F8121305A
:1015A0003105C9F1DBC38E819F818630910509F435
:1015B00050C1AE81BF81A730B1050CF08DC11EC1F5
:1015C0002E813F812C30310509F4D5C28E819F8157
:1015D0008D3091056CF4AE81BF81AA30B10509F45C
:1015E00044C22E813F812B3031050CF081C2FAC1FB
:1015F0008E819F818E30910509F42BC3AE81BF810E
:10160000AE30B1050CF4FAC22E813F812F30310586
:1016100009F462C3A3C3AEE4B0E0EEE4F0E080817D
:101620008F7E8C93AEE4B0E0EEE4F0E08081877FC3
:101630008C93AFE4B0E0EFE4F0E080818D7F8C9399
:10164000AFE4B0E0EFE4F0E080818E7F8C93A9E519
:10165000B0E0E9E5F0E0808184608C93AEE4B0E036
:10166000EEE4F0E0808180688C9378C3AEE4B0E073
:10167000EEE4F0E080818F7E8C93AEE4B0E0EEE4A7
:10168000F0E08081877F8C93AFE4B0E0EFE4F0E09E
:1016900080818D7F8C93AFE4B0E0EFE4F0E0808157
:1016A00081608C93AFE4B0E0EFE4F0E0808180688B
:1016B0008C93AFE4B0E0EFE4F0E080818F7B8C931B
:1016C000AFE4B0E0EFE4F0E0808180628C93AFE4BF
:1016D000B0E0EFE4F0E080818F7E8C9384E064E002
:1016E00041E00E94F81184E065E041E00E94F811B9
:1016F00035C3AEE4B0E0EEE4F0E080818F7E8C9301
:10170000AEE4B0E0EEE4F0E08081877F8C93AFE45C
:10171000B0E0EFE4F0E0808182608C93AFE4B0E071
:10172000EFE4F0E080818E7F8C93AFE4B0E0EFE4F3
:10173000F0E0808180688C93AFE4B0E0EFE4F0E00B
:1017400080818F7B8C93AFE4B0E0EFE4F0E08081A8
:1017500080628C93AFE4B0E0EFE4F0E080818F7EB4
:101760008C9384E064E041E00E94F81184E065E03D
:1017700041E00E94F811F2C2AEE4B0E0EEE4F0E025
:1017800080818F7E8C93AEE4B0E0EEE4F0E0808167
:10179000877F8C93AFE4B0E0EFE4F0E0808182607B
:1017A0008C93AFE4B0E0EFE4F0E0808181608C9353
:1017B000AFE4B0E0EFE4F0E0808180688C93AFE4C8
:1017C000B0E0EFE4F0E080818F7B8C93AFE4B0E099
:1017D000EFE4F0E0808180628C93AFE4B0E0EFE46E
:1017E000F0E080818F7E8C9384E064E041E00E9491
:1017F000F81184E065E041E00E94F811AEE4B0E049
:10180000EEE4F0E080818F7E8C93AEE4B0E0EEE415
:10181000F0E0808188608C93AFE4B0E0EFE4F0E02A
:1018200080818D7F8C93AFE4B0E0EFE4F0E08081C5
:101830008E7F8C93A9E5B0E0E9E5F0E080818061DE
:101840008C93A9E5B0E0E9E5F0E08081877F8C9397
:1018500085C2AEE4B0E0EEE4F0E080818F7E8C9350
:10186000AEE4B0E0EEE4F0E0808188608C93AFE419
:10187000B0E0EFE4F0E080818D7F8C93AFE4B0E0E6
:10188000EFE4F0E0808181608C93AFE4B0E0EFE4BE
:10189000F0E0808180688C93AFE4B0E0EFE4F0E0AA
:1018A00080818F7B8C93AFE4B0E0EFE4F0E0808147
:1018B00080628C93AFE4B0E0EFE4F0E080818F7E53
:1018C0008C9384E064E041E00E94F81184E065E0DC
:1018D00041E00E94F81142C2AEE4B0E0EEE4F0E074
:1018E00080818F7E8C93AEE4B0E0EEE4F0E0808106
:1018F00088608C93AFE4B0E0EFE4F0E08081826038
:101900008C93AFE4B0E0EFE4F0E080818E7F8C93C5
:10191000AFE4B0E0EFE4F0E0808180688C93AFE466
:10192000B0E0EFE4F0E080818F7B8C93AFE4B0E037
:10193000EFE4F0E0808180628C93AFE4B0E0EFE40C
:10194000F0E080818F7E8C9384E064E041E00E942F
:10195000F81184E065E041E00E94F811FFC1AEE4B7
:10196000B0E0EEE4F0E080818F7E8C93AEE4B0E0F6
:10197000EEE4F0E0808188608C93AFE4B0E0EFE4C7
:10198000F0E0808182608C93AFE4B0E0EFE4F0E0BF
:10199000808181608C93AFE4B0E0EFE4F0E080817F
:1019A00080688C93AFE4B0E0EFE4F0E080818F7B5F
:1019B0008C93AFE4B0E0EFE4F0E0808180628C9340
:1019C000AFE4B0E0EFE4F0E080818F7E8C9384E0C0
:1019D00064E041E00E94F81184E065E041E00E948B
:1019E000F811BCC1AEE4B0E0EEE4F0E080818061CB
:1019F0008C93AEE4B0E0EEE4F0E08081877F8C93DE
:101A0000AFE4B0E0EFE4F0E080818D7F8C93AFE451
:101A1000B0E0EFE4F0E080818E7F8C93AFE4B0E043
:101A2000EFE4F0E0808180688C93AFE4B0E0EFE415
:101A3000F0E080818F7B8C93AFE4B0E0EFE4F0E0E6
:101A4000808180628C93AFE4B0E0EFE4F0E08081CD
:101A50008F7E8C9384E064E041E00E94F81184E082
:101A600065E041E00E94F81179C1AEE4B0E0EEE437
:101A7000F0E0808180618C93AEE4B0E0EEE4F0E0D1
:101A80008081877F8C93AFE4B0E0EFE4F0E0808169
:101A90008D7F8C93AFE4B0E0EFE4F0E08081816073
:101AA0008C93AFE4B0E0EFE4F0E0808180688C9349
:101AB000AFE4B0E0EFE4F0E080818F7B8C93AFE4A3
:101AC000B0E0EFE4F0E0808180628C93AFE4B0E0BE
:101AD000EFE4F0E080818F7E8C9384E064E041E06D
:101AE0000E94F81184E065E041E00E94F81136C1DF
:101AF000AEE4B0E0EEE4F0E0808180618C93AEE48F
:101B0000B0E0EEE4F0E08081877F8C93AFE4B0E05A
:101B1000EFE4F0E0808182608C93AFE4B0E0EFE42A
:101B2000F0E080818E7F8C93AFE4B0E0EFE4F0E0F2
:101B3000808180688C93AFE4B0E0EFE4F0E08081D6
:101B40008F7B8C93AFE4B0E0EFE4F0E080818062C3
:101B50008C93AFE4B0E0EFE4F0E080818F7E8C9373
:101B600084E064E041E00E94F81184E065E041E037
:101B70000E94F811F3C0AEE4B0E0EEE4F0E0808142
:101B800080618C93AEE4B0E0EEE4F0E08081877F8A
:101B90008C93AFE4B0E0EFE4F0E0808182608C935E
:101BA000AFE4B0E0EFE4F0E0808181608C93AFE4DB
:101BB000B0E0EFE4F0E0808180688C93AFE4B0E0C7
:101BC000EFE4F0E080818F7B8C93AFE4B0E0EFE452
:101BD000F0E0808180628C93AFE4B0E0EFE4F0E06D
:101BE00080818F7E8C9384E064E041E00E94F81154
:101BF00084E065E041E00E94F811B0C0AEE4B0E0DE
:101C0000EEE4F0E0808180618C93AEE4B0E0EEE43D
:101C1000F0E0808188608C93AFE4B0E0EFE4F0E026
:101C200080818D7F8C93AFE4B0E0EFE4F0E08081C1
:101C30008E7F8C93A9E5B0E0E9E5F0E080818061DA
:101C40008C93A9E5B0E0E9E5F0E0808188608C93B1
:101C500085C0AEE4B0E0EEE4F0E0808180618C937A
:101C6000AEE4B0E0EEE4F0E0808188608C93AFE415
:101C7000B0E0EFE4F0E0808182608C93AFE4B0E00C
:101C8000EFE4F0E080818E7F8C93AFE4B0E0EFE48E
:101C9000F0E0808180688C93AFE4B0E0EFE4F0E0A6
:101CA00080818F7B8C93AFE4B0E0EFE4F0E0808143
:101CB00080628C93AFE4B0E0EFE4F0E080818F7E4F
:101CC0008C9384E064E041E00E94F81184E065E0D8
:101CD00041E00E94F81142C0AEE4B0E0EEE4F0E072
:101CE000808180618C93AEE4B0E0EEE4F0E080812E
:101CF00088608C93AFE4B0E0EFE4F0E08081826034
:101D00008C93AFE4B0E0EFE4F0E0808181608C93ED
:101D1000AFE4B0E0EFE4F0E0808180688C93AFE462
:101D2000B0E0EFE4F0E080818F7B8C93AFE4B0E033
:101D3000EFE4F0E0808180628C93AFE4B0E0EFE408
:101D4000F0E080818F7E8C9384E064E041E00E942B
:101D5000F81184E065E041E00E94F8112B960FB67F
:101D6000F894DEBF0FBECDBFCF91DF910895DF9312
:101D7000CF9300D0CDB7DEB79A838983EAE4F0E051
:101D800089819A81918380830F900F90CF91DF9109
:101D90000895DF93CF9300D0CDB7DEB79A838983C0
:101DA000E8E4F0E089819A81918380830F900F901D
:101DB000CF91DF910895EF92FF920F931F93DF93DE
:101DC000CF93CDB7DEB762970FB6F894DEBF0FBEE4
:101DD000CDBF6D877E878F87988B5A8B498B80917B
:101DE0001C0390911D03A0911E03B0911F03072EA9
:101DF0007DE0880F991FAA1FBB1F7A95D1F7702D20
:101E000089879A87AB87BC876D857E858F85988902
:101E10000E94E4057B018C0169857A858B859C8510
:101E20000E94E4059B01AC01C801B7010E94960322
:101E3000DC01CB018D839E83AF83B88789899A8922
:101E400090932503809324036D817E818F819885F3
:101E500020E030E040E85FE30E94020588239CF523
:101E600081E090E0A0E0B0E0809320039093210314
:101E7000A0932203B09323036D817E818F81988587
:101E800020E030E040E857EC0E949C02DC01CB01EE
:101E9000BC01CD0120E030E040E857E40E946F0231
:101EA000DC01CB01BC01CD010E94C600DC01CB01ED
:101EB00089839A83AB83BC83ECE4F0E089819A81C7
:101EC00091838083A4C06D817E818F81988520E07D
:101ED00030E040E85FE30E944204882369F481E037
:101EE00090E0A0E0B0E08093200390932103A093C2
:101EF0002203B09323038BC06D817E818F819885EF
:101F000020E030E040E85FE30E94A20418160CF0E5
:101F10007EC06D817E818F8198850E94C600DC0124
:101F2000CB018093200390932103A0932203B093CD
:101F300023036D817E818F8198850E94C600DC011C
:101F4000CB01BC01CD010E94E4059B01AC016D8178
:101F50007E818F8198850E943E02DC01CB01BC010D
:101F6000CD0120E030E040E050E00E947204882380
:101F700009F44DC06D817E818F8198850E94C600D5
:101F8000DC01CB01BC01CD010E94E4059B01AC0149
:101F90006D817E818F8198850E943E02DC01CB019C
:101FA000BC01CD0120E030E040E857EC0E949C02EB
:101FB000DC01CB01BC01CD0120E030E040E857E47A
:101FC0000E946F02DC01CB01BC01CD010E94C60062
:101FD000DC01CB0189839A83AB83BC83809120038E
:101FE00090912103A0912203B09123030196A11D9A
:101FF000B11D8093200390932103A0932203B093FB
:102000002303ECE4F0E089819A81918380836296D6
:102010000FB6F894DEBF0FBECDBFCF91DF911F91F9
:102020000F91FF90EF900895EF92FF920F931F93FF
:10203000DF93CF93CDB7DEB760970FB6F894DEBFCE
:102040000FBECDBF1D861E861F86188A19861A866A
:102050001B861C86A8E5B0E0E8E5F0E080818062A0
:102060008C93AEE4B0E0EEE4F0E0808180648C9389
:10207000E8E5F0E08081882F90E08072907095957F
:102080008795959587959595879595958795959538
:102090008795009769F3E6E4F0E080819181CC01B7
:1020A000A0E0B0E08D879E87AF87B88BA8E5B0E051
:1020B000E8E5F0E0808180628C93AEE4B0E0EEE48D
:1020C000F0E080818F7B8C93E8E5F0E08081882FC1
:1020D00090E08072907095958795959587959595E8
:1020E00087959595879595958795009769F3E6E48B
:1020F000F0E080819181CC01A0E0B0E089879A87EF
:10210000AB87BC8729853A854B855C858D859E8507
:10211000AF85B88979018A01E81AF90A0A0B1B0B05
:10212000D801C7018D839E83AF83B88780911C033C
:1021300090911D03A0911E03B0911F032D813E813C
:102140004F815885BC01CD010E94D82A9B01AC016A
:1021500080E092E1AAE7B0E0BC01CD010E94172B1C
:10216000DA01C90189839A83AB83BC8389819A810F
:10217000AB81BC81BC01CD0160960FB6F894DEBF87
:102180000FBECDBFCF91DF911F910F91FF90EF90C8
:102190000895DF93CF93CDB7DEB7E1E2F0E0808121
:1021A000887FCF91DF9108950F931F93DF93CF9393
:1021B00000D000D0CDB7DEB769837A838B839C8350
:1021C00000E210E080E094E2A4EFB0E029813A81DF
:1021D0004B815C81BC01CD010E94172BDA01C90142
:1021E0004097A109B109689412F8B695A7959795FB
:1021F00087951694D1F7F8018083E1E2F0E081E061
:102200008083E6E5F0E084E080830F900F900F90EC
:102210000F90CF91DF911F910F910895DF93CF938E
:10222000CDB7DEB7E6E5F0E084EA8083E6E5F0E0EE
:102230008081881F8827881F882F90E090700097E2
:10224000A9F30E94C910883021F00E94C910803182
:10225000C1F7CF91DF910895DF93CF9300D0CDB731
:10226000DEB78A83E3E2F0E08A818083E6E5F0E08E
:1022700084E88083E6E5F0E08081881F8827881F56
:10228000882F90E090700097A9F30E94C91089836D
:102290000F900F90CF91DF910895DF93CF930F921E
:1022A000CDB7DEB78983E3E2F0E089818083E6E59C
:1022B000F0E084E88083E6E5F0E08081881F8827ED
:1022C000881F882F90E090700097A9F30F90CF910E
:1022D000DF910895DF93CF93CDB7DEB7E6E5F0E069
:1022E00084E98083E6E5F0E08081882F90E08071CA
:1022F00090700097B9F7CF91DF910895DF93CF9356
:102300000F92CDB7DEB78983E2E2F0E08981880FD2
:1023100080830F90CF91DF910895DF93CF930F9239
:10232000CDB7DEB7E6E5F0E084EC8083E6E5F0E0EB
:102330008081881F8827881F882F90E090700097E1
:10234000A9F3E1E2F0E08081882F90E0887F90702F
:1023500080369105B1F7E6E5F0E084EC8083E6E5B0
:10236000F0E08081881F8827881F882F90E0907078
:102370000097A9F3E1E2F0E08081FCCFDF93CF93F7
:10238000CDB7DEB7E6E5F0E084EC8083E6E5F0E08B
:102390008081881F8827881F882F90E09070009781
:1023A000A9F30E94C9108035E1F7E3E2F0E08081F3
:1023B000CF91DF910895DF93CF93CDB7DEB7E6E5F8
:1023C000F0E084E88083E6E5F0E08081881F8827DC
:1023D000881F882F90E090700097A9F30E94C91081
:1023E0008835E1F7E3E2F0E08081CF91DF91089555
:1023F000DF93CF9300D000D00F92CDB7DEB78983A3
:102400006A834B838981882309F4E9C089818530F7
:1024100008F0E5C08A81883008F0E1C08981282F62
:1024200030E03D832C838C819D818230910509F4BD
:1024300048C02C813D812330310534F48C819D814D
:102440008130910571F0CBC02C813D812330310565
:1024500009F467C08C819D818430910509F491C095
:10246000BEC08B818823A9F4AAE3B0E0EAE3F0E0E0
:102470008081482F8A81282F30E081E090E0022E71
:1024800002C0880F991F0A94E2F7809584238C93E9
:10249000A6C08B81813009F0A2C0AAE3B0E0EAE3D4
:1024A000F0E08081482F8A81282F30E081E090E0A1
:1024B000022E02C0880F991F0A94E2F7842B8C9396
:1024C0008EC08B818823A9F4A7E3B0E0E7E3F0E0B6
:1024D0008081482F8A81282F30E081E090E0022E11
:1024E00002C0880F991F0A94E2F7809584238C9389
:1024F00076C08B81813009F072C0A7E3B0E0E7E3DA
:10250000F0E08081482F8A81282F30E081E090E040
:10251000022E02C0880F991F0A94E2F7842B8C9335
:102520005EC08B818823A9F4A4E3B0E0E4E3F0E08B
:102530008081482F8A81282F30E081E090E0022EB0
:1025400002C0880F991F0A94E2F7809584238C9328
:1025500046C08B81813009F042C0A4E3B0E0E4E3DF
:10256000F0E08081482F8A81282F30E081E090E0E0
:10257000022E02C0880F991F0A94E2F7842B8C93D5
:102580002EC08B818823A9F4A1E3B0E0E1E3F0E061
:102590008081482F8A81282F30E081E090E0022E50
:1025A00002C0880F991F0A94E2F7809584238C93C8
:1025B00016C08B81813099F4A1E3B0E0E1E3F0E053
:1025C0008081482F8A81282F30E081E090E0022E20
:1025D00002C0880F991F0A94E2F7842B8C930F9006
:1025E0000F900F900F900F90CF91DF910895DF9390
:1025F000CF9300D000D00F92CDB7DEB789836A8326
:102600004B838981882309F4E9C08981853008F0EA
:10261000E5C08A81883008F0E1C08981282F30E048
:102620003D832C838C819D818230910509F448C0C3
:102630002C813D812330310534F48C819D818130A2
:10264000910571F0CBC02C813D812330310509F417
:1026500067C08C819D818430910509F491C0BEC012
:102660008B818823A9F4ABE3B0E0EBE3F0E0808159
:10267000482F8A81282F30E081E090E0022E02C0AE
:10268000880F991F0A94E2F7809584238C93A6C043
:102690008B81813009F0A2C0ABE3B0E0EBE3F0E066
:1026A0008081482F8A81282F30E081E090E0022E3F
:1026B00002C0880F991F0A94E2F7842B8C938EC076
:1026C0008B818823A9F4A8E3B0E0E8E3F0E08081FF
:1026D000482F8A81282F30E081E090E0022E02C04E
:1026E000880F991F0A94E2F7809584238C9376C013
:1026F0008B81813009F072C0A8E3B0E0E8E3F0E03C
:102700008081482F8A81282F30E081E090E0022EDE
:1027100002C0880F991F0A94E2F7842B8C935EC045
:102720008B818823A9F4A5E3B0E0E5E3F0E08081A4
:10273000482F8A81282F30E081E090E0022E02C0ED
:10274000880F991F0A94E2F7809584238C9346C0E2
:102750008B81813009F042C0A5E3B0E0E5E3F0E011
:102760008081482F8A81282F30E081E090E0022E7E
:1027700002C0880F991F0A94E2F7842B8C932EC015
:102780008B818823A9F4A2E3B0E0E2E3F0E080814A
:10279000482F8A81282F30E081E090E0022E02C08D
:1027A000880F991F0A94E2F7809584238C9316C0B2
:1027B0008B81813099F4A2E3B0E0E2E3F0E0808124
:1027C000482F8A81282F30E081E090E0022E02C05D
:1027D000880F991F0A94E2F7842B8C930F900F9027
:1027E0000F900F900F90CF91DF910895DF93CF93CB
:1027F00000D000D00F92CDB7DEB78A836B838A8179
:10280000882309F4A1C08A81853008F09DC08B819E
:10281000883008F099C08A81282F30E03D832C83CE
:102820004C815D8142305105B1F18C819D818330B5
:10283000910534F42C813D812130310571F084C043
:102840004C815D814330510509F443C08C819D81E9
:102850008430910509F45BC077C0E9E3F0E0808142
:10286000482F50E08B81282F30E081E090E002C0BB
:10287000880F991F2A95E2F79A01282339238B8123
:10288000882F90E0A90102C0559547958A95E2F7F7
:10289000CA01898359C0E6E3F0E08081482F50E007
:1028A0008B81282F30E081E090E002C0880F991FD3
:1028B0002A95E2F79A01282339238B81882F90E00B
:1028C000A90102C0559547958A95E2F7CA01898307
:1028D0003BC0E3E3F0E08081482F50E08B81282F5C
:1028E00030E081E090E002C0880F991F2A95E2F75E
:1028F0009A01282339238B81882F90E0A90102C0F7
:10290000559547958A95E2F7CA0189831DC0E0E392
:10291000F0E08081482F50E08B81282F30E081E06B
:1029200090E002C0880F991F2A95E2F79A012823A8
:1029300039238B81882F90E0A90102C055954795D6
:102940008A95E2F7CA01898389810F900F900F90D1
:102950000F900F90CF91DF910895DF93CF9300D028
:1029600000D0CDB7DEB789836A838981882309F4D3
:1029700077C08981853008F073C08A81883008F07B
:102980006FC08981282F30E03C832B838B819C8111
:102990008230910551F12B813C812330310534F493
:1029A0008B819C818130910561F05AC02B813C81E3
:1029B0002330310571F18B819C8184309105E9F1DF
:1029C0004FC0ABE3B0E0EBE3F0E08081482F8A81B9
:1029D000282F30E081E090E0022E02C0880F991F7E
:1029E0000A94E2F784278C933BC0A8E3B0E0E8E3C5
:1029F000F0E08081482F8A81282F30E081E090E04C
:102A0000022E02C0880F991F0A94E2F784278C9344
:102A100027C0A5E3B0E0E5E3F0E08081482F8A819C
:102A2000282F30E081E090E0022E02C0880F991F2D
:102A30000A94E2F784278C9313C0A2E3B0E0E2E3A8
:102A4000F0E08081482F8A81282F30E081E090E0FB
:102A5000022E02C0880F991F0A94E2F784278C93F4
:102A60000F900F900F900F90CF91DF910895DF930B
:102A7000CF9300D000D0CDB7DEB789836A83898138
:102A80008823B1F18981853098F58981282F30E03C
:102A90003C832B838B819C8182309105D9F02B81E3
:102AA0003C812330310534F48B819C818130910548
:102AB00061F01EC02B813C812330310581F08B8178
:102AC0009C818430910581F013C0EAE3F0E08A81B3
:102AD00080830EC0E7E3F0E08A81808309C0E4E3ED
:102AE000F0E08A81808304C0E1E3F0E08A818083A2
:102AF0000F900F900F900F90CF91DF910895DF937B
:102B0000CF9300D000D0CDB7DEB789836A838981A7
:102B10008823B1F18981853098F58981282F30E0AB
:102B20003C832B838B819C8182309105D9F02B8152
:102B30003C812330310534F48B819C8181309105B7
:102B400061F01EC02B813C812330310581F08B81E7
:102B50009C818430910581F013C0EBE3F0E08A8121
:102B600080830EC0E8E3F0E08A81808309C0E5E35A
:102B7000F0E08A81808304C0E2E3F0E08A81808310
:102B80000F900F900F900F90CF91DF910895DF93EA
:102B9000CF9300D00F92CDB7DEB789838981882388
:102BA00009F443C08981853008F03FC08981282F0E
:102BB00030E03B832A838A819B8182309105F1F04A
:102BC0002A813B812330310534F48A819B81813015
:102BD000910561F02AC02A813B8123303105B1F093
:102BE0008A819B8184309105C9F01FC0ABE3B0E0BE
:102BF000EBE3F0E0808180958C9317C0A8E3B0E010
:102C0000E8E3F0E0808180958C930FC0A5E3B0E00D
:102C1000E5E3F0E0808180958C9307C0A2E3B0E00B
:102C2000E2E3F0E0808180958C930F900F900F90FD
:102C3000CF91DF910895DF93CF9300D000D0CDB72F
:102C4000DEB78A838A818823B1F18A81853098F53D
:102C50008A81282F30E03C832B838B819C818230BA
:102C60009105D9F02B813C812330310534F48B81DF
:102C70009C818130910561F01EC02B813C81233005
:102C8000310581F08B819C818430910581F013C0E6
:102C9000E9E3F0E0808189830EC0E6E3F0E0808123
:102CA000898309C0E3E3F0E08081898304C0E0E325
:102CB000F0E08081898389810F900F900F900F90B1
:102CC000CF91DF910895DF93CF9300D00F92CDB7CE
:102CD000DEB789838981282F30E03B832A838A816C
:102CE0009B8182309105C9F02A813B8123303105D7
:102CF00019F18A819B818130910561F5A7E2B0E0ED
:102D0000E7E2F0E080818F778C93A7E2B0E0E7E222
:102D1000F0E080818F7B8C931DC0A7E2B0E0E7E2FA
:102D2000F0E080818F778C93A7E2B0E0E7E2F0E0FB
:102D3000808180648C930EC0A7E2B0E0E7E2F0E00F
:102D4000808180688C93A7E2B0E0E7E2F0E08081C8
:102D500080648C93A7E2B0E0E7E2F0E080818F7DB1
:102D60008C93A6E2B0E0E6E2F0E0808180688C938C
:102D7000A6E2B0E0E6E2F0E0808188608C93A6E213
:102D8000B0E0E6E2F0E0808184608C93A6E2B0E0FF
:102D9000E6E2F0E0808182608C93A6E2B0E0E6E2B9
:102DA000F0E0808181608C93A6E2B0E0E6E2F0E0A2
:102DB00080818F7D8C930F900F900F90CF91DF913A
:102DC0000895DF93CF9300D00F92CDB7DEB78983FC
:102DD0008981282F30E03B832A838A819B8183303D
:102DE000910509F470C02A813B812430310584F4B7
:102DF0008A819B8181309105D1F12A813B812230EA
:102E000031050CF04AC08A819B810097D1F0C8C07F
:102E10002A813B812530310509F481C08A819B815B
:102E2000853091050CF465C02A813B81263031053F
:102E300009F48BC08A819B818730910509F49BC07E
:102E4000AFC0A7E2B0E0E7E2F0E080818B7F8C9337
:102E5000A7E2B0E0E7E2F0E080818D7F8C93A7E20B
:102E6000B0E0E7E2F0E080818E7F8C9399C0A7E22A
:102E7000B0E0E7E2F0E080818B7F8C93A7E2B0E0E6
:102E8000E7E2F0E080818D7F8C93A7E2B0E0E7E29B
:102E9000F0E0808181608C9383C0A7E2B0E0E7E23C
:102EA000F0E080818B7F8C93A7E2B0E0E7E2F0E076
:102EB000808182608C93A7E2B0E0E7E2F0E080815D
:102EC0008E7F8C936DC0A7E2B0E0E7E2F0E08081F6
:102ED0008B7F8C93A7E2B0E0E7E2F0E08081826034
:102EE0008C93A7E2B0E0E7E2F0E0808181608C9310
:102EF00057C0A7E2B0E0E7E2F0E0808184608C9305
:102F0000A7E2B0E0E7E2F0E080818D7F8C93A7E25A
:102F1000B0E0E7E2F0E080818E7F8C9341C0A7E2D1
:102F2000B0E0E7E2F0E0808184608C93A7E2B0E05B
:102F3000E7E2F0E080818D7F8C93A7E2B0E0E7E2EA
:102F4000F0E0808181608C932BC0A7E2B0E0E7E2E3
:102F5000F0E0808184608C93A7E2B0E0E7E2F0E0EB
:102F6000808182608C93A7E2B0E0E7E2F0E08081AC
:102F70008E7F8C9315C0A7E2B0E0E7E2F0E080819D
:102F800084608C93A7E2B0E0E7E2F0E080818260A9
:102F90008C93A7E2B0E0E7E2F0E0808181608C935F
:102FA000A6E2B0E0E6E2F0E0808180648C930F90CE
:102FB0000F900F90CF91DF910895DF93CF93CDB70E
:102FC000DEB7E6E2F0E08081882F90E080719070BB
:102FD00095958795959587959595879595958795D9
:102FE000009779F3A6E2B0E0E6E2F0E0808180614C
:102FF0008C93E4E2F0E080819181CF91DF9108959C
:10300000DF93CF93CDB7DEB7E4E2F0E0808191812A
:10301000CF91DF910895DF93CF9300D0CDB7DEB786
:103020009A83898389819A819093270380932603C9
:103030000F900F90CF91DF9108951F920F920FB6CE
:103040000F9211242F933F934F935F936F937F932E
:103050008F939F93AF93BF93EF93FF93DF93CF93A0
:10306000CDB7DEB78091260390912703009729F012
:10307000E0912603F09127030995CF91DF91FF910D
:10308000EF91BF91AF919F918F917F916F915F91E0
:103090004F913F912F910F900FBE0F901F90189559
:1030A000DF93CF93CDB7DEB72E970FB6F894DEBF80
:1030B0000FBECDBF88E790E00E94C20880E090E09C
:1030C000A6E1B3E48B879C87AD87BE876B857C8543
:1030D0008D859E8520E030E04AEF54E40E949C02FA
:1030E000DC01CB018F839887A987BA876F817885A8
:1030F00089859A8520E030E040E85FE30E94020580
:1031000088232CF481E090E09E838D833FC06F8103
:10311000788589859A8520E03FEF4FE757E40E9444
:10312000A20418164CF56B857C858D859E8520E064
:1031300030E040E251E40E949C02DC01CB01BC0182
:10314000CD010E94C600DC01CB019E838D830FC0A0
:1031500088EC90E09C838B838B819C810197F1F7B5
:103160009C838B838D819E8101979E838D838D812E
:103170009E81009769F714C06F81788589859A854B
:103180000E94C600DC01CB019E838D838D819E81D0
:103190009A83898389819A810197F1F79A83898338
:1031A0000E940E1180ED0E942C118BE60E944D11A1
:1031B00080E00E944D110E946A1188E990E00E940F
:1031C000C2082E960FB6F894DEBF0FBECDBFCF91CA
:1031D000DF9108950F931F93DF93CF93CDB7DEB7A1
:1031E0000E940E1180ED0E942C118BE30E944D1164
:1031F0000E940E1181ED0E942C110E94BE11882F99
:1032000090E0182F00270E94BE11882F90E0802B9D
:10321000912BAA2797FDA095BA2FBC01CD010E9442
:103220003205DC01CB0180933C0390933D03A093D6
:103230003E03B0933F030E94BE11882F90E0182FE9
:1032400000270E94BE11882F90E0802B912BAA2787
:1032500097FDA095BA2FBC01CD010E943205DC017B
:10326000CB018093340390933503A0933603B0933E
:1032700037030E94BE11882F90E0182F00270E946C
:10328000BE11882F90E0802B912BAA2797FDA09547
:10329000BA2FBC01CD010E943205DC01CB01809325
:1032A000280390932903A0932A03B0932B030E9431
:1032B000BE11882F90E0182F00270E94BE11882F82
:1032C00090E0802B912BAA2797FDA095BA2FBC01E7
:1032D000CD010E943205DC01CB0180933003909335
:1032E0003103A0933203B09333030E94BE11882FA1
:1032F00090E0182F00270E94BE11882F90E0802BAD
:10330000912BAA2797FDA095BA2FBC01CD010E9451
:103310003205DC01CB0180932C0390932D03A09305
:103320002E03B0932F030E94BE11882F90E0182F18
:1033300000270E94BE11882F90E0802B912BAA2796
:1033400097FDA095BA2FBC01CD010E943205DC018A
:10335000CB018093400390934103A0934203B09329
:1033600043030E94BE11882F90E0182F00270E946F
:10337000DB11882F90E0802B912BAA2797FDA09539
:10338000BA2FBC01CD010E943205DC01CB01809334
:10339000380390933903A0933A03B0933B030E9400
:1033A0006A11CF91DF911F910F910895DF93CF9311
:1033B00000D000D000D0CDB7DEB79A8389837C835C
:1033C0006B835E834D830E94EA1880913C03909149
:1033D0003D03A0913E03B0913F03BC01CD0120E02D
:1033E00030E040E856E40E949603DC01CB01E9811D
:1033F000FA8180839183A283B38380913403909177
:103400003503A0913603B0913703BC01CD0120E014
:1034100030E040E856E40E949603DC01CB01EB81EA
:10342000FC8180839183A283B38380912803909150
:103430002903A0912A03B0912B03BC01CD0120E008
:1034400030E040E856E40E949603DC01CB01ED81B8
:10345000FE8180839183A283B38326960FB6F8946E
:10346000DEBF0FBECDBFCF91DF910895DF93CF9325
:1034700000D000D000D0CDB7DEB79A8389837C839B
:103480006B835E834D830E94EA1880912C03909198
:103490002D03A0912E03B0912F03BC01CD0120E09C
:1034A00030E043E053E40E949603DC01CB01E98164
:1034B000FA8180839183A283B383809140039091AA
:1034C0004103A0914203B0914303BC01CD0120E030
:1034D00030E043E053E40E949603DC01CB01EB8132
:1034E000FC8180839183A283B38380913803909180
:1034F0003903A0913A03B0913B03BC01CD0120E018
:1035000030E043E053E40E949603DC01CB01ED81FF
:10351000FE8180839183A283B38326960FB6F894AD
:10352000DEBF0FBECDBFCF91DF910895DF93CF9364
:1035300000D0CDB7DEB79A8389830E94EA188091C4
:10354000300390913103A0913203B0913303BC0159
:10355000CD0120E030E04AEA53E40E949603DC010A
:10356000CB01BC01CD0128EB3EE142E152E40E94D7
:103570006F02DC01CB01E981FA8180839183A28310
:10358000B3830F900F90CF91DF910895DF93CF9386
:10359000CDB7DEB72E970FB6F894DEBF0FBECDBF06
:1035A0000E940E118EEA0E942C1189E00E944D119A
:1035B00080E40E944D110E946A1180E090E0A8EC26
:1035C000B2E48B879C87AD87BE876B857C858D85B4
:1035D0009E8520E030E04AEF54E40E949C02DC012A
:1035E000CB018F839887A987BA876F817885898572
:1035F0009A8520E030E040E85FE30E9402058823DE
:103600002CF481E090E09E838D833FC06F817885AC
:1036100089859A8520E03FEF4FE757E40E94A20496
:1036200018164CF56B857C858D859E8520E030E0F5
:1036300040E251E40E949C02DC01CB01BC01CD01BF
:103640000E94C600DC01CB019E838D830FC088ECF5
:1036500090E09C838B838B819C810197F1F79C8305
:103660008B838D819E8101979E838D838D819E8129
:10367000009769F714C06F81788589859A850E94C3
:10368000C600DC01CB019E838D838D819E819A8350
:10369000898389819A810197F1F79A8389830E94AE
:1036A0000E118EEA0E942C1189E00E944D1182E0D9
:1036B0000E944D110E946A110E940E118EEA0E9412
:1036C0002C118CE00E944D1180E10E944D110E944E
:1036D0006A110E940E118EEA0E942C118DE00E9448
:1036E0004D118FE10E944D110E946A112E960FB666
:1036F000F894DEBF0FBECDBFCF91DF910895DF9369
:10370000CF93CDB7DEB727970FB6F894DEBF0FBEC5
:10371000CDBF1C821D821E821F820E940E118EEA66
:103720000E942C1187E00E944D110E940E118FEA19
:103730000E942C110E94BE118B830E94BE118A83AD
:103740000E94DB1189830E946A118B81882F90E08F
:10375000A0E0B0E0AC01332722278A81882F90E0D7
:10376000A0E0B0E0BA2FA92F982F8827282B392B5B
:103770004A2B5B2B8981882F90E0A0E0B0E0822B60
:10378000932BA42BB52B8C839D83AE83BF838C811D
:103790009D81AE81BF81A370B0708C839D83AE8309
:1037A000BF838C819D81AE81BF81BC01CD012796F5
:1037B0000FB6F894DEBF0FBECDBFCF91DF91089555
:1037C000EF92FF920F931F93DF93CF93CDB7DEB7A6
:1037D0002A970FB6F894DEBF0FBECDBF6D837E83F0
:1037E0008F83988780910B0390910C03A0910D0318
:1037F000B0910E03BC01CD0120E030E040E050E08C
:103800000E944204882311F56D817E818F81988505
:103810000E94E405DC01CB0180930B0390930C0321
:10382000A0930D03B0930E036D817E818F819885E7
:103830000E94E405DC01CB01809307039093080309
:10384000A0930903B0930A031A86B3C06D817E81E9
:103850008F8198850E94E405DC01CB01BC01CD017C
:103860002DEC3CEC4CE45EE30E949C02DC01CB01BD
:103870007C018D0180910B0390910C03A0910D03AD
:10388000B0910E03BC01CD012DEC3CEC4CE45FE3A8
:103890000E949C02DC01CB019C01AD01C801B70173
:1038A0000E946F02DC01CB0180930B0390930C0309
:1038B000A0930D03B0930E0380910703909108032A
:1038C000A0910903B0910A03BC01CD0128E431EEB7
:1038D0004AE75FE30E949C02DC01CB017C018D0181
:1038E00080910B0390910C03A0910D03B0910E03F6
:1038F000BC01CD012AE037ED43EA5CE30E949C0263
:10390000DC01CB019C01AD01C801B7010E946F022F
:10391000DC01CB018093070390930803A093090374
:10392000B0930A0380910B0390910C03A0910D03B7
:10393000B0910E03209107033091080340910903D1
:1039400050910A03BC01CD010E943E02DC01CB0173
:1039500089839A83AB83BC83198669817A818B8141
:103960009C8120E030E040E451E40E94A20418165B
:1039700014F481E0898781E099858927882351F4AF
:1039800080910603882331F481E08093060381E06F
:103990008A870FC069817A818B819C8120E030E029
:1039A00040E050EC0E940205882314F410920603B4
:1039B0001A868A852A960FB6F894DEBF0FBECDBF51
:1039C000CF91DF911F910F91FF90EF900895AF92EB
:1039D000BF92CF92DF92EF92FF920F931F93DF93EC
:1039E000CF93CDB7DEB728970FB6F894DEBF0FBEE2
:1039F000CDBF6D837E838F83988783E393E3A3E7B3
:103A0000BFE389839A83AB83BC8380910F0390913A
:103A10001003A0911103B0911203BC01CD012981C3
:103A20003A814B815C810E949C02DC01CB015C01EC
:103A30006D0160E070E080E89FE329813A814B816D
:103A40005C810E943E02DC01CB017C018D016D8115
:103A50007E818F8198850E94E4059B01AC01C8019D
:103A6000B7010E949C02DC01CB019C01AD01C601A3
:103A7000B5010E946F02DC01CB0180930F0390938C
:103A80001003A0931103B09312036D817E818F8187
:103A900098850E94E405DC01CB0120910F03309151
:103AA00010034091110350911203BC01CD010E94FB
:103AB0003E02DC01CB01BC01CD0128960FB6F89483
:103AC000DEBF0FBECDBFCF91DF911F910F91FF9051
:103AD000EF90DF90CF90BF90AF900895DF93CF939A
:103AE000CDB7DEB72A970FB6F894DEBF0FBECDBFB5
:103AF0008E834F83588769877A8780E060E00E94D1
:103B0000A62787EA90E00E946D268E81882F90E09C
:103B10009E012F5F3F4FB9014AE050E00E94912B78
:103B2000CE0101960E946D268DEA90E00E946D26DE
:103B300080E061E00E94A62781EB90E00E94C2082D
:103B40008F819885A985BA85BC01CD010E948A091B
:103B50008AEB90E00E94C2088F819885A985BA857A
:103B6000803523EC920720E0A20720E0B20748F45A
:103B700085EC90E00E946D2686ED90E00E94C208E0
:103B80002CC08E81882349F48BEE90E00E946D2634
:103B90008CEF90E00E94C20820C08E818C3348F4E4
:103BA00081E191E00E946D2682E291E00E94C208CC
:103BB00014C08E818A3648F483E391E00E946D261A
:103BC00084E491E00E94C20808C088E591E00E9468
:103BD0006D2689E691E00E94C2088BE791E00E9481
:103BE000C2082A960FB6F894DEBF0FBECDBFCF91A4
:103BF000DF910895DF93CF9300D0CDB7DEB78983EF
:103C00006A8389816A8141E00E94F8110F900F90C8
:103C1000CF91DF910895DF93CF9300D0CDB7DEB77A
:103C200089836A8389816A8141E00E94F7120F903B
:103C30000F90CF91DF910895DF93CF9300D0CDB750
:103C4000DEB789836A8389816A8140E00E94F71226
:103C50000F900F90CF91DF910895DF93CF9300D015
:103C6000CDB7DEB789836A8389816A810E94AD14EA
:103C70000F900F90CF91DF910895DF93CF93CDB741
:103C8000DEB7EB970FB6F894DEBF0FBECDBF8BAF9C
:103C90008BAD8F708AAF8BAD82958F7089AF89ADF8
:103CA000982F917081E063E0492F0E94F71289AD4F
:103CB000882F90E08270907095958795982F81E07D
:103CC00064E0492F0E94F71289AD882F90E084703C
:103CD00090709595879595958795982F81E065E0EB
:103CE000492F0E94F71289AD882F90E0887090705C
:103CF000959587959595879595958795982F81E0CA
:103D000066E0492F0E94F71281E067E040E00E94E0
:103D1000F71281E061E041E00E94F71281E062E089
:103D200041E00E94F71280E090E0A0E8BFE38DAB95
:103D30009EABAFABB8AF6DA97EA98FA998AD20E0BF
:103D400030E04AEF54E40E949C02DC01CB0189ABD5
:103D50009AABABABBCAB69A97AA98BA99CA920E0B3
:103D600030E040E85FE30E94020588232CF481E004
:103D700090E098AB8FA73FC069A97AA98BA99CA9AD
:103D800020E03FEF4FE757E40E94A20418164CF5DD
:103D90006DA97EA98FA998AD20E030E040E251E402
:103DA0000E949C02DC01CB01BC01CD010E94C60037
:103DB000DC01CB0198AB8FA70FC088EC90E09EA7E9
:103DC0008DA78DA59EA50197F1F79EA78DA78FA51D
:103DD00098A9019798AB8FA78FA598A9009769F725
:103DE00014C069A97AA98BA99CA90E94C600DC010C
:103DF000CB0198AB8FA78FA598A99CA78BA78BA564
:103E00009CA50197F1F79CA78BA781E062E040E0B9
:103E10000E94F71280E090E0A0E8BFE38FA398A78C
:103E2000A9A7BAA76FA178A589A59AA520E030E037
:103E30004AEF54E40E949C02DC01CB018BA39CA3BB
:103E4000ADA3BEA36BA17CA18DA19EA120E030E01B
:103E500040E85FE30E94020588232CF481E090E0B3
:103E60009AA389A33FC06BA17CA18DA19EA120E054
:103E70003FEF4FE757E40E94A20418164CF56FA1DC
:103E800078A589A59AA520E030E040E251E40E949F
:103E90009C02DC01CB01BC01CD010E94C600DC010B
:103EA000CB019AA389A30FC088EC90E098A38F8FD1
:103EB0008F8D98A10197F1F798A38F8F89A19AA16F
:103EC00001979AA389A389A19AA1009769F714C0C1
:103ED0006BA17CA18DA19EA10E94C600DC01CB013B
:103EE0009AA389A389A19AA19E8F8D8F8D8D9E8D76
:103EF0000197F1F79E8F8D8F8AAD982F917081E099
:103F000063E0492F0E94F7128AAD882F90E08270FB
:103F1000907095958795982F81E064E0492F0E94D5
:103F2000F7128AAD882F90E08470907095958795F0
:103F300095958795982F81E065E0492F0E94F712AB
:103F40008AAD882F90E088709070959587959595AB
:103F5000879595958795982F81E066E0492F0E9477
:103F6000F71281E067E040E00E94F71281E061E033
:103F700041E00E94F71281E062E041E00E94F71206
:103F800080E090E0A0E8BFE3898F9A8FAB8FBC8F71
:103F9000698D7A8D8B8D9C8D20E030E04AEF54E462
:103FA0000E949C02DC01CB018D8B9E8BAF8BB88F66
:103FB0006D897E898F89988D20E030E040E85FE34D
:103FC0000E94020588232CF481E090E09C8B8B8B6F
:103FD0003FC06D897E898F89988D20E03FEF4FE744
:103FE00057E40E94A20418164CF5698D7A8D8B8DCA
:103FF0009C8D20E030E040E251E40E949C02DC0114
:10400000CB01BC01CD010E94C600DC01CB019C8B21
:104010008B8B0FC088EC90E09A8B898B89899A8969
:104020000197F1F79A8B898B8B899C8901979C8BDF
:104030008B8B8B899C89009769F714C06D897E8969
:104040008F89988D0E94C600DC01CB019C8B8B8BE5
:104050008B899C89988B8F878F8598890197F1F739
:10406000988B8F8781E062E040E00E94F71280E049
:1040700090E0A0E8BFE38B879C87AD87BE876B8508
:104080007C858D859E8520E030E04AEF54E40E94D7
:104090009C02DC01CB018F839887A987BA876F8147
:1040A000788589859A8520E030E040E85FE30E94CA
:1040B000020588232CF481E090E09E838D833FC02D
:1040C0006F81788589859A8520E03FEF4FE757E437
:1040D0000E94A20418164CF56B857C858D859E8503
:1040E00020E030E040E251E40E949C02DC01CB0180
:1040F000BC01CD010E94C600DC01CB019E838D83F3
:104100000FC088EC90E09C838B838B819C8101970E
:10411000F1F79C838B838D819E8101979E838D8394
:104120008D819E81009769F714C06F81788589859C
:104130009A850E94C600DC01CB019E838D838D8110
:104140009E819A83898389819A810197F1F79A8365
:104150008983EB960FB6F894DEBF0FBECDBFCF912B
:10416000DF910895DF93CF93CDB7DEB7EB970FB60E
:10417000F894DEBF0FBECDBF8BAF8BAD8F708AAF13
:104180008BAD82958F7089AF89AD982F917081E04A
:1041900063E0492F0E94F71289AD882F90E082706A
:1041A000907095958795982F81E064E0492F0E9443
:1041B000F71289AD882F90E084709070959587955F
:1041C00095958795982F81E065E0492F0E94F71219
:1041D00089AD882F90E0887090709595879595951A
:1041E000879595958795982F81E066E0492F0E94E5
:1041F000F71281E061E040E00E94F71281E062E0A6
:1042000041E00E94F71280E090E0A0E8BFE38DABB0
:104210009EABAFABB8AF6DA97EA98FA998AD20E0DA
:1042200030E04AEF54E40E949C02DC01CB0189ABF0
:104230009AABABABBCAB69A97AA98BA99CA920E0CE
:1042400030E040E85FE30E94020588232CF481E01F
:1042500090E098AB8FA73FC069A97AA98BA99CA9C8
:1042600020E03FEF4FE757E40E94A20418164CF5F8
:104270006DA97EA98FA998AD20E030E040E251E41D
:104280000E949C02DC01CB01BC01CD010E94C60052
:10429000DC01CB0198AB8FA70FC088EC90E09EA704
:1042A0008DA78DA59EA50197F1F79EA78DA78FA538
:1042B00098A9019798AB8FA78FA598A9009769F740
:1042C00014C069A97AA98BA99CA90E94C600DC0127
:1042D000CB0198AB8FA78FA598A99CA78BA78BA57F
:1042E0009CA50197F1F79CA78BA781E062E040E0D5
:1042F0000E94F71280E090E0A0E8BFE38FA398A7A8
:10430000A9A7BAA76FA178A589A59AA520E030E052
:104310004AEF54E40E949C02DC01CB018BA39CA3D6
:10432000ADA3BEA36BA17CA18DA19EA120E030E036
:1043300040E85FE30E94020588232CF481E090E0CE
:104340009AA389A33FC06BA17CA18DA19EA120E06F
:104350003FEF4FE757E40E94A20418164CF56FA1F7
:1043600078A589A59AA520E030E040E251E40E94BA
:104370009C02DC01CB01BC01CD010E94C600DC0126
:10438000CB019AA389A30FC088EC90E098A38F8FEC
:104390008F8D98A10197F1F798A38F8F89A19AA18A
:1043A00001979AA389A389A19AA1009769F714C0DC
:1043B0006BA17CA18DA19EA10E94C600DC01CB0156
:1043C0009AA389A389A19AA19E8F8D8F8D8D9E8D91
:1043D0000197F1F79E8F8D8F8AAD982F917081E0B4
:1043E00063E0492F0E94F7128AAD882F90E0827017
:1043F000907095958795982F81E064E0492F0E94F1
:10440000F7128AAD882F90E084709070959587950B
:1044100095958795982F81E065E0492F0E94F712C6
:104420008AAD882F90E088709070959587959595C6
:10443000879595958795982F81E066E0492F0E9492
:10444000F71281E067E040E00E94F71281E061E04E
:1044500040E00E94F71281E062E041E00E94F71222
:1044600080E090E0A0E8BFE3898F9A8FAB8FBC8F8C
:10447000698D7A8D8B8D9C8D20E030E04AEF54E47D
:104480000E949C02DC01CB018D8B9E8BAF8BB88F81
:104490006D897E898F89988D20E030E040E85FE368
:1044A0000E94020588232CF481E090E09C8B8B8B8A
:1044B0003FC06D897E898F89988D20E03FEF4FE75F
:1044C00057E40E94A20418164CF5698D7A8D8B8DE5
:1044D0009C8D20E030E040E251E40E949C02DC012F
:1044E000CB01BC01CD010E94C600DC01CB019C8B3D
:1044F0008B8B0FC088EC90E09A8B898B89899A8985
:104500000197F1F79A8B898B8B899C8901979C8BFA
:104510008B8B8B899C89009769F714C06D897E8984
:104520008F89988D0E94C600DC01CB019C8B8B8B00
:104530008B899C89988B8F878F8598890197F1F754
:10454000988B8F8781E062E040E00E94F71280E064
:1045500090E0A0E8BFE38B879C87AD87BE876B8523
:104560007C858D859E8520E030E04AEF54E40E94F2
:104570009C02DC01CB018F839887A987BA876F8162
:10458000788589859A8520E030E040E85FE30E94E5
:10459000020588232CF481E090E09E838D833FC048
:1045A0006F81788589859A8520E03FEF4FE757E452
:1045B0000E94A20418164CF56B857C858D859E851E
:1045C00020E030E040E251E40E949C02DC01CB019B
:1045D000BC01CD010E94C600DC01CB019E838D830E
:1045E0000FC088EC90E09C838B838B819C8101972A
:1045F000F1F79C838B838D819E8101979E838D83B0
:104600008D819E81009769F714C06F8178858985B7
:104610009A850E94C600DC01CB019E838D838D812B
:104620009E819A83898389819A810197F1F79A8380
:104630008983EB960FB6F894DEBF0FBECDBFCF9146
:10464000DF9108950F931F93DF93CF93CDB7DEB71C
:10465000C455D0400FB6F894DEBF0FBECDBFFE01EB
:10466000EF5AFF4F80E090E0A8E4B2E480839183AA
:10467000A283B3838E01035B1F4FFE01EF5AFF4FEE
:10468000608171818281938120E030E04AEF54E4BF
:104690000E949C02DC01CB01F80180839183A283FC
:1046A000B383FE01E35BFF4F60817181828193815F
:1046B00020E030E040E85FE30E940205882344F4F4
:1046C000FE01E55BFF4F81E090E09183808364C051
:1046D000FE01E35BFF4F608171818281938120E065
:1046E0003FEF4FE757E40E94A20418160CF043C0B6
:1046F000FE01EF5AFF4F608171818281938120E03A
:1047000030E040E251E40E949C02DC01CB018E01CA
:10471000055B1F4FBC01CD010E94C600DC01CB012F
:10472000F801918380831FC0FE01E75BFF4F88EC97
:1047300090E091838083FE01E75BFF4F8081918150
:104740000197F1F7FE01E75BFF4F91838083DE0164
:10475000A55BBF4FFE01E55BFF4F80819181019713
:1047600011969C938E93FE01E55BFF4F80819181B2
:104770000097D1F627C08E01055B1F4FFE01E35B5A
:10478000FF4F60817181828193810E94C600DC01AC
:10479000CB01F80191838083DE01A95BBF4FFE014D
:1047A000E55BFF4F808191818D939C93FE01E95BD6
:1047B000FF4F808191810197F1F7FE01E95BFF4F87
:1047C0009183808381E063E041E00E94F81181E001
:1047D00064E041E00E94F81181E065E041E00E9460
:1047E000F81181E066E041E00E94F81181E067E0A5
:1047F00041E00E94F81181E061E041E00E94F8117F
:1048000081E062E041E00E94F81182E00E94B22063
:10481000FE01ED5BFF4F80E090E0A0E8BFE3808306
:104820009183A283B3838E01015C1F4FFE01ED5B78
:10483000FF4F608171818281938120E030E04AEFF7
:1048400054E40E949C02DC01CB01F8018083918337
:10485000A283B383FE01FF9660817181828193817F
:1048600020E030E040E85FE30E94020588232CF45A
:1048700081E090E09EAF8DAF46C0FE01FF96608163
:1048800071818281938120E03FEF4FE757E40E94DE
:10489000A204181664F5FE01ED5BFF4F6081718183
:1048A0008281938120E030E040E251E40E949C024A
:1048B000DC01CB01BC01CD010E94C600DC01CB01B3
:1048C0009EAF8DAF0FC088EC90E09CAF8BAF8BADEF
:1048D0009CAD0197F1F79CAF8BAF8DAD9EAD01976D
:1048E0009EAF8DAF8DAD9EAD009769F716C0FE01EE
:1048F000FF9660817181828193810E94C600DC01F4
:10490000CB019EAF8DAF8DAD9EAD9AAF89AF89AD16
:104910009AAD0197F1F79AAF89AF88E20E94B22071
:1049200080E090E0A0E8BFE38DAB9EABAFABB8AF4B
:104930006DA97EA98FA998AD20E030E04AEF54E43C
:104940000E949C02DC01CB0189AB9AABABABBCAB48
:1049500069A97AA98BA99CA920E030E040E85FE32F
:104960000E94020588232CF481E090E098AB8FA789
:104970003FC069A97AA98BA99CA920E03FEF4FE726
:1049800057E40E94A20418164CF56DA97EA98FA9C0
:1049900098AD20E030E040E251E40E949C02DC014E
:1049A000CB01BC01CD010E94C600DC01CB0198AB5C
:1049B0008FA70FC088EC90E09EA78DA78DA59EA520
:1049C0000197F1F79EA78DA78FA598A9019798AB9E
:1049D0008FA78FA598A9009769F714C069A97AA92C
:1049E0008BA99CA90E94C600DC01CB0198AB8FA7C4
:1049F0008FA598A99CA78BA78BA59CA50197F1F7DC
:104A00009CA78BA78EE00E94B22080E090E0A0E8F7
:104A1000BFE38FA398A7A9A7BAA76FA178A589A577
:104A20009AA520E030E04AEF54E40E949C02DC01A9
:104A3000CB018BA39CA3ADA3BEA36BA17CA18DA135
:104A40009EA120E030E040E85FE30E940205882359
:104A50002CF481E090E09AA389A33FC06BA17CA1D4
:104A60008DA19EA120E03FEF4FE757E40E94A204F2
:104A700018164CF56FA178A589A59AA520E030E01D
:104A800040E251E40E949C02DC01CB01BC01CD015B
:104A90000E94C600DC01CB019AA389A30FC088EC59
:104AA00090E098A38F8F8F8D98A10197F1F798A32D
:104AB0008F8F89A19AA101979AA389A389A19AA10D
:104AC000009769F714C06BA17CA18DA19EA10E94E3
:104AD000C600DC01CB019AA389A389A19AA19E8F6C
:104AE0008D8F8D8D9E8D0197F1F79E8F8D8F81E03B
:104AF0000E94B22080E090E0A0EAB0E4898F9A8F13
:104B0000AB8FBC8F698D7A8D8B8D9C8D20E030E0D2
:104B10004AEF54E40E949C02DC01CB018D8B9E8BFA
:104B2000AF8BB88F6D897E898F89988D20E030E0BA
:104B300040E85FE30E94020588232CF481E090E0C6
:104B40009C8B8B8B3FC06D897E898F89988D20E0EF
:104B50003FEF4FE757E40E94A20418164CF5698D09
:104B60007A8D8B8D9C8D20E030E040E251E40E94F4
:104B70009C02DC01CB01BC01CD010E94C600DC011E
:104B8000CB019C8B8B8B0FC088EC90E09A8B898B30
:104B900089899A890197F1F79A8B898B8B899C89EE
:104BA00001979C8B8B8B8B899C89009769F714C02C
:104BB0006D897E898F89988D0E94C600DC01CB01AA
:104BC0009C8B8B8B8B899C89988B8F878F85988901
:104BD0000197F1F7988B8F8786E00E94B22080E0E2
:104BE00090E0A0E8BFE38B879C87AD87BE876B858D
:104BF0007C858D859E8520E030E04AEF54E40E945C
:104C00009C02DC01CB018F839887A987BA876F81CB
:104C1000788589859A8520E030E040E85FE30E944E
:104C2000020588232CF481E090E09E838D833FC0B1
:104C30006F81788589859A8520E03FEF4FE757E4BB
:104C40000E94A20418164CF56B857C858D859E8587
:104C500020E030E040E251E40E949C02DC01CB0104
:104C6000BC01CD010E94C600DC01CB019E838D8377
:104C70000FC088EC90E09C838B838B819C81019793
:104C8000F1F79C838B838D819E8101979E838D8319
:104C90008D819E81009769F714C06F817885898521
:104CA0009A850E94C600DC01CB019E838D838D8195
:104CB0009E819A83898389819A810197F1F79A83EA
:104CC0008983CC5ADF4F0FB6F894DEBF0FBECDBF3D
:104CD000CF91DF911F910F910895DF93CF9300D073
:104CE0000F92CDB7DEB79B838A8319820EC089816C
:104CF000282F30E08A819B81FC01E20FF31F808125
:104D00000E943D1E89818F5F89838981282F30E031
:104D10008A819B81FC01E20FF31F8081882339F790
:104D20000F900F900F90CF91DF910895DF93CF9365
:104D3000CDB7DEB72E970FB6F894DEBF0FBECDBF4E
:104D400081E00E94B22080E090E0A0EAB0E48B878E
:104D50009C87AD87BE876B857C858D859E8520E091
:104D600030E04AEF54E40E949C02DC01CB018F83C7
:104D70009887A987BA876F81788589859A8520E089
:104D800030E040E85FE30E94020588232CF481E0D4
:104D900090E09E838D833FC06F81788589859A8559
:104DA00020E03FEF4FE757E40E94A20418164CF5AD
:104DB0006B857C858D859E8520E030E040E251E466
:104DC0000E949C02DC01CB01BC01CD010E94C60007
:104DD000DC01CB019E838D830FC088EC90E09C8327
:104DE0008B838B819C810197F1F79C838B838D81D1
:104DF0009E8101979E838D838D819E81009769F7A7
:104E000014C06F81788589859A850E94C600DC016F
:104E1000CB019E838D838D819E819A838983898135
:104E20009A810197F1F79A8389832E960FB6F894A9
:104E3000DEBF0FBECDBFCF91DF910895DF93CF933B
:104E4000CDB7DEB72E970FB6F894DEBF0FBECDBF3D
:104E50008CE10E94B22080E090E0A0E8BFE38B8765
:104E60009C87AD87BE876B857C858D859E8520E080
:104E700030E04AEF54E40E949C02DC01CB018F83B6
:104E80009887A987BA876F81788589859A8520E078
:104E900030E040E85FE30E94020588232CF481E0C3
:104EA00090E09E838D833FC06F81788589859A8548
:104EB00020E03FEF4FE757E40E94A20418164CF59C
:104EC0006B857C858D859E8520E030E040E251E455
:104ED0000E949C02DC01CB01BC01CD010E94C600F6
:104EE000DC01CB019E838D830FC088EC90E09C8316
:104EF0008B838B819C810197F1F79C838B838D81C0
:104F00009E8101979E838D838D819E81009769F795
:104F100014C06F81788589859A850E94C600DC015E
:104F2000CB019E838D838D819E819A838983898124
:104F30009A810197F1F79A8389832E960FB6F89498
:104F4000DEBF0FBECDBFCF91DF910895DF93CF932A
:104F500000D00F92CDB7DEB78A836B838A8182300F
:104F600080F48B81803168F48A81882319F48B81E5
:104F7000898303C08B81805C8983898180580E94EA
:104F8000B2200F900F900F90CF91DF910895DF9393
:104F9000CF9300D000D000D0CDB7DEB79B838A83FB
:104FA0006C834D832E838C81882F90E00896880F28
:104FB000991F880F991F880F991F0E94B22019828C
:104FC0000EC08981282F30E08A819B81FC01E20F8D
:104FD000F31F80810E943D1E89818F5F89838981B3
:104FE000883078F38D816E810E94A6278C810E9483
:104FF0003D1E26960FB6F894DEBF0FBECDBFCF91F3
:10500000DF910895DF93CF930F92CDB7DEB78983F9
:1050100081E061E041E00E94F71281E069810E9435
:105020007F150F90CF91DF910895DF93CF930F926B
:10503000CDB7DEB7898389810E9402280F90CF9176
:10504000DF910895DF93CF9300D000D0CDB7DEB7C6
:105050009C838B838B819C8124E630E0B9010E9484
:10506000032BCB019A8389838981805D0E943D1E39
:105070008B819C8124E630E0B9010E94032B9C8344
:105080008B838B819C812AE030E0B9010E94032B45
:10509000CB019A8389838981805D0E943D1E8B812B
:1050A0009C812AE030E0B9010E94032B9C838B8312
:1050B0008981805D0E943D1E0F900F900F900F9090
:1050C000CF91DF910895DF93CF93CDB7DEB7809175
:1050D000180390911903A0911A03B0911B03019634
:1050E000A11DB11D8093180390931903A0931A0377
:1050F000B0931B03CF91DF910895DF93CF93CDB78A
:10510000DEB78091180390911903A0911A03B09112
:105110001B03BC01CD01CF91DF9108951F920F9227
:105120000FB60F9211248F939F93AF93BF93DF938A
:10513000CF93CDB7DEB78091180390911903A0915A
:105140001A03B0911B030196A11DB11D8093180392
:1051500090931903A0931A03B0931B03CF91DF918F
:10516000BF91AF919F918F910F900FBE0F901F90A5
:105170001895FF920F931F93DF93CF93CDB7DEB7B0
:10518000A1970FB6F894DEBF0FBECDBF0E942223B9
:105190000E94962660E875E280E090E00E94520846
:1051A00060EA76E881E090E00E94D4100E94C61A7E
:1051B00060E470E080E090E045E00E94CE09EAE41F
:1051C000F0E089EF90E091838083A9E5B0E0E9E524
:1051D000F0E0808180618C93AFE5B0E0EFE5F0E036
:1051E000808180688C9319A218A21C8E1D8E1E8E41
:1051F0001F8E82E991E00E94C2080E947F1BDC01A1
:10520000CB018C8F9D8FAE8FBF8F0E947D28DC01DC
:10521000CB01888F998FAA8FBB8F20911403309177
:1052200015034091160350911703888D998DAA8D0F
:10523000BB8D821B930BA40BB50B893B2BE0920714
:1052400020E0A20720E0B20758F18091140390916A
:105250001503A0911603B09117030097A105B1059E
:10526000F9F0109252031092140310921503109249
:10527000160310921703109213031F8A0AC08F8916
:10528000882F90E0FC01E85BFC4F10828F898F5FD4
:105290008F8B8F898A3098F388EB91E00E94C20847
:1052A0008C8D9D8DAE8DBF8DBC01CD010E94E01B0C
:1052B000882309F4F4C08091140390911503A09100
:1052C0001603B09117030097A105B10569F4888D05
:1052D000998DAA8DBB8D8093140390931503A09391
:1052E0001603B0931703DBC020911403309115030C
:1052F0004091160350911703888D998DAA8DBB8D0F
:10530000821B930BA40BB50B8B8B9C8BAD8BBE8B35
:10531000888D998DAA8DBB8D80931403909315036E
:10532000A0931603B093170389ED91E00E94C20881
:105330008B899C89AD89BE89BC01CD010E948A09F7
:1053400081EE91E00E94C2088B899C89AD89BE895B
:10535000813921E0920720E0A20720E0B20708F49B
:105360009EC08B899C89AD89BE898C3D25E09207C2
:1053700020E0A20720E0B20708F091C06B897C8989
:105380008D899E890E94E4059B01AC0160E070E676
:105390008AE697E40E949603DC01CB0180934403E4
:1053A00090934503A0934603B09347038091520323
:1053B0008823E9F4188A18C08889082F10E08091A2
:1053C000440390914503A0914603B0914703BC016B
:1053D000CD010E94C600DC01CB01F801E85BFC4F67
:1053E000808388898F5F888B88898A3028F3F09042
:1053F00013030F2D10E08091440390914503A09179
:105400004603B0914703BC01CD010E94C600DC01F8
:10541000CB01F801E85BFC4F80838F2D8F5F809379
:105420001303809113039AE0692F0E94F72A892FB2
:10543000809313031A8A198A1F8612C08F85882FBA
:1054400090E0FC01E85BFC4F8081282F30E08989E7
:105450009A89820F931F9A8B898B8F858F5F8F8795
:105460008F858A3058F389899A892AE030E0B9011A
:105470000E94032BCB018093520387EE91E00E94A0
:10548000C20880915203882F90E0A0E0B0E0BC01F8
:10549000CD010E948A0986EF91E00E94C20888A18E
:1054A00099A1019699A388A388A199A18931910511
:1054B00060F0809152032C8D3D8D4E8D5F8DBA0131
:1054C000A9010E946E1D19A218A280E090E0A0E23E
:1054D000B1E48B879C87AD87BE876B857C858D8586
:1054E0009E8520E030E04AE755E40E949C02DC0102
:1054F000CB018F839887A987BA876F817885898543
:105500009A8520E030E040E85FE30E9402058823AE
:105510002CF481E090E09E838D833FC06F8178857D
:1055200089859A8520E03FEF4FE757E40E94A20467
:1055300018164CF56B857C858D859E8520E030E0C6
:1055400040E251E40E949C02DC01CB01BC01CD0190
:105550000E94C600DC01CB019E838D830FC080E9D1
:1055600091E09C838B838B819C810197F1F79C83D5
:105570008B838D819E8101979E838D838D819E81FA
:10558000009769F73ACE6F81788589859A850E9460
:10559000C600DC01CB019E838D838D819E819A8321
:1055A000898389819A810197F1F79A83898325CE2E
:1055B000629FD001739FF001829FE00DF11D649FF7
:1055C000E00DF11D929FF00D839FF00D749FF00D83
:1055D000659FF00D9927729FB00DE11DF91F639F24
:1055E000B00DE11DF91FBD01CF0111240895991BD4
:1055F00079E004C0991F961708F0961B881F7A95CA
:10560000C9F780950895AA1BBB1B51E107C0AA1FCB
:10561000BB1FA617B70710F0A61BB70B881F991F53
:105620005A95A9F780959095BC01CD010895A1E206
:105630001A2EAA1BBB1BFD010DC0AA1FBB1FEE1F0C
:10564000FF1FA217B307E407F50720F0A21BB30B57
:10565000E40BF50B661F771F881F991F1A9469F7D3
:1056600060957095809590959B01AC01BD01CF012F
:1056700008952F923F924F925F926F927F928F92F6
:105680009F92AF92BF92CF92DF92EF92FF920F93D1
:105690001F93CF93DF93CDB7DEB7CA1BDB0B0FB6DB
:1056A000F894DEBF0FBECDBF09942A883988488898
:1056B0005F846E847D848C849B84AA84B984C8842E
:1056C000DF80EE80FD800C811B81AA81B981CE0F25
:1056D000D11D0FB6F894DEBF0FBECDBFED0108950A
:1056E000EF92FF920F931F93F22FF02E47FD02C00F
:1056F000E4E001C0E4E1242F332727FD309537FF94
:1057000003C0309521953F4F4F2D512F0F2FEE2E77
:105710000E94B32D8F2D912F1F910F91FF90EF902D
:105720000895FB019F01E8944230C4F04532B4F47F
:105730004A3029F497FB1EF4909581959F4F642F72
:1057400077270E94032B805D8A330CF0895D81935B
:10575000CB010097A1F716F45DE251931082C901C5
:105760000C940330AEE0B0E0E8EBFBE20C94472B86
:105770000D891E8986E08C831A8309838FEF9FE74A
:105780009E838D839E01275E3F4FCE0101966F89D8
:10579000788DA9010E94D62B2F813885020F131F07
:1057A000F80110822E96E4E00C94632BABE0B0E09D
:1057B000ECEDFBE20C94392B3C012B015A01FC016E
:1057C00017821682838181FD03C06FEF7FEFC6C110
:1057D0009AE0892E1E010894211C311CF3012381BB
:1057E000F20123FD859123FF81912F01882309F484
:1057F000B2C1853239F423FD859123FF81912F01B8
:10580000853229F490E0B3010E941330E7CF982F3E
:10581000FF24EE249924FFE1FF15D0F09B3269F0BC
:105820009C3228F4903259F0933291F40EC09D329C
:1058300049F0903369F441E024C052E0F52A84E055
:10584000F82A28C098E0F92A25C0E0E1FE2A22C003
:10585000F7FC29C0892F80538A3070F4F6FE05C00A
:10586000989C902C1124980E15C0E89CE02C1124D3
:10587000E80EF0E2FF2A0EC09E3229F4F6FC6BC15E
:1058800040E4F42A07C09C3619F450E8F52A02C017
:10589000983649F4F20123FD959123FF91912F0150
:1058A000992309F0B8CF892F8554833018F080529E
:1058B000833038F444E050E0A40EB51E5FE3598312
:1058C0000FC0933631F0933779F0933509F056C015
:1058D00020C0F5018081898342E050E0A40EB51E0E
:1058E000610101E010E012C0F501C080D180F6FC3A
:1058F00003C06FEF7FEF02C0692D70E042E050E01F
:10590000A40EB51EC6010E94F82F8C015FE7F52298
:1059100014C0F501C080D180F6FC03C06FEF7FEFAB
:1059200002C0692D70E042E050E0A40EB51EC60131
:105930000E94ED2F8C0150E8F52AF3FE07C01AC033
:1059400080E290E0B3010E941330EA948E2D90E043
:1059500008171907A8F30EC0F601F7FC8591F7FEAA
:1059600081916F0190E0B3010E941330E110EA943D
:10597000015010400115110579F7EAC0943611F075
:10598000993669F5F7FE08C0F50120813181428121
:10599000538184E090E00AC0F501808191819C01EF
:1059A000442737FD4095542F82E090E0A80EB91EA1
:1059B0009FE6F92257FF09C05095409530952195F3
:1059C0003F4F4F4F5F4FE0E8FE2ACA01B901A101E6
:1059D0002AE030E00E943F30D82ED21840C09537E0
:1059E00029F41F2D1F7E2AE030E01DC01F2D197FD6
:1059F0009F3661F0903720F4983509F0ACC00FC0A5
:105A0000903739F0983709F0A6C004C028E030E09C
:105A10000AC0106114FD146020E130E004C014FDE0
:105A2000166020E132E017FF08C0F5016081718146
:105A30008281938144E050E008C0F501808191812A
:105A4000BC0180E090E042E050E0A40EB51EA10150
:105A50000E943F30D82ED2188FE7F82EF122F6FEA2
:105A60000BC05EEFF522D91438F4F4FE07C0F2FC47
:105A700005C08FEEF82202C01D2D01C0192DF4FEC5
:105A80000DC0FE01ED0DF11D8081803319F499EEFA
:105A9000F92208C01F5FF2FE05C003C08F2D867873
:105AA00009F01F5F0F2DF3FC14C0F0FE0FC01E1590
:105AB00010F09D2C0BC09D2C9E0C911A1E2D06C023
:105AC00080E290E0B3010E9413301F5F1E15C0F307
:105AD00004C01E1510F4E11A01C0EE2404FF0FC02B
