:100000000C94A7000C9446100C94C4000C94C400EB
:100010000C94C4000C94C4000C94C4000C945010B4
:100020000C94C4000C94C4000C94C4000C94C40040
:100030000C94C4000C94C4000C94C4000C94C40030
:100040000C94070E0C94C4000C94C4000C94C400CF
:100050000C94C40000407A10F35A00A0724E1809A4
:100060000010A5D4E80000E87648170000E40B541F
:10007000020000CA9A3B000000E1F50500008096EE
:100080009800000040420F000000A0860100000020
:10009000102700000000E8030000000064000000DA
:1000A00000000A00000000000100000000002C76A3
:1000B000D888DC674F0823DFC1DFAE59E1B1B796BE
:1000C000E5E3E453C63AE651997696E8E6C284261B
:1000D000EB898C9B62ED407C6FFCEFBC9C9F40F2F7
:1000E000BAA56FA5F490055A2AF75C936B6CF96773
:1000F0006DC11BFCE0E40D47FEF520E6B500D0ED38
:10010000902E0300943577050080841E080000209F
:100110004E0A000000C80C333333330F986E12833D
:100120001141EF8D2114893BE65516CFFEE6DB1811
:10013000D1844B381BF77C1D901DA4BBE4242032D6
:1001400084725E228100C9F124ECA1E53D271124CF
:100150001FBECFE5D8E0DEBFCDBF13E0A0E6B0E024
:10016000EAE7FAE302C005900D92A236B107D9F78B
:1001700013E0A2E6B3E001C01D92AD39B107E1F78B
:100180000E94CD140C943B1D0C940000EF92FF9242
:100190000F931F937B018C0120E030E040E05FE48F
:1001A0000E94D20488238CF0C801B70120E030E01F
:1001B00040E05FE40E943E020E9490059B01AC017A
:1001C000205030404040504806C0C801B7010E944E
:1001D00090059B01AC01B901CA011F910F91FF90DD
:1001E000EF900895A0E0B0E0E8EFF0E00C94411744
:1001F000DC012B01FA019C91923008F439C1EB012A
:100200008881823008F433C1943069F4843009F075
:100210002FC111969C9111978981981709F428C1D3
:10022000A9E5B2E025C1843009F421C18230A9F4E6
:10023000923009F01DC19A01AD0188E0EA010990F0
:10024000AE01E90109929E018150C1F7E201898165
:1002500011969C918923818308C1923009F407C1CA
:1002600012962D903C901397EB018A819B811496F6
:10027000AD90BD90CD90DC901797EC80FD800E8105
:100280001F819101281B390BB90137FF04C0662774
:100290007727621B730B603271050CF061C0121678
:1002A00013066CF537014801062E04C09694879416
:1002B000779467940A94D2F721E030E040E050E070
:1002C00004C0220F331F441F551F6A95D2F72150D7
:1002D0003040404050402E213F21402351232115E2
:1002E00031054105510521F021E030E040E050E0CA
:1002F00079018A01E628F728082919293CC0232B0F
:10030000D1F1260E371E35014601062E04C0969403
:100310008794779467940A94D2F721E030E040E024
:1003200050E004C0220F331F441F551F6A95D2F7B7
:1003300021503040404050402A213B214C215D213A
:10034000211531054105510521F021E030E040E063
:1003500050E059016A01A628B728C828D9280BC03F
:10036000821593052CF01C01AA24BB24650103C04F
:10037000EE24FF24870111969C91D20111968C9155
:10038000981709F445C0992339F0A80197012A1953
:100390003B094C095D0906C0A60195012E193F09CC
:1003A000400B510B57FD08C01182338222822483F7
:1003B0003583468357831DC081E081833382228247
:1003C00088279927DC01821B930BA40BB50B848330
:1003D0009583A683B7830DC0220F331F441F551F7B
:1003E0002483358346835783828193810197938346
:1003F00082832481358146815781DA01C9010197C1
:10040000A109B1098F5F9F4FAF4FBF4328F30BC0C6
:10041000918333822282EA0CFB1C0C1D1D1DE48299
:10042000F5820683178383E08083248135814681AA
:10043000578157FF1AC0C901AA2797FDA095BA2F67
:1004400081709070A070B07056954795379527953C
:10045000822B932BA42BB52B84839583A683B78300
:1004600082819381019693838283DF0101C0D2014F
:10047000CD01CDB7DEB7E2E10C945D17A0E2B0E0AC
:10048000E4E4F2E00C944D1769837A838B839C83B8
:100490002D833E834F835887E9E0EE2EF12CEC0E3E
:1004A000FD1ECE010196B7010E9481078E010F5EED
:1004B0001F4FCE010596B8010E9481078A8991E0FD
:1004C00089278A8BC701B801AE01475E5F4F0E9442
:1004D000F2000E94AC06A096E6E00C946917A0E238
:1004E000B0E0E5E7F2E00C944D1769837A838B83E3
:1004F0009C832D833E834F835887F9E0EF2EF12CA8
:10050000EC0EFD1ECE010196B7010E9481078E01FF
:100510000F5E1F4FCE010596B8010E948107C701EB
:10052000B801AE01475E5F4F0E94F2000E94AC0628
:10053000A096E6E00C946917A0E2B0E0E2EAF2E0EF
:100540000C94411769837A838B839C832D833E832C
:100550004F835887CE010196BE01675F7F4F0E948F
:100560008107CE010596BE016F5E7F4F0E94810715
:100570009985923088F089898230C8F0943019F4D6
:10058000823051F404C0843029F4923081F489E53A
:1005900092E0C6C0923049F420E09A858A89981387
:1005A00021E02A87CE010996BBC0823049F420E0C1
:1005B0009A858A89981321E02A8BCE014196B0C092
:1005C0002D843E844F8458886D887E888F88988CCF
:1005D000EE24FF248701AA24BB24650140E050E0FB
:1005E00060E070E0E0E0F0E0C10181709070892B84
:1005F000E9F0E60CF71C081D191D9A01AB012A0D44
:100600003B1D4C1D5D1D80E090E0A0E0B0E0E614D5
:10061000F7040805190520F481E090E0A0E0B0E0BF
:10062000BA01A901480F591F6A1F7B1FAA0CBB1CE6
:10063000CC1CDD1C97FE08C081E090E0A0E0B0E09B
:10064000A82AB92ACA2ADB2A3196E032F10549F0F4
:10065000660C771C881C991C5694479437942794F1
:10066000C3CFFA85EA892B893C898B859C85280F25
:10067000391F2E5F3F4F17C0CA0181709070892BC0
:1006800061F016950795F794E79480E090E0A0E07C
:10069000B0E8E82AF92A0A2B1B2B7695679557951F
:1006A00047952F5F3F4F77FDE7CF0CC0440F551F95
:1006B000661F771F17FD4160EE0CFF1C001F111F06
:1006C00021503040403090E0590790E0690790E4B5
:1006D000790760F32B8F3C8FDB01CA018F77907015
:1006E000A070B07080349105A105B10561F447FD9B
:1006F0000AC0E114F1040105110529F0405C5F4FC7
:100700006F4F7F4F40781A8EFE1711F081E08A8F6D
:100710004D8F5E8F6F8F78A383E0898FCE014996CE
:100720000E94AC06A096E2E10C945D17A8E1B0E04F
:10073000ECE9F3E00C94491769837A838B839C83FB
:100740002D833E834F835887B9E0EB2EF12CEC0EBE
:10075000FD1ECE010196B7010E9481078E010F5E3A
:100760001F4FCE010596B8010E94810729852230CE
:1007700008F47EC03989323010F4B8017CC08A8513
:100780009A8989278A87243011F0223031F423177F
:1007900009F06EC069E572E06EC0343039F41D8630
:1007A0001E861F86188A1C861B8604C0323021F4E0
:1007B00084E08987B7015FC02B853C858B899C8944
:1007C000281B390B3C872B87ED84FE840F85188905
:1007D000AD88BE88CF88D88CEA14FB040C051D05B3
:1007E00040F4EE0CFF1C001F111F215030403C87CD
:1007F0002B8720E030E040E050E080E090E0A0E097
:10080000B0E460E070E0EA14FB040C051D0540F064
:10081000282B392B4A2B5B2BEA18FB080C091D09E6
:10082000B695A79597958795EE0CFF1C001F111F95
:100830006F5F7F4F6F31710531F7DA01C9018F7733
:100840009070A070B07080349105A105B10561F47D
:1008500027FD0AC0E114F1040105110529F0205C0F
:100860003F4F4F4F5F4F20782D873E874F87588BE4
:10087000BE01675F7F4FCB010E94AC066896EAE03D
:100880000C946517A8E1B0E0E8E4F4E00C944D178F
:1008900069837A838B839C832D833E834F83588720
:1008A00089E0E82EF12CEC0EFD1ECE010196B70179
:1008B0000E9481078E010F5E1F4FCE010596B80181
:1008C0000E9481078985823040F08989823028F032
:1008D000C701B8010E94F90701C081E06896E6E00F
:1008E0000C946917A8E1B0E0E8E7F4E00C944D1728
:1008F00069837A838B839C832D833E834F835887C0
:1009000089E0E82EF12CEC0EFD1ECE010196B70118
:100910000E9481078E010F5E1F4FCE010596B80120
:100920000E9481078985823040F08989823028F0D1
:10093000C701B8010E94F90701C081E06896E6E0AE
:100940000C946917A8E1B0E0E8EAF4E00C944D17C4
:1009500069837A838B839C832D833E834F8358875F
:1009600089E0E82EF12CEC0EFD1ECE010196B701B8
:100970000E9481078E010F5E1F4FCE010596B801C0
:100980000E9481078985823040F08989823028F071
:10099000C701B8010E94F90701C08FEF6896E6E031
:1009A0000C946917A8E1B0E0E8EDF4E00C944D1761
:1009B00069837A838B839C832D833E834F835887FF
:1009C00089E0E82EF12CEC0EFD1ECE010196B70158
:1009D0000E9481078E010F5E1F4FCE010596B80160
:1009E0000E9481078985823040F08989823028F011
:1009F000C701B8010E94F90701C08FEF6896E6E0D1
:100A00000C946917A8E1B0E0E8E0F5E00C944D170C
:100A100069837A838B839C832D833E834F8358879E
:100A200089E0E82EF12CEC0EFD1ECE010196B701F7
:100A30000E9481078E010F5E1F4FCE010596B801FF
:100A40000E9481078985823040F08989823028F0B0
:100A5000C701B8010E94F90701C081E06896E6E08D
:100A60000C946917A8E0B0E0E8E3F5E00C944A17AD
:100A70009B01AC0183E08983DA01C9018827B7FDB6
:100A800083959927AA27BB27B82E21153105410543
:100A9000510519F482E089833AC08823A9F02030F7
:100AA00080E0380780E0480780E8580729F460E0D4
:100AB00070E080E09FEC30C0EE24FF248701E21A52
:100AC000F30A040B150B02C079018A018EE1C82ECE
:100AD000D12CDC82CB82ED82FE820F831887C80185
:100AE000B7010E945D0601971816190684F4082EB6
:100AF00004C0EE0CFF1C001F111F0A94D2F7ED82F8
:100B0000FE820F831887C81AD90ADC82CB82BA8288
:100B1000CE0101960E94AC062896E9E00C94661777
:100B2000ACE0B0E0E6E9F5E00C94511769837A8314
:100B30008B839C83CE010196BE016B5F7F4F0E9429
:100B400081078D81823061F1823050F1843021F44F
:100B50008E81882351F12EC02F81388537FD20C02A
:100B60006E812F3131051CF06623F9F023C08EE130
:100B700090E0821B930B29853A854B855C8504C0E8
:100B800056954795379527958A95D2F76623B1F004
:100B900050954095309521953F4F4F4F5F4F0EC078
:100BA00020E030E040E050E009C02FEF3FEF4FEF92
:100BB0005FE704C020E030E040E050E8B901CA013E
:100BC0002C96E2E00C946D17A8E0B0E0EAEEF5E0B8
:100BD0000C9449177B018C01611571058105910504
:100BE00019F482E0898360C083E089838EE1C82E96
:100BF000D12CDC82CB82ED82FE820F831887C80164
:100C0000B7010E945D06FC013197F7FF3BC0222728
:100C100033272E1B3F0B57016801022E04C0D694C8
:100C2000C794B794A7940A94D2F740E050E060E0EC
:100C300070E081E090E0A0E0B0E004C0880F991F70
:100C4000AA1FBB1F2A95D2F70197A109B1098E21CE
:100C50009F21A023B1230097A105B10521F041E018
:100C600050E060E070E04A295B296C297D294D83C2
:100C70005E836F8378878EE190E08E1B9F0B9C8351
:100C80008B8312C0309781F00E2E04C0EE0CFF1C37
:100C9000001F111F0A94D2F7ED82FE820F8318877E
:100CA000CE1ADF0ADC82CB821A82CE0101960E9424
:100CB000AC062896EAE00C946517EF92FF920F932A
:100CC0001F937B018C0180E0E81680E0F80681E04C
:100CD000080780E0180788F48FEFE816F104010593
:100CE000110531F028F088E090E0A0E0B0E017C0F6
:100CF00080E090E0A0E0B0E012C080E0E81680E084
:100D0000F80680E0080781E0180728F088E190E005
:100D1000A0E0B0E004C080E190E0A0E0B0E020E21C
:100D200030E040E050E0281B390B4A0B5B0B04C05D
:100D300016950795F794E7948A95D2F7F701EF593E
:100D4000FD4F8081281B310941095109C9011F91BB
:100D50000F91FF90EF900895DF92EF92FF920F9323
:100D60001F93FC01E480F58006811781D18080818A
:100D7000823048F480E090E0A0E1B0E0E82AF92A6F
:100D80000A2B1B2BA5C0843009F49FC0823021F4AC
:100D9000EE24FF24870105C0E114F10401051105CB
:100DA00019F4E0E0F0E096C0628173819FEF623851
:100DB00079070CF05BC022E83FEF261B370B2A3186
:100DC00031052CF020E030E040E050E02AC0B801CE
:100DD000A701022E04C076956795579547950A940A
:100DE000D2F781E090E0A0E0B0E004C0880F991F46
:100DF000AA1FBB1F2A95D2F70197A109B1098E211D
:100E00009F21A023B1230097A105B10521F081E026
:100E100090E0A0E0B0E09A01AB01282B392B4A2BDF
:100E20005B2BDA01C9018F779070A070B0708034AD
:100E30009105A105B10539F427FF09C0205C3F4F9A
:100E40004F4F5F4F04C0215C3F4F4F4F5F4FE0E07B
:100E5000F0E02030A0E03A07A0E04A07A0E45A07FB
:100E600010F0E1E0F0E079018A0127C060387105F7
:100E700064F5FB01E158FF4FD801C7018F779070EF
:100E8000A070B07080349105A105B10539F4E7FE7A
:100E90000DC080E490E0A0E0B0E004C08FE390E0FB
:100EA000A0E0B0E0E80EF91E0A1F1B1F17FF05C0E7
:100EB00016950795F794E794319687E01695079570
:100EC000F794E7948A95D1F705C0EE24FF248701B3
:100ED000EFEFF0E06E2F679566276795902F9F776D
:100EE000D794DD24D7948E2F8695492F462B582FE3
:100EF0005D29B701CA011F910F91FF90EF90DF901C
:100F00000895FC01DB01408151812281622F6F77BE
:100F100070E0221F2227221F9381892F880F822BA6
:100F2000282F30E0991F9927991F11969C931197AC
:100F300021153105A9F5411551056105710511F41A
:100F400082E037C082E89FEF13969C938E931297AE
:100F50009A01AB0167E0220F331F441F551F6A95AA
:100F6000D1F783E08C930DC0220F331F441F551F10
:100F700012968D919C911397019713969C938E9343
:100F80001297203080E0380780E0480780E4580757
:100F900058F314962D933D934D935C9317970895B2
:100FA0002F3F310579F4411551056105710519F49B
:100FB00084E08C93089564FF03C081E08C9312C099
:100FC0001C9210C02F57304013963C932E931297CB
:100FD00083E08C9387E0440F551F661F771F8A9527
:100FE000D1F7706414964D935D936D937C9317972E
:100FF00008951F93DC01FB019C91923008F447C0D7
:101000008081823008F443C0943051F411961C91D1
:10101000843099F58181682F70E0611B71093FC0B0
:10102000843021F0923031F48230B9F1818188230B
:1010300089F12DC011961C9111978230F1F08181B8
:101040001817D9F412962D913C91139782819381B0
:101050008217930794F028173907BCF014968D91E6
:101060009D910D90BC91A02D2481358146815781A1
:10107000281739074A075B0718F4112341F00AC003
:1010800082179307A407B50740F4112319F061E014
:1010900070E005C06FEF7FEF02C060E070E0CB0151
:1010A0001F9108959B01AC0184E0220F331F441F60
:1010B000551F8A95D1F760E074E284EF90E00E94BA
:1010C0001F172150304030BD29B988E18AB986E820
:1010D00080BD08955F9BFECF8CB108955D9BFECFD0
:1010E0008CB90895FC0104C05D9BFECF31968CB98C
:1010F00080818823C9F708950F931F93DF93CF93BF
:10110000CDB7DEB72C970FB6F894DEBF0FBECDBFBC
:101110002DB73EB7285030400FB6F8943EBF0FBEF3
:101120002DBFEDB7FEB731968E010F5F1F4FADB7E4
:10113000BEB712961C930E93119720E630E03383CE
:10114000228364837583868397830E94D4172DB787
:101150003EB7285F3F4F0FB6F8943EBF0FBE2DBF7E
:10116000C8010E94720884E690E00E9472082C96E2
:101170000FB6F894DEBF0FBECDBFCF91DF911F91A8
:101180000F910895EF92FF920F931F93DF93CF93E8
:10119000CDB7DEB764970FB6F894DEBF0FBECDBFF4
:1011A00046E022E07E010894E11CF11C87010E94C8
:1011B0007817C7010E94720864960FB6F894DEBFD4
:1011C0000FBECDBFCF91DF911F910F91FF90EF9098
:1011D00008952F923F924F925F926F927F928F92DB
:1011E0009F92AF92BF92CF92DF92EF92FF920F93B6
:1011F0001F93DF93CF93CDB7DEB73B014C011901AD
:101200002A0187E690E00E947208C401B3010E949F
:10121000C2089DE6892E90E0992EC4010E947208B2
:10122000C201B1010E94C208C4010E947208C80133
:10123000B7010E94C2088FE690E00E947208C601C2
:10124000B5010E94C208C4010E9472086D897E899E
:101250008F89988D0E94C208C4010E947208698D0E
:101260007A8D8B8D9C8D0E94C20884E690E00E944E
:101270007208CF91DF911F910F91FF90EF90DF9057
:10128000CF90BF90AF909F908F907F906F905F9026
:101290004F903F902F9008959BBD8ABD089599BDB2
:1012A00088BD08958F929F92AF92BF92CF92DF92A6
:1012B000EF92FF920F931F936A010E94E4057B0156
:1012C0008C016091830370918403809185039091D8
:1012D00086032DE0660F771F881F991F2A95D1F787
:1012E0000E94E4059B01AC01C801B7010E9496036E
:1012F0004B015C01D0928C03C0928B0320E030E064
:1013000040E85FE30E94020588232CF481E090E02E
:10131000A0E0B0E047C0C501B40120E030E040E803
:101320005FE30E944204882369F481E090E0A0E03A
:10133000B0E08093870390938803A0938903B093D0
:101340008A034AC0C501B40120E030E040E85FE311
:101350000E94A20418160CF03FC0C501B4010E94FF
:10136000C6007B018C016093870370938803809390
:10137000890390938A030E94E4059B01AC01C50197
:10138000B4010E943E024B015C0120E030E040E0ED
:1013900050E00E9472048823F9F0D801C701019639
:1013A000A11DB11D8093870390938803A0938903A7
:1013B000B0938A03C501B40120E030E040E857EC67
:1013C0000E949C0220E030E040E857E40E946F0257
:1013D0000E94C6007DBD6CBD1F910F91FF90EF90E4
:1013E000DF90CF90BF90AF909F908F90089588B777
:1013F000806288BF8EB580648EBD08B605FEFDCFC5
:1014000026B537B588B7806288BF8EB58F7B8EBD15
:1014100008B605FEFDCF66B577B580E090E040E008
:1014200050E0621B730B840B950B2091830330916A
:10143000840340918503509186030E94E0169B012E
:10144000AC0160E072E18AE790E00E941F17CA01D8
:10145000B90108950F931F938B019C018FB780688A
:101460008FBF0093830310938403209385033093ED
:101470008603003411052105310539F101341105C8
:101480002105310558F40130110521053105A1F080
:10149000083011052105310581F511C0003081E0CA
:1014A000180780E0280780E03807A9F000501440B2
:1014B0002040304011F518C08EB58B7F17C08EB517
:1014C0008B7F8EBD8EB582600BC08EB58B7F8EBD3F
:1014D0008EB582600EC08EB584608EBD8EB58D7F58
:1014E0008EBD8EB58E7F08C08EB584608EBD8EB5E4
:1014F0008D7F8EBD8EB581608EBD483009F485C06C
:101500004930A0F4443009F440C0453040F4423042
:10151000B1F14330B8F5413009F0D6C01DC04630B6
:1015200009F467C0473008F06DC051C04C3009F471
:1015300084C04D3038F44A3009F473C04B3008F0A1
:1015400076C066C04E3009F491C04E3008F47BC0BE
:101550004F3009F0B9C096C08EB58F7E8EBD8EB566
:10156000877F8EBD8FB58D7F8FBD8FB58E7F8FBDF1
:1015700089B7846089BF8EB580688EBDA5C08EB5E1
:101580008F7E51C08EB58F7E54C08EB58F7E8EBD3E
:101590008EB5877F8EBD8FB582608FBD8FB5816020
:1015A0008FBD8FB580688FBD8FB58F7B8FBD8FB599
:1015B00080628FBD8FB58F7E8FBD84E064E041E097
:1015C0000E94CF0B84E065E041E00E94CF0B8EB516
:1015D0008F7E8EBD8EB588608EBD8FB58D7F8FBDA1
:1015E0008FB58E7F8FBD89B7806189BF89B7877FAF
:1015F0003BC08EB58F7E8EBD8EB588608EBD8FB59B
:101600008D7F48C08EB58F7E33C08EB58F7E3CC037
:101610008EB580618EBD8EB5877F8EBD8FB58D7F77
:101620002DC08EB580618EBD8EB5877FE7CF8EB51C
:1016300080618EBD8EB5877F1EC08EB580618EBDE8
:101640008EB5877F24C08EB580618EBD8EB58860D3
:101650008EBD8FB58D7F8FBD8FB58E7F8FBD89B7C6
:10166000806189BF89B7886089BF2EC08EB58061CF
:101670008EBD8EB588608EBD8FB582608FBD8FB5F3
:101680008E7F0BC08EB580618EBD8EB588608EBD9D
:101690008FB582608FBD8FB581608FBD8FB580683B
:1016A0008FBD8FB58F7B8FBD8FB580628FBD8FB59E
:1016B0008F7E8FBD84E064E041E00E94CF0B84E028
:1016C00065E041E00E94CF0B1F910F91089581B119
:1016D000887F08959B01AC0160E074E284EF90E0A4
:1016E0000E941F17205130404040504083E05695E3
:1016F0004795379527958A95D1F720B981E081B92B
:1017000084E086BF089584EA86BF06B607FEFDCF53
:1017100081B1887F883021F081B1887F8031C1F725
:10172000089583B984E886BF06B607FEFDCF81B170
:10173000089583B984E886BF06B607FEFDCF0895F5
:1017400084E986BF06B604FCFDCF0895880F82B9F0
:10175000089584EC86BF06B607FEFDCF81B1887F71
:101760008036E1F784EC86BF06B607FEFDCF81B177
:10177000FECF84EC86BF06B607FEFDCF81B1887F21
:101780008035E1F783B1089584E886BF06B607FE89
:10179000FDCF81B1887F8835E1F783B10895982F17
:1017A0008150843008F07FC0683008F07CC09230EF
:1017B00049F1933020F4913009F075C007C093309F
:1017C00009F43CC0943009F06EC053C0442361F466
:1017D0002AB381E090E002C0880F991F6A95E2F772
:1017E000809582238ABB0895413009F05CC02AB3FA
:1017F00081E090E002C0880F991F6A95E2F7282BDC
:101800002ABB0895442361F427B381E090E002C02D
:10181000880F991F6A95E2F78095822387BB089508
:10182000413009F040C027B381E090E002C0880F4A
:10183000991F6A95E2F7282B27BB0895442361F48A
:1018400024B381E090E002C0880F991F6A95E2F707
:101850008095822384BB0895413029F524B381E02B
:1018600090E002C0880F991F6A95E2F7282B24BBED
:101870000895442361F421B381E090E002C0880F11
:10188000991F6A95E2F78095822381BB08954130C4
:1018900051F421B381E090E002C0880F991F6A954E
:1018A000E2F7282B21BB0895982F8150843008F04F
:1018B0007FC0683008F07CC0923049F1933020F44A
:1018C000913009F075C007C0933009F43CC09430E2
:1018D00009F06EC053C0442361F42BB381E090E063
:1018E00002C0880F991F6A95E2F7809582238BBB0F
:1018F0000895413009F05CC02BB381E090E002C054
:10190000880F991F6A95E2F7282B2BBB0895442373
:1019100061F428B381E090E002C0880F991F6A95B6
:10192000E2F78095822388BB0895413009F040C0DA
:1019300028B381E090E002C0880F991F6A95E2F712
:10194000282B28BB0895442361F425B381E090E05F
:1019500002C0880F991F6A95E2F78095822385BBA4
:101960000895413029F525B381E090E002C0880F49
:10197000991F6A95E2F7282B25BB0895442361F44B
:1019800022B381E090E002C0880F991F6A95E2F7C8
:101990008095822382BB0895413051F422B381E0C7
:1019A00090E002C0880F991F6A95E2F7282B22BBAE
:1019B0000895982F81508430A8F5683098F59230BA
:1019C00061F0933018F4913069F505C0933039F027
:1019D000943041F516C029B303C026B301C023B328
:1019E00081E090E0062E02C0880F991F0A94E2F76A
:1019F00030E08223932302C0959587956A95E2F79C
:101A0000089520B381E090E0062E02C0880F991F50
:101A10000A94E2F730E08223932302C095958795DC
:101A20006A95E2F70895982F81508430C8F56830A0
:101A3000B8F59230A9F0933018F4913089F505C0CB
:101A40009330C9F0943061F521C02BB381E090E070
:101A500002C0880F991F6A95E2F728272BBB0895CB
:101A600028B381E090E002C0880F991F6A95E2F7E1
:101A7000282728BB089525B381E090E002C0880F95
:101A8000991F6A95E2F7282725BB089522B381E0C4
:101A900090E002C0880F991F6A95E2F7282722BBC1
:101AA0000895982F8150843098F4923061F09330EB
:101AB00018F4913069F405C0933039F0943041F452
:101AC00006C06ABB089567BB089564BB089561BBF7
:101AD0000895982F8150843098F4923061F09330BB
:101AE00018F4913069F405C0933039F0943041F422
:101AF00006C06BBB089568BB089565BB089562BBC3
:101B00000895982F81508430D8F4923071F093303A
:101B100018F49130A9F405C0933059F0943081F451
:101B20000CC08BB380958BBB089588B3809588BB20
:101B3000089585B3809585BB089582B3809582BB57
:101B40000895982F8150843098F4923061F093304A
:101B500018F4913069F405C0933039F0943041F4B1
:101B600006C089B3089586B3089583B3089580B3FA
:101B70000895823039F0833039F0813039F43F985C
:101B80003E9804C03F9801C03F9A3E9A3D98379ACC
:101B9000339A329A319A309A359808958330C1F049
:101BA000843028F4813071F0823070F409C08530BF
:101BB000A1F0853078F0863099F08730B1F412C00A
:101BC0003A9809C03A980AC03A98399A38980DC09C
:101BD0003A9809C03A9A3998F9CF3A9A399804C094
:101BE0003A9AF3CF3A9A399A389A369A0895349BAA
:101BF000FECF349A24B135B1C901089524B135B16D
:101C0000C901089590938E0380938D0308951F92C8
:101C10000F920FB60F9211242F933F934F935F9320
:101C20006F937F938F939F93AF93BF93EF93FF93A4
:101C3000E0918D03F0918E03309709F00995FF91A3
:101C4000EF91BF91AF919F918F917F916F915F9134
:101C50004F913F912F910F900FBE0F901F901895AD
:101C60000E94130D089540E00E94540C089541E035
:101C70000E94540C089541E00E94CF0B0895EF920A
:101C8000FF920F931F93E82E082F02950F70402F9D
:101C9000417081E063E00E94540C10E0A8014270A2
:101CA00050705595479581E064E00E94540CA8015E
:101CB00044705070559547955595479581E065E07E
:101CC0000E94540C33E0169507953A95E1F781E0B0
:101CD00066E0402F0E94540C81E061E040E00E94E9
:101CE000540C81E062E041E00E94540C00EA1FE0E5
:101CF000C8010197F1F781E062E040E00E94540CD6
:101D0000C8010197F1F74E2D417081E063E00E9418
:101D1000540C8FE0E822FF24A701427050705595C3
:101D2000479581E064E00E94540CA7014470507014
:101D3000559547955595479581E065E00E94540C6F
:101D400083E0F694E7948A95E1F781E066E04E2D12
:101D50000E94540C81E067E040E00E94540C81E056
:101D600061E040E00E94540C81E062E041E00E94AA
:101D7000540CC8010197F1F781E062E040E00E9455
:101D8000540CC8010197F1F71F910F91FF90EF904C
:101D90000895823040F4603130F48111605C862F08
:101DA00080580E943F0E08958CE10E943F0E80EA09
:101DB0009FE00197F1F7089581E00E943F0E80E2D5
:101DC0009EE40197F1F70895EF92FF920F931F930E
:101DD000E82E082F02950F70402F417081E063E0DC
:101DE0000E94540C10E0A801427050705595479520
:101DF00081E064E00E94540CA80144705070559535
:101E000047955595479581E065E00E94540CB3E0F5
:101E100016950795BA95E1F781E066E0402F0E949C
:101E2000540C81E067E040E00E94540C81E061E0E6
:101E300041E00E94540C81E062E041E00E94540CB9
:101E400000EA1FE0C8010197F1F781E062E040E09D
:101E50000E94540CC8010197F1F74E2D417081E0AA
:101E600063E00E94540C8FE0E822FF24A701427037
:101E700050705595479581E064E00E94540CA7018D
:101E800044705070559547955595479581E065E0AC
:101E90000E94540CE3E0F694E794EA95E1F781E0C0
:101EA00066E04E2D0E94540C81E067E040E00E9405
:101EB000540C81E061E041E00E94540C81E062E05A
:101EC00041E00E94540CC8010197F1F781E062E003
:101ED00040E00E94540CC8010197F1F71F910F9147
:101EE000FF90EF9008950F931F938C0164E670E0CC
:101EF0000E940B17862F805D0E94E40EC80164E6E5
:101F000070E00E940B176AE070E00E940B17162F1A
:101F1000105D812F0E94E40E812F0E94E40E1F911C
:101F20000F910895DF92EF92FF920F931F93CF933B
:101F3000DF938C01F62EE42ED22E862F880F880F89
:101F4000880F805C0E943F0EC0E0D0E0F801EC0FEB
:101F5000FD1F80810E94E40E2196C830D105B1F7A3
:101F60008E2D6D2D0E94C90E8F2D0E94E40EDF91E3
:101F7000CF911F910F91FF90EF90DF9008951F93E5
:101F8000CF93DF93EC0110E003C00E94E40E1F5FCB
:101F9000FE01E10FF11D80818823B9F7DF91CF9118
:101FA0001F9108951F93182F81E061E041E00E9486
:101FB000540C81E0612F0E94690D1F9108950F93C9
:101FC0001F9384EF91E020E931E0F9013197F1F7B7
:101FD0000197D9F781E063E041E00E94CF0B81E0F7
:101FE00064E041E00E94CF0B81E065E041E00E94A7
:101FF000CF0B81E066E041E00E94CF0B81E067E01B
:1020000041E00E94CF0B81E061E041E00E94CF0BF4
:1020100081E062E041E00E94CF0B82E00E943F0E2F
:1020200000EA1FE0C8010197F1F788E20E943F0E25
:10203000C8010197F1F78EE00E943F0EC801019799
:10204000F1F781E00E943F0E80E29EE40197F1F7F4
:1020500086E00E943F0EC8010197F1F71F910F9192
:1020600008958A98929A85B78C7F85BF8BB78064D4
:102070008BBF7894089585B7806E85BF85B78F7EB6
:1020800085BF889585B78F7785BF08951F920F927A
:102090000FB60F9211240F900FBE0F901F9018953E
:1020A0001F920F920FB60F9211248F939F93AF93AD
:1020B000BF9380916C0390916D03A0916E03B091DA
:1020C0006F030196A11DB11D80936C0390936D0366
:1020D000A0936E03B0936F03BF91AF919F918F91C7
:1020E0000F900FBE0F901F90189520916C033091A8
:1020F0006D0340916E0350916F03B901CA010895B9
:1021000022E02BB990BD89B988E18AB986E880BD03
:1021100008955D9BFECF8CB90895FC0104C05D9BC2
:10212000FECF31968CB980818823C9F7089501C00C
:102130008CB15F99FDCF0895AF92BF92CF92DF929D
:10214000EF92FF920F931F937B018C01A0907F036E
:10215000B0908003C0908103D0908203C601B50186
:1021600020E030E040E050E00E9442048823A9F4DF
:10217000C801B7010E94E40560937F037093800358
:10218000809381039093820360937B0370937C031D
:1021900080937D0390937E036EC0C801B7010E94B7
:1021A000E4052DEC3CEC4CE45EE30E949C027B01D8
:1021B0008C01C601B5012DEC3CEC4CE45FE30E94C0
:1021C0009C029B01AC01C801B7010E946F027B0118
:1021D0008C0160937F0370938003809381039093BD
:1021E000820360917B0370917C0380917D039091C9
:1021F0007E0328E431EE4AE75FE30E949C025B0124
:102200006C01C801B7012AE037ED43EA5CE30E94A4
:102210009C029B01AC01C601B5010E946F029B01AB
:10222000AC0160937B0370937C0380937D03909358
:102230007E03C801B7010E943E027B018C0120E0B1
:1022400030E040E451E40E94A204181644F4809166
:102250007A03882321F481E080937A030DC0C801BA
:10226000B70120E030E040E050EC0E94020587FF1B
:1022700002C010927A0380E01F910F91FF90EF90BF
:10228000DF90CF90BF90AF900895EF92FF920F93A1
:102290001F937B018C0120E030E040E050E00E9481
:1022A0000205882324F417FB109517F91095B70140
:1022B000C8011F910F91FF90EF9008958F929F9208
:1022C000AF92BF92CF92DF92EF92FF920F931F9344
:1022D000DF93CF9300D000D000D0CDB7DEB76C0134
:1022E0005B014A010E94830B80ED0E94910B8BE3FE
:1022F0000E94990B0E94830B81ED0E94910B8E012D
:102300000F5F1F4F86E0E82EF12CEC0EFD1E0E94A1
:10231000B90BF80181938F01EE15FF05C1F70E94FB
:10232000C40B082F8E830E94A00B998180E02A8124
:1023300030E0822B932BF601918380839B8180E098
:102340002C8130E0822B932BF5019183808310E068
:102350009D8180E0082B192BF401118300832696C0
:102360000FB6F894DEBF0FBECDBFCF91DF911F91A6
:102370000F91FF90EF90DF90CF90BF90AF909F9024
:102380008F9008952F923F924F925F926F927F921B
:102390008F929F92AF92BF92CF92DF92EF92FF9275
:1023A0000F931F93DF93CF9300D000D000D0CDB711
:1023B000DEB7CE010196BE016D5F7F4FAE014B5F70
:1023C0005F4F0E945E1169817A81882777FD809531
:1023D000982F0E94320520E030E040E858E30E9448
:1023E0009C021B012C016B817C81882777FD8095E5
:1023F000982F0E94320520E030E040E858E30E9428
:102400009C023B014C016D817E81882777FD809580
:10241000982F0E94320520E030E040E858E30E9407
:102420009C025B016C01C201B101A20191010E94F9
:102430009C027B018C01C401B301A40193010E94A1
:102440009C029B01AC01C801B7010E946F027B0195
:102450008C01C601B501A60195010E949C029B0159
:10246000AC01C801B7010E946F020E94FC177B01FA
:102470008C0123E333E343EB5EE30E9402058823F0
:102480001CF481E08093790380917903882379F0AB
:10249000C801B70120E030E040E250E40E94A2040D
:1024A00018162CF41092790381E0809378038091C0
:1024B0007803882371F1C201B10120E030E040E0EF
:1024C00050E00E940205882324F457FA509457F8EC
:1024D0005094C401B30120E030E040E050E00E949D
:1024E0000205882324F497FA909497F89094C201F7
:1024F000B101A40193010E946F0220E030E040E8A6
:102500005FE30E94A204181624F41092780381E07D
:1025100001C080E026960FB6F894DEBF0FBECDBF97
:10252000CF91DF911F910F91FF90EF90DF90CF90AF
:10253000BF90AF909F908F907F906F905F904F90E3
:102540003F902F9008950E94830B80ED0E94910B85
:102550008BE60E94990B80E00E94990B0E94A00BD1
:1025600088EE93E020E931E0F9013197F1F7019726
:10257000D9F70895AF92BF92CF92DF92EF92FF9278
:102580000F931F930E94830B8EEA0E94910B87E0AA
:102590000E94990B0E94830B8FEA0E94910B0E946C
:1025A000B90B182F0E94B90BE82E0E94C40BA82E5D
:1025B0000E94A00B612F70E080E090E0AB01332718
:1025C0002227FF2400E010E0102F0F2DFE2CEE2418
:1025D0002E293F29402B512BBB24CC24DD242A2932
:1025E0003B294C295D2943705070B901CA011F91E4
:1025F0000F91FF90EF90DF90CF90BF90AF90089534
:102600000E94830B8EEA0E94910B89E00E94990B35
:1026100080E40E94990B0E94A00B88EE93E020E9D1
:1026200031E0F9013197F1F70197D9F70E94830B57
:102630008EEA0E94910B89E00E94990B82E00E9431
:10264000990B0E94A00B0E94830B8EEA0E94910BB3
:102650008CE00E94990B80E10E94990B0E94A00BD4
:102660000E94830B8EEA0E94910B8DE00E94990BD1
:102670008FE10E94990B0E94A00B0895CF93DF93E6
:10268000EC01FC0101900020E9F731977E2F781BC7
:1026900090E020E231EA47E050E05F9B11C06CB16E
:1026A000FE01E90FF11D8081681729F49F5F9717DC
:1026B00039F481E00BC090E08881681709F491E05B
:1026C000215030404040504041F780E0DF91CF91B1
:1026D0000895EF92FF920F931F93DF93CF93CDB79F
:1026E000DEB7C65ED0400FB6F894DEBF0FBECDBFDA
:1026F0002DB73EB7285030400FB6F8943EBF0FBEFE
:102700002DBFEDB7FEB731969E01215E3F4FADB7AD
:10271000BEB712963C932E93119728E730E033838F
:10272000228320EC30E035832483978386830E94C4
:10273000D4172DB73EB7285F3F4F0FB6F8943EBF72
:102740000FBE2DBF01C08CB15F99FDCF81EE90E02F
:102750000E948D1086E091E00E943E13882309F4C8
:1027600042C03FE1E32EF12CEC0EFD1EF70101907B
:102770000020E9F73197EE19FF0900D000D000D012
:102780002DB73EB72F5F3F4F8E010F5F1F4FADB785
:10279000BEB712961C930E9311978EE091E0D9016B
:1027A00013969C938E9312971596FC93EE93149721
:1027B0000E94D4172DB73EB72A5F3F4F0FB6F8944B
:1027C0003EBF0FBE2DBFC8010E948D108EE191E06B
:1027D0000E943E13882339F0C7010E948D1080E2C9
:1027E00091E00E943E1388E291E00E948D10CA5150
:1027F000DF4F0FB6F894DEBF0FBECDBFCF91DF9194
:102800001F910F91FF90EF900895EF92FF920F9319
:102810001F93DF93CF93CDB7DEB7C851D1400FB62A
:10282000F894DEBF0FBECDBF482F80917003882380
:1028300019F426E331E002C025E431E08DB79EB7FC
:102840000C970FB6F8949EBF0FBE8DBFEDB7FEB7C5
:102850003196CE014F96ADB7BEB712969C938E932C
:1028600011978FE491E09383828380EC90E09583CD
:1028700084834683178271876087338722870E940B
:10288000D4178DB79EB70C960FB6F8949EBF0FBEA7
:102890008DBF01C08CB15F99FDCF81EE90E00E94A9
:1028A0008D1086E091E00E943E13882309F441C018
:1028B0004FE1E42EF12CEC0EFD1EF70101900020FB
:1028C000E9F73197EE19FF0900D000D000D02DB7FD
:1028D0003EB72F5F3F4F8E010F5F1F4FADB7BEB7A3
:1028E00012961C930E9311978EE091E0D9011396E6
:1028F0009C938E9312971596FC93EE9314970E94D7
:10290000D4178DB79EB706960FB6F8949EBF0FBE2C
:102910008DBFC8010E948D108EE191E00E943E1390
:10292000882339F0C7010E948D1080E291E00E9457
:102930003E1388E291E00E948D10C85EDE4F0FB614
:10294000F894DEBF0FBECDBFCF91DF911F910F91E5
:10295000FF90EF9008950F931F93DF93CF93CDB720
:10296000DEB72B970FB6F894DEBF0FBECDBF8E013A
:102970000F5F1F4FA8012AE030E00E94A017C80196
:102980000E948D102B960FB6F894DEBF0FBECDBF00
:10299000CF91DF911F910F9108952F923F924F9207
:1029A0005F926F927F928F929F92AF92BF92CF92DF
:1029B000DF92EF92FF920F931F93DF93CF93CDB7E8
:1029C000DEB7C856D0400FB6F894DEBF0FBECDBFFD
:1029D00082E08BB910BC80E189B988E18AB986E8C8
:1029E00080BD60EA76E881E090E00E946A0B0E9478
:1029F00000130E94A31260E470E080E090E045E0E4
:102A00000E942A0A89EF90E09BBD8ABD89B7806148
:102A100089BF8FB780688FBF89EA91E00E948D10CF
:102A200001C08CB15F99FDCF82EC91E00E948D10C6
:102A300087EC91E00E943E138AEC91E00E948D1099
:102A400087EC91E00E943E1388ED91E00E948D108A
:102A500087EC91E00E943E138E010F5F1F4FC8016B
:102A600066EE71E00E949917C8010E948D1086E001
:102A700092E00E943E13882321F082E192E00E94BE
:102A80008D10D09AB89AB99ABA9A8D9A8E9A8F9ACE
:102A9000222433242101A9961CAE1DAE1EAE1FAE0A
:102AA000A99784C113012401C09A60906C037090AF
:102AB0006D0380906E0390906F03D401C301A996BB
:102AC0002CAD3DAD4EAD5FADA997821B930BA40B12
:102AD000B50BCC97A105B10508F450C00E94C211F6
:102AE000882331F110927303109272038091710365
:102AF000882309F03DC031E03093710330937003B7
:102B0000969A959A88E893E1E0E9F1E03197F1F738
:102B10000197D1F7959885E491E00E94691380E2CE
:102B20009EE4E0E9F1E03197F1F70197D1F720C099
:102B3000809171038823E1F0809172039091730377
:102B4000019690937303809372038937910580F007
:102B5000109271031092700386E391E00E94691352
:102B600083E292E00E948D10109273031092720320
:102B7000A9966CAE7DAE8EAE9FAEA9970E94BA129A
:102B80005B016C016093740370937503809376030B
:102B900090937703603543EC740740E0840740E08E
:102BA0009407A0F410926B031092670310926803CD
:102BB0001092690310926A0310926603E3E9F3E04E
:102BC000119253E0ED39F507D9F7AEC020916703B4
:102BD000309168034091690350916A03D401C301A5
:102BE000821B930BA40BB50B895B9B40A040B040AC
:102BF000C0F0211531054105510599F010926B0384
:102C000010926703109268031092690310926A038E
:102C100010926603E3E9F3E0119283E0ED39F807DF
:102C2000D9F7C601B5010E949C10882309F47CC025
:102C300060916703709168038091690390916A03C2
:102C4000611571058105910549F4609267037092E1
:102C500068038092690390926A0366C0A40193019D
:102C6000261B370B480B590B609267037092680361
:102C70008092690390926A03DA01C90181599140F7
:102C8000A040B0408B549440A040B04008F04CC0ED
:102C9000CA01B9010E94E4059B01AC0160E070E645
:102CA0008AE697E40E9496035B016C0160938F03B0
:102CB00070939003809391039093920380916B03A0
:102CC000882369F403E913E0C601B5010E94C60038
:102CD000F80161938F01F3E00D391F07A9F7F09018
:102CE00066030F2D10E00D561C4FC601B5010E9462
:102CF000C600F80160838F2D8F5F6AE00E94FF1687
:102D000090936603E3E9F3E020E030E08191280F3F
:102D1000311D43E0ED39F407C9F7C9016AE070E0FD
:102D20000E940B1760936B03D401C30182199309AE
:102D3000A409B509805D9740A040B04008F4B4CE26
:102D40008091740390917503A0917603B0917703FD
:102D50008055934CA040B04018F462E372E01CC070
:102D600080916B03882319F46EE372E015C08C33F5
:102D700030F4C2989798C19A69E472E00DC08A361F
:102D800030F4C1989298979A6DE472E005C0C198AA
:102D90009798C29A64E572E080916B030E940514D3
:102DA00080916B03893C20F413012401EE247CCE36
:102DB000EE2009F077CE13012401EE24E39474CEC3
:102DC000629FD001739FF001829FE00DF11D649F0F
:102DD000E00DF11D929FF00D839FF00D749FF00D9B
:102DE000659FF00D9927729FB00DE11DF91F639F3C
:102DF000B00DE11DF91FBD01CF0111240895991BEC
:102E000079E004C0991F961708F0961B881F7A95E1
:102E1000C9F780950895AA1BBB1B51E107C0AA1FE3
:102E2000BB1FA617B70710F0A61BB70B881F991F6B
:102E30005A95A9F780959095BC01CD010895A1E21E
:102E40001A2EAA1BBB1BFD010DC0AA1FBB1FEE1F24
:102E5000FF1FA217B307E407F50720F0A21BB30B6F
:102E6000E40BF50B661F771F881F991F1A9469F7EB
:102E700060957095809590959B01AC01BD01CF0147
:102E800008952F923F924F925F926F927F928F920E
:102E90009F92AF92BF92CF92DF92EF92FF920F93E9
:102EA0001F93CF93DF93CDB7DEB7CA1BDB0B0FB6F3
:102EB000F894DEBF0FBECDBF09942A8839884888B0
:102EC0005F846E847D848C849B84AA84B984C88446
:102ED000DF80EE80FD800C811B81AA81B981CE0F3D
:102EE000D11D0FB6F894DEBF0FBECDBFED01089522
:102EF000EF92FF920F931F93F22FF02E47FD02C027
:102F0000E4E001C0E4E1242F332727FD309537FFAB
:102F100003C0309521953F4F4F2D512F0F2FEE2E8F
:102F20000E94171A8F2D912F1F910F91FF90EF90F4
:102F30000895FB01DC0101900D920020E1F7089556
:102F4000FA01CF93FF93EF93223044F1253234F509
:102F5000C22FE894CA3049F497FB3EF490958095CF
:102F6000709561957F4F8F4F9F4F2C2F33274427AC
:102F70005527FF93EF930E941F17EF91FF91605D1C
:102F80006A330CF0695D6193B901CA016050704009
:102F90008040904051F716F4CDE2C19310828F919A
:102FA0009F91CF910C94671CAEE0B0E0EAEDF7E1A1
:102FB0000C944F170D891E8986E08C831A83098330
:102FC0008FEF9FE79E838D839E01275E3F4FCE014B
:102FD00001966F89788DA9010E943A182F81388552
:102FE000020F131FF80110822E96E4E00C946B1769
:102FF00011F40EF414C505C524D5D0F39923D9F3E3
:10300000CEF39F57550B87FF0DD50024A0E640EA6D
:10301000900180585695979528F4805C660F771F2D
:10302000881F20F026173707480730F4621B730B00
:10303000840B202931294A2BA69517940794202523
:1030400031254A2758F7660F771F881F20F026176B
:103050003707480730F4620B730B840B200D311DCA
:10306000411DA09581F7B901842F9158880F96953D
:1030700087950895ABE0B0E0E0E4F8E10C944117E7
:103080003C012B015A01FC0117821682838181FDCC
:1030900003C06FEF7FEFC6C19AE0892E1E0108942E
:1030A000211C311CF3012381F20123FD859123FFB3
:1030B00081912F01882309F4B2C1853239F423FDAF
:1030C000859123FF81912F01853229F490E0B3018E
:1030D0000E94771CE7CF982FFF24EE249924FFE16C
:1030E000FF15D0F09B3269F09C3228F4903259F0F1
:1030F000933291F40EC09D3249F0903369F441E06F
:1031000024C052E0F52A84E0F82A28C098E0F92A81
:1031100025C0E0E1FE2A22C0F7FC29C0892F805398
:103120008A3070F4F6FE05C0989C902C1124980EFD
:1031300015C0E89CE02C1124E80EF0E2FF2A0EC036
:103140009E3229F4F6FC6BC140E4F42A07C09C3699
:1031500019F450E8F52A02C0983649F4F20123FD2B
:10316000959123FF91912F01992309F0B8CF892FD1
:103170008554833018F08052833038F444E050E0B6
:10318000A40EB51E5FE359830FC0933631F0933719
:1031900079F0933509F056C020C0F501808189830C
:1031A00042E050E0A40EB51E610101E010E012C043
:1031B000F501C080D180F6FC03C06FEF7FEF02C045
:1031C000692D70E042E050E0A40EB51EC6010E94D9
:1031D0005C1C8C015FE7F52214C0F501C080D18032
:1031E000F6FC03C06FEF7FEF02C0692D70E042E094
:1031F00050E0A40EB51EC6010E94511C8C0150E87F
:10320000F52AF3FE07C01AC080E290E0B3010E94E5
:10321000771CEA948E2D90E008171907A8F30EC0CA
:10322000F601F7FC8591F7FE81916F0190E0B30103
:103230000E94771CE110EA9401501040011511051D
:1032400079F7EAC0943611F0993669F5F7FE08C0AF
:10325000F501208131814281538184E090E00AC0F0
:10326000F501808191819C01442737FD4095542FC1
:1032700082E090E0A80EB91E9FE6F92257FF09C030
:1032800050954095309521953F4F4F4F5F4FE0E867
:10329000FE2ACA01B901A1012AE030E00E94A31C64
:1032A000D82ED21840C0953729F41F2D1F7E2AE052
:1032B00030E01DC01F2D197F9F3661F0903720F43C
:1032C000983509F0ACC00FC0903739F0983709F045
:1032D000A6C004C028E030E00AC0106114FD1460EC
:1032E00020E130E004C014FD166020E132E017FF59
:1032F00008C0F501608171818281938144E050E0D2
:1033000008C0F50180819181BC0180E090E042E03D
:1033100050E0A40EB51EA1010E94A31CD82ED21805
:103320008FE7F82EF122F6FE0BC05EEFF522D914DE
:1033300038F4F4FE07C0F2FC05C08FEEF82202C09C
:103340001D2D01C0192DF4FE0DC0FE01ED0DF11D66
:103350008081803319F499EEF92208C01F5FF2FED4
:1033600005C003C08F2D867809F01F5F0F2DF3FC79
:1033700014C0F0FE0FC01E1510F09D2C0BC09D2C2C
:103380009E0C911A1E2D06C080E290E0B3010E94AF
:10339000771C1F5F1E15C0F304C01E1510F4E11A40
:1033A00001C0EE2404FF0FC080E390E0B3010E944F
:1033B000771C02FF1DC001FD03C088E790E00EC02E
:1033C00088E590E00BC0802F867891F001FF02C065
:1033D0008BE201C080E2F7FC8DE290E0B3010E9435
:1033E000771C06C080E390E0B3010E94771C9A949A
:1033F000D914C0F3DA94F101ED0DF11D808190E054
:10340000B3010E94771CDD20A9F706C080E290E09E
:10341000B3010E94771CEA94EE20C1F743CEF3017A
:1034200066817781CB012B96E2E10C945D17A9E0D0
:10343000B0E0EDE1FAE10C9445176A01122FA02EDD
:10344000BE2C2BE3201718F42CE3922E02C0902EF2
:103450009394AE014F5F5F4F27E0092D0E94791BC7
:10346000BC018981E82EFF24C70189709070019703
:1034700011F4ADE209C0B1FE02C0ABE205C0B0FC80
:1034800002C0A0E001C0A0E2E3FE3BC0AA2311F409
:1034900023E001C024E0211710F020E002C0121B3D
:1034A000212FEB2CB4FE02C0322F0AC0F601322FBE
:1034B00080E202C0819331503323E1F7C20ED11C68
:1034C000AA2319F0F601A1936F01F6013196E2FEED
:1034D00005C09EE4D6019C9381E404C09EE6D6011B
:1034E0009C9381E611968C9391833296DF01832F12
:1034F00090E202C09D9381508823E1F7E30FF11D14
:1035000040C0E2FE42C0AA2311F423E001C024E03F
:10351000211710F020E002C0121B212FEB2CB4FE6B
:1035200002C0922F0AC0F601922F80E202C081935E
:1035300091509923E1F7C20ED11CAA2319F0F6018C
:10354000A1936F01F6013196E2FE08C089E4D6012D
:103550008C938EE411968C9386E407C089E6D6019D
:103560008C938EE611968C9386E681833296DF01EA
:10357000892F20E202C02D9381508823E1F7E90FC3
:10358000F11D10822EEF3FEFAFC0161617061CF08C
:1035900041E050E003C0AB014F5F5F4FAA2019F438
:1035A00080E090E003C08A2D90E0019620E030E0BA
:1035B000AA2311F021E030E0240F351F280F391F16
:1035C000812F90E02817390714F020E002C0121B69
:1035D000212F4B2D50E0CA0180719070B4FC0DC0BA
:1035E000B3FC0BC0F601322F40E202C041933150D0
:1035F0003323E1F7C20ED11C01C0322FAA2319F0E8
:10360000F601A1936F01892B11F0132F0AC0F60167
:10361000132F80E302C0819311501123E1F7C30EF1
:10362000D11C092D060FBA8090E1892E912C8E2095
:103630009F20E4FE04C0F1E3BF1609F40150101608
:1036400014F001E003C0093008F008E09B0177FFA7
:1036500002C020E030E0CB010196821B930BFE01FB
:103660003196E80FF91F8EE2F82E3B01601A7108BF
:103670008A2D90E044275527481B590B8FEF2F3F89
:10368000380719F4D601FD926D01621773072CF00B
:103690006216730614F4808101C080E3215030402B
:1036A00031962417350724F0D6018D936D01E6CFAE
:1036B0002617370749F4B5E3BB1528F0BB1621F4EC
:1036C0008114910409F481E3F6018193D601812FDD
:1036D00090E202C09C93815011968823D9F7E10FA4
:1036E000F11D108220E030E0C9012996EEE00C9433
:1036F0006117283008F027E03327DA01990F311DD0
:1037000087FD916000966105710539F432602E5F86
:103710003D9330E32A95E1F708959F3F30F08038DC
:103720007105610509F03C5F3C5F3D93913008F005
:103730008068911DDF93CF931F930F93FF92EF92B9
:10374000192F987F9695E92F96959695E90FFF2763
:10375000E255FF4F99273327EE24FF24A701E70105
:1037600005900894079428F4360FE71EF81E491FA9
:10377000511D660F771F881F991F0694A1F70590AA
:10378000079428F4E70EF81E491F561FC11D770F36
:10379000881F991F661F0694A1F70590079428F4C7
:1037A000F80E491F561FC71FD11D880F991F661F8E
:1037B000771F0694A1F70590079420F4490F561F30
:1037C000C71FD81F990F661F771F881F0694A9F778
:1037D00084911095177041F0D695C79557954795E8
:1037E000F794E7941A95C1F7E4E5F0E06894159032
:1037F000159135916591959105907FE27395E1184A
:10380000F10A430B560BC90BD009C0F7E10CF11EAE
:10381000431F561FC91FD01D7EF4703311F48A95C3
:10382000E6CFE894015030F0080F0AF400270217A1
:1038300008F4202F2395022F7A3328F079E37D9323
:103840002A95E9F710C07D932A9589F606949795F5
:103850006795379517951794E118F10A430B560BA6
:10386000C90BD00998F023957E9173957A3308F0AF
:1038700070E37C932013B8F77E9170617D9330F0F4
:10388000839571E37D9370E32A95E1F71124EF901E
:10389000FF900F911F91CF91DF91992787FD909510
:1038A0000895FC010590615070400110D8F7809593
:1038B00090958E0F9F1F0895FC01615070400190FC
:1038C0000110D8F7809590958E0F9F1F0895DC0109
:1038D000FC01672F71917723E1F7329704C07C9147
:1038E0006D9370836291AE17BF07C8F308950F936D
:1038F0001F93CF93DF938C01EB018B8181FF1BC062
:1039000082FF0DC02E813F818C819D812817390750
:1039100064F4E881F9810193F983E88306C0E885BE
:10392000F985802F0995892B31F48E819F8101962D
:103930009F838E8302C00FEF1FEFC801DF91CF91ED
:103940001F910F910895FA01AA27283051F12031D3
:1039500081F1E8946F936E7F6E5F7F4F8F4F9F4F23
:10396000AF4FB1E03ED0B4E03CD0670F781F891F65
:103970009A1FA11D680F791F8A1F911DA11D6A0F33
:10398000711D811D911DA11D20D009F468943F91E6
:103990002AE0269F11243019305D3193DEF6CF01E5
:1039A0000895462F4770405D4193B3E00FD0C9F7AB
:1039B000F6CF462F4F70405D4A3318F0495D31FD18
:1039C0004052419302D0A9F7EACFB4E0A69597956B
:1039D000879577956795BA95C9F700976105710541
:1039E00008959B01AC010A2E06945795479537958B
:1039F0002795BA95C9F7620F731F841F951FA01DE5
:103A000008959F3F31F0915020F487957795679501
:103A1000B795880F911D9695879597F908959FEF13
:103A200080EC089591505040660F771F881FD2F7A1
:103A3000089557FD9058440F551F59F05F3F71F09E
:103A40004795880F97FB991F61F09F3F79F0879505
:103A50000895121613061406551FF2CF4695F1DF8E
:103A600008C0161617061806991FF1CF869571051E
:0A3A7000610508940895F894FFCF53
:103A7A00256C75000D0A004143433A2000200020BE
:103A8A00204759524F3A2000474554202F657874F1
:103A9A0065726E616C2F6170692F757064617465EF
:103AAA003F746F6B656E3D25732676323D25732014
:103ABA00485454502F312E300D0A486F73743A20EF
:103ACA00626C796E6B2E636C6F75640D0A0D0A0059
:103ADA007458615332455831776A774D7631537647
:103AEA0043497A2D73693258666747636B35326585
:103AFA000041542B43495053544152543D2254439C
:103B0A0050222C22626C796E6B2E636C6F75642264
:103B1A002C38300D0A00434F4E4E45435400415451
:103B2A002B43495053454E443D25640D0A003E003F
:103B3A0053454E44204F4B0041542B434950434C6C
:103B4A004F53450D0A004E6F253230456D65726739
:103B5A00656E637900456D657267656E63790047C6
:103B6A004554202F65787465726E616C2F61706997
:103B7A002F62617463682F7570646174653F746F36
:103B8A006B656E3D25732676313D25642676303D7C
:103B9A0025732676323D257320485454502F312EF2
:103BAA00300D0A486F73743A20626C796E6B2E631B
:103BBA006C6F75640D0A0D0A000D0A2D2D2D205308
:103BCA00595354454D205354415254202D2D2D0DF7
:103BDA000A0041540D0A004F4B0041542B43574DE4
:103BEA004F44453D310D0A0041542B4349504D5530
:103BFA00583D300D0A0041542B43574A41503D224B
:103C0A006E616E61222C22303130323330323535DA
:103C1A003634220D0A005749464920474F54204955
:103C2A0050005769466920436F6E6E656374656418
:103C3A000D0A0046414C4C20434C45415245440D27
:103C4A000A004E6F25323046696E676572005072FF
:103C5A006F63657373696E67004C6F77004E6F729E
:103C6A006D616C0048696768000000000000000090
:103C7A00000001020203030303040404040404040D
:103C8A0004050505050505050505050505050505DB
:103C9A0005060606060606060606060606060606BB
:103CAA0006060606060606060606060606060606AA
:103CBA00060707070707070707070707070707078B
:103CCA00070707070707070707070707070707077A
:103CDA00070707070707070707070707070707076A
:103CEA00070707070707070707070707070707075A
:103CFA00070808080808080808080808080808083B
:103D0A000808080808080808080808080808080829
:103D1A000808080808080808080808080808080819
:103D2A000808080808080808080808080808080809
:103D3A0008080808080808080808080808080808F9
:103D4A0008080808080808080808080808080808E9
:103D5A0008080808080808080808080808080808D9
:103D6A0008080808080808080808080808080808C9
:023D7A0008003F
:00000001FF
