:100000000C942A000C943F000C943F000C943F0089
:100010000C943F000C943F000C943F000C943F0064
:100020000C943F000C943F000C943F000C943F0054
:100030000C943F000C943F000C943F000C943F0044
:100040000C943F000C943F000C943F000C943F0034
:100050000C943F0011241FBECFE5D8E0DEBFCDBF1A
:1000600011E0A0E6B0E0E4E8F1E302C005900D92F3
:10007000A43AB107D9F70E94EC130C94C0180C9461
:100080000000EF92FF920F931F937B018C0120E001
:1000900030E040E05FE40E94410388238CF0C80117
:1000A000B70120E030E040E05FE40E94B9010E9427
:1000B000A1039B01AC01205030404040504806C095
:1000C000C801B7010E94A1039B01AC01B901CA019B
:1000D0001F910F91FF90EF900895A0E0B0E0E3E74B
:1000E000F0E00C949A15DC012B01FA019C919230FE
:1000F00008F439C1EB018881823008F433C19430AF
:1001000069F4843009F02FC111969C91119789816F
:10011000981709F428C1ABE9B1E025C1843009F48E
:1001200021C18230A9F4923009F01DC19A01AD01BC
:1001300088E0EA010990AE01E90109929E0181502F
:10014000C1F7E201898111969C918923818308C1BD
:10015000923009F407C112962D903C901397EB0151
:100160008A819B811496AD90BD90CD90DC901797BD
:10017000EC80FD800E811F819101281B390BB90194
:1001800037FF04C066277727621B730B6032710547
:100190000CF061C0121613066CF537014801062EEB
:1001A00004C096948794779467940A94D2F721E0D8
:1001B00030E040E050E004C0220F331F441F551FC1
:1001C0006A95D2F721503040404050402E213F21C7
:1001D00040235123211531054105510521F021E02E
:1001E00030E040E050E079018A01E628F72808294C
:1001F00019293CC0232BD1F1260E371E35014601AB
:10020000062E04C096948794779467940A94D2F744
:1002100021E030E040E050E004C0220F331F441FD3
:10022000551F6A95D2F721503040404050402A2156
:100230003B214C215D21211531054105510521F05E
:1002400021E030E040E050E059016A01A628B728DB
:10025000C828D9280BC0821593052CF01C01AA24AC
:10026000BB24650103C0EE24FF24870111969C91F5
:10027000D20111968C91981709F445C0992339F051
:10028000A80197012A193B094C095D0906C0A6017E
:1002900095012E193F09400B510B57FD08C01182E3
:1002A0003382228224833583468357831DC081E0B5
:1002B00081833382228288279927DC01821B930B5A
:1002C000A40BB50B84839583A683B7830DC0220F3F
:1002D000331F441F551F24833583468357838281F0
:1002E000938101979383828324813581468157814D
:1002F000DA01C9010197A109B1098F5F9F4FAF4F83
:10030000BF4328F30BC0918333822282EA0CFB1C8B
:100310000C1D1D1DE482F5820683178383E0808314
:10032000248135814681578157FF1AC0C901AA2708
:1003300097FDA095BA2F81709070A070B0705695FF
:10034000479537952795822B932BA42BB52B848328
:100350009583A683B7838281938101969383828359
:10036000DF0101C0D201CD01CDB7DEB7E2E10C94CF
:10037000B615A0E2B0E0EFEBF1E00C94A6156983AE
:100380007A838B839C832D833E834F835887E9E058
:10039000EE2EF12CEC0EFD1ECE010196B7010E944F
:1003A000CA048E010F5E1F4FCE010596B8010E9450
:1003B000CA048A8991E089278A8BC701B801AE01F6
:1003C000475E5F4F0E946D000E94F503A096E6E035
:1003D0000C94C215A0E2B0E0E0EFF1E00C94A61599
:1003E00069837A838B839C832D833E834F835887D5
:1003F000F9E0EF2EF12CEC0EFD1ECE010196B701B7
:100400000E94CA048E010F5E1F4FCE010596B801EF
:100410000E94CA04C701B801AE01475E5F4F0E9447
:100420006D000E94F503A096E6E00C94C215A0E2D0
:10043000B0E0EDE1F2E00C949A1569837A838B8346
:100440009C832D833E834F835887CE010196BE0146
:10045000675F7F4F0E94CA04CE010596BE016F5EA2
:100460007F4F0E94CA049985923088F08989823032
:10047000C8F0943019F4823051F404C0843029F467
:10048000923081F48BE991E0C6C0923049F420E0CB
:100490009A858A89981321E02A87CE010996BBC0E4
:1004A000823049F420E09A858A89981321E02A8BCA
:1004B000CE014196B0C02D843E844F8458886D880B
:1004C0007E888F88988CEE24FF248701AA24BB2481
:1004D000650140E050E060E070E0E0E0F0E0C10184
:1004E00081709070892BE9F0E60CF71C081D191D2E
:1004F0009A01AB012A0D3B1D4C1D5D1D80E090E073
:10050000A0E0B0E0E614F7040805190520F481E046
:1005100090E0A0E0B0E0BA01A901480F591F6A1F9E
:100520007B1FAA0CBB1CCC1CDD1C97FE08C081E005
:1005300090E0A0E0B0E0A82AB92ACA2ADB2A3196C6
:10054000E032F10549F0660C771C881C991C569422
:10055000479437942794C3CFFA85EA892B893C893D
:100560008B859C85280F391F2E5F3F4F17C0CA010E
:1005700081709070892B61F016950795F794E79438
:1005800080E090E0A0E0B0E8E82AF92A0A2B1B2BD3
:1005900076956795579547952F5F3F4F77FDE7CF46
:1005A0000CC0440F551F661F771F17FD4160EE0CEE
:1005B000FF1C001F111F21503040403090E05907B0
:1005C00090E0690790E4790760F32B8F3C8FDB01A3
:1005D000CA018F779070A070B07080349105A1052A
:1005E000B10561F447FD0AC0E114F10401051105EC
:1005F00029F0405C5F4F6F4F7F4F40781A8EFE1797
:1006000011F081E08A8F4D8F5E8F6F8F78A383E02A
:10061000898FCE0149960E94F503A096E2E10C94E1
:10062000B615A8E1B0E0E7E1F3E00C94A615698304
:100630007A838B839C832D833E834F83588789E005
:10064000E82EF12CEC0EFD1ECE010196B7010E94A2
:10065000CA048E010F5E1F4FCE010596B8010E949D
:10066000CA048985823040F08989823028F0C70128
:10067000B8010E94420501C08FEF6896E6E00C9435
:10068000C215A8E1B0E0E7E4F3E00C94A615698395
:100690007A838B839C832D833E834F83588789E0A5
:1006A000E82EF12CEC0EFD1ECE010196B7010E9442
:1006B000CA048E010F5E1F4FCE010596B8010E943D
:1006C000CA048985823040F08989823028F0C701C8
:1006D000B8010E94420501C08FEF6896E6E00C94D5
:1006E000C215A8E1B0E0E7E7F3E00C94A615698332
:1006F0007A838B839C832D833E834F83588789E045
:10070000E82EF12CEC0EFD1ECE010196B7010E94E1
:10071000CA048E010F5E1F4FCE010596B8010E94DC
:10072000CA048985823040F08989823028F0C70167
:10073000B8010E94420501C081E06896E6E00C9491
:10074000C215ACE0B0E0E7EAF3E00C94AA156983C7
:100750007A838B839C83CE010196BE016B5F7F4FB2
:100760000E94CA048D81823061F1823050F1843060
:1007700021F48E81882351F12EC02F81388537FDD9
:1007800020C06E812F3131051CF06623F9F023C0A3
:100790008EE190E0821B930B29853A854B855C8521
:1007A00004C056954795379527958A95D2F76623C5
:1007B000B1F050954095309521953F4F4F4F5F4F89
:1007C0000EC020E030E040E050E009C02FEF3FEFE6
:1007D0004FEF5FE704C020E030E040E050E8B901AF
:1007E000CA012C96E2E00C94C615DF92EF92FF92BC
:1007F0000F931F93FC01E480F58006811781D1805F
:100800008081823048F480E090E0A0E1B0E0E82A06
:10081000F92A0A2B1B2BA5C0843009F49FC0823013
:1008200021F4EE24FF24870105C0E114F104010541
:10083000110519F4E0E0F0E096C0628173819FEF4A
:10084000623879070CF05BC022E83FEF261B370BBC
:100850002A3131052CF020E030E040E050E02AC0A1
:10086000B801A701022E04C0769567955795479564
:100870000A94D2F781E090E0A0E0B0E004C0880FD5
:10088000991FAA1FBB1F2A95D2F70197A109B10989
:100890008E219F21A023B1230097A105B10521F04E
:1008A00081E090E0A0E0B0E09A01AB01282B392B69
:1008B0004A2B5B2BDA01C9018F779070A070B07062
:1008C00080349105A105B10539F427FF09C0205CEA
:1008D0003F4F4F4F5F4F04C0215C3F4F4F4F5F4F23
:1008E000E0E0F0E02030A0E03A07A0E04A07A0E412
:1008F0005A0710F0E1E0F0E079018A0127C0603882
:10090000710564F5FB01E158FF4FD801C7018F77EE
:100910009070A070B07080349105A105B10539F4D4
:10092000E7FE0DC080E490E0A0E0B0E004C08FE3FB
:1009300090E0A0E0B0E0E80EF91E0A1F1B1F17FFB1
:1009400005C016950795F794E794319687E01695BC
:100950000795F794E7948A95D1F705C0EE24FF2414
:100960008701EFEFF0E06E2F679566276795902F70
:100970009F77D794DD24D7948E2F8695492F462BC9
:10098000582F5D29B701CA011F910F91FF90EF9079
:10099000DF900895FC01DB01408151812281622FAB
:1009A0006F7770E0221F2227221F9381892F880FE3
:1009B000822B282F30E0991F9927991F11969C931D
:1009C000119721153105A9F54115510561057105ED
:1009D00011F482E037C082E89FEF13969C938E93C8
:1009E00012979A01AB0167E0220F331F441F551F76
:1009F0006A95D1F783E08C930DC0220F331F441FFB
:100A0000551F12968D919C911397019713969C9365
:100A10008E931297203080E0380780E0480780E40A
:100A2000580758F314962D933D934D935C93179765
:100A300008952F3F310579F4411551056105710580
:100A400019F484E08C93089564FF03C081E08C93D3
:100A500012C01C9210C02F57304013963C932E9317
:100A6000129783E08C9387E0440F551F661F771F12
:100A70008A95D1F7706414964D935D936D937C9332
:100A8000179708951F93DC01FB019C91923008F4A5
:100A900047C08081823008F443C0943051F41196ED
:100AA0001C91843099F58181682F70E0611B710978
:100AB0003FC0843021F0923031F48230B9F181812D
:100AC000882389F12DC011961C9111978230F1F085
:100AD00081811817D9F412962D913C911397828138
:100AE00093818217930794F028173907BCF0149666
:100AF0008D919D910D90BC91A02D248135814681D1
:100B00005781281739074A075B0718F4112341F06A
:100B10000AC082179307A407B50740F4112319F000
:100B200061E070E005C06FEF7FEF02C060E070E051
:100B3000CB011F910895DF93CF9300D000D00F9287
:100B4000CDB7DEB789836A834B838A81883008F00A
:100B5000D5C08981843008F0D1C08981282F30E048
:100B60003D832C838C819D818130910509F443C0A4
:100B70002C813D81223031052CF48C819D810097A0
:100B800071F0BCC02C813D812230310509F45FC079
:100B90008C819D818330910509F485C0AFC08B8124
:100BA0008130A1F4AAE3B0E0EAE3F0E08081482FCD
:100BB0008A81282F30E081E090E0022E02C0880F69
:100BC000991F0A94E2F7842B8C9398C0AAE3B0E0B3
:100BD000EAE3F0E08081482F8A81282F30E081E02D
:100BE00090E0022E02C0880F991F0A94E2F78095C8
:100BF00084238C9383C08B818130A1F4A7E3B0E080
:100C0000E7E3F0E08081482F8A81282F30E081E0FF
:100C100090E0022E02C0880F991F0A94E2F7842BFD
:100C20008C936CC0A7E3B0E0E7E3F0E08081482F4D
:100C30008A81282F30E081E090E0022E02C0880FE8
:100C4000991F0A94E2F7809584238C9357C08B8177
:100C50008130A1F4A4E3B0E0E4E3F0E08081482F28
:100C60008A81282F30E081E090E0022E02C0880FB8
:100C7000991F0A94E2F7842B8C9340C0A4E3B0E060
:100C8000E4E3F0E08081482F8A81282F30E081E082
:100C900090E0022E02C0880F991F0A94E2F7809517
:100CA00084238C932BC08B818130A1F4A1E3B0E02D
:100CB000E1E3F0E08081482F8A81282F30E081E055
:100CC00090E0022E02C0880F991F0A94E2F7842B4D
:100CD0008C9314C0A1E3B0E0E1E3F0E08081482F01
:100CE0008A81282F30E081E090E0022E02C0880F38
:100CF000991F0A94E2F7809584238C930F900F90AC
:100D00000F900F900F90CF91DF910895DF93CF93C5
:100D100000D000D00F92CDB7DEB789836A834B83B2
:100D20008A81883008F0D5C08981843008F0D1C02C
:100D30008981282F30E03D832C838C819D818130F7
:100D4000910509F443C02C813D81223031052CF4FA
:100D50008C819D81009771F0BCC02C813D81223037
:100D6000310509F45FC08C819D818330910509F4C0
:100D700085C0AFC08B818130A1F4ABE3B0E0EBE381
:100D8000F0E08081482F8A81282F30E081E090E0D8
:100D9000022E02C0880F991F0A94E2F7842B8C93CD
:100DA00098C0ABE3B0E0EBE3F0E08081482F8A81AC
:100DB000282F30E081E090E0022E02C0880F991FBA
:100DC0000A94E2F7809584238C9383C08B818130D1
:100DD000A1F4A8E3B0E0E8E3F0E08081482F8A8145
:100DE000282F30E081E090E0022E02C0880F991F8A
:100DF0000A94E2F7842B8C936CC0A8E3B0E0E8E39C
:100E0000F0E08081482F8A81282F30E081E090E057
:100E1000022E02C0880F991F0A94E2F7809584235E
:100E20008C9357C08B818130A1F4A5E3B0E0E5E35A
:100E3000F0E08081482F8A81282F30E081E090E027
:100E4000022E02C0880F991F0A94E2F7842B8C931C
:100E500040C0A5E3B0E0E5E3F0E08081482F8A815F
:100E6000282F30E081E090E0022E02C0880F991F09
:100E70000A94E2F7809584238C932BC08B81813078
:100E8000A1F4A2E3B0E0E2E3F0E08081482F8A81A0
:100E9000282F30E081E090E0022E02C0880F991FD9
:100EA0000A94E2F7842B8C9314C0A2E3B0E0E2E34F
:100EB000F0E08081482F8A81282F30E081E090E0A7
:100EC000022E02C0880F991F0A94E2F780958423AE
:100ED0008C930F900F900F900F900F90CF91DF9108
:100EE0000895DF93CF9300D000D00F92CDB7DEB737
:100EF0008A836B8319828B81883008F084C08A8151
:100F0000843008F080C08A81282F30E03D832C8314
:100F10004C815D814130510579F18C819D81823018
:100F2000910534F42C813D812115310569F06BC0A8
:100F30004C815D8142305105B9F18C819D818330B6
:100F4000910509F449C05FC0E9E3F0E08081282FF2
:100F500030E08B81882F90E0A90102C0559547951C
:100F60008A95E2F7CA0181709070882319F081E0B8
:100F7000898349C0198247C0E6E3F0E08081282FC9
:100F800030E08B81882F90E0A90102C055954795EC
:100F90008A95E2F7CA0181709070882319F081E088
:100FA000898331C019822FC0E3E3F0E08081282FCC
:100FB00030E08B81882F90E0A90102C055954795BC
:100FC0008A95E2F7CA0181709070882319F081E058
:100FD000898319C0198217C0E0E3F0E08081282FCF
:100FE00030E08B81882F90E0A90102C0559547958C
:100FF0008A95E2F7CA0181709070882319F081E028
:10100000898301C0198289810F900F900F900F90F2
:101010000F90CF91DF910895DF93CF9300D000D050
:10102000CDB7DEB789836A838981843090F5898161
:10103000282F30E03C832B838B819C81813091056C
:10104000D1F02B813C81223031052CF48B819C81A5
:10105000009761F01EC02B813C812230310581F068
:101060008B819C818330910581F013C0EAE3F0E02D
:101070008A8180830EC0E7E3F0E08A81808309C023
:10108000E4E3F0E08A81808304C0E1E3F0E08A8158
:1010900080830F900F900F900F90CF91DF91089564
:1010A000DF93CF9300D000D0CDB7DEB789836A83BA
:1010B0008981843090F58981282F30E03C832B830F
:1010C0008B819C8181309105D1F02B813C81223034
:1010D00031052CF48B819C81009761F01EC02B811F
:1010E0003C812230310581F08B819C8183309105D8
:1010F00081F013C0EBE3F0E08A8180830EC0E8E367
:10110000F0E08A81808309C0E5E3F0E08A81808392
:1011100004C0E2E3F0E08A8180830F900F900F908B
:101120000F90CF91DF910895DF93CF9300D000D03F
:10113000CDB7DEB78A8319828A81843090F58A819F
:10114000282F30E03C832B838B819C81813091055B
:10115000D1F02B813C81223031052CF48B819C8194
:10116000009761F01EC02B813C812230310581F057
:101170008B819C818330910581F013C0E9E3F0E01D
:10118000808189830EC0E6E3F0E08081898309C015
:10119000E3E3F0E08081898304C0E0E3F0E0808154
:1011A000898389810F900F900F900F90CF91DF91DD
:1011B0000895DF93CF93CDB7DEB72E970FB6F8948F
:1011C000DEBF0FBECDBF80E061E041E00E949B0525
:1011D00080E062E041E00E949B0580E090E0A0EAB0
:1011E000B1E48B879C87AD87BE876B857C858D85B9
:1011F0009E8520E030E04AE755E40E941702DC01BA
:10120000CB018F839887A987BA876F817885898575
:101210009A8520E030E040E85FE30E947103882374
:101220002CF481E090E09E838D833FC06F817885B0
:1012300089859A8520E03FEF4FE757E40E9411032C
:1012400018164CF56B857C858D859E8520E030E0F9
:1012500040E251E40E941702DC01CB01BC01CD0148
:101260000E944100DC01CB019E838D830FC080E989
:1012700091E09C838B838B819C810197F1F79C8308
:101280008B838D819E8101979E838D838D819E812D
:10129000009769F714C06F81788589859A850E94C7
:1012A0004100DC01CB019E838D838D819E819A83D9
:1012B000898389819A810197F1F79A83898380E0F4
:1012C00063E041E00E949B0580E064E041E00E9411
:1012D0009B0580E065E041E00E949B0580E066E0C0
:1012E00041E00E949B0583E30E948B0982E30E94F8
:1012F0008B0988E20E948B098CE00E948B0981E0B7
:101300000E948B092E960FB6F894DEBF0FBECDBF9C
:10131000CF91DF9108950F931F93DF93CF93CDB7B4
:10132000DEB7C356D0400FB6F894DEBF0FBECDBFB8
:10133000FE01ED59FF4F808380E061E040E00E94B4
:101340008606FE01E15AFF4F80E090E0A0E8BFE38F
:1013500080839183A283B3838E01055A1F4FFE01C0
:10136000E15AFF4F608171818281938120E030E0FA
:101370004AE755E40E941702DC01CB01F8018083A3
:101380009183A283B383FE01E55AFF4F608171818F
:101390008281938120E030E040E85FE30E947103A6
:1013A000882344F4FE01E75AFF4F81E090E09183E7
:1013B000808364C0FE01E55AFF4F608171818281A4
:1013C000938120E03FEF4FE757E40E941103181686
:1013D0000CF043C0FE01E15AFF4F608171818281B0
:1013E000938120E030E040E251E40E941702DC01EA
:1013F000CB018E01075A1F4FBC01CD010E94410055
:10140000DC01CB01F801918380831FC0FE01E95A02
:10141000FF4F80E991E091838083FE01E95AFF4FFD
:10142000808191810197F1F7FE01E95AFF4F918385
:101430008083DE01A75ABF4FFE01E75AFF4F80812C
:101440009181019711969C938E93FE01E75AFF4F6D
:10145000808191810097D1F627C08E01075A1F4FD6
:10146000FE01E55AFF4F60817181828193810E9464
:101470004100DC01CB01F80191838083DE01AB5A8E
:10148000BF4FFE01E75AFF4F808191818D939C935E
:10149000FE01EB5AFF4F808191810197F1F7FE0128
:1014A000EB5AFF4F9183808380E062E041E00E942D
:1014B0008606FE01EF5AFF4F80E090E0A0E8BFE310
:1014C00080839183A283B3838E01035B1F4FFE0150
:1014D000EF5AFF4F608171818281938120E030E07B
:1014E0004AE755E40E941702DC01CB01F801808332
:1014F0009183A283B383FE01E35BFF4F608171811F
:101500008281938120E030E040E85FE30E94710334
:10151000882344F4FE01E55BFF4F81E090E0918376
:10152000808364C0FE01E35BFF4F60817181828133
:10153000938120E03FEF4FE757E40E941103181614
:101540000CF043C0FE01EF5AFF4F60817181828130
:10155000938120E030E040E251E40E941702DC0178
:10156000CB018E01055B1F4FBC01CD010E944100E4
:10157000DC01CB01F801918380831FC0FE01E75B92
:10158000FF4F80E991E091838083FE01E75BFF4F8D
:10159000808191810197F1F7FE01E75BFF4F918315
:1015A0008083DE01A55BBF4FFE01E55BFF4F8081BD
:1015B0009181019711969C938E93FE01E55BFF4FFD
:1015C000808191810097D1F627C08E01055B1F4F66
:1015D000FE01E35BFF4F60817181828193810E94F4
:1015E0004100DC01CB01F80191838083DE01A95B1E
:1015F000BF4FFE01E55BFF4F808191818D939C93EE
:10160000FE01E95BFF4F808191810197F1F7FE01B7
:10161000E95BFF4F91838083FE01ED59FF4F80818D
:10162000882F90E080719070959587959595879516
:101630009595879595958795982F80E063E0492F3C
:101640000E948606FE01ED59FF4F8081882F90E0B1
:1016500080729070959587959595879595958795C6
:101660009595879595958795982F80E064E0492F0B
:101670000E948606FE01ED59FF4F8081882F90E081
:1016800080749070082E892F000C881F990B000C15
:10169000881F991F982F80E065E0492F0E948606D9
:1016A000FE01ED59FF4F8081982F991F9927991FAF
:1016B00080E066E0492F0E948606FE01ED5BFF4F49
:1016C00080E090E0A0E8BFE380839183A283B383AE
:1016D0008E01015C1F4FFE01ED5BFF4F6081718148
:1016E0008281938120E030E04AE755E40E941702AE
:1016F000DC01CB01F80180839183A283B383FE01D7
:10170000FF96608171818281938120E030E040E822
:101710005FE30E94710388232CF481E090E09EAF88
:101720008DAF46C0FE01FF966081718182819381F9
:1017300020E03FEF4FE757E40E941103181664F5CD
:10174000FE01ED5BFF4F608171818281938120E01A
:1017500030E040E251E40E941702DC01CB01BC0101
:10176000CD010E944100DC01CB019EAF8DAF0FC0C7
:1017700080E991E09CAF8BAF8BAD9CAD0197F1F709
:101780009CAF8BAF8DAD9EAD01979EAF8DAF8DADF4
:101790009EAD009769F716C0FE01FF9660817181CA
:1017A000828193810E944100DC01CB019EAF8DAF0D
:1017B0008DAD9EAD9AAF89AF89AD9AAD0197F1F726
:1017C0009AAF89AF80E062E040E00E94860680E048
:1017D00090E0A0E8BFE38DAB9EABAFABB8AF6DA917
:1017E0007EA98FA998AD20E030E04AE755E40E9439
:1017F0001702DC01CB0189AB9AABABABBCAB69A9DF
:101800007AA98BA99CA920E030E040E85FE30E9420
:10181000710388232CF481E090E098AB8FA73FC040
:1018200069A97AA98BA99CA920E03FEF4FE757E46B
:101830000E94110318164CF56DA97EA98FA998ADC9
:1018400020E030E040E251E40E941702DC01CB01CD
:10185000BC01CD010E944100DC01CB0198AB8FA7F8
:101860000FC080E991E09EA78DA78DA59EA5019749
:10187000F1F79EA78DA78FA598A9019798AB8FA781
:101880008FA598A9009769F714C069A97AA98BA9AF
:101890009CA90E944100DC01CB0198AB8FA78FA5CA
:1018A00098A99CA78BA78BA59CA50197F1F79CA74E
:1018B0008BA780E062E041E00E94860680E090E035
:1018C000A0E8BFE38FA398A7A9A7BAA76FA178A59F
:1018D00089A59AA520E030E04AE755E40E94170266
:1018E000DC01CB018BA39CA3ADA3BEA36BA17CA108
:1018F0008DA19EA120E030E040E85FE30E947103EB
:1019000088232CF481E090E09AA389A33FC06BA1C7
:101910007CA18DA19EA120E03FEF4FE757E40E94FC
:10192000110318164CF56FA178A589A59AA520E09A
:1019300030E040E251E40E941702DC01CB01BC011F
:10194000CD010E944100DC01CB019AA389A30FC005
:1019500080E991E098A38F8F8F8D98A10197F1F77F
:1019600098A38F8F89A19AA101979AA389A389A18E
:101970009AA1009769F714C06BA17CA18DA19EA1CB
:101980000E944100DC01CB019AA389A389A19AA1FD
:101990009E8F8D8F8D8D9E8D0197F1F79E8F8D8FF0
:1019A000FE01ED59FF4F8081982F917080E063E038
:1019B000492F0E948606FE01ED59FF4F8081882F36
:1019C00090E08270907095958795982F80E064E004
:1019D000492F0E948606FE01ED59FF4F8081882F16
:1019E00090E0847090709595879595958795982F40
:1019F00080E065E0492F0E948606FE01ED59FF4F09
:101A00008081882F90E08870907095958795959546
:101A1000879595958795982F80E066E0492F0E94DD
:101A2000860680E090E0A0E8BFE3898F9A8FAB8FB5
:101A3000BC8F698D7A8D8B8D9C8D20E030E04AE7DC
:101A400055E40E941702DC01CB018D8B9E8BAF8B7E
:101A5000B88F6D897E898F89988D20E030E040E8CD
:101A60005FE30E94710388232CF481E090E09C8B5B
:101A70008B8B3FC06D897E898F89988D20E03FEFE9
:101A80004FE757E40E94110318164CF5698D7A8DC3
:101A90008B8D9C8D20E030E040E251E40E941702E3
:101AA000DC01CB01BC01CD010E944100DC01CB0176
:101AB0009C8B8B8B0FC080E991E09A8B898B8989F5
:101AC0009A890197F1F79A8B898B8B899C89019769
:101AD0009C8B8B8B8B899C89009769F714C06D89CF
:101AE0007E898F89988D0E944100DC01CB019C8BFF
:101AF0008B8B8B899C89988B8F878F859889019791
:101B0000F1F7988B8F8780E062E040E00E948606C4
:101B100080E090E0A0E8BFE38B879C87AD87BE871D
:101B20006B857C858D859E8520E030E04AE755E415
:101B30000E941702DC01CB018F839887A987BA879F
:101B40006F81788589859A8520E030E040E85FE301
:101B50000E94710388232CF481E090E09E838D83A2
:101B60003FC06F81788589859A8520E03FEF4FE7F8
:101B700057E40E94110318164CF56B857C858D8502
:101B80009E8520E030E040E251E40E941702DC0133
:101B9000CB01BC01CD010E944100DC01CB019E8341
:101BA0008D830FC080E991E09C838B838B819C8126
:101BB0000197F1F79C838B838D819E8101979E8392
:101BC0008D838D819E81009769F714C06F81788520
:101BD00089859A850E944100DC01CB019E838D831B
:101BE0008D819E819A83898389819A810197F1F7FA
:101BF0009A838983CD59DF4F0FB6F894DEBF0FBEAD
:101C0000CDBFCF91DF911F910F9108950F931F9337
:101C1000DF93CF93CDB7DEB7C356D0400FB6F8945D
:101C2000DEBF0FBECDBFFE01ED59FF4F808380E0C8
:101C300061E041E00E948606FE01E15AFF4F80E02C
:101C400090E0A0E8BFE380839183A283B3838E01F9
:101C5000055A1F4FFE01E15AFF4F60817181828159
:101C6000938120E030E04AE755E40E941702DC014E
:101C7000CB01F80180839183A283B383FE01E55AEF
:101C8000FF4F608171818281938120E030E040E8E4
:101C90005FE30E947103882344F4FE01E75AFF4F7B
:101CA00081E090E09183808364C0FE01E55AFF4F9C
:101CB000608171818281938120E03FEF4FE757E49B
:101CC0000E94110318160CF043C0FE01E15AFF4FA9
:101CD000608171818281938120E030E040E251E4B3
:101CE0000E941702DC01CB018E01075A1F4FBC0175
:101CF000CD010E944100DC01CB01F801918380837A
:101D00001FC0FE01E95AFF4F80E991E09183808373
:101D1000FE01E95AFF4F808191810197F1F7FE01A1
:101D2000E95AFF4F91838083DE01A75ABF4FFE011E
:101D3000E75AFF4F80819181019711969C938E9372
:101D4000FE01E75AFF4F808191810097D1F627C0AD
:101D50008E01075A1F4FFE01E55AFF4F60817181C6
:101D6000828193810E944100DC01CB01F8019183C3
:101D70008083DE01AB5ABF4FFE01E75AFF4F8081DF
:101D800091818D939C93FE01EB5AFF4F808191814D
:101D90000197F1F7FE01EB5AFF4F9183808380E0BA
:101DA00062E041E00E948606FE01EF5AFF4F80E0AC
:101DB00090E0A0E8BFE380839183A283B3838E0188
:101DC000035B1F4FFE01EF5AFF4F608171818281DB
:101DD000938120E030E04AE755E40E941702DC01DD
:101DE000CB01F80180839183A283B383FE01E35B7F
:101DF000FF4F608171818281938120E030E040E873
:101E00005FE30E947103882344F4FE01E55BFF4F0A
:101E100081E090E09183808364C0FE01E35BFF4F2B
:101E2000608171818281938120E03FEF4FE757E429
:101E30000E94110318160CF043C0FE01EF5AFF4F29
:101E4000608171818281938120E030E040E251E441
:101E50000E941702DC01CB018E01055B1F4FBC0104
:101E6000CD010E944100DC01CB01F8019183808308
:101E70001FC0FE01E75BFF4F80E991E09183808303
:101E8000FE01E75BFF4F808191810197F1F7FE0131
:101E9000E75BFF4F91838083DE01A55BBF4FFE01AF
:101EA000E55BFF4F80819181019711969C938E9302
:101EB000FE01E55BFF4F808191810097D1F627C03D
:101EC0008E01055B1F4FFE01E35BFF4F6081718157
:101ED000828193810E944100DC01CB01F801918352
:101EE0008083DE01A95BBF4FFE01E55BFF4F808170
:101EF00091818D939C93FE01E95BFF4F80819181DD
:101F00000197F1F7FE01E95BFF4F91838083FE01AA
:101F1000ED59FF4F8081882F90E0807190709595EA
:101F20008795959587959595879595958795982FFC
:101F300080E063E0492F0E948606FE01ED59FF4FC5
:101F40008081882F90E08072907095958795959507
:101F50008795959587959595879595958795982FCC
:101F600080E064E0492F0E948606FE01ED59FF4F94
:101F70008081882F90E080749070082E892F000C4B
:101F8000881F990B000C881F991F982F80E065E02F
:101F9000492F0E948606FE01ED59FF4F8081982F40
:101FA000991F9927991F80E066E0492F0E948606B5
:101FB000FE01ED5BFF4F80E090E0A0E8BFE380838F
:101FC0009183A283B3838E01015C1F4FFE01ED5B01
:101FD000FF4F608171818281938120E030E04AE788
:101FE00055E40E941702DC01CB01F8018083918344
:101FF000A283B383FE01FF96608171818281938108
:1020000020E030E040E85FE30E94710388232CF475
:1020100081E090E09EAF8DAF46C0FE01FF966081EB
:1020200071818281938120E03FEF4FE757E40E9466
:102030001103181664F5FE01ED5BFF4F608171819D
:102040008281938120E030E040E251E40E94170257
:10205000DC01CB01BC01CD010E944100DC01CB01C0
:102060009EAF8DAF0FC080E991E09CAF8BAF8BAD81
:102070009CAD0197F1F79CAF8BAF8DAD9EAD0197F5
:102080009EAF8DAF8DAD9EAD009769F716C0FE0176
:10209000FF9660817181828193810E944100DC0101
:1020A000CB019EAF8DAF8DAD9EAD9AAF89AF89AD9F
:1020B0009AAD0197F1F79AAF89AF80E062E040E016
:1020C0000E94860680E090E0A0E8BFE38DAB9EAB67
:1020D000AFABB8AF6DA97EA98FA998AD20E030E075
:1020E0004AE755E40E941702DC01CB0189AB9AABA9
:1020F000ABABBCAB69A97AA98BA99CA920E030E065
:1021000040E85FE30E94710388232CF481E090E0B3
:1021100098AB8FA73FC069A97AA98BA99CA920E099
:102120003FEF4FE757E40E94110318164CF56DA9D5
:102130007EA98FA998AD20E030E040E251E40E94F2
:102140001702DC01CB01BC01CD010E944100DC0182
:10215000CB0198AB8FA70FC080E991E09EA78DA718
:102160008DA59EA50197F1F79EA78DA78FA598A98C
:10217000019798AB8FA78FA598A9009769F714C00E
:1021800069A97AA98BA99CA90E944100DC01CB0115
:1021900098AB8FA78FA598A99CA78BA78BA59CA56B
:1021A0000197F1F79CA78BA780E062E041E00E94D5
:1021B000860680E090E0A0E8BFE38FA398A7A9A7D8
:1021C000BAA76FA178A589A59AA520E030E04AE7D3
:1021D00055E40E941702DC01CB018BA39CA3ADA3A5
:1021E000BEA36BA17CA18DA19EA120E030E040E8C0
:1021F0005FE30E94710388232CF481E090E09AA3AE
:1022000089A33FC06BA17CA18DA19EA120E03FEFDF
:102210004FE757E40E94110318164CF56FA178A5FB
:1022200089A59AA520E030E040E251E40E9417021F
:10223000DC01CB01BC01CD010E944100DC01CB01DE
:102240009AA389A30FC080E991E098A38F8F8F8D07
:1022500098A10197F1F798A38F8F89A19AA101976F
:102260009AA389A389A19AA1009769F714C06BA1C9
:102270007CA18DA19EA10E944100DC01CB019AA30B
:1022800089A389A19AA19E8F8D8F8D8D9E8D019797
:10229000F1F79E8F8D8FFE01ED59FF4F8081982FB2
:1022A000917080E063E0492F0E948606FE01ED599F
:1022B000FF4F8081882F90E0827090709595879570
:1022C000982F80E064E0492F0E948606FE01ED59B8
:1022D000FF4F8081882F90E084709070959587954E
:1022E00095958795982F80E065E0492F0E94860696
:1022F000FE01ED59FF4F8081882F90E0887090702B
:10230000959587959595879595958795982F80E0D4
:1023100066E0492F0E94860680E090E0A0E8BFE3D7
:10232000898F9A8FAB8FBC8F698D7A8D8B8D9C8DA9
:1023300020E030E04AE755E40E941702DC01CB01BF
:102340008D8B9E8BAF8BB88F6D897E898F89988D91
:1023500020E030E040E85FE30E94710388232CF422
:1023600081E090E09C8B8B8B3FC06D897E898F894B
:10237000988D20E03FEF4FE757E40E9411031816B5
:102380004CF5698D7A8D8B8D9C8D20E030E040E29C
:1023900051E40E941702DC01CB01BC01CD010E9477
:1023A0004100DC01CB019C8B8B8B0FC080E991E05D
:1023B0009A8B898B89899A890197F1F79A8B898BF6
:1023C0008B899C8901979C8B8B8B8B899C8900972F
:1023D00069F714C06D897E898F89988D0E944100AC
:1023E000DC01CB019C8B8B8B8B899C89988B8F8795
:1023F0008F8598890197F1F7988B8F8780E062E04D
:1024000040E00E94860680E090E0A0E8BFE38B8772
:102410009C87AD87BE876B857C858D859E8520E0FA
:1024200030E04AE755E40E941702DC01CB018F83BC
:102430009887A987BA876F81788589859A8520E0F2
:1024400030E040E85FE30E94710388232CF481E0D0
:1024500090E09E838D833FC06F81788589859A85C2
:1024600020E03FEF4FE757E40E94110318164CF5A8
:102470006B857C858D859E8520E030E040E251E4CF
:102480000E941702DC01CB01BC01CD010E9441007A
:10249000DC01CB019E838D830FC080E991E09C839A
:1024A0008B838B819C810197F1F79C838B838D813A
:1024B0009E8101979E838D838D819E81009769F710
:1024C00014C06F81788589859A850E944100DC015E
:1024D000CB019E838D838D819E819A83898389819F
:1024E0009A810197F1F79A838983CD59DF4F0FB60F
:1024F000F894DEBF0FBECDBFCF91DF911F910F913A
:102500000895DF93CF9300D00F92CDB7DEB79B83B2
:102510008A8319820EC08981282F30E08A819B81AD
:10252000FC01E20FF31F80810E94060E89818F5FFC
:1025300089838981282F30E08A819B81FC01E20F09
:10254000F31F8081882339F70F900F900F90CF9160
:10255000DF910895DF93CF9300D000D00F92CDB7D5
:10256000DEB78A836B838A81282F30E03D832C83FA
:102570008C819D8181309105C1F02C813D8122307B
:1025800031052CF48C819D81009761F019C02C815C
:102590003D812230310569F08C819D818330910528
:1025A00061F00EC08B8189830BC08B81805C898335
:1025B00007C08B81805F898303C08B81805B8983A7
:1025C000898180680E948B090F900F900F900F9067
:1025D0000F90CF91DF910895DF93CF9300D000D07B
:1025E000CDB7DEB789836A835C834B8389816A8137
:1025F0000E94AA128B819C810E9481120F900F90E1
:102600000F900F90CF91DF910895DF93CF93CDB7C7
:10261000DEB762970FB6F894DEBF0FBECDBF9A8BC0
:10262000898B89899A899E012F5F3F4FB9014AE0C2
:1026300050E00E94DA15CE0101960E948112629646
:102640000FB6F894DEBF0FBECDBFCF91DF910895D6
:10265000DF93CF93CDB7DEB781E00E948B09CF9196
:10266000DF910895DF93CF9300D0CDB7DEB7EBE2D3
:10267000F0E082E0808380E190E09A838983E0E467
:10268000F0E089819A81892F99278083E9E2F0E03F
:1026900089818083EAE2F0E088E18083E0E4F0E091
:1026A00086E880830F900F90CF91DF910895DF939C
:1026B000CF930F92CDB7DEB78983EBE2F0E0808154
:1026C000882F90E0807290700097B9F3ECE2F0E010
:1026D000898180830F90CF91DF910895DF93CF930D
:1026E00000D0CDB7DEB79A8389830BC0E981FA8128
:1026F000208189819A8101969A838983822F0E9401
:102700005713E981FA818081882381F70F900F9018
:10271000CF91DF910895DF93CF93CDB7DEB72A979E
:102720000FB6F894DEBF0FBECDBF99878887888526
:1027300099850E94D1158F831E8280E894E8AEE1CE
:10274000B0E08A839B83AC83BD8333C0EBE2F0E0CF
:10275000808188231CF5ECE2F0E0808189838E8102
:10276000282F30E088859985FC01E20FF31F9081C6
:102770008981981751F48E818F5F8E839E818F811E
:10278000981761F481E08A871DC01E82E885F9856B
:1027900090818981981711F481E08E838A819B81D1
:1027A000AC81BD810197A109B1098A839B83AC8368
:1027B000BD838A819B81AC81BD810097A105B10554
:1027C00029F61A868A852A960FB6F894DEBF0FBEC0
:1027D000CDBFCF91DF910895DF93CF93CDB7DEB713
:1027E000C25ED0400FB6F894DEBF0FBECDBF0E94D0
:1027F00032130E94D90880E690E00E94811280E0A6
:1028000090E8ABE3B5E4898F9A8FAB8FBC8F698D6D
:102810007A8D8B8D9C8D20E030E04AE755E40E9454
:102820001702DC01CB018D8B9E8BAF8BB88F6D892E
:102830007E898F89988D20E030E040E85FE30E9438
:10284000710388232CF481E090E09C8B8B8B3FC03C
:102850006D897E898F89988D20E03FEF4FE757E49F
:102860000E94110318164CF5698D7A8D8B8D9C8D05
:1028700020E030E040E251E40E941702DC01CB018D
:10288000BC01CD010E944100DC01CB019C8B8B8BF4
:102890000FC080E991E09A8B898B89899A89019789
:1028A000F1F79A8B898B8B899C8901979C8B8B8BF9
:1028B0008B899C89009769F714C06D897E898F89FF
:1028C000988D0E944100DC01CB019C8B8B8B8B8906
:1028D0009C89988B8F878F8598890197F1F7988BC2
:1028E0008F878BE690E00E946E1389E790E00E944C
:1028F0008B138CE790E00E946E130E9428138CE9E2
:1029000090E00E9481128CEA90E00E948B13882351
:1029100049F00E94281388EB90E00E9481121E8EDD
:102920001D8E07C00E94281388EC90E00E9481123F
:10293000FFCF8DB79EB708970FB6F8949EBF0FBE16
:102940008DBFEDB7FEB73196CE014F969183808350
:1029500087ED90E09383828382E391E09583848383
:102960008D8D9E8D978386830E94FB158DB79EB7B4
:1029700008960FB6F8949EBF0FBE8DBF83E591E019
:102980000E946E1389E790E00E948B13CE014F9650
:102990000E94D1159C0100D000D000D0EDB7FEB749
:1029A0003196CE018B549F4F9183808388E791E0CD
:1029B00093838283358324830E94FB158DB79EB752
:1029C00006960FB6F8949EBF0FBE8DBFCE018B54F6
:1029D0009F4F0E946E1388E891E00E948B13CE01F6
:1029E0004F960E946E138AE891E00E948B130E941A
:1029F000281300D000D000D0EDB7FEB73196CE013D
:102A00008D529F4F9183808382E991E093838283EB
:102A10008D8D9E8D958384830E94FB158DB79EB707
:102A200006960FB6F8949EBF0FBE8DBFCE018D5295
:102A30009F4F0E9481128D8D9E8D01969E8F8D8F4E
:102A40008D8D9E8D8536910514F01E8E1D8E80E035
:102A500090E8ABEBB4E48B879C87AD87BE876B8532
:102A60007C858D859E8520E030E04AE755E40E9414
:102A70001702DC01CB018F839887A987BA876F8102
:102A8000788589859A8520E030E040E85FE30E9400
:102A9000710388232CF481E090E09E838D833FC0F6
:102AA0006F81788589859A8520E03FEF4FE757E46D
:102AB0000E94110318164CF56B857C858D859E85CB
:102AC00020E030E040E251E40E941702DC01CB013B
:102AD000BC01CD010E944100DC01CB019E838D83AE
:102AE0000FC080E991E09C838B838B819C8101974F
:102AF000F1F79C838B838D819E8101979E838D83CB
:102B00008D819E81009769F714CF6F8178858985C3
:102B10009A850E944100DC01CB019E838D838D81CB
:102B20009E819A83898389819A810197F1F79A839B
:102B30008983FFCE2F923F924F925F926F927F9246
:102B40008F929F92AF92BF92CF92DF92EF92FF92BD
:102B50000F931F93CF93DF93CDB7DEB7CA1BDB0B69
:102B60000FB6F894DEBF0FBECDBF09942A8839880E
:102B700048885F846E847D848C849B84AA84B98415
:102B8000C884DF80EE80FD800C811B81AA81B98121
:102B9000CE0FD11D0FB6F894DEBF0FBECDBFED0135
:102BA0000895FC0101900020E9F7809590958E0F23
:102BB0009F1F0895FB019F01E8944230C4F0453205
:102BC000B4F44A3029F497FB1EF4909581959F4FF9
:102BD000642F77270E94AC18805D8A330CF0895DE2
:102BE0008193CB010097A1F716F45DE25193108217
:102BF000C9010C941218AEE0B0E0E1E0F6E10C94EB
:102C0000A8150D891E8986E08C831A8309838FEFAE
:102C10009FE79E838D839E01275E3F4FCE010196E5
:102C20006F89788DA9010E941F162F813885020FA8
:102C3000131FF80110822E96E4E00C94C415ABE04B
:102C4000B0E0E5E2F6E10C949A153C012B015A0143
:102C5000FC0117821682838181FD03C06FEF7FEF35
:102C6000C6C19AE0892E1E010894211C311CF30173
:102C70002381F20123FD859123FF81912F01882378
:102C800009F4B2C1853239F423FD859123FF819186
:102C90002F01853229F490E0B3010E942218E7CF7A
:102CA000982FFF24EE249924FFE1FF15D0F09B32EA
:102CB00069F09C3228F4903259F0933291F40EC0AE
:102CC0009D3249F0903369F441E024C052E0F52A86
:102CD00084E0F82A28C098E0F92A25C0E0E1FE2A1D
:102CE00022C0F7FC29C0892F80538A3070F4F6FE89
:102CF00005C0989C902C1124980E15C0E89CE02CDF
:102D00001124E80EF0E2FF2A0EC09E3229F4F6FCF0
:102D10006BC140E4F42A07C09C3619F450E8F52A48
:102D200002C0983649F4F20123FD959123FF919159
:102D30002F01992309F0B8CF892F8554833018F0DB
:102D40008052833038F444E050E0A40EB51E5FE3B7
:102D500059830FC0933631F0933779F0933509F0EA
:102D600056C020C0F5018081898342E050E0A40E66
:102D7000B51E610101E010E012C0F501C080D180F4
:102D8000F6FC03C06FEF7FEF02C0692D70E042E0F8
:102D900050E0A40EB51EC6010E9407188C015FE723
:102DA000F52214C0F501C080D180F6FC03C06FEF9E
:102DB0007FEF02C0692D70E042E050E0A40EB51E26
:102DC000C6010E94FC178C0150E8F52AF3FE07C0EB
:102DD0001AC080E290E0B3010E942218EA948E2D7E
:102DE00090E008171907A8F30EC0F601F7FC8591CB
:102DF000F7FE81916F0190E0B3010E942218E1106B
:102E0000EA94015010400115110579F7EAC0943693
:102E100011F0993669F5F7FE08C0F501208131817E
:102E20004281538184E090E00AC0F5018081918164
:102E30009C01442737FD4095542F82E090E0A80E76
:102E4000B91E9FE6F92257FF09C05095409530956D
:102E500021953F4F4F4F5F4FE0E8FE2ACA01B9016D
:102E6000A1012AE030E00E944E18D82ED21840C0AE
:102E7000953729F41F2D1F7E2AE030E01DC01F2D3D
:102E8000197F9F3661F0903720F4983509F0ACC077
:102E90000FC0903739F0983709F0A6C004C028E079
:102EA00030E00AC0106114FD146020E130E004C07D
:102EB00014FD166020E132E017FF08C0F5016081C3
:102EC00071818281938144E050E008C0F5018081E6
:102ED0009181BC0180E090E042E050E0A40EB51E7C
:102EE000A1010E944E18D82ED2188FE7F82EF12299
:102EF000F6FE0BC05EEFF522D91438F4F4FE07C0DD
:102F0000F2FC05C08FEEF82202C01D2D01C0192D64
:102F1000F4FE0DC0FE01ED0DF11D8081803319F42A
:102F200099EEF92208C01F5FF2FE05C003C08F2D85
:102F3000867809F01F5F0F2DF3FC14C0F0FE0FC060
:102F40001E1510F09D2C0BC09D2C9E0C911A1E2D51
:102F500006C080E290E0B3010E9422181F5F1E1598
:102F6000C0F304C01E1510F4E11A01C0EE2404FFE2
:102F70000FC080E390E0B3010E94221802FF1DC041
:102F800001FD03C088E790E00EC088E590E00BC02B
:102F9000802F867891F001FF02C08BE201C080E2B1
:102FA000F7FC8DE290E0B3010E94221806C080E396
:102FB00090E0B3010E9422189A94D914C0F3DA94D5
:102FC000F101ED0DF11D808190E0B3010E94221806
:102FD000DD20A9F706C080E290E0B3010E9422182C
:102FE000EA94EE20C1F743CEF30166817781CB01ED
:102FF0002B96E2E10C94B615FC01059061507040EF
:103000000110D8F7809590958E0F9F1F0895FC01B1
:103010006150704001900110D8F7809590958E0F07
:103020009F1F0895DC01FC01672F71917723E1F761
:10303000329704C07C916D9370836291AE17BF0785
:10304000C8F308950F931F93CF93DF938C01EB0187
:103050008B8181FF1BC082FF0DC02E813F818C813F
:103060009D812817390764F4E881F9810193F98378
:10307000E88306C0E885F985802F0995892B31F40E
:103080008E819F8101969F838E8302C00FEF1FEF79
:10309000C801DF91CF911F910F910895FA01AA27DE
:1030A000283051F1203181F1E8946F936E7F6E5F8B
:1030B0007F4F8F4F9F4FAF4FB1E03ED0B4E03CD039
:1030C000670F781F891F9A1FA11D680F791F8A1F1C
:1030D000911DA11D6A0F711D811D911DA11D20D083
:1030E00009F468943F912AE0269F11243019305D3D
:1030F0003193DEF6CF010895462F4770405D41932E
:10310000B3E00FD0C9F7F6CF462F4F70405D4A337A
:1031100018F0495D31FD4052419302D0A9F7EACF42
:10312000B4E0A6959795879577956795BA95C9F771
:1031300000976105710508959B01AC010A2E069464
:103140005795479537952795BA95C9F7620F731F1D
:10315000841F951FA01D0895AA1BBB1B51E107C02A
:10316000AA1FBB1FA617B70710F0A61BB70B881F17
:10317000991F5A95A9F780959095BC01CD010895A6
:04318000F894FFCFF1
:10318400636F646520626567696E0041542B435721
:103194004D4F44453D310D0A004F4B0041542B43E4
:1031A400574A41503D226E616E61222C22303130EB
:1031B4003233303235353634220D0A007769666988
:1031C40020636F6E6E656374696E67005749464984
:1031D40020474F54204950007769666920636F6E19
:1031E4006E65637465642100776966692066616948
:1031F4006C6564203A2800474554202F657874652F
:10320400726E616C2F6170692F7570646174653FB3
:10321400746F6B656E3D25732676313D25642048B9
:103224005454502F312E310D0A486F73743A206272
:103234006C796E6B2E636C6F75640D0A436F6E6EE2
:10324400656374696F6E3A20636C6F73650D0A0D64
:103254000A006E5437626371666353624D68683660
:10326400526941454455386E5F34764978624F5A05
:1032740041650041542B43495053544152543D221B
:10328400544350222C22626C796E6B2E636C6F75E2
:1032940064222C38300D0A0041542B4349505345C5
:1032A4004E443D25640D0A003E0053454E44204FD4
:1032B4004B0053656E743A20256400000000000042
:0432C4000000000006
:00000001FF
