:100000000C94A7000C94C4000C94C4000C94C4007D
:100010000C94C4000C94C4000C94C4000C94D30F32
:100020000C94C4000C94C4000C94C4000C94C40040
:100030000C94C4000C94C4000C94C4000C94C40030
:100040000C94A90D0C94C4000C94C4000C94C4002E
:100050000C94C40000407A10F35A00A0724E1809A4
:100060000010A5D4E80000E87648170000E40B541F
:10007000020000CA9A3B000000E1F50500008096EE
:100080009800000040420F000000A0860100000020
:10009000102700000000E8030000000064000000DA
:1000A00000000A00000000000100000000002C76A3
:1000B000D888DC674F0823DFC1DFAE59E1B1B796BE
:1000C000E5E3E453C63AE651997696E8E6C284261B
:1000D000EB898C9B62ED407C6FFCEFBC9C9F40F2F7
:1000E000BAA56FA5F490055A2AF75C936B6CF96773
:1000F0006DC11BFCE0E40D47FEF520E6B500D0ED38
:10010000902E0300943577050080841E080000209F
:100110004E0A000000C80C333333330F986E12833D
:100120001141EF8D2114893BE65516CFFEE6DB1811
:10013000D1844B381BF77C1D901DA4BBE4242032D6
:1001400084725E228100C9F124ECA1E53D271124CF
:100150001FBECFE5D8E0DEBFCDBF14E0A0E6B0E023
:10016000EAE6F5E302C005900D92A437B107D9F78E
:1001700014E0A4E7B4E001C01D92A53AB107E1F78D
:100180000E948F120C94B31A0C940000EF92FF920D
:100190000F931F937B018C0120E030E040E05FE48F
:1001A0000E94D20488238CF0C801B70120E030E01F
:1001B00040E05FE40E943E020E9432059B01AC01D8
:1001C000205030404040504806C0C801B7010E944E
:1001D00032059B01AC01B901CA011F910F91FF903B
:1001E000EF900895A0E0B0E0E8EFF0E00C94141573
:1001F000DC012B01FA019C91923008F439C1EB012A
:100200008881823008F433C1943069F4843009F075
:100210002FC111969C9111978981981709F428C1D3
:10022000ABE6B3E025C1843009F421C18230A9F4E2
:10023000923009F01DC19A01AD0188E0EA010990F0
:10024000AE01E90109929E018150C1F7E201898165
:1002500011969C918923818308C1923009F407C1CA
:1002600012962D903C901397EB018A819B811496F6
:10027000AD90BD90CD90DC901797EC80FD800E8105
:100280001F819101281B390BB90137FF04C0662774
:100290007727621B730B603271050CF061C0121678
:1002A00013066CF537014801062E04C09694879416
:1002B000779467940A94D2F721E030E040E050E070
:1002C00004C0220F331F441F551F6A95D2F72150D7
:1002D0003040404050402E213F21402351232115E2
:1002E00031054105510521F021E030E040E050E0CA
:1002F00079018A01E628F728082919293CC0232B0F
:10030000D1F1260E371E35014601062E04C0969403
:100310008794779467940A94D2F721E030E040E024
:1003200050E004C0220F331F441F551F6A95D2F7B7
:1003300021503040404050402A213B214C215D213A
:10034000211531054105510521F021E030E040E063
:1003500050E059016A01A628B728C828D9280BC03F
:10036000821593052CF01C01AA24BB24650103C04F
:10037000EE24FF24870111969C91D20111968C9155
:10038000981709F445C0992339F0A80197012A1953
:100390003B094C095D0906C0A60195012E193F09CC
:1003A000400B510B57FD08C01182338222822483F7
:1003B0003583468357831DC081E081833382228247
:1003C00088279927DC01821B930BA40BB50B848330
:1003D0009583A683B7830DC0220F331F441F551F7B
:1003E0002483358346835783828193810197938346
:1003F00082832481358146815781DA01C9010197C1
:10040000A109B1098F5F9F4FAF4FBF4328F30BC0C6
:10041000918333822282EA0CFB1C0C1D1D1DE48299
:10042000F5820683178383E08083248135814681AA
:10043000578157FF1AC0C901AA2797FDA095BA2F67
:1004400081709070A070B07056954795379527953C
:10045000822B932BA42BB52B84839583A683B78300
:1004600082819381019693838283DF0101C0D2014F
:10047000CD01CDB7DEB7E2E10C943015A0E2B0E0DB
:10048000E4E4F2E00C94201569837A838B839C83E7
:100490002D833E834F835887E9E0EE2EF12CEC0E3E
:1004A000FD1ECE010196B7010E9423078E010F5E4B
:1004B0001F4FCE010596B8010E9423078A8991E05B
:1004C00089278A8BC701B801AE01475E5F4F0E9442
:1004D000F2000E944E06A096E6E00C943C15A0E2C5
:1004E000B0E0E5E7F2E00C94201569837A838B8312
:1004F0009C832D833E834F835887F9E0EF2EF12CA8
:10050000EC0EFD1ECE010196B7010E9423078E015D
:100510000F5E1F4FCE010596B8010E942307C70149
:10052000B801AE01475E5F4F0E94F2000E944E0686
:10053000A096E6E00C943C15A0E2B0E0E2EAF2E01E
:100540000C94141569837A838B839C832D833E835B
:100550004F835887CE010196BE01675F7F4F0E948F
:100560002307CE010596BE016F5E7F4F0E942307D1
:100570009985923088F089898230C8F0943019F4D6
:10058000823051F404C0843029F4923081F48BE637
:1005900093E0C6C0923049F420E09A858A89981386
:1005A00021E02A87CE010996BBC0823049F420E0C1
:1005B0009A858A89981321E02A8BCE014196B0C092
:1005C0002D843E844F8458886D887E888F88988CCF
:1005D000EE24FF248701AA24BB24650140E050E0FB
:1005E00060E070E0E0E0F0E0C10181709070892B84
:1005F000E9F0E60CF71C081D191D9A01AB012A0D44
:100600003B1D4C1D5D1D80E090E0A0E0B0E0E614D5
:10061000F7040805190520F481E090E0A0E0B0E0BF
:10062000BA01A901480F591F6A1F7B1FAA0CBB1CE6
:10063000CC1CDD1C97FE08C081E090E0A0E0B0E09B
:10064000A82AB92ACA2ADB2A3196E032F10549F0F4
:10065000660C771C881C991C5694479437942794F1
:10066000C3CFFA85EA892B893C898B859C85280F25
:10067000391F2E5F3F4F17C0CA0181709070892BC0
:1006800061F016950795F794E79480E090E0A0E07C
:10069000B0E8E82AF92A0A2B1B2B7695679557951F
:1006A00047952F5F3F4F77FDE7CF0CC0440F551F95
:1006B000661F771F17FD4160EE0CFF1C001F111F06
:1006C00021503040403090E0590790E0690790E4B5
:1006D000790760F32B8F3C8FDB01CA018F77907015
:1006E000A070B07080349105A105B10561F447FD9B
:1006F0000AC0E114F1040105110529F0405C5F4FC7
:100700006F4F7F4F40781A8EFE1711F081E08A8F6D
:100710004D8F5E8F6F8F78A383E0898FCE014996CE
:100720000E944E06A096E2E10C943015A8E1B0E0DC
:10073000ECE9F3E00C941C1569837A838B839C832A
:100740002D833E834F835887B9E0EB2EF12CEC0EBE
:10075000FD1ECE010196B7010E9423078E010F5E98
:100760001F4FCE010596B8010E942307298522302C
:1007700008F47EC03989323010F4B8017CC08A8513
:100780009A8989278A87243011F0223031F423177F
:1007900009F06EC06BE673E06EC0343039F41D862C
:1007A0001E861F86188A1C861B8604C0323021F4E0
:1007B00084E08987B7015FC02B853C858B899C8944
:1007C000281B390B3C872B87ED84FE840F85188905
:1007D000AD88BE88CF88D88CEA14FB040C051D05B3
:1007E00040F4EE0CFF1C001F111F215030403C87CD
:1007F0002B8720E030E040E050E080E090E0A0E097
:10080000B0E460E070E0EA14FB040C051D0540F064
:10081000282B392B4A2B5B2BEA18FB080C091D09E6
:10082000B695A79597958795EE0CFF1C001F111F95
:100830006F5F7F4F6F31710531F7DA01C9018F7733
:100840009070A070B07080349105A105B10561F47D
:1008500027FD0AC0E114F1040105110529F0205C0F
:100860003F4F4F4F5F4F20782D873E874F87588BE4
:10087000BE01675F7F4FCB010E944E066896EAE09B
:100880000C943815A8E1B0E0E8E4F4E00C942015ED
:1008900069837A838B839C832D833E834F83588720
:1008A00089E0E82EF12CEC0EFD1ECE010196B70179
:1008B0000E9423078E010F5E1F4FCE010596B801DF
:1008C0000E9423078985823040F08989823028F090
:1008D000C701B8010E949B0701C081E06896E6E06D
:1008E0000C943C15A8E1B0E0E8E7F4E00C94201586
:1008F00069837A838B839C832D833E834F835887C0
:1009000089E0E82EF12CEC0EFD1ECE010196B70118
:100910000E9423078E010F5E1F4FCE010596B8017E
:100920000E9423078985823040F08989823028F02F
:10093000C701B8010E949B0701C081E06896E6E00C
:100940000C943C15A8E1B0E0E8EAF4E00C94201522
:1009500069837A838B839C832D833E834F8358875F
:1009600089E0E82EF12CEC0EFD1ECE010196B701B8
:100970000E9423078E010F5E1F4FCE010596B8011E
:100980000E9423078985823040F08989823028F0CF
:10099000C701B8010E949B0701C08FEF6896E6E08F
:1009A0000C943C15A8E1B0E0E8EDF4E00C942015BF
:1009B00069837A838B839C832D833E834F835887FF
:1009C00089E0E82EF12CEC0EFD1ECE010196B70158
:1009D0000E9423078E010F5E1F4FCE010596B801BE
:1009E0000E9423078985823040F08989823028F06F
:1009F000C701B8010E949B0701C08FEF6896E6E02F
:100A00000C943C15A8E1B0E0E8E0F5E00C9420156A
:100A100069837A838B839C832D833E834F8358879E
:100A200089E0E82EF12CEC0EFD1ECE010196B701F7
:100A30000E9423078E010F5E1F4FCE010596B8015D
:100A40000E9423078985823040F08989823028F00E
:100A5000C701B8010E949B0701C081E06896E6E0EB
:100A60000C943C15ACE0B0E0E8E3F5E00C94241500
:100A700069837A838B839C83CE010196BE016B5F71
:100A80007F4F0E9423078D81823061F1823050F1C7
:100A9000843021F48E81882351F12EC02F81388536
:100AA00037FD20C06E812F3131051CF06623F9F02F
:100AB00023C08EE190E0821B930B29853A854B85FC
:100AC0005C8504C056954795379527958A95D2F74A
:100AD0006623B1F050954095309521953F4F4F4F8B
:100AE0005F4F0EC020E030E040E050E009C02FEF43
:100AF0003FEF4FEF5FE704C020E030E040E050E818
:100B0000B901CA012C96E2E00C944015A8E0B0E0CF
:100B1000ECE8F5E00C941C157B018C016115710566
:100B20008105910519F482E0898360C083E089839F
:100B30008EE1C82ED12CDC82CB82ED82FE820F8327
:100B40001887C801B7010E94FF05FC013197F7FF24
:100B50003BC0222733272E1B3F0B57016801022E73
:100B600004C0D694C794B794A7940A94D2F740E0EF
:100B700050E060E070E081E090E0A0E0B0E004C010
:100B8000880F991FAA1FBB1F2A95D2F70197A109A9
:100B9000B1098E219F21A023B1230097A105B105A2
:100BA00021F041E050E060E070E04A295B296C29C7
:100BB0007D294D835E836F8378878EE190E08E1B65
:100BC0009F0B9C838B8312C0309781F00E2E04C044
:100BD000EE0CFF1C001F111F0A94D2F7ED82FE825B
:100BE0000F831887CE1ADF0ADC82CB821A82CE01ED
:100BF00001960E944E062896EAE00C943815EF9272
:100C0000FF920F931F937B018C0180E0E81680E038
:100C1000F80681E0080780E0180788F48FEFE816EF
:100C2000F1040105110531F028F088E090E0A0E022
:100C3000B0E017C080E090E0A0E0B0E012C080E03B
:100C4000E81680E0F80680E0080781E0180728F041
:100C500088E190E0A0E0B0E004C080E190E0A0E096
:100C6000B0E020E230E040E050E0281B390B4A0BB6
:100C70005B0B04C016950795F794E7948A95D2F715
:100C8000F701ED58FC4F8081281B310941095109BA
:100C9000C9011F910F91FF90EF900895DF92EF929D
:100CA000FF920F931F93FC01E480F580068117816A
:100CB000D1808081823048F480E090E0A0E1B0E013
:100CC000E82AF92A0A2B1B2BA5C0843009F49FC0FF
:100CD000823021F4EE24FF24870105C0E114F104E1
:100CE0000105110519F4E0E0F0E096C0628173811E
:100CF0009FEF623879070CF05BC022E83FEF261BBC
:100D0000370B2A3131052CF020E030E040E050E094
:100D10002AC0B801A701022E04C0769567955795A1
:100D200047950A94D2F781E090E0A0E0B0E004C0DB
:100D3000880F991FAA1FBB1F2A95D2F70197A109F7
:100D4000B1098E219F21A023B1230097A105B105F0
:100D500021F081E090E0A0E0B0E09A01AB01282B07
:100D6000392B4A2B5B2BDA01C9018F779070A07069
:100D7000B07080349105A105B10539F427FF09C091
:100D8000205C3F4F4F4F5F4F04C0215C3F4F4F4FA0
:100D90005F4FE0E0F0E02030A0E03A07A0E04A0733
:100DA000A0E45A0710F0E1E0F0E079018A0127C0E1
:100DB0006038710564F5FB01E158FF4FD801C701A8
:100DC0008F779070A070B07080349105A105B10547
:100DD00039F4E7FE0DC080E490E0A0E0B0E004C08C
:100DE0008FE390E0A0E0B0E0E80EF91E0A1F1B1FA1
:100DF00017FF05C016950795F794E794319687E09D
:100E000016950795F794E7948A95D1F705C0EE24D7
:100E1000FF248701EFEFF0E06E2F67956627679557
:100E2000902F9F77D794DD24D7948E2F8695492FC6
:100E3000462B582F5D29B701CA011F910F91FF90D2
:100E4000EF90DF900895FC01DB0140815181228108
:100E5000622F6F7770E0221F2227221F9381892F34
:100E6000880F822B282F30E0991F9927991F119600
:100E70009C93119721153105A9F54115510561057F
:100E8000710511F482E037C082E89FEF13969C93BE
:100E90008E9312979A01AB0167E0220F331F441F14
:100EA000551F6A95D1F783E08C930DC0220F331F35
:100EB000441F551F12968D919C911397019713967D
:100EC0009C938E931297203080E0380780E048078B
:100ED00080E4580758F314962D933D934D935C93FB
:100EE000179708952F3F310579F441155105610594
:100EF000710519F484E08C93089564FF03C081E0C8
:100F00008C9312C01C9210C02F57304013963C9304
:100F10002E93129783E08C9387E0440F551F661F32
:100F2000771F8A95D1F7706414964D935D936D93F6
:100F30007C93179708951F93DC01FB019C919230DD
:100F400008F447C08081823008F443C0943051F4E3
:100F500011961C91843099F58181682F70E0611B96
:100F600071093FC0843021F0923031F48230B9F100
:100F70008181882389F12DC011961C9111978230AF
:100F8000F1F081811817D9F412962D913C911397A5
:100F9000828193818217930794F028173907BCF058
:100FA00014968D919D910D90BC91A02D2481358139
:100FB00046815781281739074A075B0718F4112320
:100FC00041F00AC082179307A407B50740F4112324
:100FD00019F061E070E005C06FEF7FEF02C060E0E4
:100FE00070E0CB011F9108959B01AC0184E0220FBA
:100FF000331F441F551F8A95D1F760E074E284EFD8
:1010000090E00E94F2142150304030BD29B988E1AF
:101010008AB986E880BD08955F9BFECF8CB10895A4
:101020005D9BFECF8CB90895FC0104C05D9BFECF93
:1010300031968CB980818823C9F708950F931F9347
:10104000DF93CF93CDB7DEB72C970FB6F894DEBF02
:101050000FBECDBF2DB73EB7285030400FB6F89425
:101060003EBF0FBE2DBFEDB7FEB731968E010F5FAD
:101070001F4FADB7BEB712961C930E93119720E683
:1010800030E03383228364837583868397830E9451
:10109000C8152DB73EB7285F3F4F0FB6F8943EBF37
:1010A0000FBE2DBFC8010E94140884E690E00E9484
:1010B00014082C960FB6F894DEBF0FBECDBFCF91AB
:1010C000DF911F910F910895EF92FF920F931F935D
:1010D000DF93CF93CDB7DEB764970FB6F894DEBF3A
:1010E0000FBECDBF46E022E07E010894E11CF11C5A
:1010F00087010E944B15C7010E94140864960FB621
:10110000F894DEBF0FBECDBFCF91DF911F910F913D
:10111000FF90EF9008952F923F924F925F926F92BF
:101120007F928F929F92AF92BF92CF92DF92EF9277
:10113000FF920F931F93DF93CF93CDB7DEB73B01A1
:101140004C0119012A0187E690E00E941408C401AD
:10115000B3010E9464089DE6892E90E0992EC40197
:101160000E941408C201B1010E946408C4010E94D7
:101170001408C801B7010E9464088FE690E00E943D
:101180001408C601B5010E946408C4010E94140835
:101190006D897E898F89988D0E946408C4010E94A0
:1011A0001408698D7A8D8B8D9C8D0E94640884E66D
:1011B00090E00E941408CF91DF911F910F91FF9052
:1011C000EF90DF90CF90BF90AF909F908F907F90E7
:1011D0006F905F904F903F902F9008959BBD8ABD78
:1011E000089599BD88BD08958F929F92AF92BF9246
:1011F000CF92DF92EF92FF920F931F936A010E94AA
:1012000086057B018C0160918B0470918C04809128
:101210008D0490918E042DE0660F771F881F991F13
:101220002A95D1F70E9486059B01AC01C801B70140
:101230000E9496034B015C01D0929404C0929304E7
:1012400020E030E040E85FE30E94020588232CF4B0
:1012500081E090E0A0E0B0E047C0C501B40120E02B
:1012600030E040E85FE30E944204882369F481E0B3
:1012700090E0A0E0B0E080938F0490939004A0935E
:101280009104B09392044AC0C501B40120E030E05B
:1012900040E85FE30E94A20418160CF03FC0C501AD
:1012A000B4010E94C6007B018C0160938F0470938F
:1012B000900480939104909392040E9486059B0170
:1012C000AC01C501B4010E943E024B015C0120E06B
:1012D00030E040E050E00E9472048823F9F0D80129
:1012E000C7010196A11DB11D80938F0490939004B6
:1012F000A0939104B0939204C501B40120E030E0C2
:1013000040E857EC0E949C0220E030E040E857E4BF
:101310000E946F020E94C6007DBD6CBD1F910F919F
:10132000FF90EF90DF90CF90BF90AF909F908F9005
:10133000089588B7806288BF8EB580648EBD08B678
:1013400005FEFDCF26B537B588B7806288BF8EB55C
:101350008F7B8EBD08B605FEFDCF66B577B580E004
:1013600090E040E050E0621B730B840B950B2091E2
:101370008B0430918C0440918D0450918E040E9416
:10138000B3149B01AC0160E072E18AE790E00E9437
:10139000F214CA01B90108950F931F938B019C01A8
:1013A0008FB780688FBF00938B0410938C042093B9
:1013B0008D0430938E04003411052105310539F177
:1013C000013411052105310558F4013011052105BD
:1013D0003105A1F0083011052105310581F511C055
:1013E000003081E0180780E0280780E03807A9F086
:1013F000005014402040304011F518C08EB58B7F4E
:1014000017C08EB58B7F8EBD8EB582600BC08EB53A
:101410008B7F8EBD8EB582600EC08EB584608EBD12
:101420008EB58D7F8EBD8EB58E7F08C08EB58460E3
:101430008EBD8EB58D7F8EBD8EB581608EBD4830E0
:1014400009F485C04930A0F4443009F440C0453067
:1014500040F44230B1F14330B8F5413009F0D6C024
:101460001DC0463009F467C0473008F06DC051C058
:101470004C3009F484C04D3038F44A3009F473C05C
:101480004B3008F076C066C04E3009F491C04E3043
:1014900008F47BC04F3009F0B9C096C08EB58F7E7E
:1014A0008EBD8EB5877F8EBD8FB58D7F8FBD8FB57D
:1014B0008E7F8FBD89B7846089BF8EB580688EBDF1
:1014C000A5C08EB58F7E51C08EB58F7E54C08EB5AF
:1014D0008F7E8EBD8EB5877F8EBD8FB582608FBDAE
:1014E0008FB581608FBD8FB580688FBD8FB58F7BC5
:1014F0008FBD8FB580628FBD8FB58F7E8FBD84E02D
:1015000064E041E00E94710B84E065E041E00E94EC
:10151000710B8EB58F7E8EBD8EB588608EBD8FB5FA
:101520008D7F8FBD8FB58E7F8FBD89B7806189BF5D
:1015300089B7877F3BC08EB58F7E8EBD8EB58860A4
:101540008EBD8FB58D7F48C08EB58F7E33C08EB572
:101550008F7E3CC08EB580618EBD8EB5877F8EBD7F
:101560008FB58D7F2DC08EB580618EBD8EB5877F86
:10157000E7CF8EB580618EBD8EB5877F1EC08EB5DC
:1015800080618EBD8EB5877F24C08EB580618EBD93
:101590008EB588608EBD8FB58D7F8FBD8FB58E7FE8
:1015A0008FBD89B7806189BF89B7886089BF2EC028
:1015B0008EB580618EBD8EB588608EBD8FB5826020
:1015C0008FBD8FB58E7F0BC08EB580618EBD8EB501
:1015D00088608EBD8FB582608FBD8FB581608FBDF5
:1015E0008FB580688FBD8FB58F7B8FBD8FB58062C3
:1015F0008FBD8FB58F7E8FBD84E064E041E00E9497
:10160000710B84E065E041E00E94710B1F910F9126
:10161000089581B1887F08959B01AC0160E074E278
:1016200084EF90E00E94F21420513040404050403E
:1016300083E056954795379527958A95D1F720B938
:1016400081E081B984E086BF089584EA86BF06B64A
:1016500007FEFDCF81B1887F883021F081B1887F7E
:101660008031C1F7089583B984E886BF06B607FEC6
:10167000FDCF81B1089583B984E886BF06B607FE21
:10168000FDCF089584E986BF06B604FCFDCF08951A
:10169000880F82B9089584EC86BF06B607FEFDCF99
:1016A00081B1887F8036E1F784EC86BF06B607FEFD
:1016B000FDCF81B1FECF84EC86BF06B607FEFDCF1D
:1016C00081B1887F8035E1F783B1089584E886BFD2
:1016D00006B607FEFDCF81B1887F8835E1F783B17B
:1016E0000895982F8150843008F07FC0683008F04A
:1016F0007CC0923049F1933020F4913009F075C0EC
:1017000007C0933009F43CC0943009F06EC053C058
:10171000442361F42AB381E090E002C0880F991F4E
:101720006A95E2F7809582238ABB0895413009F0DB
:101730005CC02AB381E090E002C0880F991F6A95CF
:10174000E2F7282B2ABB0895442361F427B381E0F4
:1017500090E002C0880F991F6A95E2F78095822376
:1017600087BB0895413009F040C027B381E090E085
:1017700002C0880F991F6A95E2F7282B27BB0895AE
:10178000442361F424B381E090E002C0880F991FE4
:101790006A95E2F78095822384BB0895413029F54C
:1017A00024B381E090E002C0880F991F6A95E2F7A8
:1017B000282B24BB0895442361F421B381E090E0F9
:1017C00002C0880F991F6A95E2F78095822381BB3A
:1017D0000895413051F421B381E090E002C0880FB8
:1017E000991F6A95E2F7282B21BB0895982F815005
:1017F000843008F07FC0683008F07CC0923049F136
:10180000933020F4913009F075C007C0933009F48B
:101810003CC0943009F06EC053C0442361F42BB334
:1018200081E090E002C0880F991F6A95E2F78095E9
:1018300082238BBB0895413009F05CC02BB381E05B
:1018400090E002C0880F991F6A95E2F7282B2BBB06
:101850000895442361F428B381E090E002C0880F2A
:10186000991F6A95E2F78095822388BB08954130DD
:1018700009F040C028B381E090E002C0880F991FB2
:101880006A95E2F7282B28BB0895442361F425B319
:1018900081E090E002C0880F991F6A95E2F7809579
:1018A000822385BB0895413029F525B381E090E07E
:1018B00002C0880F991F6A95E2F7282B25BB08956F
:1018C000442361F422B381E090E002C0880F991FA5
:1018D0006A95E2F78095822382BB0895413051F4E6
:1018E00022B381E090E002C0880F991F6A95E2F769
:1018F000282B22BB0895982F81508430A8F568309A
:1019000098F5923061F0933018F4913069F505C084
:10191000933039F0943041F516C029B303C026B393
:1019200001C023B381E090E0062E02C0880F991F0A
:101930000A94E2F730E08223932302C095958795BD
:101940006A95E2F7089520B381E090E0062E02C088
:10195000880F991F0A94E2F730E08223932302C094
:10196000959587956A95E2F70895982F8150843070
:10197000C8F56830B8F59230A9F0933018F491307A
:1019800089F505C09330C9F0943061F521C02BB3BF
:1019900081E090E002C0880F991F6A95E2F728273E
:1019A0002BBB089528B381E090E002C0880F991FF7
:1019B0006A95E2F7282728BB089525B381E090E0D7
:1019C00002C0880F991F6A95E2F7282725BB089562
:1019D00022B381E090E002C0880F991F6A95E2F778
:1019E000282722BB0895982F8150843098F4923094
:1019F00061F0933018F4913069F405C0933039F0F8
:101A0000943041F406C06ABB089567BB089564BB77
:101A1000089561BB0895982F8150843098F49230D6
:101A200061F0933018F4913069F405C0933039F0C7
:101A3000943041F406C06BBB089568BB089565BB44
:101A4000089562BB0895982F81508430D8F4923065
:101A500071F0933018F49130A9F405C0933059F027
:101A6000943081F40CC08BB380958BBB089588B300
:101A7000809588BB089585B3809585BB089582B312
:101A8000809582BB0895982F8150843098F49230CD
:101A900061F0933018F4913069F405C0933039F057
:101AA000943041F406C089B3089586B3089583B392
:101AB000089580B30895823039F0833039F0813051
:101AC00039F43F983E9804C03F9801C03F9A3E9A2F
:101AD0003D98379A339A329A319A309A35980895C8
:101AE0008330C1F0843028F4813071F0823070F49A
:101AF00009C08530A1F0853078F0863099F08730C4
:101B0000B1F412C03A9809C03A980AC03A98399A82
:101B100038980DC03A9809C03A9A3998F9CF3A9A4C
:101B2000399804C03A9AF3CF3A9A399A389A369A41
:101B30000895349BFECF349A24B135B1C90108957C
:101B400024B135B1C901089590939604809395040A
:101B500008951F920F920FB60F9211242F933F9367
:101B60004F935F936F937F938F939F93AF93BF93A5
:101B7000EF93FF93E0919504F0919604309709F06C
:101B80000995FF91EF91BF91AF919F918F917F91B7
:101B90006F915F914F913F912F910F900FBE0F90DA
:101BA0001F9018950E94B50C089540E00E94F60B16
:101BB000089541E00E94F60B089541E00E94710BE8
:101BC0000895EF92FF920F931F93E82E082F02952E
:101BD0000F70402F417081E063E00E94F60B10E02F
:101BE000A801427050705595479581E064E00E94CD
:101BF000F60BA8014470507055954795559547953B
:101C000081E065E00E94F60B33E0169507953A9562
:101C1000E1F781E066E0402F0E94F60B81E061E091
:101C200040E00E94F60B81E062E041E00E94F60B8A
:101C300000EA1FE0C8010197F1F781E062E040E0AF
:101C40000E94F60BC8010197F1F74E2D417081E01B
:101C500063E00E94F60B8FE0E822FF24A7014270A8
:101C600050705595479581E064E00E94F60BA701FE
:101C700044705070559547955595479581E065E0BE
:101C80000E94F60B83E0F694E7948A95E1F781E0F1
:101C900066E04E2D0E94F60B81E067E040E00E9476
:101CA000F60B81E061E040E00E94F60B81E062E02B
:101CB00041E00E94F60BC8010197F1F781E062E074
:101CC00040E00E94F60BC8010197F1F71F910F91B8
:101CD000FF90EF900895823040F4603130F481112C
:101CE000605C862F80580E94E10D08958CE10E946F
:101CF000E10D80EA9FE00197F1F7089581E00E94ED
:101D0000E10D80E29EE40197F1F70895EF92FF92D2
:101D10000F931F93E82E082F02950F70402F4170EC
:101D200081E063E00E94F60B10E0A8014270507061
:101D30005595479581E064E00E94F60BA801447038
:101D40005070559547955595479581E065E00E94FF
:101D5000F60BB3E016950795BA95E1F781E066E0DA
:101D6000402F0E94F60B81E067E040E00E94F60BF6
:101D700081E061E041E00E94F60B81E062E041E039
:101D80000E94F60B00EA1FE0C8010197F1F781E01D
:101D900062E040E00E94F60BC8010197F1F74E2D7A
:101DA000417081E063E00E94F60B8FE0E822FF249F
:101DB000A701427050705595479581E064E00E94FC
:101DC000F60BA7014470507055954795559547956A
:101DD00081E065E00E94F60BE3E0F694E794EA9573
:101DE000E1F781E066E04E2D0E94F60B81E067E0AE
:101DF00040E00E94F60B81E061E041E00E94F60BBA
:101E000081E062E041E00E94F60BC8010197F1F722
:101E100081E062E040E00E94F60BC8010197F1F713
:101E20001F910F91FF90EF9008950F931F938C01D6
:101E300064E670E00E94DE14862F805D0E94860EAC
:101E4000C80164E670E00E94DE146AE070E00E945F
:101E5000DE14162F105D812F0E94860E812F0E94A6
:101E6000860E1F910F910895DF92EF92FF920F93CC
:101E70001F93CF93DF938C01F62EE42ED22E862F64
:101E8000880F880F880F805C0E94E10DC0E0D0E0D1
:101E9000F801EC0FFD1F80810E94860E2196C8304C
:101EA000D105B1F78E2D6D2D0E946B0E8F2D0E94E6
:101EB000860EDF91CF911F910F91FF90EF90DF90F1
:101EC00008951F93CF93DF93EC0110E003C00E94AD
:101ED000860E1F5FFE01E10FF11D80818823B9F797
:101EE000DF91CF911F9108951F93182F81E061E03A
:101EF00041E00E94F60B81E0612F0E940B0D1F91C3
:101F000008950F931F9384EF91E020E931E0F901E8
:101F10003197F1F70197D9F781E063E041E00E9442
:101F2000710B81E064E041E00E94710B81E065E0AB
:101F300041E00E94710B81E066E041E00E94710B7C
:101F400081E067E041E00E94710B81E061E041E0E7
:101F50000E94710B81E062E041E00E94710B82E01F
:101F60000E94E10D00EA1FE0C8010197F1F788E245
:101F70000E94E10DC8010197F1F78EE00E94E10D8A
:101F8000C8010197F1F781E00E94E10D80E29EE433
:101F90000197F1F786E00E94E10DC8010197F1F782
:101FA0001F910F9108951F920F920FB60F92112457
:101FB0008F939F93AF93BF9380917E0490917F0402
:101FC000A0918004B09181040196A11DB11D809360
:101FD0007E0490937F04A0938004B0938104BF910A
:101FE000AF919F918F910F900FBE0F901F901895FA
:101FF00020917E0430917F044091800450918104AF
:10200000B901CA01089522E02BB990BD89B988E1D0
:102010008AB986E880BD08955D9BFECF8CB908958E
:10202000FC0104C05D9BFECF31968CB98081882372
:10203000C9F7089501C08CB15F99FDCF0895AF92A3
:10204000BF92CF92DF92EF92FF920F931F937B018B
:102050008C01A0908704B0908804C0908904D0902F
:102060008A04C601B50120E030E040E050E00E9463
:1020700042048823A9F4C801B7010E948605609331
:102080008704709388048093890490938A046093F2
:1020900083047093840480938504909386046EC0B7
:1020A000C801B7010E9486052DEC3CEC4CE45EE3D0
:1020B0000E949C027B018C01C601B5012DEC3CEC19
:1020C0004CE45FE30E949C029B01AC01C801B70194
:1020D0000E946F027B018C016093870470938804D7
:1020E0008093890490938A0460918304709184049E
:1020F000809185049091860428E431EE4AE75FE3FD
:102100000E949C025B016C01C801B7012AE037ED17
:1021100043EA5CE30E949C029B01AC01C601B5014D
:102120000E946F029B01AC0160938304709384044E
:102130008093850490938604C801B7010E943E02F3
:102140007B018C0120E030E040E451E40E94A204D5
:10215000181644F480918204882321F481E080934E
:1021600082040DC0C801B70120E030E040E050EC2F
:102170000E94020587FF02C01092820480E01F9136
:102180000F91FF90EF90DF90CF90BF90AF900895A8
:10219000AF92BF92CF92DF92EF92FF920F931F9375
:1021A0000E94250B8EEA0E94330B87E00E943B0BB6
:1021B0000E94250B8FEA0E94330B0E945B0B182FA5
:1021C0000E945B0BE82E0E94660BA82E0E94420B19
:1021D000612F70E080E090E0AB0133272227FF24DD
:1021E00000E010E0102F0F2DFE2CEE242E293F29A9
:1021F000402B512BBB24CC24DD242A293B294C29FC
:102200005D2943705070B901CA011F910F91FF9071
:10221000EF90DF90CF90BF90AF9008950E94250B74
:102220008EEA0E94330B89E00E943B0B80E40E94FF
:102230003B0B0E94420B88EE93E020E931E0F9016C
:102240003197F1F70197D9F70E94250B8EEA0E948A
:10225000330B89E00E943B0B82E00E943B0B0E9403
:10226000420B0E94250B8EEA0E94330B8CE00E94E9
:102270003B0B80E10E943B0B0E94420B0E94250B0E
:102280008EEA0E94330B8DE00E943B0B8FE10E948F
:102290003B0B0E94420B0895CF93DF93EC01FC01AE
:1022A00001900020E9F731977E2F781B90E020E223
:1022B00031EA47E050E05F9B11C06CB1FE01E90FCD
:1022C000F11D8081681729F49F5F971739F481E029
:1022D0000BC090E08881681709F491E021503040EC
:1022E0004040504041F780E0DF91CF910895EF9258
:1022F000FF920F931F93DF93CF93CDB7DEB7C65EE8
:10230000D0400FB6F894DEBF0FBECDBF2DB73EB79D
:102310002A5030400FB6F8943EBF0FBE2DBFEDB728
:10232000FEB731969E01215E3F4FADB7BEB7129604
:102330003C932E93119728E730E0338322832CECD3
:1023400030E03583248386831782718760870E94FB
:10235000C8152DB73EB7265F3F4F0FB6F8943EBF66
:102360000FBE2DBF01C08CB15F99FDCF8DEE90E007
:102370000E94101082E191E00E944C11882309F420
:1023800042C03FE1E32EF12CEC0EFD1EF70101905F
:102390000020E9F73197EE19FF0900D000D000D0F6
:1023A0002DB73EB72F5F3F4F8E010F5F1F4FADB769
:1023B000BEB712961C930E9311978AE191E0D90152
:1023C00013969C938E9312971596FC93EE93149705
:1023D0000E94C8152DB73EB72A5F3F4F0FB6F8943D
:1023E0003EBF0FBE2DBFC8010E9410108AE291E0CF
:1023F0000E944C11882339F0C7010E9410108CE212
:1024000091E00E944C1184E391E00E941010CA51A7
:10241000DF4F0FB6F894DEBF0FBECDBFCF91DF9177
:102420001F910F91FF90EF9008950F931F93DF93EB
:10243000CF93CDB7DEB72B970FB6F894DEBF0FBEA4
:10244000CDBF8E010F5F1F4FA8012AE030E00E9430
:102450009415C8010E9410102B960FB6F894DEBF99
:102460000FBECDBFCF91DF911F910F910895CF92F5
:10247000DF92EF92FF920F93DF93CF9300D000D0C3
:102480000F92CDB7DEB7082F6A017B0180E060E0D4
:102490000E946B0E82E491E00E94610F802F90E019
:1024A000BE016F5F7F4F4AE050E00E947315CE017E
:1024B00001960E94610F88E491E00E94610F81E023
:1024C00060E00E946B0E80E5C81683ECD80680E0C1
:1024D000E80680E0F80618F48CE491E011C00023CF
:1024E00019F48DE591E00CC00C3318F48EE691E000
:1024F00007C00A3618F48FE791E002C080E991E046
:102500000E94610F0F900F900F900F900F90CF913E
:10251000DF910F91FF90EF90DF90CF9008952F9271
:102520003F924F925F926F927F928F929F92AF9263
:10253000BF92CF92DF92EF92FF920F931F93DF93A0
:10254000CF93CDB7DEB7CA56D0400FB6F894DEBFF2
:102550000FBECDBF82E08BB910BC80E189B988E1A4
:102560008AB986E880BD0E94810F0E947E0E60EAD3
:1025700076E881E090E00E940C0B0E940E1160E46E
:1025800070E080E090E045E00E94CC0989EF90E0A7
:102590009BBD8ABD89B7806189BF8FB780688FBFB7
:1025A00081EA91E00E9410108CEB91E00E941010E3
:1025B00080E060E00E946B0E82EE91E00E94610F6D
:1025C00083EF91E00E94101001C08CB15F99FDCFA4
:1025D0008EE092E00E94101083E192E00E944C1184
:1025E000882321F086E192E00E9410108FE192E0B2
:1025F0000E94101083E192E00E944C118DE292E063
:102600000E94101083E192E00E944C118BE392E053
:102610000E9410108E010F5F1F4FC80164E572E029
:102620000E946C15C8010E9410100E947E0E84E763
:1026300092E00E944C11882339F080E892E00E94D9
:10264000101080E992E006C081EA92E00E9410102A
:102650008EEC92E00E94610F80E197E220E931E088
:10266000F9013197F1F70197D9F70E947E0EAB96E9
:102670001CAE1DAE1EAE1FAEAB97EE24EA94A7961D
:102680001FAE1EAEA7970E94C8101B012C016090C0
:102690007E0470907F048090800490908104603567
:1026A00023EC720720E0820720E09207A0F410924A
:1026B0007D041092790410927A0410927B04109297
:1026C0007C0410927804EBE9F4E0119234E0E53AEE
:1026D000F307D9F7C1C02091790430917A04409171
:1026E0007B0450917C04D401C301821B930BA40B87
:1026F000B50B895B9B40A040B040E0F0211531054F
:1027000041055105B9F010927D04109279041092A0
:102710007A0410927B0410927C0410927804EBE906
:10272000F4E0119284E0E53AF807D9F78FED92E0F2
:102730000E941010C201B1010E941F10882309F4E9
:102740008BC06091790470917A0480917B049091A0
:102750007C04611571058105910549F46092790445
:1027600070927A0480927B0490927C0475C0A401DC
:102770009301261B370B480B590B6092790470921A
:102780007A0480927B0490927C04DA01C901815919
:102790009140A040B0408B549440A040B04008F01D
:1027A0005BC0CA01B9010E9486059B01AC0160E0D3
:1027B00070E68AE697E40E9496035B016C016093E1
:1027C0009704709398048093990490939A0480914D
:1027D0007D04882369F40BE914E0C601B5010E9469
:1027E000C600F80161938F01F4E0053A1F07A9F7CD
:1027F000F09078040F2D10E005561B4FC601B5016F
:102800000E94C600F80160838F2D8F5F6AE00E94EE
:10281000D21490937804EBE9F4E020E030E0819169
:10282000280F311D44E0E53AF407C9F7C9016AE011
:1028300070E00E94DE1460937D0480E093E00E94CB
:10284000101060917D0470E080E090E00E9415120D
:102850008FE093E00E941010A7968EAD9FADA797D2
:102860000196A7969FAF8EAFA797499750F080919A
:102870007D04B201A1010E943712A7961FAE1EAEC1
:10288000A797D401C301AB962CAD3DAD4EAD5FAD66
:10289000AB97821B930BA40BB50B815D9740A040B7
:1028A000B04008F45BC080917D04882351F041E57D
:1028B000241643EC340640E0440640E0540620F47D
:1028C00047C0EE2009F444C050E5251653EC350608
:1028D00050E0450650E0550618F402E113E011C03F
:1028E000882319F40EE113E00CC08C3318F40CE2C9
:1028F00013E007C08A3618F000E313E002C005E3D6
:1029000013E0B8010E947711E0907D048CE393E01E
:102910000E94101060917D0470E080E090E00E94C1
:10292000151285E593E00E94101060E5261663EC11
:10293000360660E0460660E0560618F481E693E04D
:1029400001C0C8010E9410108FE093E00E94101097
:10295000AB966CAE7DAE8EAE9FAEAB9780E49CE93D
:102960000197F1F790CE629FD001739FF001829F93
:10297000E00DF11D649FE00DF11D929FF00D839F0E
:10298000F00D749FF00D659FF00D9927729FB00DAB
:10299000E11DF91F639FB00DE11DF91FBD01CF01BE
:1029A00011240895991B79E004C0991F961708F027
:1029B000961B881F7A95C9F780950895AA1BBB1BA3
:1029C00051E107C0AA1FBB1FA617B70710F0A61B2F
:1029D000B70B881F991F5A95A9F780959095BC0150
:1029E000CD010895A1E21A2EAA1BBB1BFD010DC04B
:1029F000AA1FBB1FEE1FFF1FA217B307E407F507AF
:102A000020F0A21BB30BE40BF50B661F771F881F8A
:102A1000991F1A9469F760957095809590959B0120
:102A2000AC01BD01CF0108952F923F924F925F926A
:102A30006F927F928F929F92AF92BF92CF92DF92CE
:102A4000EF92FF920F931F93CF93DF93CDB7DEB733
:102A5000CA1BDB0B0FB6F894DEBF0FBECDBF0994C7
:102A60002A88398848885F846E847D848C849B841E
:102A7000AA84B984C884DF80EE80FD800C811B812C
:102A8000AA81B981CE0FD11D0FB6F894DEBF0FBE5B
:102A9000CDBFED010895EF92FF920F931F93F22F98
:102AA000F02E47FD02C0E4E001C0E4E1242F33270B
:102AB00027FD309537FF03C0309521953F4F4F2DAF
:102AC000512F0F2FEE2E0E94C9178F2D912F1F917E
:102AD0000F91FF90EF900895FB01DC0101900D92A2
:102AE0000020E1F70895FB019F01E8944230C4F013
:102AF0004532B4F44A3029F497FB1EF49095819541
:102B00009F4F642F77270E94DE14805D8A330CF07C
:102B1000895D8193CB010097A1F716F45DE2519393
:102B20001082C9010C94191AFA01CF93FF93EF9305
:102B3000223044F1253234F5C22FE894CA3049F4EA
:102B400097FB3EF490958095709561957F4F8F4FE0
:102B50009F4F2C2F332744275527FF93EF930E9435
:102B6000F214EF91FF91605D6A330CF0695D61933F
:102B7000B901CA01605070408040904051F716F48E
:102B8000CDE2C19310828F919F91CF910C94191A2D
:102B9000AEE0B0E0EEECF5E10C9422150D891E8953
:102BA00086E08C831A8309838FEF9FE79E838D8352
:102BB0009E01275E3F4FCE0101966F89788DA90156
:102BC0000E94EC152F813885020F131FF801108227
:102BD0002E96E4E00C943E15ABE0B0E0E2EFF5E1B8
:102BE0000C9414153C012B015A01FC01178216822A
:102BF000838181FD03C06FEF7FEFC6C19AE0892E0C
:102C00001E010894211C311CF3012381F20123FDD4
:102C1000859123FF81912F01882309F4B2C1853268
:102C200039F423FD859123FF81912F01853229F409
:102C300090E0B3010E94291AE7CF982FFF24EE24D9
:102C40009924FFE1FF15D0F09B3269F09C3228F403
:102C5000903259F0933291F40EC09D3249F0903386
:102C600069F441E024C052E0F52A84E0F82A28C043
:102C700098E0F92A25C0E0E1FE2A22C0F7FC29C02D
:102C8000892F80538A3070F4F6FE05C0989C902CF2
:102C90001124980E15C0E89CE02C1124E80EF0E2F7
:102CA000FF2A0EC09E3229F4F6FC6BC140E4F42AE0
:102CB00007C09C3619F450E8F52A02C0983649F44A
:102CC000F20123FD959123FF91912F01992309F0A2
:102CD000B8CF892F8554833018F08052833038F470
:102CE00044E050E0A40EB51E5FE359830FC0933655
:102CF00031F0933779F0933509F056C020C0F501D3
:102D00008081898342E050E0A40EB51E610101E09C
:102D100010E012C0F501C080D180F6FC03C06FEF57
:102D20007FEF02C0692D70E042E050E0A40EB51EB6
:102D3000C6010E940E1A8C015FE7F52214C0F5014E
:102D4000C080D180F6FC03C06FEF7FEF02C0692D19
:102D500070E042E050E0A40EB51EC6010E94031AC6
:102D60008C0150E8F52AF3FE07C01AC080E290E01B
:102D7000B3010E94291AEA948E2D90E008171907D2
:102D8000A8F30EC0F601F7FC8591F7FE81916F0163
:102D900090E0B3010E94291AE110EA94015010401A
:102DA0000115110579F7EAC0943611F0993669F5E5
:102DB000F7FE08C0F501208131814281538184E012
:102DC00090E00AC0F501808191819C01442737FD84
:102DD0004095542F82E090E0A80EB91E9FE6F9229C
:102DE00057FF09C050954095309521953F4F4F4F63
:102DF0005F4FE0E8FE2ACA01B901A1012AE030E0F4
:102E00000E94551AD82ED21840C0953729F41F2D8C
:102E10001F7E2AE030E01DC01F2D197F9F3661F014
:102E2000903720F4983509F0ACC00FC0903739F0D6
:102E3000983709F0A6C004C028E030E00AC010614D
:102E400014FD146020E130E004C014FD166020E1A0
:102E500032E017FF08C0F5016081718182819381A2
:102E600044E050E008C0F50180819181BC0180E020
:102E700090E042E050E0A40EB51EA1010E94551A58
:102E8000D82ED2188FE7F82EF122F6FE0BC05EEF97
:102E9000F522D91438F4F4FE07C0F2FC05C08FEE19
:102EA000F82202C01D2D01C0192DF4FE0DC0FE0137
:102EB000ED0DF11D8081803319F499EEF92208C0DF
:102EC0001F5FF2FE05C003C08F2D867809F01F5FDB
:102ED0000F2DF3FC14C0F0FE0FC01E1510F09D2C3A
:102EE0000BC09D2C9E0C911A1E2D06C080E290E016
:102EF000B3010E94291A1F5F1E15C0F304C01E15DE
:102F000010F4E11A01C0EE2404FF0FC080E390E04A
:102F1000B3010E94291A02FF1DC001FD03C088E70A
:102F200090E00EC088E590E00BC0802F867891F08D
:102F300001FF02C08BE201C080E2F7FC8DE290E06D
:102F4000B3010E94291A06C080E390E0B3010E94F9
:102F5000291A9A94D914C0F3DA94F101ED0DF11DF8
:102F6000808190E0B3010E94291ADD20A9F706C0F4
:102F700080E290E0B3010E94291AEA94EE20C1F7A2
:102F800043CEF30166817781CB012B96E2E10C946D
:102F90003015A9E0B0E0EFECF7E10C9418156A01E8
:102FA000122FA02EBE2C2BE3201718F42CE3922E08
:102FB00002C0902E9394AE014F5F5F4F27E0092D22
:102FC0000E942B19BC018981E82EFF24C70189705A
:102FD0009070019711F4ADE209C0B1FE02C0ABE2FE
:102FE00005C0B0FC02C0A0E001C0A0E2E3FE3BC00F
:102FF000AA2311F423E001C024E0211710F020E0FF
:1030000002C0121B212FEB2CB4FE02C0322F0AC0CB
:10301000F601322F80E202C0819331503323E1F771
:10302000C20ED11CAA2319F0F601A1936F01F6017B
:103030003196E2FE05C09EE4D6019C9381E404C073
:103040009EE6D6019C9381E611968C9391833296ED
:10305000DF01832F90E202C09D9381508823E1F726
:10306000E30FF11D40C0E2FE42C0AA2311F423E0A9
:1030700001C024E0211710F020E002C0121B212F14
:10308000EB2CB4FE02C0922F0AC0F601922F80E210
:1030900002C0819391509923E1F7C20ED11CAA235B
:1030A00019F0F601A1936F01F6013196E2FE08C016
:1030B00089E4D6018C938EE411968C9386E407C044
:1030C00089E6D6018C938EE611968C9386E68183F1
:1030D0003296DF01892F20E202C02D938150882390
:1030E000E1F7E90FF11D10822EEF3FEFAFC016168A
:1030F00017061CF041E050E003C0AB014F5F5F4F8B
:10310000AA2019F480E090E003C08A2D90E0019697
:1031100020E030E0AA2311F021E030E0240F351F39
:10312000280F391F812F90E02817390714F020E06D
:1031300002C0121B212F4B2D50E0CA0180719070EC
:10314000B4FC0DC0B3FC0BC0F601322F40E202C04C
:10315000419331503323E1F7C20ED11C01C0322F0D
:10316000AA2319F0F601A1936F01892B11F0132FF7
:103170000AC0F601132F80E302C08193115011237E
:10318000E1F7C30ED11C092D060FBA8090E1892EFC
:10319000912C8E209F20E4FE04C0F1E3BF1609F4B9
:1031A0000150101614F001E003C0093008F008E0E7
:1031B0009B0177FF02C020E030E0CB010196821B2B
:1031C000930BFE013196E80FF91F8EE2F82E3B01BA
:1031D000601A71088A2D90E044275527481B590B27
:1031E0008FEF2F3F380719F4D601FD926D0162175A
:1031F00073072CF06216730614F4808101C080E31B
:103200002150304031962417350724F0D6018D9394
:103210006D01E6CF2617370749F4B5E3BB1528F053
:10322000BB1621F48114910409F481E3F601819322
:10323000D601812F90E202C09C9381501196882381
:10324000D9F7E10FF11D108220E030E0C901299685
:10325000EEE00C943415283008F027E03327DA012B
:10326000990F311D87FD916000966105710539F454
:1032700032602E5F3D9330E32A95E1F708959F3F3A
:1032800030F080387105610509F03C5F3C5F3D938B
:10329000913008F08068911DDF93CF931F930F93B7
:1032A000FF92EF92192F987F9695E92F9695969514
:1032B000E90FFF27E255FF4F99273327EE24FF241C
:1032C000A701E70105900894079428F4360FE71E3C
:1032D000F81E491F511D660F771F881F991F0694FE
:1032E000A1F70590079428F4E70EF81E491F561F12
:1032F000C11D770F881F991F661F0694A1F70590BF
:10330000079428F4F80E491F561FC71FD11D880FB8
:10331000991F661F771F0694A1F70590079420F464
:10332000490F561FC71FD81F990F661F771F881F89
:103330000694A9F784911095177041F0D695C7951A
:1033400057954795F794E7941A95C1F7E4E5F0E0AF
:1033500068941590159135916591959105907FE24E
:103360007395E118F10A430B560BC90BD009C0F74E
:10337000E10CF11E431F561FC91FD01D7EF4703390
:1033800011F48A95E6CFE894015030F0080F0AF462
:103390000027021708F4202F2395022F7A3328F0F4
:1033A00079E37D932A95E9F710C07D932A9589F6F4
:1033B000069497956795379517951794E118F10A34
:1033C000430B560BC90BD00998F023957E9173954A
:1033D0007A3308F070E37C932013B8F77E91706124
:1033E0007D9330F0839571E37D9370E32A95E1F747
:1033F0001124EF90FF900F911F91CF91DF919927AA
:1034000087FD90950895FC01059061507040011072
:10341000D8F7809590958E0F9F1F0895FC016150FD
:10342000704001900110D8F7809590958E0F9F1FE6
:103430000895DC01FC01672F71917723E1F7329742
:1034400004C07C916D9370836291AE17BF07C8F37F
:1034500008950F931F93CF93DF938C01EB018B8122
:1034600081FF1BC082FF0DC02E813F818C819D8119
:103470002817390764F4E881F9810193F983E88317
:1034800006C0E885F985802F0995892B31F48E8156
:103490009F8101969F838E8302C00FEF1FEFC801AB
:1034A000DF91CF911F910F910895FA01AA2728303B
:1034B00051F1203181F1E8946F936E7F6E5F7F4F01
:1034C0008F4F9F4FAF4FB1E03ED0B4E03CD0670F7D
:1034D000781F891F9A1FA11D680F791F8A1F911DD0
:1034E000A11D6A0F711D811D911DA11D20D009F420
:1034F00068943F912AE0269F11243019305D319362
:10350000DEF6CF010895462F4770405D4193B3E04A
:103510000FD0C9F7F6CF462F4F70405D4A3318F0F1
:10352000495D31FD4052419302D0A9F7EACFB4E0A2
:10353000A6959795879577956795BA95C9F700975A
:103540006105710508959B01AC010A2E06945795FB
:10355000479537952795BA95C9F7620F731F841F52
:0A356000951FA01D0895F894FFCFF9
:10356A00256C75000D0A004143433A2000200020D3
:10357A00204759524F3A2000474554202F65787406
:10358A0065726E616C2F6170692F62617463682F56
:10359A007570646174653F746F6B656E3D25732643
:1035AA0076313D25642676303D25732048545450A3
:1035BA002F312E300D0A486F73743A20626C796E7F
:1035CA006B2E636C6F75640D0A0D0A007458615393
:1035DA0032455831776A774D7631537643497A2D99
:1035EA0073693258666747636B3532650041542BFD
:1035FA0043495053544152543D22544350222C22A1
:10360A00626C796E6B2E636C6F7564222C38300D88
:10361A000A00434F4E4E4543540041542B434950F0
:10362A0053454E443D25640D0A003E0053454E4421
:10363A00204F4B0041542B434950434C4F53450DA7
:10364A000A0042504D3A200020202000506C61634D
:10365A00652046696E676572202020200050726FCF
:10366A0063657373696E672E2E2E202020004C6FBF
:10367A007720486561727420526174652020004E7B
:10368A006F726D616C2052617465202020202000C9
:10369A0048696768204865617274205261746520C0
:1036AA00000D0A2D2D2D2053797374656D20426FFC
:1036BA006F74696E67202D2D2D0D0A00537973746E
:1036CA00656D20496E697469616C697A65642E203A
:1036DA00506C6163652046696E6765722E2E2E0DE9
:1036EA000A00426F6F74696E672057692D46692E0A
:1036FA002E2E00436865636B696E672057692D46F5
:10370A0069204D6F64756C652E2E2E0D0A0041548A
:10371A000D0A004F4B004154204F4B210D0A004126
:10372A00542B43574D4F44453D310D0A0041542B0C
:10373A004349504D55583D300D0A00436F6E6E6532
:10374A006374696E6720746F2057692D46692E2E3F
:10375A002E0D0A0041542B43574A41503D226E61B7
:10376A006E61222C223031303233303235353634E4
:10377A00220D0A005749464920474F542049500014
:10378A0057692D4669204F6E6C696E65210D0A00D6
:10379A0057692D4669204F6E6C696E65212020207D
:1037AA000057692D46692054696D656F75742F45F8
:1037BA0072726F72202852756E6E696E67204F663C
:1037CA00666C696E65204D6F6465290D0A0057693C
:1037DA002D4669204F66666C696E6520202000526E
:1037EA006573657474696E672064756520746F20EB
:1037FA00696E61637469766974792E2E2E0D0A00DA
:10380A0042504D2044657465637465643A20000D26
:10381A000A004E6F25323046696E67657200507233
:10382A006F63657373696E672E2E2E004C6F770077
:10383A0048696768004E6F726D616C003E3E2053A6
:10384A00656E7420746F20426C796E6B202D204255
:10385A00504D3A2000207C205374617475733A20CD
:10386A00004E6F2046696E67657200000000000016
:10387A000000000001020203030303040404040419
:10388A0004040405050505050505050505050505E1
:10389A0005050506060606060606060606060606C1
:1038AA0006060606060606060606060606060606AE
:1038BA000606060707070707070707070707070791
:1038CA00070707070707070707070707070707077E
:1038DA00070707070707070707070707070707076E
:1038EA00070707070707070707070707070707075E
:1038FA000707070808080808080808080808080841
:10390A00080808080808080808080808080808082D
:10391A00080808080808080808080808080808081D
:10392A00080808080808080808080808080808080D
:10393A0008080808080808080808080808080808FD
:10394A0008080808080808080808080808080808ED
:10395A0008080808080808080808080808080808DD
:10396A0008080808080808080808080808080808CD
:04397A000808080031
:00000001FF
