:100000000C94A7000C94C4000C94C4000C94C4007D
:100010000C94C4000C94C4000C94C4000C941414EC
:100020000C94C4000C94C4000C94C4000C94C40040
:100030000C94C4000C94C4000C94C4000C94C40030
:100040000C949B0E0C94C4000C94C4000C94C4003B
:100050000C94C40000407A10F35A00A0724E1809A4
:100060000010A5D4E80000E87648170000E40B541F
:10007000020000CA9A3B000000E1F50500008096EE
:100080009800000040420F000000A0860100000020
:10009000102700000000E8030000000064000000DA
:1000A00000000A00000000000100000000002C76A3
:1000B000D888DC674F0823DFC1DFAE59E1B1B796BE
:1000C000E5E3E453C63AE651997696E8E6C284261B
:1000D000EB898C9B62ED407C6FFCEFBC9C9F40F2F7
:1000E000BAA56FA5F490055A2AF75C936B6CF96773
:1000F0006DC11BFCE0E40D47FEF520E6B500D0ED38
:10010000902E0300943577050080841E080000209F
:100110004E0A000000C80C333333330F986E12833D
:100120001141EF8D2114893BE65516CFFEE6DB1811
:10013000D1844B381BF77C1D901DA4BBE4242032D6
:1001400084725E228100C9F124ECA1E53D271124CF
:100150001FBECFE5D8E0DEBFCDBF13E0A0E6B0E024
:10016000E6E7FAE302C005900D92AE3FB107D9F77A
:1001700014E0AEEFB3E001C01D92A234B107E1F785
:100180000E9439140C94391D0C940000EF92FF92D8
:100190000F931F937B018C0120E030E040E05FE48F
:1001A0000E94D20488238CF0C801B70120E030E01F
:1001B00040E05FE40E943E020E9490059B01AC017A
:1001C000205030404040504806C0C801B7010E944E
:1001D00090059B01AC01B901CA011F910F91FF90DD
:1001E000EF900895A0E0B0E0E8EFF0E00C9459172C
:1001F000DC012B01FA019C91923008F439C1EB012A
:100200008881823008F433C1943069F4843009F075
:100210002FC111969C9111978981981709F428C1D3
:10022000A5EFB2E025C1843009F421C18230A9F4E0
:10023000923009F01DC19A01AD0188E0EA010990F0
:10024000AE01E90109929E018150C1F7E201898165
:1002500011969C918923818308C1923009F407C1CA
:1002600012962D903C901397EB018A819B811496F6
:10027000AD90BD90CD90DC901797EC80FD800E8105
:100280001F819101281B390BB90137FF04C0662774
:100290007727621B730B603271050CF061C0121678
:1002A00013066CF537014801062E04C09694879416
:1002B000779467940A94D2F721E030E040E050E070
:1002C00004C0220F331F441F551F6A95D2F72150D7
:1002D0003040404050402E213F21402351232115E2
:1002E00031054105510521F021E030E040E050E0CA
:1002F00079018A01E628F728082919293CC0232B0F
:10030000D1F1260E371E35014601062E04C0969403
:100310008794779467940A94D2F721E030E040E024
:1003200050E004C0220F331F441F551F6A95D2F7B7
:1003300021503040404050402A213B214C215D213A
:10034000211531054105510521F021E030E040E063
:1003500050E059016A01A628B728C828D9280BC03F
:10036000821593052CF01C01AA24BB24650103C04F
:10037000EE24FF24870111969C91D20111968C9155
:10038000981709F445C0992339F0A80197012A1953
:100390003B094C095D0906C0A60195012E193F09CC
:1003A000400B510B57FD08C01182338222822483F7
:1003B0003583468357831DC081E081833382228247
:1003C00088279927DC01821B930BA40BB50B848330
:1003D0009583A683B7830DC0220F331F441F551F7B
:1003E0002483358346835783828193810197938346
:1003F00082832481358146815781DA01C9010197C1
:10040000A109B1098F5F9F4FAF4FBF4328F30BC0C6
:10041000918333822282EA0CFB1C0C1D1D1DE48299
:10042000F5820683178383E08083248135814681AA
:10043000578157FF1AC0C901AA2797FDA095BA2F67
:1004400081709070A070B07056954795379527953C
:10045000822B932BA42BB52B84839583A683B78300
:1004600082819381019693838283DF0101C0D2014F
:10047000CD01CDB7DEB7E2E10C947517A0E2B0E094
:10048000E4E4F2E00C94651769837A838B839C83A0
:100490002D833E834F835887E9E0EE2EF12CEC0E3E
:1004A000FD1ECE010196B7010E9481078E010F5EED
:1004B0001F4FCE010596B8010E9481078A8991E0FD
:1004C00089278A8BC701B801AE01475E5F4F0E9442
:1004D000F2000E94AC06A096E6E00C948117A0E220
:1004E000B0E0E5E7F2E00C94651769837A838B83CB
:1004F0009C832D833E834F835887F9E0EF2EF12CA8
:10050000EC0EFD1ECE010196B7010E9481078E01FF
:100510000F5E1F4FCE010596B8010E948107C701EB
:10052000B801AE01475E5F4F0E94F2000E94AC0628
:10053000A096E6E00C948117A0E2B0E0E2EAF2E0D7
:100540000C94591769837A838B839C832D833E8314
:100550004F835887CE010196BE01675F7F4F0E948F
:100560008107CE010596BE016F5E7F4F0E94810715
:100570009985923088F089898230C8F0943019F4D6
:10058000823051F404C0843029F4923081F485EF34
:1005900092E0C6C0923049F420E09A858A89981387
:1005A00021E02A87CE010996BBC0823049F420E0C1
:1005B0009A858A89981321E02A8BCE014196B0C092
:1005C0002D843E844F8458886D887E888F88988CCF
:1005D000EE24FF248701AA24BB24650140E050E0FB
:1005E00060E070E0E0E0F0E0C10181709070892B84
:1005F000E9F0E60CF71C081D191D9A01AB012A0D44
:100600003B1D4C1D5D1D80E090E0A0E0B0E0E614D5
:10061000F7040805190520F481E090E0A0E0B0E0BF
:10062000BA01A901480F591F6A1F7B1FAA0CBB1CE6
:10063000CC1CDD1C97FE08C081E090E0A0E0B0E09B
:10064000A82AB92ACA2ADB2A3196E032F10549F0F4
:10065000660C771C881C991C5694479437942794F1
:10066000C3CFFA85EA892B893C898B859C85280F25
:10067000391F2E5F3F4F17C0CA0181709070892BC0
:1006800061F016950795F794E79480E090E0A0E07C
:10069000B0E8E82AF92A0A2B1B2B7695679557951F
:1006A00047952F5F3F4F77FDE7CF0CC0440F551F95
:1006B000661F771F17FD4160EE0CFF1C001F111F06
:1006C00021503040403090E0590790E0690790E4B5
:1006D000790760F32B8F3C8FDB01CA018F77907015
:1006E000A070B07080349105A105B10561F447FD9B
:1006F0000AC0E114F1040105110529F0405C5F4FC7
:100700006F4F7F4F40781A8EFE1711F081E08A8F6D
:100710004D8F5E8F6F8F78A383E0898FCE014996CE
:100720000E94AC06A096E2E10C947517A8E1B0E037
:10073000ECE9F3E00C94611769837A838B839C83E3
:100740002D833E834F835887B9E0EB2EF12CEC0EBE
:10075000FD1ECE010196B7010E9481078E010F5E3A
:100760001F4FCE010596B8010E94810729852230CE
:1007700008F47EC03989323010F4B8017CC08A8513
:100780009A8989278A87243011F0223031F423177F
:1007900009F06EC065EF72E06EC0343039F41D862A
:1007A0001E861F86188A1C861B8604C0323021F4E0
:1007B00084E08987B7015FC02B853C858B899C8944
:1007C000281B390B3C872B87ED84FE840F85188905
:1007D000AD88BE88CF88D88CEA14FB040C051D05B3
:1007E00040F4EE0CFF1C001F111F215030403C87CD
:1007F0002B8720E030E040E050E080E090E0A0E097
:10080000B0E460E070E0EA14FB040C051D0540F064
:10081000282B392B4A2B5B2BEA18FB080C091D09E6
:10082000B695A79597958795EE0CFF1C001F111F95
:100830006F5F7F4F6F31710531F7DA01C9018F7733
:100840009070A070B07080349105A105B10561F47D
:1008500027FD0AC0E114F1040105110529F0205C0F
:100860003F4F4F4F5F4F20782D873E874F87588BE4
:10087000BE01675F7F4FCB010E94AC066896EAE03D
:100880000C947D17A8E1B0E0E8E4F4E00C9465175F
:1008900069837A838B839C832D833E834F83588720
:1008A00089E0E82EF12CEC0EFD1ECE010196B70179
:1008B0000E9481078E010F5E1F4FCE010596B80181
:1008C0000E9481078985823040F08989823028F032
:1008D000C701B8010E94F90701C081E06896E6E00F
:1008E0000C948117A8E1B0E0E8E7F4E00C946517F8
:1008F00069837A838B839C832D833E834F835887C0
:1009000089E0E82EF12CEC0EFD1ECE010196B70118
:100910000E9481078E010F5E1F4FCE010596B80120
:100920000E9481078985823040F08989823028F0D1
:10093000C701B8010E94F90701C081E06896E6E0AE
:100940000C948117A8E1B0E0E8EAF4E00C94651794
:1009500069837A838B839C832D833E834F8358875F
:1009600089E0E82EF12CEC0EFD1ECE010196B701B8
:100970000E9481078E010F5E1F4FCE010596B801C0
:100980000E9481078985823040F08989823028F071
:10099000C701B8010E94F90701C08FEF6896E6E031
:1009A0000C948117A8E1B0E0E8EDF4E00C94651731
:1009B00069837A838B839C832D833E834F835887FF
:1009C00089E0E82EF12CEC0EFD1ECE010196B70158
:1009D0000E9481078E010F5E1F4FCE010596B80160
:1009E0000E9481078985823040F08989823028F011
:1009F000C701B8010E94F90701C08FEF6896E6E0D1
:100A00000C948117A8E1B0E0E8E0F5E00C946517DC
:100A100069837A838B839C832D833E834F8358879E
:100A200089E0E82EF12CEC0EFD1ECE010196B701F7
:100A30000E9481078E010F5E1F4FCE010596B801FF
:100A40000E9481078985823040F08989823028F0B0
:100A5000C701B8010E94F90701C081E06896E6E08D
:100A60000C948117A8E0B0E0E8E3F5E00C9462177D
:100A70009B01AC0183E08983DA01C9018827B7FDB6
:100A800083959927AA27BB27B82E21153105410543
:100A9000510519F482E089833AC08823A9F02030F7
:100AA00080E0380780E0480780E8580729F460E0D4
:100AB00070E080E09FEC30C0EE24FF248701E21A52
:100AC000F30A040B150B02C079018A018EE1C82ECE
:100AD000D12CDC82CB82ED82FE820F831887C80185
:100AE000B7010E945D0601971816190684F4082EB6
:100AF00004C0EE0CFF1C001F111F0A94D2F7ED82F8
:100B0000FE820F831887C81AD90ADC82CB82BA8288
:100B1000CE0101960E94AC062896E9E00C947E175F
:100B2000ACE0B0E0E6E9F5E00C94691769837A83FC
:100B30008B839C83CE010196BE016B5F7F4F0E9429
:100B400081078D81823061F1823050F1843021F44F
:100B50008E81882351F12EC02F81388537FD20C02A
:100B60006E812F3131051CF06623F9F023C08EE130
:100B700090E0821B930B29853A854B855C8504C0E8
:100B800056954795379527958A95D2F76623B1F004
:100B900050954095309521953F4F4F4F5F4F0EC078
:100BA00020E030E040E050E009C02FEF3FEF4FEF92
:100BB0005FE704C020E030E040E050E8B901CA013E
:100BC0002C96E2E00C948517A8E0B0E0EAEEF5E0A0
:100BD0000C9461177B018C016115710581059105EC
:100BE00019F482E0898360C083E089838EE1C82E96
:100BF000D12CDC82CB82ED82FE820F831887C80164
:100C0000B7010E945D06FC013197F7FF3BC0222728
:100C100033272E1B3F0B57016801022E04C0D694C8
:100C2000C794B794A7940A94D2F740E050E060E0EC
:100C300070E081E090E0A0E0B0E004C0880F991F70
:100C4000AA1FBB1F2A95D2F70197A109B1098E21CE
:100C50009F21A023B1230097A105B10521F041E018
:100C600050E060E070E04A295B296C297D294D83C2
:100C70005E836F8378878EE190E08E1B9F0B9C8351
:100C80008B8312C0309781F00E2E04C0EE0CFF1C37
:100C9000001F111F0A94D2F7ED82FE820F8318877E
:100CA000CE1ADF0ADC82CB821A82CE0101960E9424
:100CB000AC062896EAE00C947D17EF92FF920F9312
:100CC0001F937B018C0180E0E81680E0F80681E04C
:100CD000080780E0180788F48FEFE816F104010593
:100CE000110531F028F088E090E0A0E0B0E017C0F6
:100CF00080E090E0A0E0B0E012C080E0E81680E084
:100D0000F80680E0080781E0180728F088E190E005
:100D1000A0E0B0E004C080E190E0A0E0B0E020E21C
:100D200030E040E050E0281B390B4A0B5B0B04C05D
:100D300016950795F794E7948A95D2F7F701E35053
:100D4000FD4F8081281B310941095109C9011F91BB
:100D50000F91FF90EF900895DF92EF92FF920F9323
:100D60001F93FC01E480F58006811781D18080818A
:100D7000823048F480E090E0A0E1B0E0E82AF92A6F
:100D80000A2B1B2BA5C0843009F49FC0823021F4AC
:100D9000EE24FF24870105C0E114F10401051105CB
:100DA00019F4E0E0F0E096C0628173819FEF623851
:100DB00079070CF05BC022E83FEF261B370B2A3186
:100DC00031052CF020E030E040E050E02AC0B801CE
:100DD000A701022E04C076956795579547950A940A
:100DE000D2F781E090E0A0E0B0E004C0880F991F46
:100DF000AA1FBB1F2A95D2F70197A109B1098E211D
:100E00009F21A023B1230097A105B10521F081E026
:100E100090E0A0E0B0E09A01AB01282B392B4A2BDF
:100E20005B2BDA01C9018F779070A070B0708034AD
:100E30009105A105B10539F427FF09C0205C3F4F9A
:100E40004F4F5F4F04C0215C3F4F4F4F5F4FE0E07B
:100E5000F0E02030A0E03A07A0E04A07A0E45A07FB
:100E600010F0E1E0F0E079018A0127C060387105F7
:100E700064F5FB01E158FF4FD801C7018F779070EF
:100E8000A070B07080349105A105B10539F4E7FE7A
:100E90000DC080E490E0A0E0B0E004C08FE390E0FB
:100EA000A0E0B0E0E80EF91E0A1F1B1F17FF05C0E7
:100EB00016950795F794E794319687E01695079570
:100EC000F794E7948A95D1F705C0EE24FF248701B3
:100ED000EFEFF0E06E2F679566276795902F9F776D
:100EE000D794DD24D7948E2F8695492F462B582FE3
:100EF0005D29B701CA011F910F91FF90EF90DF901C
:100F00000895FC01DB01408151812281622F6F77BE
:100F100070E0221F2227221F9381892F880F822BA6
:100F2000282F30E0991F9927991F11969C931197AC
:100F300021153105A9F5411551056105710511F41A
:100F400082E037C082E89FEF13969C938E931297AE
:100F50009A01AB0167E0220F331F441F551F6A95AA
:100F6000D1F783E08C930DC0220F331F441F551F10
:100F700012968D919C911397019713969C938E9343
:100F80001297203080E0380780E0480780E4580757
:100F900058F314962D933D934D935C9317970895B2
:100FA0002F3F310579F4411551056105710519F49B
:100FB00084E08C93089564FF03C081E08C9312C099
:100FC0001C9210C02F57304013963C932E931297CB
:100FD00083E08C9387E0440F551F661F771F8A9527
:100FE000D1F7706414964D935D936D937C9317972E
:100FF00008951F93DC01FB019C91923008F447C0D7
:101000008081823008F443C0943051F411961C91D1
:10101000843099F58181682F70E0611B71093FC0B0
:10102000843021F0923031F48230B9F1818188230B
:1010300089F12DC011961C9111978230F1F08181B8
:101040001817D9F412962D913C91139782819381B0
:101050008217930794F028173907BCF014968D91E6
:101060009D910D90BC91A02D2481358146815781A1
:10107000281739074A075B0718F4112341F00AC003
:1010800082179307A407B50740F4112319F061E014
:1010900070E005C06FEF7FEF02C060E070E0CB0151
:1010A0001F9108959B01AC0184E0220F331F441F60
:1010B000551F8A95D1F760E074E284EF90E00E94BA
:1010C00037172150304030BD29B988E18AB986E808
:1010D00080BD08955F9BFECF8CB108955D9BFECFD0
:1010E0008CB90895FC0104C05D9BFECF31968CB98C
:1010F00080818823C9F708950F931F93DF93CF93BF
:10110000CDB7DEB72B970FB6F894DEBF0FBECDBFBD
:10111000DC01CB018E010F5F1F4FB8014AE050E0A8
:101120000E94B117C8010E9472082B960FB6F8945E
:10113000DEBF0FBECDBFCF91DF911F910F910895FC
:101140008F929F92AF92BF92CF92DF92EF92FF92D7
:101150000F931F935B016C01842E20E030E040E090
:1011600050E00E940205882344F480E690E00E944B
:101170007208D7FAD094D7F8D094C601B5010E946E
:10118000C6007B018C010E947C0882E690E00E94F0
:101190007208C801B7010E94E4059B01AC01C601B9
:1011A000B5010E943E02992420C020E030E040E2D8
:1011B00051E40E949C025B016C010E94C6007B010D
:1011C0008C0170E080E090E00E947C086E2D70E061
:1011D000882777FD8095982F0E9432059B01AC01EE
:1011E000C601B5010E943E0293949814F0F21F913B
:1011F0000F91FF90EF90DF90CF90BF90AF909F90B6
:101200008F9008950F931F93DF93CF93CDB7DEB7E1
:101210002C970FB6F894DEBF0FBECDBF2DB73EB7EB
:10122000285030400FB6F8943EBF0FBE2DBFEDB72B
:10123000FEB731968E010F5F1F4FADB7BEB7129646
:101240001C930E93119724E630E03383228364834A
:101250007583868397830E94D2172DB73EB7285F88
:101260003F4F0FB6F8943EBF0FBE2DBFC8010E947E
:10127000720888E690E00E9472082C960FB6F894E7
:10128000DEBF0FBECDBFCF91DF911F910F910895AB
:10129000EF92FF920F931F93DF93CF93CDB7DEB7FB
:1012A00064970FB6F894DEBF0FBECDBF46E022E0D4
:1012B0007E010894E11CF11C87010E949017C70170
:1012C0000E94720864960FB6F894DEBF0FBECDBFC1
:1012D000CF91DF911F910F91FF90EF9008952F9282
:1012E0003F924F925F926F927F928F929F92AF92B6
:1012F000BF92CF92DF92EF92FF920F931F93DF93F3
:10130000CF93CDB7DEB73B014C0119012A018BE623
:1013100090E00E947208C401B3010E94480991E75D
:10132000892E90E0992EC4010E947208C201B10179
:101330000E944809C4010E947208C801B7010E94B6
:10134000480983E790E00E947208C601B5010E9437
:101350004809C4010E9472086D897E898F89988D21
:101360000E944809C4010E947208698D7A8D8B8D94
:101370009C8D0E94480988E690E00E947208CF91F7
:10138000DF911F910F91FF90EF90DF90CF90BF9072
:10139000AF909F908F907F906F905F904F903F9015
:1013A0002F9008959BBD8ABD089599BD88BD08956D
:1013B0008F929F92AF92BF92CF92DF92EF92FF9265
:1013C0000F931F936A010E94E4057B018C016091D9
:1013D0002704709128048091290490912A042DE01B
:1013E000660F771F881F991F2A95D1F70E94E40581
:1013F0009B01AC01C801B7010E9496034B015C013F
:10140000D0923004C0922F0420E030E040E85FE347
:101410000E94020588232CF481E090E0A0E0B0E077
:1014200047C0C501B40120E030E040E85FE30E941E
:101430004204882369F481E090E0A0E0B0E080936A
:101440002B0490932C04A0932D04B0932E044AC037
:10145000C501B40120E030E040E85FE30E94A2044F
:1014600018160CF03FC0C501B4010E94C6007B01F4
:101470008C0160932B0470932C0480932D04909323
:101480002E040E94E4059B01AC01C501B4010E9439
:101490003E024B015C0120E030E040E050E00E9461
:1014A00072048823F9F0D801C7010196A11DB11D6E
:1014B00080932B0490932C04A0932D04B0932E04BE
:1014C000C501B40120E030E040E857EC0E949C02E6
:1014D00020E030E040E857E40E946F020E94C6001E
:1014E0007DBD6CBD1F910F91FF90EF90DF90CF906D
:1014F000BF90AF909F908F90089588B7806288BF0B
:101500008EB580648EBD08B605FEFDCF26B537B515
:1015100088B7806288BF8EB58F7B8EBD08B605FE0A
:10152000FDCF66B577B580E090E040E050E0621B0B
:10153000730B840B950B2091270430912804409164
:10154000290450912A040E94F8169B01AC0160E026
:1015500072E18AE790E00E943717CA01B901089545
:101560000F931F938B019C018FB780688FBF0093EF
:101570002704109328042093290430932A0400346C
:1015800011052105310539F1013411052105310518
:1015900058F40130110521053105A1F0083011057D
:1015A0002105310581F511C0003081E0180780E088
:1015B000280780E03807A9F0005014402040304050
:1015C00011F518C08EB58B7F17C08EB58B7F8EBD81
:1015D0008EB582600BC08EB58B7F8EBD8EB582605E
:1015E0000EC08EB584608EBD8EB58D7F8EBD8EB5DE
:1015F0008E7F08C08EB584608EBD8EB58D7F8EBD0A
:101600008EB581608EBD483009F485C04930A0F4A4
:10161000443009F440C0453040F44230B1F1433029
:10162000B8F5413009F0D6C01DC0463009F467C096
:10163000473008F06DC051C04C3009F484C04D30C3
:1016400038F44A3009F473C04B3008F076C066C0F5
:101650004E3009F491C04E3008F47BC04F3009F091
:10166000B9C096C08EB58F7E8EBD8EB5877F8EBD7C
:101670008FB58D7F8FBD8FB58E7F8FBD89B784600D
:1016800089BF8EB580688EBDA5C08EB58F7E51C0D6
:101690008EB58F7E54C08EB58F7E8EBD8EB5877F02
:1016A0008EBD8FB582608FBD8FB581608FBD8FB5C8
:1016B00080688FBD8FB58F7B8FBD8FB580628FBDEA
:1016C0008FB58F7E8FBD84E064E041E00E94630CA3
:1016D00084E065E041E00E94630C8EB58F7E8EBD94
:1016E0008EB588608EBD8FB58D7F8FBD8FB58E7F97
:1016F0008FBD89B7806189BF89B7877F3BC08EB5B1
:101700008F7E8EBD8EB588608EBD8FB58D7F48C0B3
:101710008EB58F7E33C08EB58F7E3CC08EB5806116
:101720008EBD8EB5877F8EBD8FB58D7F2DC08EB55A
:1017300080618EBD8EB5877FE7CF8EB580618EBD0F
:101740008EB5877F1EC08EB580618EBD8EB5877FBA
:1017500024C08EB580618EBD8EB588608EBD8FB57C
:101760008D7F8FBD8FB58E7F8FBD89B7806189BF1B
:1017700089B7886089BF2EC08EB580618EBD8EB559
:1017800088608EBD8FB582608FBD8FB58E7F0BC098
:101790008EB580618EBD8EB588608EBD8FB582603E
:1017A0008FBD8FB581608FBD8FB580688FBD8FB5C0
:1017B0008F7B8FBD8FB580628FBD8FB58F7E8FBDC4
:1017C00084E064E041E00E94630C84E065E041E075
:1017D0000E94630C1F910F91089581B1887F089535
:1017E0009B01AC0160E074E284EF90E00E94371747
:1017F000205130404040504083E056954795379502
:1018000027958A95D1F720B981E081B984E086BF18
:10181000089584EA86BF06B607FEFDCF81B1887FB2
:10182000883021F081B1887F8031C1F7089583B974
:1018300084E886BF06B607FEFDCF81B1089583B95F
:1018400084E886BF06B607FEFDCF089584E986BF0B
:1018500006B604FCFDCF0895880F82B9089584EC84
:1018600086BF06B607FEFDCF81B1887F8036E1F7DF
:1018700084EC86BF06B607FEFDCF81B1FECF84ECB7
:1018800086BF06B607FEFDCF83B1089584EC86BF00
:1018900006B607FEFDCF81B1887F8035E1F783B1C1
:1018A000089584E886BF06B607FEFDCF83B108958C
:1018B00084E886BF06B607FEFDCF81B1887F8835F4
:1018C000E1F783B10895982F8150843008F07FC0EC
:1018D000683008F07CC0923049F1933020F49130A8
:1018E00009F075C007C0933009F43CC0943009F08A
:1018F0006EC053C0442361F42AB381E090E002C07B
:10190000880F991F6A95E2F7809582238ABB089514
:10191000413009F05CC02AB381E090E002C0880F3A
:10192000991F6A95E2F7282B2ABB0895442361F496
:1019300027B381E090E002C0880F991F6A95E2F713
:101940008095822387BB0895413009F040C027B3BA
:1019500081E090E002C0880F991F6A95E2F7282B7A
:1019600027BB0895442361F424B381E090E002C0D2
:10197000880F991F6A95E2F78095822384BB0895AA
:10198000413029F524B381E090E002C0880F991F0F
:101990006A95E2F7282B24BB0895442361F421B310
:1019A00081E090E002C0880F991F6A95E2F7809568
:1019B000822381BB0895413051F421B381E090E04E
:1019C00002C0880F991F6A95E2F7282B21BB089562
:1019D000982F8150843008F07FC0683008F07CC0B8
:1019E000923049F1933020F4913009F075C007C06E
:1019F000933009F43CC0943009F06EC053C04423C6
:101A000061F42BB381E090E002C0880F991F6A95C2
:101A1000E2F7809582238BBB0895413009F05CC0CA
:101A20002BB381E090E002C0880F991F6A95E2F71E
:101A3000282B2BBB0895442361F428B381E090E068
:101A400002C0880F991F6A95E2F78095822388BBB0
:101A50000895413009F040C028B381E090E002C011
:101A6000880F991F6A95E2F7282B28BB0895442315
:101A700061F425B381E090E002C0880F991F6A9558
:101A8000E2F78095822385BB0895413029F525B37F
:101A900081E090E002C0880F991F6A95E2F7282B39
:101AA00025BB0895442361F422B381E090E002C095
:101AB000880F991F6A95E2F78095822382BB08956B
:101AC000413051F422B381E090E002C0880F991FA9
:101AD0006A95E2F7282B22BB0895982F8150843015
:101AE000A8F5683098F5923061F0933018F4913091
:101AF00069F505C0933039F0943041F516C029B32B
:101B000003C026B301C023B381E090E0062E02C0DB
:101B1000880F991F0A94E2F730E08223932302C0D2
:101B2000959587956A95E2F7089520B381E090E056
:101B3000062E02C0880F991F0A94E2F730E0822334
:101B4000932302C0959587956A95E2F70895982F9B
:101B500081508430C8F56830B8F59230A9F09330E0
:101B600018F4913089F505C09330C9F0943061F5CF
:101B700021C02BB381E090E002C0880F991F6A95C5
:101B8000E2F728272BBB089528B381E090E002C03C
:101B9000880F991F6A95E2F7282728BB089525B377
:101BA00081E090E002C0880F991F6A95E2F728272C
:101BB00025BB089522B381E090E002C0880F991FF1
:101BC0006A95E2F7282722BB0895982F8150843028
:101BD00098F4923061F0933018F4913069F405C0B4
:101BE000933039F0943041F406C06ABB089567BB66
:101BF000089564BB089561BB0895982F8150843087
:101C000098F4923061F0933018F4913069F405C083
:101C1000933039F0943041F406C06BBB089568BB33
:101C2000089565BB089562BB0895982F8150843054
:101C3000D8F4923071F0933018F49130A9F405C0C3
:101C4000933059F0943081F40CC08BB380958BBBEA
:101C5000089588B3809588BB089585B3809585BB2A
:101C6000089582B3809582BB0895982F8150843067
:101C700098F4923061F0933018F4913069F405C013
:101C8000933039F0943041F406C089B3089586B397
:101C9000089583B3089580B30895823039F0833076
:101CA00039F0813039F43F983E9804C03F9801C024
:101CB0003F9A3E9A3D98379A339A329A319A309A9F
:101CC000359808958330C1F0843028F4813071F064
:101CD000823070F409C08530A1F0853078F086300C
:101CE00099F08730B1F412C03A9809C03A980AC006
:101CF0003A98399A38980DC03A9809C03A9A399862
:101D0000F9CF3A9A399804C03A9AF3CF3A9A399A65
:101D1000389A369A0895349BFECF349A24B135B15F
:101D2000C901089524B135B1C901089590933204D1
:101D30008093310408951F920F920FB60F921124D1
:101D40002F933F934F935F936F937F938F939F93C3
:101D5000AF93BF93EF93FF93E0913104F09132047E
:101D6000309709F00995FF91EF91BF91AF919F9145
:101D70008F917F916F915F914F913F912F910F9034
:101D80000FBE0F901F9018951F930E94090C80EDB5
:101D90000E94170C8BE30E941F0C0E94090C81ED1E
:101DA0000E94170C0E943F0C182F0E943F0C312FED
:101DB00020E0282B392B30930304209302040E9447
:101DC0003F0C182F0E943F0C312F20E0282B392B7D
:101DD00030930504209304040E943F0C182F0E94A6
:101DE0003F0C312F20E0282B392B30930704209310
:101DF00006040E943F0C182F0E943F0C312F20E058
:101E0000282B392B30930904209308040E943F0C9F
:101E1000182F0E943F0C312F20E0282B392B3093B4
:101E20000B0420930A040E943F0C182F0E943F0CC1
:101E3000312F20E0282B392B30930D0420930C04F4
:101E40000E943F0C182F0E94510C312F20E0282BAC
:101E5000392B30930F0420930E040E94260C1F91FF
:101E600008950F931F938C010E94C40E6091080483
:101E700070910904882777FD8095982F0E9432057C
:101E800020E030E04AEA53E40E94960328EB3EE16A
:101E900042E152E40E946F02F80160837183828301
:101EA00093831F910F910895CF92DF92EF92FF924B
:101EB0000F931F938C017B016A010E94C40E6091F5
:101EC0000A0470910B04882777FD8095982F0E9453
:101ED000320520E030E043E053E40E949603F8012D
:101EE000608371838283938360910C0470910D04ED
:101EF000882777FD8095982F0E94320520E030E0FA
:101F000043E053E40E949603F70160837183828368
:101F1000938360910E0470910F04882777FD80955C
:101F2000982F0E94320520E030E043E053E40E9405
:101F30009603F60160837183828393831F910F91CF
:101F4000FF90EF90DF90CF900895CF92DF92EF92C5
:101F5000FF920F931F938C017B016A010E94C40EB4
:101F60006091020470910304882777FD8095982F73
:101F70000E94320520E030E040E858E30E949C02D5
:101F8000F80160837183828393836091040470916C
:101F90000504882777FD8095982F0E94320520E060
:101FA00030E040E858E30E949C02F70160837183AF
:101FB000828393836091060470910704882777FDDC
:101FC0008095982F0E94320520E030E040E858E3E9
:101FD0000E949C02F60160837183828393831F9128
:101FE0000F91FF90EF90DF90CF9008950E94090C21
:101FF00080ED0E94170C8BE60E941F0C80E00E946F
:102000001F0C0E94260C0895AF92BF92CF92DF92D0
:10201000EF92FF920F931F937B018C01A090190404
:10202000B0901A04C0901B04D0901C04C601B501E6
:1020300020E030E040E050E00E9442048823A9F410
:10204000C801B7010E94E4056093190470931A0453
:1020500080931B0490931C046093150470931604E2
:1020600080931704909318046EC0C801B7010E94B2
:10207000E4052DEC3CEC4CE45EE30E949C027B0109
:102080008C01C601B5012DEC3CEC4CE45FE30E94F1
:102090009C029B01AC01C801B7010E946F027B0149
:1020A0008C016093190470931A0480931B0490931D
:1020B0001C0460911504709116048091170490918E
:1020C000180428E431EE4AE75FE30E949C025B01BA
:1020D0006C01C801B7012AE037ED43EA5CE30E94D6
:1020E0009C029B01AC01C601B5010E946F029B01DD
:1020F000AC016093150470931604809317049093B9
:102100001804C801B7010E943E027B018C0120E047
:1021100030E040E451E40E94A204181644F4809197
:102120001404882321F481E0809314040DC0C801B5
:10213000B70120E030E040E050EC0E94020587FF4C
:1021400002C01092140480E01F910F91FF90EF9055
:10215000DF90CF90BF90AF900895AF92BF92CF9293
:10216000DF92EF92FF920F931F930E94E4055B01B1
:102170006C0160911004709111048091120490918F
:10218000130423E333E343E75FE30E949C027B01F4
:102190008C01C601B50120ED3CEC4CE45DE30E94EE
:1021A0009C029B01AC01C801B7010E946F029B0118
:1021B000AC01609310047093110480931204909307
:1021C0001304C601B5010E943E021F910F91FF90BA
:1021D000EF90DF90CF90BF90AF900895BF92CF92D5
:1021E000DF92EF92FF920F931F93DF93CF9300D074
:1021F00000D00F92CDB7DEB7B82E6A017B0180E028
:1022000060E00E948D128CE790E00E9483138B2D7A
:1022100090E08E010F5F1F4FB8014AE050E00E942E
:10222000B117C8010E94831382E890E00E948313D3
:1022300080E061E00E948D1286E890E00E947208C2
:10224000C701B6010E9402098FE890E00E9472085F
:1022500080E5C81683ECD80680E0E80680E0F80642
:1022600038F48AE990E00E9483138BEA90E023C05F
:10227000BB2039F480EC90E00E94831381ED90E064
:102280001AC08BE38B1538F086EE90E00E94831322
:1022900087EF90E010C089E68B1538F088E091E078
:1022A0000E94831389E191E006C08DE291E00E94D3
:1022B00083138EE391E00E94720880E591E00E9412
:1022C00072080F900F900F900F900F90CF91DF91A9
:1022D0001F910F91FF90EF90DF90CF90BF900895E6
:1022E000AF92BF92CF92DF92EF92FF920F931F9324
:1022F0000E94090C8EEA0E94170C87E00E941F0CB6
:102300000E94090C8FEA0E94170C0E94460C182F9D
:102310000E94460CE82E0E94580CA82E0E94260C03
:10232000612F70E080E090E0AB0133272227FF248B
:1023300000E010E0102F0F2DFE2CEE242E293F2957
:10234000402B512BBB24CC24DD242A293B294C29AA
:102350005D2943705070B901CA011F910F91FF9020
:10236000EF90DF90CF90BF90AF9008950E94090C3E
:102370008EEA0E94170C89E00E941F0C80E40E94E4
:102380001F0C0E94260C88EE93E020E931E0F90151
:102390003197F1F70197D9F70E94090C8EEA0E9454
:1023A000170C89E00E941F0C82E00E941F0C0E9403
:1023B000260C0E94090C8EEA0E94170C8CE00E94E9
:1023C0001F0C80E10E941F0C0E94260C0E94090C29
:1023D0008EEA0E94170C8DE00E941F0C8FE10E9474
:1023E0001F0C0E94260C08950E94A70D089540E03E
:1023F0000E94E80C089541E00E94E80C089541E035
:102400000E94630C0895EF92FF920F931F93E82EA2
:10241000082F02950F70402F417081E063E00E9409
:10242000E80C10E0A801427050705595479581E086
:1024300064E00E94E80CA8014470507055954795DF
:102440005595479581E065E00E94E80C33E01695CC
:1024500007953A95E1F781E066E0402F0E94E80C8D
:1024600081E061E040E00E94E80C81E062E041E050
:102470000E94E80C00EA1FE0C8010197F1F781E033
:1024800062E040E00E94E80CC8010197F1F74E2D90
:10249000417081E063E00E94E80C8FE0E822FF24B5
:1024A000A701427050705595479581E064E00E9405
:1024B000E80CA70144705070559547955595479580
:1024C00081E065E00E94E80C83E0F694E7948A9549
:1024D000E1F781E066E04E2D0E94E80C81E067E0C4
:1024E00040E00E94E80C81E061E040E00E94E80CDE
:1024F00081E062E041E00E94E80CC8010197F1F739
:1025000081E062E040E00E94E80CC8010197F1F729
:102510001F910F91FF90EF900895823040F4603149
:1025200030F48111605C862F80580E940312089558
:102530008CE10E94031280EA9FE00197F1F7089571
:1025400081E00E94031280E29EE40197F1F7089572
:10255000EF92FF920F931F93E82E082F02950F70B2
:10256000402F417081E063E00E94E80C10E0A80178
:10257000427050705595479581E064E00E94E80CE8
:10258000A80144705070559547955595479581E041
:1025900065E00E94E80CB3E016950795BA95E1F75F
:1025A00081E066E0402F0E94E80C81E067E040E0B7
:1025B0000E94E80C81E061E041E00E94E80C81E0CB
:1025C00062E041E00E94E80C00EA1FE0C8010197C8
:1025D000F1F781E062E040E00E94E80CC801019759
:1025E000F1F74E2D417081E063E00E94E80C8FE02E
:1025F000E822FF24A701427050705595479581E06D
:1026000064E00E94E80CA70144705070559547950E
:102610005595479581E065E00E94E80CE3E0F6946B
:10262000E794EA95E1F781E066E04E2D0E94E80C20
:1026300081E067E040E00E94E80C81E061E041E079
:102640000E94E80C81E062E041E00E94E80CC801D1
:102650000197F1F781E062E040E00E94E80CC801D8
:102660000197F1F71F910F91FF90EF9008950F934D
:102670001F938C0164E670E00E942317862F805D13
:102680000E94A812C80164E670E00E9423176AE065
:1026900070E00E942317162F105D812F0E94A81250
:1026A000812F0E94A8121F910F910895DF92EF923F
:1026B000FF920F931F93CF93DF938C01F62EE42E9E
:1026C000D22E862F880F880F880F805C0E940312FD
:1026D000C0E0D0E0F801EC0FFD1F80810E94A8123D
:1026E0002196C830D105B1F78E2D6D2D0E948D1227
:1026F0008F2D0E94A812DF91CF911F910F91FF9013
:10270000EF90DF9008951F93CF93DF93EC0110E0DB
:1027100003C00E94A8121F5FFE01E10FF11D80811E
:102720008823B9F7DF91CF911F9108951F93182F38
:1027300081E061E041E00E94E80C81E0612F0E94AD
:10274000FD0D1F9108950F931F9384EF91E020E9F1
:1027500031E0F9013197F1F70197D9F781E063E0B2
:1027600041E00E94630C81E064E041E00E94630C60
:1027700081E065E041E00E94630C81E066E041E0B9
:102780000E94630C81E067E041E00E94630C81E0FD
:1027900061E041E00E94630C81E062E041E00E9460
:1027A000630C82E00E94031200EA1FE0C801019757
:1027B000F1F788E20E940312C8010197F1F78EE059
:1027C0000E940312C8010197F1F781E00E940312F1
:1027D00080E29EE40197F1F786E00E940312C801AF
:1027E0000197F1F71F910F91089580912304909123
:1027F0002404A0912504B09126040196A11DB11DC9
:102800008093230490932404A0932504B09326047A
:10281000089520912304309124044091250450917F
:102820002604B901CA0108951F920F920FB60F92A4
:1028300011248F939F93AF93BF9380912304909122
:102840002404A0912504B09126040196A11DB11D78
:102850008093230490932404A0932504B09326042A
:10286000BF91AF919F918F910F900FBE0F901F90CE
:1028700018952F923F924F925F926F927F928F9214
:102880009F92AF92BF92CF92DF92EF92FF920F93FF
:102890001F93DF93CF93CDB7DEB768970FB6F89449
:1028A000DEBF0FBECDBF60E875E280E090E00E9421
:1028B000520883E065E041E00E94630C83E062E03F
:1028C0000E94FF110E94A31360EA76E881E090E085
:1028D0000E94F00B0E94F60F0E94B6118FB780681D
:1028E0008FBF83E065E040E00E94E80C60E470E0A8
:1028F00080E090E045E00E94B00A89EF90E09BBD47
:102900008ABD89B7806189BF8FB780688FBF87E62E
:1029100091E00E947208552422243324CE010196AE
:10292000BE016B5F7F4FAE01475F5F4F0E94A50FF7
:1029300084E991E00E94720869817A818B819C818F
:1029400042E00E94A00889E991E00E9472086D812E
:102950007E818F81988542E00E94A00881EA91E003
:102960000E94720869857A858B859C8542E00E9469
:10297000A008CE010D96BE016F5E7F4FAE014B5E8B
:102980005F4F0E94540F89EA91E00E9472086D85A2
:102990007E858F85988941E00E94A00881EB91E0B7
:1029A0000E94720869897A898B899C8942E00E9419
:1029B000A00889EB91E00E9472086D897E898F8959
:1029C000988D42E00E94A00881EC91E00E9472087C
:1029D00080E061E00E948D1269817A818B819C8107
:1029E00020E030E048EC52E40E949C020E94C600C5
:1029F000DC01CB010E94371380E065E00E948D125C
:102A00006D817E818F81988520E030E048EC52E432
:102A10000E949C020E94C600DC01CB010E94371379
:102A200080E069E00E948D1269857A858B859C859E
:102A300020E030E048EC52E40E949C020E94C60074
:102A4000DC01CB010E94371381E061E00E948D120E
:102A50006D857E858F85988920E030E048EC52E4D2
:102A60000E949C020E94C600DC01CB010E94371329
:102A700081E065E00E948D1269897A898B899C8941
:102A800020E030E048EC52E40E949C020E94C60024
:102A9000DC01CB010E94371381E069E00E948D12B6
:102AA0006D897E898F89988D20E030E048EC52E472
:102AB0000E949C020E94C600DC01CB010E943713D9
:102AC00029813A814B815C81ED80FE800F811885E0
:102AD00069847A848B849C84CA01B9010E949C0217
:102AE0005B016C01C801B701A80197010E949C021B
:102AF0009B01AC01C601B5010E946F027B018C01F4
:102B0000C401B301A40193010E949C029B01AC018A
:102B1000C801B7010E946F020E94FA177B018C0165
:102B20002DEC3CEC4CEC5EE30E94020588233CF467
:102B3000552029F484EC91E00E94720803C021E042
:102B40005216D1F4C801B70120E030E040E250E471
:102B50000E94A20418161CF05524539443C08EEF13
:102B600091E00E94720888E893E1E0E9F1E0319792
:102B7000F1F70197D1F703C062E0561699F5C80145
:102B8000B7012DEC3CEC4CE45FE30E94A204181664
:102B900034F5C801B7012AE939E949E95FE30E9440
:102BA00002058823E4F40894211C311C84E12816D2
:102BB000310418F492E0592E15C089E392E00E9486
:102BC000720883E065E041E00E94E80C83E062E087
:102BD0000E94FB1155242224332421E004C05524F3
:102BE0002224332420E088EE93E0E0E9F1E03197FD
:102BF000F1F70197D1F7222309F490CE8AE792E00A
:102C00000E94720881E992E00E9472088824992447
:102C100080E4282E8CE9382E0E9470112B013C0193
:102C2000A0902304B0902404C0902504D0902604E2
:102C300020911F04309120044091210450912204DE
:102C4000D601C501821B930BA40BB50B895B9B407E
:102C5000A040B040E0F02115310541055105B9F023
:102C60001092410410921F0410922004109221042B
:102C70001092220410921E04E7E3F4E0119224E083
:102C8000E134F207D9F787EB92E00E947208C301A2
:102C9000B2010E940410882309F497C060911F04B8
:102CA0007091200480912104909122046115710596
:102CB0008105910549F4A0921F04B0922004C092AE
:102CC0002104D092220481C086017501E61AF70A18
:102CD000080B190BA0921F04B0922004C09221048B
:102CE000D092220488ED92E00E947208C801B701D8
:102CF0000E94020980EE92E00E947208D801C7018A
:102D000081599140A040B0408B549440A040B040C5
:102D100008F05BC0C801B7010E94E4059B01AC014B
:102D200060E070E68AE697E40E9496035B016C011E
:102D30006093330470933404809335049093360485
:102D400080914104882369F407E314E0C601B501CA
:102D50000E94C600F80161938F01F4E001341F075F
:102D6000A9F7F0901E040F2D10E0095C1B4FC6015F
:102D7000B5010E94C600F80160838F2D8F5F6AE065
:102D80000E94171790931E04E7E3F4E020E030E080
:102D90008191280F311D64E0E134F607C9F7C901BC
:102DA0006AE070E00E9423176093410486EE92E08F
:102DB0000E9472086091410470E080E090E00E94FF
:102DC000020981EC91E00E9472080894811C911C18
:102DD00089E18816910440F080914104B301A20179
:102DE0000E94EE1088249924C1010197F1F714CFB5
:102DF000629FD001739FF001829FE00DF11D649FDF
:102E0000E00DF11D929FF00D839FF00D749FF00D6A
:102E1000659FF00D9927729FB00DE11DF91F639F0B
:102E2000B00DE11DF91FBD01CF0111240895991BBB
:102E300079E004C0991F961708F0961B881F7A95B1
:102E4000C9F780950895AA1BBB1B51E107C0AA1FB3
:102E5000BB1FA617B70710F0A61BB70B881F991F3B
:102E60005A95A9F780959095BC01CD010895A1E2EE
:102E70001A2EAA1BBB1BFD010DC0AA1FBB1FEE1FF4
:102E8000FF1FA217B307E407F50720F0A21BB30B3F
:102E9000E40BF50B661F771F881F991F1A9469F7BB
:102EA00060957095809590959B01AC01BD01CF0117
:102EB00008952F923F924F925F926F927F928F92DE
:102EC0009F92AF92BF92CF92DF92EF92FF920F93B9
:102ED0001F93CF93DF93CDB7DEB7CA1BDB0B0FB6C3
:102EE000F894DEBF0FBECDBF09942A883988488880
:102EF0005F846E847D848C849B84AA84B984C88416
:102F0000DF80EE80FD800C811B81AA81B981CE0F0C
:102F1000D11D0FB6F894DEBF0FBECDBFED010895F1
:102F2000EF92FF920F931F93F22FF02E47FD02C0F6
:102F3000E4E001C0E4E1242F332727FD309537FF7B
:102F400003C0309521953F4F4F2D512F0F2FEE2E5F
:102F50000E94151A8F2D912F1F910F91FF90EF90C6
:102F60000895FB019F01E8944230C4F04532B4F467
:102F70004A3029F497FB1EF4909581959F4F642F5A
:102F800077270E942317805D8A330CF0895D819337
:102F9000CB010097A1F716F45DE251931082C901AD
:102FA0000C94651CAEE0B0E0E8EDF7E10C94671717
:102FB0000D891E8986E08C831A8309838FEF9FE732
:102FC0009E838D839E01275E3F4FCE0101966F89C0
:102FD000788DA9010E9438182F813885020F131FA0
:102FE000F80110822E96E4E00C94831711F40EF48D
:102FF00014C505C524D5D0F39923D9F3CEF39F5733
:10300000550B87FF0DD50024A0E640EA90018058BB
:103010005695979528F4805C660F771F881F20F0DF
:1030200026173707480730F4621B730B840B2029DF
:1030300031294A2BA69517940794202531254A2734
:1030400058F7660F771F881F20F0261737074807A5
:1030500030F4620B730B840B200D311D411DA095C4
:1030600081F7B901842F9158880F96958795089517
:10307000ABE0B0E0EEE3F8E10C9459173C012B0112
:103080005A01FC0117821682838181FD03C06FEF14
:103090007FEFC6C19AE0892E1E010894211C311CC5
:1030A000F3012381F20123FD859123FF81912F01FB
:1030B000882309F4B2C1853239F423FD859123FFB9
:1030C00081912F01853229F490E0B3010E94751C93
:1030D000E7CF982FFF24EE249924FFE1FF15D0F0CD
:1030E0009B3269F09C3228F4903259F0933291F47B
:1030F0000EC09D3249F0903369F441E024C052E0A3
:10310000F52A84E0F82A28C098E0F92A25C0E0E1F1
:10311000FE2A22C0F7FC29C0892F80538A3070F420
:10312000F6FE05C0989C902C1124980E15C0E89CC2
:10313000E02C1124E80EF0E2FF2A0EC09E3229F4A2
:10314000F6FC6BC140E4F42A07C09C3619F450E841
:10315000F52A02C0983649F4F20123FD959123FF28
:1031600091912F01992309F0B8CF892F855483308D
:1031700018F08052833038F444E050E0A40EB51EBD
:103180005FE359830FC0933631F0933779F093356D
:1031900009F056C020C0F5018081898342E050E0EB
:1031A000A40EB51E610101E010E012C0F501C0805F
:1031B000D180F6FC03C06FEF7FEF02C0692D70E095
:1031C00042E050E0A40EB51EC6010E945A1C8C01BC
:1031D0005FE7F52214C0F501C080D180F6FC03C082
:1031E0006FEF7FEF02C0692D70E042E050E0A40E67
:1031F000B51EC6010E944F1C8C0150E8F52AF3FE53
:1032000007C01AC080E290E0B3010E94751CEA94E6
:103210008E2D90E008171907A8F30EC0F601F7FCF1
:103220008591F7FE81916F0190E0B3010E94751CBA
:10323000E110EA94015010400115110579F7EAC038
:10324000943611F0993669F5F7FE08C0F501208132
:1032500031814281538184E090E00AC0F501808190
:1032600091819C01442737FD4095542F82E090E0E6
:10327000A80EB91E9FE6F92257FF09C05095409548
:10328000309521953F4F4F4F5F4FE0E8FE2ACA012E
:10329000B901A1012AE030E00E94A11CD82ED21869
:1032A00040C0953729F41F2D1F7E2AE030E01DC055
:1032B0001F2D197F9F3661F0903720F4983509F063
:1032C000ACC00FC0903739F0983709F0A6C004C0E1
:1032D00028E030E00AC0106114FD146020E130E005
:1032E00004C014FD166020E132E017FF08C0F501AC
:1032F000608171818281938144E050E008C0F501D2
:1033000080819181BC0180E090E042E050E0A40E19
:10331000B51EA1010E94A11CD82ED2188FE7F82E4D
:10332000F122F6FE0BC05EEFF522D91438F4F4FE5C
:1033300007C0F2FC05C08FEEF82202C01D2D01C0AF
:10334000192DF4FE0DC0FE01ED0DF11D80818033BD
:1033500019F499EEF92208C01F5FF2FE05C003C000
:103360008F2D867809F01F5F0F2DF3FC14C0F0FE3F
:103370000FC01E1510F09D2C0BC09D2C9E0C911A99
:103380001E2D06C080E290E0B3010E94751C1F5FF5
:103390001E15C0F304C01E1510F4E11A01C0EE247E
:1033A00004FF0FC080E390E0B3010E94751C02FF90
:1033B0001DC001FD03C088E790E00EC088E590E0E5
:1033C0000BC0802F867891F001FF02C08BE201C014
:1033D00080E2F7FC8DE290E0B3010E94751C06C00C
:1033E00080E390E0B3010E94751C9A94D914C0F355
:1033F000DA94F101ED0DF11D808190E0B3010E949E
:10340000751CDD20A9F706C080E290E0B3010E94A0
:10341000751CEA94EE20C1F743CEF30166817781F3
:10342000CB012B96E2E10C947517A9E0B0E0EBE13B
:10343000FAE10C945D176A01122FA02EBE2C2BE32B
:10344000201718F42CE3922E02C0902E9394AE0114
:103450004F5F5F4F27E0092D0E94771BBC018981D8
:10346000E82EFF24C70189709070019711F4ADE236
:1034700009C0B1FE02C0ABE205C0B0FC02C0A0E0D2
:1034800001C0A0E2E3FE3BC0AA2311F423E001C087
:1034900024E0211710F020E002C0121B212FEB2C9A
:1034A000B4FE02C0322F0AC0F601322F80E202C001
:1034B000819331503323E1F7C20ED11CAA2319F0B6
:1034C000F601A1936F01F6013196E2FE05C09EE47C
:1034D000D6019C9381E404C09EE6D6019C9381E6CC
:1034E00011968C9391833296DF01832F90E202C074
:1034F0009D9381508823E1F7E30FF11D40C0E2FE68
:1035000042C0AA2311F423E001C024E0211710F0E7
:1035100020E002C0121B212FEB2CB4FE02C0922F20
:103520000AC0F601922F80E202C081939150992344
:10353000E1F7C20ED11CAA2319F0F601A1936F0185
:10354000F6013196E2FE08C089E4D6018C938EE440
:1035500011968C9386E407C089E6D6018C938EE69B
:1035600011968C9386E681833296DF01892F20E2C3
:1035700002C02D9381508823E1F7E90FF11D1082DD
:103580002EEF3FEFAFC0161617061CF041E050E0DB
:1035900003C0AB014F5F5F4FAA2019F480E090E0B9
:1035A00003C08A2D90E0019620E030E0AA2311F0BC
:1035B00021E030E0240F351F280F391F812F90E0C4
:1035C0002817390714F020E002C0121B212F4B2DC1
:1035D00050E0CA0180719070B4FC0DC0B3FC0BC008
:1035E000F601322F40E202C0419331503323E1F71C
:1035F000C20ED11C01C0322FAA2319F0F601A193EB
:103600006F01892B11F0132F0AC0F601132F80E3ED
:1036100002C0819311501123E1F7C30ED11C092D73
:10362000060FBA8090E1892E912C8E209F20E4FE17
:1036300004C0F1E3BF1609F40150101614F001E0C4
:1036400003C0093008F008E09B0177FF02C020E0CA
:1036500030E0CB010196821B930BFE013196E80FFF
:10366000F91F8EE2F82E3B01601A71088A2D90E056
:1036700044275527481B590B8FEF2F3F380719F464
:10368000D601FD926D01621773072CF06216730666
:1036900014F4808101C080E321503040319624171A
:1036A000350724F0D6018D936D01E6CF2617370735
:1036B00049F4B5E3BB1528F0BB1621F4811491043D
:1036C00009F481E3F6018193D601812F90E202C0D3
:1036D0009C93815011968823D9F7E10FF11D108238
:1036E00020E030E0C9012996EEE00C9479172830EB
:1036F00008F027E03327DA01990F311D87FD91602B
:1037000000966105710539F432602E5F3D9330E318
:103710002A95E1F708959F3F30F0803871056105E3
:1037200009F03C5F3C5F3D93913008F08068911D4B
:10373000DF93CF931F930F93FF92EF92192F987FF0
:103740009695E92F96959695E90FFF27E255FF4F3D
:1037500099273327EE24FF24A701E7010590089459
:10376000079428F4360FE71EF81E491F511D660FF7
:10377000771F881F991F0694A1F70590079428F4D6
:10378000E70EF81E491F561FC11D770F881F991F8E
:10379000661F0694A1F70590079428F4F80E491FB8
:1037A000561FC71FD11D880F991F661F771F0694CC
:1037B000A1F70590079420F4490F561FC71FD81F83
:1037C000990F661F771F881F0694A9F7849110959B
:1037D000177041F0D695C79557954795F794E7949C
:1037E0001A95C1F7E4E5F0E06894159015913591CC
:1037F0006591959105907FE27395E118F10A430B6D
:10380000560BC90BD009C0F7E10CF11E431F561F20
:10381000C91FD01D7EF4703311F48A95E6CFE89469
:10382000015030F0080F0AF40027021708F4202F87
:103830002395022F7A3328F079E37D932A95E9F7CF
:1038400010C07D932A9589F60694979567953795CC
:1038500017951794E118F10A430B560BC90BD009C1
:1038600098F023957E9173957A3308F070E37C93FA
:103870002013B8F77E9170617D9330F0839571E3EA
:103880007D9370E32A95E1F71124EF90FF900F915B
:103890001F91CF91DF91992787FD90950895FC01A5
:1038A0000590615070400110D8F7809590958E0F6B
:1038B0009F1F0895FC016150704001900110D8F7DE
:1038C000809590958E0F9F1F0895DC01FC01672F56
:1038D00071917723E1F7329704C07C916D937083E7
:1038E0006291AE17BF07C8F308950F931F93CF934C
:1038F000DF938C01EB018B8181FF1BC082FF0DC028
:103900002E813F818C819D812817390764F4E881DD
:10391000F9810193F983E88306C0E885F985802F52
:103920000995892B31F48E819F8101969F838E8327
:1039300002C00FEF1FEFC801DF91CF911F910F91D0
:103940000895FA01AA27283051F1203181F1E89435
:103950006F936E7F6E5F7F4F8F4F9F4FAF4FB1E082
:103960003ED0B4E03CD0670F781F891F9A1FA11D7D
:10397000680F791F8A1F911DA11D6A0F711D811D7E
:10398000911DA11D20D009F468943F912AE0269F43
:1039900011243019305D3193DEF6CF010895462FA2
:1039A0004770405D4193B3E00FD0C9F7F6CF462F83
:1039B0004F70405D4A3318F0495D31FD40524193EC
:1039C00002D0A9F7EACFB4E0A695979587957795A9
:1039D0006795BA95C9F700976105710508959B0130
:1039E000AC010A2E06945795479537952795BA95B9
:1039F000C9F7620F731F841F951FA01D08959F3F75
:103A000031F0915020F4879577956795B795880F99
:103A1000911D9695879597F908959FEF80EC0895ED
:103A200091505040660F771F881FD2F7089557FDB9
:103A30009058440F551F59F05F3F71F04795880F1C
:103A400097FB991F61F09F3F79F0879508951216B3
:103A500013061406551FF2CF4695F1DF08C016165F
:103A600017061806991FF1CF869571056105089410
:063A70000895F894FFCF59
:103A76002D002E00256C75000D0A004143433A20A7
:103A860000200020204759524F3A200042504D3A1C
:103A96002000202020005261772049523A20002041
:103AA6007C2053746174653A2000506C6163652014
:103AB60046696E67657220202020004E6F20466999
:103AC6006E6765722044657465637465640D0A00EB
:103AD60050726F63657373696E672E2E2E202020D9
:103AE6000043616C63756C6174696E672042504D6A
:103AF6002E2E2E0D0A004C6F7720486561727420B9
:103B0600526174652020004C6F772048656172749D
:103B160020526174650D0A004E6F726D616C205201
:103B26006174652020202020004E6F726D616C202C
:103B3600486561727420526174650D0A00486967B0
:103B46006820486561727420526174652000486976
:103B5600676820486561727420526174650D0A00B9
:103B66002D2D2D2D2D2D2D2D2D2D2D2D2D2D2D2D7F
:103B76002D2D2D2D0D0A0053797374656D20537408
:103B8600616E6462793A2046616C6C206465746586
:103B96006374696F6E20746F2073746172742E2E55
:103BA6002E0D0A0041783A2000207C2041793A20E7
:103BB60000207C20417A3A20002D2D2D47783A208E
:103BC60000207C2047793A2000207C20477A3A2042
:103BD600000D0A000D0A3D3D3D3D3D3D3D3D3D3D4F
:103BE6003D3D3D3D3D3D3D3D3D4672656520466161
:103BF6006C6C204465746563746564213D3D3D3D90
:103C06003D3D3D3D3D3D3D3D3D3D3D0D0A000D0AE1
:103C16003D3D3D3D3D3D3D3D3D3D3D3D3D3D3D3DCE
:103C26003D3D3D496D706163742044657465637400
:103C36006564213D3D3D3D3D3D3D3D3D3D3D3D3D7B
:103C46003D3D3D3D3D3D0D0A000D0A3D3D3D3D3DA1
:103C56003D3D3D3D3D3D3D3D3D3D3D3D3D3D414C7B
:103C660041524D3A2046414C4C20434F4E46495214
:103C76004D4544213D3D3D3D3D3D3D3D3D3D3D3D6B
:103C86003D3D3D3D3D3D3D0D0A0052656164696E19
:103C960067204865617274626561742E2E2E0D0A66
:103CA6000053797374656D20496E697469616C6936
:103CB6007A65642E20506C6163652046696E67657F
:103CC600722E2E2E0D0A00526573657474696E6726
:103CD6002064756520746F20696E61637469766906
:103CE60074792E2E2E0D0A0044656C74613A2000FC
:103CF600206D730D0A0042504D204465746563744F
:103D060065643A2000000000000000000000010287
:103D16000203030303040404040404040405050560
:103D2600050505050505050505050505050606063A
:103D3600060606060606060606060606060606061D
:103D4600060606060606060606060606060707070A
:103D560007070707070707070707070707070707ED
:103D660007070707070707070707070707070707DD
:103D760007070707070707070707070707070707CD
:103D860007070707070707070707070707080808BA
:103D9600080808080808080808080808080808089D
:103DA600080808080808080808080808080808088D
:103DB600080808080808080808080808080808087D
:103DC600080808080808080808080808080808086D
:103DD600080808080808080808080808080808085D
:103DE600080808080808080808080808080808084D
:103DF600080808080808080808080808080808083D
:0E3E0600080808080808080808080808080046
:00000001FF
